{
  "contractName": "CredentialManager",
  "abi": [
    {
      "inputs": [],
      "stateMutability": "nonpayable",
      "type": "constructor"
    },
    {
      "anonymous": false,
      "inputs": [
        {
          "indexed": false,
          "internalType": "uint256",
          "name": "_level",
          "type": "uint256"
        },
        {
          "indexed": false,
          "internalType": "uint256",
          "name": "_entityId",
          "type": "uint256"
        },
        {
          "indexed": false,
          "internalType": "address",
          "name": "_authorityId",
          "type": "address"
        }
      ],
      "name": "NewAuthority",
      "type": "event"
    },
    {
      "anonymous": false,
      "inputs": [
        {
          "indexed": false,
          "internalType": "uint256",
          "name": "_id",
          "type": "uint256"
        },
        {
          "indexed": false,
          "internalType": "string",
          "name": "_credentials",
          "type": "string"
        },
        {
          "indexed": false,
          "internalType": "address",
          "name": "_registeredBy",
          "type": "address"
        },
        {
          "indexed": false,
          "internalType": "uint256",
          "name": "_dstnId",
          "type": "uint256"
        },
        {
          "indexed": false,
          "internalType": "uint256",
          "name": "_statusCode",
          "type": "uint256"
        }
      ],
      "name": "NewBeneficiary",
      "type": "event"
    },
    {
      "anonymous": false,
      "inputs": [
        {
          "indexed": false,
          "internalType": "uint256",
          "name": "_id",
          "type": "uint256"
        },
        {
          "indexed": false,
          "internalType": "string",
          "name": "_name",
          "type": "string"
        },
        {
          "indexed": false,
          "internalType": "uint256",
          "name": "_stateId",
          "type": "uint256"
        }
      ],
      "name": "NewDistrict",
      "type": "event"
    },
    {
      "anonymous": false,
      "inputs": [
        {
          "indexed": false,
          "internalType": "uint256",
          "name": "_id",
          "type": "uint256"
        },
        {
          "indexed": false,
          "internalType": "string",
          "name": "_name",
          "type": "string"
        },
        {
          "indexed": false,
          "internalType": "uint256",
          "name": "_districtId",
          "type": "uint256"
        }
      ],
      "name": "NewDstnPoint",
      "type": "event"
    },
    {
      "anonymous": false,
      "inputs": [
        {
          "indexed": false,
          "internalType": "uint256",
          "name": "_id",
          "type": "uint256"
        },
        {
          "indexed": false,
          "internalType": "string",
          "name": "_name",
          "type": "string"
        }
      ],
      "name": "NewState",
      "type": "event"
    },
    {
      "inputs": [
        {
          "internalType": "uint256",
          "name": "",
          "type": "uint256"
        }
      ],
      "name": "beneficiaries",
      "outputs": [
        {
          "internalType": "uint256",
          "name": "id",
          "type": "uint256"
        },
        {
          "internalType": "uint256",
          "name": "dstnId",
          "type": "uint256"
        },
        {
          "internalType": "string",
          "name": "credentials",
          "type": "string"
        },
        {
          "internalType": "bool",
          "name": "isRegistered",
          "type": "bool"
        }
      ],
      "stateMutability": "view",
      "type": "function",
      "constant": true
    },
    {
      "inputs": [],
      "name": "beneficiaryCount",
      "outputs": [
        {
          "internalType": "uint256",
          "name": "",
          "type": "uint256"
        }
      ],
      "stateMutability": "view",
      "type": "function",
      "constant": true
    },
    {
      "inputs": [],
      "name": "centralAuthId",
      "outputs": [
        {
          "internalType": "address",
          "name": "",
          "type": "address"
        }
      ],
      "stateMutability": "view",
      "type": "function",
      "constant": true
    },
    {
      "inputs": [
        {
          "internalType": "uint256",
          "name": "",
          "type": "uint256"
        }
      ],
      "name": "districts",
      "outputs": [
        {
          "internalType": "uint256",
          "name": "id",
          "type": "uint256"
        },
        {
          "internalType": "uint256",
          "name": "stateId",
          "type": "uint256"
        },
        {
          "internalType": "string",
          "name": "name",
          "type": "string"
        }
      ],
      "stateMutability": "view",
      "type": "function",
      "constant": true
    },
    {
      "inputs": [
        {
          "internalType": "uint256",
          "name": "",
          "type": "uint256"
        }
      ],
      "name": "dstnPoints",
      "outputs": [
        {
          "internalType": "uint256",
          "name": "id",
          "type": "uint256"
        },
        {
          "internalType": "uint256",
          "name": "districtId",
          "type": "uint256"
        },
        {
          "internalType": "string",
          "name": "name",
          "type": "string"
        }
      ],
      "stateMutability": "view",
      "type": "function",
      "constant": true
    },
    {
      "inputs": [
        {
          "internalType": "uint256",
          "name": "",
          "type": "uint256"
        }
      ],
      "name": "states",
      "outputs": [
        {
          "internalType": "uint256",
          "name": "id",
          "type": "uint256"
        },
        {
          "internalType": "string",
          "name": "name",
          "type": "string"
        }
      ],
      "stateMutability": "view",
      "type": "function",
      "constant": true
    },
    {
      "inputs": [
        {
          "internalType": "string",
          "name": "_name",
          "type": "string"
        }
      ],
      "name": "addState",
      "outputs": [],
      "stateMutability": "nonpayable",
      "type": "function"
    },
    {
      "inputs": [
        {
          "internalType": "string",
          "name": "_districtName",
          "type": "string"
        },
        {
          "internalType": "uint256",
          "name": "_stateId",
          "type": "uint256"
        }
      ],
      "name": "addDistrict",
      "outputs": [],
      "stateMutability": "nonpayable",
      "type": "function"
    },
    {
      "inputs": [
        {
          "internalType": "string",
          "name": "_dstnPointName",
          "type": "string"
        },
        {
          "internalType": "uint256",
          "name": "_districtId",
          "type": "uint256"
        }
      ],
      "name": "addDstnPoint",
      "outputs": [],
      "stateMutability": "nonpayable",
      "type": "function"
    },
    {
      "inputs": [
        {
          "internalType": "uint256",
          "name": "_id",
          "type": "uint256"
        },
        {
          "internalType": "string",
          "name": "_credentials",
          "type": "string"
        },
        {
          "internalType": "uint256",
          "name": "_dstnId",
          "type": "uint256"
        },
        {
          "internalType": "bytes32",
          "name": "_token",
          "type": "bytes32"
        }
      ],
      "name": "addBeneficiary",
      "outputs": [],
      "stateMutability": "nonpayable",
      "type": "function"
    },
    {
      "inputs": [
        {
          "internalType": "uint256",
          "name": "_dstnPointId",
          "type": "uint256"
        }
      ],
      "name": "getBeneficiaries",
      "outputs": [
        {
          "internalType": "uint256[]",
          "name": "",
          "type": "uint256[]"
        }
      ],
      "stateMutability": "view",
      "type": "function",
      "constant": true
    },
    {
      "inputs": [
        {
          "internalType": "uint256",
          "name": "_level",
          "type": "uint256"
        },
        {
          "internalType": "uint256",
          "name": "_entityId",
          "type": "uint256"
        },
        {
          "internalType": "address",
          "name": "_authorityId",
          "type": "address"
        }
      ],
      "name": "addAuthority",
      "outputs": [],
      "stateMutability": "nonpayable",
      "type": "function"
    },
    {
      "inputs": [
        {
          "internalType": "string",
          "name": "_type",
          "type": "string"
        },
        {
          "internalType": "address",
          "name": "_signer",
          "type": "address"
        },
        {
          "internalType": "uint256",
          "name": "_entityId",
          "type": "uint256"
        }
      ],
      "name": "authorizeSigner",
      "outputs": [
        {
          "internalType": "bool",
          "name": "",
          "type": "bool"
        }
      ],
      "stateMutability": "view",
      "type": "function",
      "constant": true
    }
  ],
  "bytecode": "0x60806040526040518060400160405280601181526020017f6964656e746966794063617073746f6e65000000000000000000000000000000815250600090805190602001906200005192919062000d74565b5073f17f52151ebef6c7334fad080c5704d77216b732600160006101000a81548173ffffffffffffffffffffffffffffffffffffffff021916908373ffffffffffffffffffffffffffffffffffffffff160217905550348015620000b457600080fd5b5060006040518061038001604052806040518060400160405280600e81526020017f416e64687261205072616465736800000000000000000000000000000000000081525081526020016040518060400160405280601181526020017f4172756e616368616c205072616465736800000000000000000000000000000081525081526020016040518060400160405280600581526020017f417373616d00000000000000000000000000000000000000000000000000000081525081526020016040518060400160405280600581526020017f426968617200000000000000000000000000000000000000000000000000000081525081526020016040518060400160405280600c81526020017f436868617474697367617268000000000000000000000000000000000000000081525081526020016040518060400160405280600381526020017f476f61000000000000000000000000000000000000000000000000000000000081525081526020016040518060400160405280600781526020017f47756a617261740000000000000000000000000000000000000000000000000081525081526020016040518060400160405280600781526020017f48617279616e610000000000000000000000000000000000000000000000000081525081526020016040518060400160405280601081526020017f48696d616368616c20507261646573680000000000000000000000000000000081525081526020016040518060400160405280600981526020017f4a6861726b68616e64000000000000000000000000000000000000000000000081525081526020016040518060400160405280600981526020017f4b61726e6174616b61000000000000000000000000000000000000000000000081525081526020016040518060400160405280600681526020017f4b6572616c61000000000000000000000000000000000000000000000000000081525081526020016040518060400160405280600e81526020017f4d6164687961205072616465736800000000000000000000000000000000000081525081526020016040518060400160405280600b81526020017f4d6168617261736874726100000000000000000000000000000000000000000081525081526020016040518060400160405280600781526020017f4d616e697075720000000000000000000000000000000000000000000000000081525081526020016040518060400160405280600981526020017f4d656768616c617961000000000000000000000000000000000000000000000081525081526020016040518060400160405280600781526020017f4d697a6f72616d0000000000000000000000000000000000000000000000000081525081526020016040518060400160405280600881526020017f4e6167616c616e6400000000000000000000000000000000000000000000000081525081526020016040518060400160405280600681526020017f4f6469736861000000000000000000000000000000000000000000000000000081525081526020016040518060400160405280600681526020017f50756e6a6162000000000000000000000000000000000000000000000000000081525081526020016040518060400160405280600981526020017f52616a61737468616e000000000000000000000000000000000000000000000081525081526020016040518060400160405280600681526020017f53696b6b696d000000000000000000000000000000000000000000000000000081525081526020016040518060400160405280600a81526020017f54616d696c204e6164750000000000000000000000000000000000000000000081525081526020016040518060400160405280600981526020017f54656c616e67616e61000000000000000000000000000000000000000000000081525081526020016040518060400160405280600781526020017f547269707572610000000000000000000000000000000000000000000000000081525081526020016040518060400160405280600d81526020017f557474617220507261646573680000000000000000000000000000000000000081525081526020016040518060400160405280600b81526020017f5574746172616b68616e6400000000000000000000000000000000000000000081525081526020016040518060400160405280600b81526020017f576573742042656e67616c000000000000000000000000000000000000000000815250815250905060005b601c811015620007a957620007938282601c811062000782577f4e487b7100000000000000000000000000000000000000000000000000000000600052603260045260246000fd5b602002015162000a9e60201b60201c565b8080620007a09062001018565b9150506200073a565b600060405180608001604052806040518060400160405280600281526020017f643100000000000000000000000000000000000000000000000000000000000081525081526020016040518060400160405280600281526020017f643200000000000000000000000000000000000000000000000000000000000081525081526020016040518060400160405280600281526020017f643300000000000000000000000000000000000000000000000000000000000081525081526020016040518060400160405280600281526020017f64340000000000000000000000000000000000000000000000000000000000008152508152509050600091505b6004821015620009185762000902818360048110620008ef577f4e487b7100000000000000000000000000000000000000000000000000000000600052603260045260246000fd5b6020020151600162000b8860201b60201c565b81806200090f9062001018565b925050620008a7565b600060405180608001604052806040518060400160405280600481526020017f64702d310000000000000000000000000000000000000000000000000000000081525081526020016040518060400160405280600481526020017f64702d320000000000000000000000000000000000000000000000000000000081525081526020016040518060400160405280600481526020017f64702d330000000000000000000000000000000000000000000000000000000081525081526020016040518060400160405280600481526020017f64702d34000000000000000000000000000000000000000000000000000000008152508152509050600092505b600483101562000a945762000a7e81846004811062000a5e577f4e487b7100000000000000000000000000000000000000000000000000000000600052603260045260246000fd5b602002015160018562000a72919062000f0a565b62000c7e60201b60201c565b828062000a8b9062001018565b93505062000a16565b50505050620010d5565b60066001816001815401808255809150500390600052602060002090505060006006600160068054905062000ad4919062000f67565b8154811062000b0c577f4e487b7100000000000000000000000000000000000000000000000000000000600052603260045260246000fd5b9060005260206000209060030201905060068054905081600001819055508181600201908051906020019062000b4492919062000d74565b507f5118442027d611358f8561ea9534df2708a1f1b1480bc00a177481644a71cb3181600001548360405162000b7c92919062000e76565b60405180910390a15050565b60056001816001815401808255809150500390600052602060002090505060006005600160058054905062000bbe919062000f67565b8154811062000bf6577f4e487b7100000000000000000000000000000000000000000000000000000000600052603260045260246000fd5b9060005260206000209060040201905060058054905081600001819055508281600301908051906020019062000c2e92919062000d74565b508181600101819055507f5a455249f9b31b8e5c44c592ae8a4c1b2687a6e66d02ab5f4faf66649de945ed8160000154848460405162000c719392919062000eaa565b60405180910390a1505050565b60046001816001815401808255809150500390600052602060002090505060006004600160048054905062000cb4919062000f67565b8154811062000cec577f4e487b7100000000000000000000000000000000000000000000000000000000600052603260045260246000fd5b9060005260206000209060050201905060048054905081600001819055508281600401908051906020019062000d2492919062000d74565b508181600101819055507f357047ddfe6d3d71d9ffe78fbdf6def0d4735bfcaddf764c0d5b5307b02228788160000154848460405162000d679392919062000eaa565b60405180910390a1505050565b82805462000d829062000fe2565b90600052602060002090601f01602090048101928262000da6576000855562000df2565b82601f1062000dc157805160ff191683800117855562000df2565b8280016001018555821562000df2579182015b8281111562000df157825182559160200191906001019062000dd4565b5b50905062000e01919062000e05565b5090565b5b8082111562000e2057600081600090555060010162000e06565b5090565b600062000e318262000eee565b62000e3d818562000ef9565b935062000e4f81856020860162000fac565b62000e5a81620010c4565b840191505092915050565b62000e708162000fa2565b82525050565b600060408201905062000e8d600083018562000e65565b818103602083015262000ea1818462000e24565b90509392505050565b600060608201905062000ec1600083018662000e65565b818103602083015262000ed5818562000e24565b905062000ee6604083018462000e65565b949350505050565b600081519050919050565b600082825260208201905092915050565b600062000f178262000fa2565b915062000f248362000fa2565b9250827fffffffffffffffffffffffffffffffffffffffffffffffffffffffffffffffff0382111562000f5c5762000f5b62001066565b5b828201905092915050565b600062000f748262000fa2565b915062000f818362000fa2565b92508282101562000f975762000f9662001066565b5b828203905092915050565b6000819050919050565b60005b8381101562000fcc57808201518184015260208101905062000faf565b8381111562000fdc576000848401525b50505050565b6000600282049050600182168062000ffb57607f821691505b6020821081141562001012576200101162001095565b5b50919050565b6000620010258262000fa2565b91507fffffffffffffffffffffffffffffffffffffffffffffffffffffffffffffffff8214156200105b576200105a62001066565b5b600182019050919050565b7f4e487b7100000000000000000000000000000000000000000000000000000000600052601160045260246000fd5b7f4e487b7100000000000000000000000000000000000000000000000000000000600052602260045260246000fd5b6000601f19601f8301169050919050565b61224b80620010e56000396000f3fe608060405234801561001057600080fd5b50600436106100cf5760003560e01c80638d1e2d0c1161008c578063daa3b67b11610066578063daa3b67b14610213578063e77995e014610243578063efeb5e5814610275578063f3f98c4b146102a8576100cf565b80638d1e2d0c146101a75780638f971f03146101d957806399dea894146101f7576100cf565b8063017a9105146100d457806311af53af146101055780632a34ede1146101215780634fab34561461013d578063734b2a7c14610159578063783804d914610177575b600080fd5b6100ee60048036038101906100e991906115b9565b6102c4565b6040516100fc929190611b07565b60405180910390f35b61011f600480360381019061011a919061165d565b610380565b005b61013b600480360381019061013691906114bd565b61063e565b005b61015760048036038101906101529190611565565b610721565b005b610161610810565b60405161016e9190611aec565b60405180910390f35b610191600480360381019061018c91906115b9565b610816565b60405161019e91906119cd565b60405180910390f35b6101c160048036038101906101bc91906115b9565b61099b565b6040516101d093929190611d14565b60405180910390f35b6101e1610a5d565b6040516101ee91906119b2565b60405180910390f35b610211600480360381019061020c9190611565565b610a83565b005b61022d600480360381019061022891906114fe565b610b72565b60405161023a91906119ef565b60405180910390f35b61025d600480360381019061025891906115b9565b610f0b565b60405161026c93929190611d14565b60405180910390f35b61028f600480360381019061028a91906115b9565b610fcd565b60405161029f9493929190611d52565b60405180910390f35b6102c260048036038101906102bd91906115e2565b611092565b005b600681815481106102d457600080fd5b90600052602060002090600302016000915090508060000154908060020180546102fd90611fcf565b80601f016020809104026020016040519081016040528092919081815260200182805461032990611fcf565b80156103765780601f1061034b57610100808354040283529160200191610376565b820191906000526020600020905b81548152906001019060200180831161035957829003601f168201915b5050505050905082565b6000831180156103905750600483105b6103cf576040517f08c379a00000000000000000000000000000000000000000000000000000000081526004016103c690611a6c565b60405180910390fd5b600183141561048a57600160066001846103e99190611ebf565b81548110610420577f4e487b7100000000000000000000000000000000000000000000000000000000600052603260045260246000fd5b906000526020600020906003020160010160008373ffffffffffffffffffffffffffffffffffffffff1673ffffffffffffffffffffffffffffffffffffffff16815260200190815260200160002060006101000a81548160ff0219169083151502179055506105fe565b600283141561054557600160056001846104a49190611ebf565b815481106104db577f4e487b7100000000000000000000000000000000000000000000000000000000600052603260045260246000fd5b906000526020600020906004020160020160008373ffffffffffffffffffffffffffffffffffffffff1673ffffffffffffffffffffffffffffffffffffffff16815260200190815260200160002060006101000a81548160ff0219169083151502179055506105fd565b60038314156105fc576001600460018461055f9190611ebf565b81548110610596577f4e487b7100000000000000000000000000000000000000000000000000000000600052603260045260246000fd5b906000526020600020906005020160030160008373ffffffffffffffffffffffffffffffffffffffff1673ffffffffffffffffffffffffffffffffffffffff16815260200190815260200160002060006101000a81548160ff0219169083151502179055505b5b5b7feed4f6de47397d103ceffd01744ea7c5f2a30696d73adecea2bca5665efd77d283838360405161063193929190611cdd565b60405180910390a1505050565b6006600181600181540180825580915050039060005260206000209050506000600660016006805490506106729190611ebf565b815481106106a9577f4e487b7100000000000000000000000000000000000000000000000000000000600052603260045260246000fd5b906000526020600020906003020190506006805490508160000181905550818160020190805190602001906106df929190611373565b507f5118442027d611358f8561ea9534df2708a1f1b1480bc00a177481644a71cb31816000015483604051610715929190611b07565b60405180910390a15050565b6005600181600181540180825580915050039060005260206000209050506000600560016005805490506107559190611ebf565b8154811061078c577f4e487b7100000000000000000000000000000000000000000000000000000000600052603260045260246000fd5b906000526020600020906004020190506005805490508160000181905550828160030190805190602001906107c2929190611373565b508181600101819055507f5a455249f9b31b8e5c44c592ae8a4c1b2687a6e66d02ab5f4faf66649de945ed8160000154848460405161080393929190611c9f565b60405180910390a1505050565b60035481565b606060006003541161089957600067ffffffffffffffff811115610863577f4e487b7100000000000000000000000000000000000000000000000000000000600052604160045260246000fd5b6040519080825280602002602001820160405280156108915781602001602082028036833780820191505090505b509050610996565b600082101580156108ae575060048054905082105b6108ed576040517f08c379a00000000000000000000000000000000000000000000000000000000081526004016108e490611acc565b60405180910390fd5b60046001836108fc9190611ebf565b81548110610933577f4e487b7100000000000000000000000000000000000000000000000000000000600052603260045260246000fd5b906000526020600020906005020160020180548060200260200160405190810160405280929190818152602001828054801561098e57602002820191906000526020600020905b81548152602001906001019080831161097a575b505050505090505b919050565b600481815481106109ab57600080fd5b90600052602060002090600502016000915090508060000154908060010154908060040180546109da90611fcf565b80601f0160208091040260200160405190810160405280929190818152602001828054610a0690611fcf565b8015610a535780601f10610a2857610100808354040283529160200191610a53565b820191906000526020600020905b815481529060010190602001808311610a3657829003601f168201915b5050505050905083565b600160009054906101000a900473ffffffffffffffffffffffffffffffffffffffff1681565b600460018160018154018082558091505003906000526020600020905050600060046001600480549050610ab79190611ebf565b81548110610aee577f4e487b7100000000000000000000000000000000000000000000000000000000600052603260045260246000fd5b90600052602060002090600502019050600480549050816000018190555082816004019080519060200190610b24929190611373565b508181600101819055507f357047ddfe6d3d71d9ffe78fbdf6def0d4735bfcaddf764c0d5b5307b022287881600001548484604051610b6593929190611c9f565b60405180910390a1505050565b600080604051602001610b8490611a4c565b6040516020818303038152906040528051906020012085604051602001610bab9190611a0a565b604051602081830303815290604052805190602001201415610c1b578373ffffffffffffffffffffffffffffffffffffffff16600160009054906101000a900473ffffffffffffffffffffffffffffffffffffffff1673ffffffffffffffffffffffffffffffffffffffff161490505b604051602001610c2a90611a8c565b6040516020818303038152906040528051906020012085604051602001610c519190611a0a565b604051602081830303815290604052805190602001201415610d12576006600184610c7c9190611ebf565b81548110610cb3577f4e487b7100000000000000000000000000000000000000000000000000000000600052603260045260246000fd5b906000526020600020906003020160010160008573ffffffffffffffffffffffffffffffffffffffff1673ffffffffffffffffffffffffffffffffffffffff16815260200190815260200160002060009054906101000a900460ff1690505b604051602001610d2190611a2c565b6040516020818303038152906040528051906020012085604051602001610d489190611a0a565b604051602081830303815290604052805190602001201415610e09576005600184610d739190611ebf565b81548110610daa577f4e487b7100000000000000000000000000000000000000000000000000000000600052603260045260246000fd5b906000526020600020906004020160020160008573ffffffffffffffffffffffffffffffffffffffff1673ffffffffffffffffffffffffffffffffffffffff16815260200190815260200160002060009054906101000a900460ff1690505b604051602001610e1890611aac565b6040516020818303038152906040528051906020012085604051602001610e3f9190611a0a565b604051602081830303815290604052805190602001201415610f00576004600184610e6a9190611ebf565b81548110610ea1577f4e487b7100000000000000000000000000000000000000000000000000000000600052603260045260246000fd5b906000526020600020906005020160030160008573ffffffffffffffffffffffffffffffffffffffff1673ffffffffffffffffffffffffffffffffffffffff16815260200190815260200160002060009054906101000a900460ff1690505b809150509392505050565b60058181548110610f1b57600080fd5b9060005260206000209060040201600091509050806000015490806001015490806003018054610f4a90611fcf565b80601f0160208091040260200160405190810160405280929190818152602001828054610f7690611fcf565b8015610fc35780601f10610f9857610100808354040283529160200191610fc3565b820191906000526020600020905b815481529060010190602001808311610fa657829003601f168201915b5050505050905083565b6002602052806000526040600020600091509050806000015490806001015490806002018054610ffc90611fcf565b80601f016020809104026020016040519081016040528092919081815260200182805461102890611fcf565b80156110755780601f1061104a57610100808354040283529160200191611075565b820191906000526020600020905b81548152906001019060200180831161105857829003601f168201915b5050505050908060030160009054906101000a900460ff16905084565b6110d26040518060400160405280600c81526020017f446973746e2e20506f696e7400000000000000000000000000000000000000008152503384610b72565b1561132b576002600085815260200190815260200160002060030160009054906101000a900460ff1615611146577f9073ef80421a7d39d83c448352596e1d1ff5a354b962bd3e569225ddc3f12f9484843385610199604051611139959493929190611c45565b60405180910390a1611326565b80848385600060405160200161115f949392919061196c565b6040516020818303038152906040528051906020012014156112e357600460018361118a9190611ebf565b815481106111c1577f4e487b7100000000000000000000000000000000000000000000000000000000600052603260045260246000fd5b90600052602060002090600502016002018490806001815401808255809150506001900390600052602060002001600090919091909150556040518060800160405280858152602001838152602001848152602001600115158152506002600086815260200190815260200160002060008201518160000155602082015181600101556040820151816002019080519060200190611260929190611373565b5060608201518160030160006101000a81548160ff0219169083151502179055509050506001600360008282546112979190611e69565b925050819055507f9073ef80421a7d39d83c448352596e1d1ff5a354b962bd3e569225ddc3f12f948484338560c86040516112d6959493929190611b37565b60405180910390a1611325565b7f9073ef80421a7d39d83c448352596e1d1ff5a354b962bd3e569225ddc3f12f948484338561019360405161131c959493929190611beb565b60405180910390a15b5b61136d565b7f9073ef80421a7d39d83c448352596e1d1ff5a354b962bd3e569225ddc3f12f9484843385610191604051611364959493929190611b91565b60405180910390a15b50505050565b82805461137f90611fcf565b90600052602060002090601f0160209004810192826113a157600085556113e8565b82601f106113ba57805160ff19168380011785556113e8565b828001600101855582156113e8579182015b828111156113e75782518255916020019190600101906113cc565b5b5090506113f591906113f9565b5090565b5b808211156114125760008160009055506001016113fa565b5090565b600061142961142484611dc3565b611d9e565b90508281526020810184848401111561144157600080fd5b61144c848285611f8d565b509392505050565b600081359050611463816121d0565b92915050565b600081359050611478816121e7565b92915050565b600082601f83011261148f57600080fd5b813561149f848260208601611416565b91505092915050565b6000813590506114b7816121fe565b92915050565b6000602082840312156114cf57600080fd5b600082013567ffffffffffffffff8111156114e957600080fd5b6114f58482850161147e565b91505092915050565b60008060006060848603121561151357600080fd5b600084013567ffffffffffffffff81111561152d57600080fd5b6115398682870161147e565b935050602061154a86828701611454565b925050604061155b868287016114a8565b9150509250925092565b6000806040838503121561157857600080fd5b600083013567ffffffffffffffff81111561159257600080fd5b61159e8582860161147e565b92505060206115af858286016114a8565b9150509250929050565b6000602082840312156115cb57600080fd5b60006115d9848285016114a8565b91505092915050565b600080600080608085870312156115f857600080fd5b6000611606878288016114a8565b945050602085013567ffffffffffffffff81111561162357600080fd5b61162f8782880161147e565b9350506040611640878288016114a8565b925050606061165187828801611469565b91505092959194509250565b60008060006060848603121561167257600080fd5b6000611680868287016114a8565b9350506020611691868287016114a8565b92505060406116a286828701611454565b9150509250925092565b60006116b88383611937565b60208301905092915050565b6116cd81611ef3565b82525050565b60006116de82611e19565b6116e88185611e3c565b93506116f383611df4565b8060005b8381101561172457815161170b88826116ac565b975061171683611e2f565b9250506001810190506116f7565b5085935050505092915050565b61173a81611f05565b82525050565b61174981611f45565b82525050565b61175881611f57565b82525050565b61176781611f69565b82525050565b61177681611f7b565b82525050565b600061178782611e24565b6117918185611e4d565b93506117a1818560208601611f9c565b6117aa816120c9565b840191505092915050565b60006117c082611e24565b6117ca8185611e5e565b93506117da818560208601611f9c565b80840191505092915050565b600081546117f381611fcf565b6117fd8186611e5e565b9450600182166000811461181857600181146118295761185c565b60ff1983168652818601935061185c565b61183285611e04565b60005b8381101561185457815481890152600182019150602081019050611835565b838801955050505b50505092915050565b6000611872600883611e4d565b915061187d826120da565b602082019050919050565b6000611895600783611e4d565b91506118a082612103565b602082019050919050565b60006118b8600d83611e4d565b91506118c38261212c565b602082019050919050565b60006118db600583611e4d565b91506118e682612155565b602082019050919050565b60006118fe600c83611e4d565b91506119098261217e565b602082019050919050565b6000611921601c83611e4d565b915061192c826121a7565b602082019050919050565b61194081611f3b565b82525050565b61194f81611f3b565b82525050565b61196661196182611f3b565b612032565b82525050565b60006119788287611955565b6020820191506119888286611955565b60208201915061199882856117b5565b91506119a482846117e6565b915081905095945050505050565b60006020820190506119c760008301846116c4565b92915050565b600060208201905081810360008301526119e781846116d3565b905092915050565b6000602082019050611a046000830184611731565b92915050565b60006020820190508181036000830152611a24818461177c565b905092915050565b60006020820190508181036000830152611a4581611865565b9050919050565b60006020820190508181036000830152611a6581611888565b9050919050565b60006020820190508181036000830152611a85816118ab565b9050919050565b60006020820190508181036000830152611aa5816118ce565b9050919050565b60006020820190508181036000830152611ac5816118f1565b9050919050565b60006020820190508181036000830152611ae581611914565b9050919050565b6000602082019050611b016000830184611946565b92915050565b6000604082019050611b1c6000830185611946565b8181036020830152611b2e818461177c565b90509392505050565b600060a082019050611b4c6000830188611946565b8181036020830152611b5e818761177c565b9050611b6d60408301866116c4565b611b7a6060830185611946565b611b876080830184611740565b9695505050505050565b600060a082019050611ba66000830188611946565b8181036020830152611bb8818761177c565b9050611bc760408301866116c4565b611bd46060830185611946565b611be1608083018461174f565b9695505050505050565b600060a082019050611c006000830188611946565b8181036020830152611c12818761177c565b9050611c2160408301866116c4565b611c2e6060830185611946565b611c3b608083018461175e565b9695505050505050565b600060a082019050611c5a6000830188611946565b8181036020830152611c6c818761177c565b9050611c7b60408301866116c4565b611c886060830185611946565b611c95608083018461176d565b9695505050505050565b6000606082019050611cb46000830186611946565b8181036020830152611cc6818561177c565b9050611cd56040830184611946565b949350505050565b6000606082019050611cf26000830186611946565b611cff6020830185611946565b611d0c60408301846116c4565b949350505050565b6000606082019050611d296000830186611946565b611d366020830185611946565b8181036040830152611d48818461177c565b9050949350505050565b6000608082019050611d676000830187611946565b611d746020830186611946565b8181036040830152611d86818561177c565b9050611d956060830184611731565b95945050505050565b6000611da8611db9565b9050611db48282612001565b919050565b6000604051905090565b600067ffffffffffffffff821115611dde57611ddd61209a565b5b611de7826120c9565b9050602081019050919050565b6000819050602082019050919050565b60008190508160005260206000209050919050565b600081519050919050565b600081519050919050565b6000602082019050919050565b600082825260208201905092915050565b600082825260208201905092915050565b600081905092915050565b6000611e7482611f3b565b9150611e7f83611f3b565b9250827fffffffffffffffffffffffffffffffffffffffffffffffffffffffffffffffff03821115611eb457611eb361203c565b5b828201905092915050565b6000611eca82611f3b565b9150611ed583611f3b565b925082821015611ee857611ee761203c565b5b828203905092915050565b6000611efe82611f1b565b9050919050565b60008115159050919050565b6000819050919050565b600073ffffffffffffffffffffffffffffffffffffffff82169050919050565b6000819050919050565b6000611f5082611f3b565b9050919050565b6000611f6282611f3b565b9050919050565b6000611f7482611f3b565b9050919050565b6000611f8682611f3b565b9050919050565b82818337600083830152505050565b60005b83811015611fba578082015181840152602081019050611f9f565b83811115611fc9576000848401525b50505050565b60006002820490506001821680611fe757607f821691505b60208210811415611ffb57611ffa61206b565b5b50919050565b61200a826120c9565b810181811067ffffffffffffffff821117156120295761202861209a565b5b80604052505050565b6000819050919050565b7f4e487b7100000000000000000000000000000000000000000000000000000000600052601160045260246000fd5b7f4e487b7100000000000000000000000000000000000000000000000000000000600052602260045260246000fd5b7f4e487b7100000000000000000000000000000000000000000000000000000000600052604160045260246000fd5b6000601f19601f8301169050919050565b7f4469737472696374000000000000000000000000000000000000000000000000600082015250565b7f43656e7472616c00000000000000000000000000000000000000000000000000600082015250565b7f696e76616c6964206c6576656c00000000000000000000000000000000000000600082015250565b7f5374617465000000000000000000000000000000000000000000000000000000600082015250565b7f446973746e2e20506f696e740000000000000000000000000000000000000000600082015250565b7f496e76616c696420446973747269627574696f6e506f696e7420696400000000600082015250565b6121d981611ef3565b81146121e457600080fd5b50565b6121f081611f11565b81146121fb57600080fd5b50565b61220781611f3b565b811461221257600080fd5b5056fea2646970667358221220c7347cf36856f3003342f0f76427d4dfa98b0e6d31f694977d711dcd28b28a5164736f6c63430008030033",
  "immutableReferences": {},
  "source": "// SPDX-License-Identifier: GPL-3.0\r\npragma solidity >=0.5.0 <=0.8.4; \r\n\r\ncontract CredentialManager {\r\n    constructor() {\r\n        string[28] memory statesList=['Andhra Pradesh', 'Arunachal Pradesh', 'Assam', 'Bihar', 'Chhattisgarh', 'Goa', 'Gujarat', 'Haryana', 'Himachal Pradesh', 'Jharkhand', 'Karnataka', 'Kerala', 'Madhya Pradesh', 'Maharashtra', 'Manipur', 'Meghalaya', 'Mizoram', 'Nagaland', 'Odisha', 'Punjab', 'Rajasthan', 'Sikkim', 'Tamil Nadu', 'Telangana', 'Tripura', \"Uttar Pradesh\", \"Uttarakhand\", \"West Bengal\"];\r\n        \r\n        uint i=0;\r\n        for(i=0;i<28;i++)\r\n        addState(statesList[i]);  \r\n\r\n        string[4] memory distList = [\"d1\",\"d2\",\"d3\",\"d4\"];\r\n        for(i=0;i<4;i++)\r\n        addDistrict(distList[i], 1);\r\n\r\n        string[4] memory distPoint = [\"dp-1\",\"dp-2\",\"dp-3\",\"dp-4\"];\r\n        for(i=0;i<4;i++)\r\n        addDstnPoint(distPoint[i],(i+1));\r\n    }\r\n    \r\n    struct State {\r\n        uint id;\r\n        mapping(address=>bool) authorities;\r\n        string name;\r\n    }\r\n    \r\n    struct District {\r\n        uint id;\r\n        uint stateId;\r\n        mapping(address=>bool) authorities;\r\n        string name;\r\n    }\r\n    \r\n    struct DistributionPoint {\r\n        uint id;\r\n        uint districtId;\r\n        uint[] beneficiaryIds;\r\n        mapping(address=>bool) authorities;\r\n        string name;\r\n    }\r\n    \r\n    struct Beneficiary {\r\n        uint id;\r\n        uint dstnId;\r\n        string credentials;\r\n        bool isRegistered;\r\n    }\r\n    \r\n    string private secret = \"identify@capstone\";\r\n    address public centralAuthId = 0xf17f52151EbEF6C7334FAD080c5704D77216b732;\r\n    mapping(uint=>Beneficiary) public beneficiaries;\r\n    uint public beneficiaryCount;\r\n    DistributionPoint[] public dstnPoints;\r\n    District[] public districts;\r\n    State[] public states;\r\n    \r\n    event NewState(uint _id, string _name);\r\n    event NewDistrict(uint _id, string _name,uint _stateId);\r\n    event NewDstnPoint(uint _id, string _name, uint _districtId);\r\n    event NewAuthority(uint _level, uint _entityId, address _authorityId);\r\n    event NewBeneficiary(uint _id, string _credentials, address _registeredBy, uint _dstnId, uint _statusCode);\r\n    \r\n    function addState(string memory _name) public{\r\n        states.push();\r\n        State storage s = states[states.length-1];\r\n        s.id = states.length;\r\n        s.name = _name;\r\n        emit NewState(s.id, _name);\r\n    }\r\n    \r\n    function addDistrict(string memory _districtName, uint _stateId) public {\r\n        districts.push();   \r\n        District storage d = districts[districts.length-1];\r\n        d.id = districts.length;\r\n        d.name = _districtName;\r\n        d.stateId=_stateId;\r\n        emit NewDistrict(d.id,_districtName, _stateId);\r\n    }\r\n    \r\n    function addDstnPoint(string memory _dstnPointName, uint _districtId) public {\r\n        dstnPoints.push();\r\n        DistributionPoint storage dp = dstnPoints[dstnPoints.length-1];\r\n        dp.id=dstnPoints.length;\r\n        dp.name = _dstnPointName;\r\n        dp.districtId = _districtId;\r\n        emit NewDstnPoint(dp.id, _dstnPointName, _districtId);\r\n    }\r\n    \r\n    function addBeneficiary(uint _id, string memory _credentials, uint _dstnId, bytes32 _token) public{\r\n        if(authorizeSigner(\"Distn. Point\", msg.sender, _dstnId))\r\n        {\r\n            if(beneficiaries[_id].isRegistered)\r\n                emit NewBeneficiary(_id, _credentials, msg.sender, _dstnId, 409); //Beneficiary already registered\r\n            else {\r\n                \r\n                if(keccak256(abi.encodePacked(_id,_dstnId,_credentials,secret)) == _token)\r\n                {\r\n                    dstnPoints[_dstnId-1].beneficiaryIds.push(_id);\r\n                    beneficiaries[_id] = Beneficiary(_id, _dstnId, _credentials, true);\r\n                    beneficiaryCount+=1;\r\n                    emit NewBeneficiary(_id, _credentials, msg.sender, _dstnId, 200); //200 succesfully added\r\n                }\r\n                else\r\n                    emit NewBeneficiary(_id, _credentials, msg.sender, _dstnId, 403); // 403 :  Forbidden action as tokens mismatch \r\n            }\r\n        }\r\n        else\r\n            emit NewBeneficiary(_id, _credentials, msg.sender, _dstnId, 401);  //401 authority not authorized to add Beneficiary\r\n    }\r\n    \r\n    \r\n    function getBeneficiaries(uint _dstnPointId) public view returns(uint[] memory) {\r\n        if(beneficiaryCount<=0)\r\n        return new uint[](0);\r\n        require(_dstnPointId>=0 && _dstnPointId<dstnPoints.length, \"Invalid DistributionPoint id\");\r\n        return dstnPoints[_dstnPointId-1].beneficiaryIds;\r\n        //returns beneficiary Ids of a dstn point\r\n    }\r\n    \r\n    function addAuthority(uint _level, uint _entityId, address _authorityId) public{\r\n        require(_level>0 && _level<4, \"invalid level\");\r\n        if(_level==1)\r\n        states[_entityId-1].authorities[_authorityId] = true;\r\n        else if(_level==2)\r\n        districts[_entityId-1].authorities[_authorityId] = true;\r\n        else if(_level==3)\r\n        dstnPoints[_entityId-1].authorities[_authorityId] = true;\r\n        emit NewAuthority(_level, _entityId, _authorityId);\r\n    }\r\n\r\n    function authorizeSigner(string memory _type, address _signer, uint _entityId) public view returns(bool){\r\n        \r\n        bool isAuthorized;\r\n\r\n        if(keccak256(abi.encode(_type)) == keccak256(abi.encode(\"Central\")))\r\n        isAuthorized = centralAuthId == _signer;\r\n        \r\n        if(keccak256(abi.encode(_type)) == keccak256(abi.encode(\"State\")))\r\n        isAuthorized = states[_entityId-1].authorities[_signer];\r\n        \r\n        if(keccak256(abi.encode(_type)) == keccak256(abi.encode(\"District\")))\r\n        isAuthorized = districts[_entityId-1].authorities[_signer];\r\n        \r\n        if(keccak256(abi.encode(_type)) == keccak256(abi.encode(\"Distn. Point\")))\r\n        isAuthorized = dstnPoints[_entityId-1].authorities[_signer];\r\n       \r\n        return isAuthorized;\r\n        \r\n    }\r\n}",
  "sourcePath": "F:/Prjcts/Capstone/identify/contracts/CredentialManager.sol",
  "compiler": {
    "name": "solc",
    "version": "0.8.3+commit.8d00100c.Emscripten.clang"
  },
  "schemaVersion": "3.3.3",
  "updatedAt": "2021-05-20T14:14:12.304Z",
  "networkType": "ethereum",
  "devdoc": {
    "kind": "dev",
    "methods": {},
    "version": 1
  },
  "userdoc": {
    "kind": "user",
    "methods": {},
    "version": 1
  }
}