{
  "contractName": "CredentialManager",
  "abi": [
    {
      "inputs": [],
      "stateMutability": "nonpayable",
      "type": "constructor"
    },
    {
      "anonymous": false,
      "inputs": [
        {
          "indexed": false,
          "internalType": "address",
          "name": "_initiator",
          "type": "address"
        },
        {
          "indexed": true,
          "internalType": "uint256",
          "name": "_id",
          "type": "uint256"
        },
        {
          "indexed": false,
          "internalType": "uint256",
          "name": "_dstnId",
          "type": "uint256"
        },
        {
          "indexed": false,
          "internalType": "string",
          "name": "_credentials",
          "type": "string"
        },
        {
          "indexed": false,
          "internalType": "address[]",
          "name": "_accepted",
          "type": "address[]"
        },
        {
          "indexed": false,
          "internalType": "address[]",
          "name": "_rejected",
          "type": "address[]"
        },
        {
          "indexed": false,
          "internalType": "uint256",
          "name": "_finalStatus",
          "type": "uint256"
        },
        {
          "indexed": false,
          "internalType": "uint256",
          "name": "_statusCode",
          "type": "uint256"
        }
      ],
      "name": "BeneficiaryValidation",
      "type": "event"
    },
    {
      "anonymous": false,
      "inputs": [
        {
          "indexed": true,
          "internalType": "uint256",
          "name": "_id",
          "type": "uint256"
        },
        {
          "indexed": true,
          "internalType": "uint256",
          "name": "_dstnId",
          "type": "uint256"
        },
        {
          "indexed": true,
          "internalType": "address",
          "name": "_authorityId",
          "type": "address"
        },
        {
          "indexed": false,
          "internalType": "string",
          "name": "_comment",
          "type": "string"
        }
      ],
      "name": "BeneficiaryValidationRemarks",
      "type": "event"
    },
    {
      "anonymous": false,
      "inputs": [
        {
          "indexed": false,
          "internalType": "uint256",
          "name": "_level",
          "type": "uint256"
        },
        {
          "indexed": false,
          "internalType": "uint256",
          "name": "_entityId",
          "type": "uint256"
        },
        {
          "indexed": false,
          "internalType": "address",
          "name": "_authorityId",
          "type": "address"
        }
      ],
      "name": "NewAuthority",
      "type": "event"
    },
    {
      "anonymous": false,
      "inputs": [
        {
          "indexed": false,
          "internalType": "uint256",
          "name": "_id",
          "type": "uint256"
        },
        {
          "indexed": false,
          "internalType": "uint256",
          "name": "_finalStatus",
          "type": "uint256"
        },
        {
          "indexed": false,
          "internalType": "string",
          "name": "_credentials",
          "type": "string"
        },
        {
          "indexed": false,
          "internalType": "uint256",
          "name": "_dstnId",
          "type": "uint256"
        },
        {
          "indexed": false,
          "internalType": "uint256",
          "name": "_statusCode",
          "type": "uint256"
        }
      ],
      "name": "NewBeneficiary",
      "type": "event"
    },
    {
      "anonymous": false,
      "inputs": [
        {
          "indexed": false,
          "internalType": "uint256",
          "name": "_id",
          "type": "uint256"
        },
        {
          "indexed": false,
          "internalType": "string",
          "name": "_name",
          "type": "string"
        },
        {
          "indexed": false,
          "internalType": "uint256",
          "name": "_stateId",
          "type": "uint256"
        }
      ],
      "name": "NewDistrict",
      "type": "event"
    },
    {
      "anonymous": false,
      "inputs": [
        {
          "indexed": false,
          "internalType": "uint256",
          "name": "_id",
          "type": "uint256"
        },
        {
          "indexed": false,
          "internalType": "string",
          "name": "_name",
          "type": "string"
        },
        {
          "indexed": false,
          "internalType": "uint256",
          "name": "_districtId",
          "type": "uint256"
        }
      ],
      "name": "NewDstnPoint",
      "type": "event"
    },
    {
      "anonymous": false,
      "inputs": [
        {
          "indexed": false,
          "internalType": "uint256",
          "name": "_id",
          "type": "uint256"
        },
        {
          "indexed": false,
          "internalType": "string",
          "name": "_name",
          "type": "string"
        }
      ],
      "name": "NewState",
      "type": "event"
    },
    {
      "inputs": [
        {
          "internalType": "uint256",
          "name": "",
          "type": "uint256"
        }
      ],
      "name": "beneficiaries",
      "outputs": [
        {
          "internalType": "uint256",
          "name": "id",
          "type": "uint256"
        },
        {
          "internalType": "uint256",
          "name": "dstnId",
          "type": "uint256"
        },
        {
          "internalType": "string",
          "name": "credentials",
          "type": "string"
        },
        {
          "internalType": "uint256",
          "name": "finalStatus",
          "type": "uint256"
        }
      ],
      "stateMutability": "view",
      "type": "function",
      "constant": true
    },
    {
      "inputs": [],
      "name": "beneficiaryCount",
      "outputs": [
        {
          "internalType": "uint256",
          "name": "",
          "type": "uint256"
        }
      ],
      "stateMutability": "view",
      "type": "function",
      "constant": true
    },
    {
      "inputs": [],
      "name": "centralAuthId",
      "outputs": [
        {
          "internalType": "address",
          "name": "",
          "type": "address"
        }
      ],
      "stateMutability": "view",
      "type": "function",
      "constant": true
    },
    {
      "inputs": [
        {
          "internalType": "uint256",
          "name": "",
          "type": "uint256"
        }
      ],
      "name": "districts",
      "outputs": [
        {
          "internalType": "uint256",
          "name": "id",
          "type": "uint256"
        },
        {
          "internalType": "uint256",
          "name": "stateId",
          "type": "uint256"
        },
        {
          "internalType": "string",
          "name": "name",
          "type": "string"
        }
      ],
      "stateMutability": "view",
      "type": "function",
      "constant": true
    },
    {
      "inputs": [
        {
          "internalType": "uint256",
          "name": "",
          "type": "uint256"
        }
      ],
      "name": "dstnPoints",
      "outputs": [
        {
          "internalType": "uint256",
          "name": "id",
          "type": "uint256"
        },
        {
          "internalType": "uint256",
          "name": "districtId",
          "type": "uint256"
        },
        {
          "internalType": "string",
          "name": "name",
          "type": "string"
        }
      ],
      "stateMutability": "view",
      "type": "function",
      "constant": true
    },
    {
      "inputs": [
        {
          "internalType": "uint256",
          "name": "",
          "type": "uint256"
        }
      ],
      "name": "states",
      "outputs": [
        {
          "internalType": "uint256",
          "name": "id",
          "type": "uint256"
        },
        {
          "internalType": "string",
          "name": "name",
          "type": "string"
        }
      ],
      "stateMutability": "view",
      "type": "function",
      "constant": true
    },
    {
      "inputs": [
        {
          "internalType": "string",
          "name": "_name",
          "type": "string"
        }
      ],
      "name": "addState",
      "outputs": [],
      "stateMutability": "nonpayable",
      "type": "function"
    },
    {
      "inputs": [
        {
          "internalType": "string",
          "name": "_districtName",
          "type": "string"
        },
        {
          "internalType": "uint256",
          "name": "_stateId",
          "type": "uint256"
        }
      ],
      "name": "addDistrict",
      "outputs": [],
      "stateMutability": "nonpayable",
      "type": "function"
    },
    {
      "inputs": [
        {
          "internalType": "string",
          "name": "_dstnPointName",
          "type": "string"
        },
        {
          "internalType": "uint256",
          "name": "_districtId",
          "type": "uint256"
        }
      ],
      "name": "addDstnPoint",
      "outputs": [],
      "stateMutability": "nonpayable",
      "type": "function"
    },
    {
      "inputs": [
        {
          "internalType": "uint256",
          "name": "_id",
          "type": "uint256"
        },
        {
          "internalType": "string",
          "name": "_credentials",
          "type": "string"
        },
        {
          "internalType": "uint256",
          "name": "_dstnId",
          "type": "uint256"
        },
        {
          "internalType": "uint256",
          "name": "_approvalStatus",
          "type": "uint256"
        }
      ],
      "name": "getToken",
      "outputs": [
        {
          "internalType": "bytes32",
          "name": "",
          "type": "bytes32"
        }
      ],
      "stateMutability": "view",
      "type": "function",
      "constant": true
    },
    {
      "inputs": [
        {
          "internalType": "uint256",
          "name": "_id",
          "type": "uint256"
        },
        {
          "internalType": "uint256",
          "name": "_dstnId",
          "type": "uint256"
        },
        {
          "internalType": "uint256",
          "name": "_approvalStatus",
          "type": "uint256"
        },
        {
          "internalType": "string",
          "name": "_comment",
          "type": "string"
        }
      ],
      "name": "authBeneficiary",
      "outputs": [],
      "stateMutability": "nonpayable",
      "type": "function"
    },
    {
      "inputs": [
        {
          "internalType": "uint256",
          "name": "_id",
          "type": "uint256"
        },
        {
          "internalType": "string",
          "name": "_credentials",
          "type": "string"
        },
        {
          "internalType": "uint256",
          "name": "_dstnId",
          "type": "uint256"
        },
        {
          "internalType": "uint256",
          "name": "_approvalStatus",
          "type": "uint256"
        },
        {
          "internalType": "bytes32",
          "name": "_token",
          "type": "bytes32"
        }
      ],
      "name": "initiateBeneficiaryRegistration",
      "outputs": [],
      "stateMutability": "nonpayable",
      "type": "function"
    },
    {
      "inputs": [
        {
          "internalType": "uint256",
          "name": "_dstnPointId",
          "type": "uint256"
        }
      ],
      "name": "getBeneficiaries",
      "outputs": [
        {
          "internalType": "uint256[]",
          "name": "",
          "type": "uint256[]"
        }
      ],
      "stateMutability": "view",
      "type": "function",
      "constant": true
    },
    {
      "inputs": [
        {
          "internalType": "uint256",
          "name": "_level",
          "type": "uint256"
        },
        {
          "internalType": "uint256",
          "name": "_entityId",
          "type": "uint256"
        },
        {
          "internalType": "address",
          "name": "_authorityId",
          "type": "address"
        }
      ],
      "name": "addAuthority",
      "outputs": [],
      "stateMutability": "nonpayable",
      "type": "function"
    },
    {
      "inputs": [
        {
          "internalType": "string",
          "name": "_type",
          "type": "string"
        },
        {
          "internalType": "address",
          "name": "_signer",
          "type": "address"
        },
        {
          "internalType": "uint256",
          "name": "_entityId",
          "type": "uint256"
        }
      ],
      "name": "authorizeSigner",
      "outputs": [
        {
          "internalType": "bool",
          "name": "",
          "type": "bool"
        }
      ],
      "stateMutability": "view",
      "type": "function",
      "constant": true
    }
  ],
  "bytecode": "0x60806040526040518060400160405280601181526020017f6964656e746966794063617073746f6e65000000000000000000000000000000815250600090805190602001906200005192919062000d74565b5073f17f52151ebef6c7334fad080c5704d77216b732600160006101000a81548173ffffffffffffffffffffffffffffffffffffffff021916908373ffffffffffffffffffffffffffffffffffffffff160217905550348015620000b457600080fd5b5060006040518061038001604052806040518060400160405280600e81526020017f416e64687261205072616465736800000000000000000000000000000000000081525081526020016040518060400160405280601181526020017f4172756e616368616c205072616465736800000000000000000000000000000081525081526020016040518060400160405280600581526020017f417373616d00000000000000000000000000000000000000000000000000000081525081526020016040518060400160405280600581526020017f426968617200000000000000000000000000000000000000000000000000000081525081526020016040518060400160405280600c81526020017f436868617474697367617268000000000000000000000000000000000000000081525081526020016040518060400160405280600381526020017f476f61000000000000000000000000000000000000000000000000000000000081525081526020016040518060400160405280600781526020017f47756a617261740000000000000000000000000000000000000000000000000081525081526020016040518060400160405280600781526020017f48617279616e610000000000000000000000000000000000000000000000000081525081526020016040518060400160405280601081526020017f48696d616368616c20507261646573680000000000000000000000000000000081525081526020016040518060400160405280600981526020017f4a6861726b68616e64000000000000000000000000000000000000000000000081525081526020016040518060400160405280600981526020017f4b61726e6174616b61000000000000000000000000000000000000000000000081525081526020016040518060400160405280600681526020017f4b6572616c61000000000000000000000000000000000000000000000000000081525081526020016040518060400160405280600e81526020017f4d6164687961205072616465736800000000000000000000000000000000000081525081526020016040518060400160405280600b81526020017f4d6168617261736874726100000000000000000000000000000000000000000081525081526020016040518060400160405280600781526020017f4d616e697075720000000000000000000000000000000000000000000000000081525081526020016040518060400160405280600981526020017f4d656768616c617961000000000000000000000000000000000000000000000081525081526020016040518060400160405280600781526020017f4d697a6f72616d0000000000000000000000000000000000000000000000000081525081526020016040518060400160405280600881526020017f4e6167616c616e6400000000000000000000000000000000000000000000000081525081526020016040518060400160405280600681526020017f4f6469736861000000000000000000000000000000000000000000000000000081525081526020016040518060400160405280600681526020017f50756e6a6162000000000000000000000000000000000000000000000000000081525081526020016040518060400160405280600981526020017f52616a61737468616e000000000000000000000000000000000000000000000081525081526020016040518060400160405280600681526020017f53696b6b696d000000000000000000000000000000000000000000000000000081525081526020016040518060400160405280600a81526020017f54616d696c204e6164750000000000000000000000000000000000000000000081525081526020016040518060400160405280600981526020017f54656c616e67616e61000000000000000000000000000000000000000000000081525081526020016040518060400160405280600781526020017f547269707572610000000000000000000000000000000000000000000000000081525081526020016040518060400160405280600d81526020017f557474617220507261646573680000000000000000000000000000000000000081525081526020016040518060400160405280600b81526020017f5574746172616b68616e6400000000000000000000000000000000000000000081525081526020016040518060400160405280600b81526020017f576573742042656e67616c000000000000000000000000000000000000000000815250815250905060005b601c811015620007a957620007938282601c811062000782577f4e487b7100000000000000000000000000000000000000000000000000000000600052603260045260246000fd5b602002015162000a9e60201b60201c565b8080620007a09062001018565b9150506200073a565b600060405180608001604052806040518060400160405280600281526020017f643100000000000000000000000000000000000000000000000000000000000081525081526020016040518060400160405280600281526020017f643200000000000000000000000000000000000000000000000000000000000081525081526020016040518060400160405280600281526020017f643300000000000000000000000000000000000000000000000000000000000081525081526020016040518060400160405280600281526020017f64340000000000000000000000000000000000000000000000000000000000008152508152509050600091505b6004821015620009185762000902818360048110620008ef577f4e487b7100000000000000000000000000000000000000000000000000000000600052603260045260246000fd5b6020020151600162000b8860201b60201c565b81806200090f9062001018565b925050620008a7565b600060405180608001604052806040518060400160405280600481526020017f64702d310000000000000000000000000000000000000000000000000000000081525081526020016040518060400160405280600481526020017f64702d320000000000000000000000000000000000000000000000000000000081525081526020016040518060400160405280600481526020017f64702d330000000000000000000000000000000000000000000000000000000081525081526020016040518060400160405280600481526020017f64702d34000000000000000000000000000000000000000000000000000000008152508152509050600092505b600483101562000a945762000a7e81846004811062000a5e577f4e487b7100000000000000000000000000000000000000000000000000000000600052603260045260246000fd5b602002015160018562000a72919062000f0a565b62000c7e60201b60201c565b828062000a8b9062001018565b93505062000a16565b50505050620010d5565b60066001816001815401808255809150500390600052602060002090505060006006600160068054905062000ad4919062000f67565b8154811062000b0c577f4e487b7100000000000000000000000000000000000000000000000000000000600052603260045260246000fd5b9060005260206000209060030201905060068054905081600001819055508181600201908051906020019062000b4492919062000d74565b507f5118442027d611358f8561ea9534df2708a1f1b1480bc00a177481644a71cb3181600001548360405162000b7c92919062000e76565b60405180910390a15050565b60056001816001815401808255809150500390600052602060002090505060006005600160058054905062000bbe919062000f67565b8154811062000bf6577f4e487b7100000000000000000000000000000000000000000000000000000000600052603260045260246000fd5b9060005260206000209060040201905060058054905081600001819055508281600301908051906020019062000c2e92919062000d74565b508181600101819055507f5a455249f9b31b8e5c44c592ae8a4c1b2687a6e66d02ab5f4faf66649de945ed8160000154848460405162000c719392919062000eaa565b60405180910390a1505050565b60046001816001815401808255809150500390600052602060002090505060006004600160048054905062000cb4919062000f67565b8154811062000cec577f4e487b7100000000000000000000000000000000000000000000000000000000600052603260045260246000fd5b9060005260206000209060060201905060048054905081600001819055508281600501908051906020019062000d2492919062000d74565b508181600101819055507f357047ddfe6d3d71d9ffe78fbdf6def0d4735bfcaddf764c0d5b5307b02228788160000154848460405162000d679392919062000eaa565b60405180910390a1505050565b82805462000d829062000fe2565b90600052602060002090601f01602090048101928262000da6576000855562000df2565b82601f1062000dc157805160ff191683800117855562000df2565b8280016001018555821562000df2579182015b8281111562000df157825182559160200191906001019062000dd4565b5b50905062000e01919062000e05565b5090565b5b8082111562000e2057600081600090555060010162000e06565b5090565b600062000e318262000eee565b62000e3d818562000ef9565b935062000e4f81856020860162000fac565b62000e5a81620010c4565b840191505092915050565b62000e708162000fa2565b82525050565b600060408201905062000e8d600083018562000e65565b818103602083015262000ea1818462000e24565b90509392505050565b600060608201905062000ec1600083018662000e65565b818103602083015262000ed5818562000e24565b905062000ee6604083018462000e65565b949350505050565b600081519050919050565b600082825260208201905092915050565b600062000f178262000fa2565b915062000f248362000fa2565b9250827fffffffffffffffffffffffffffffffffffffffffffffffffffffffffffffffff0382111562000f5c5762000f5b62001066565b5b828201905092915050565b600062000f748262000fa2565b915062000f818362000fa2565b92508282101562000f975762000f9662001066565b5b828203905092915050565b6000819050919050565b60005b8381101562000fcc57808201518184015260208101905062000faf565b8381111562000fdc576000848401525b50505050565b6000600282049050600182168062000ffb57607f821691505b6020821081141562001012576200101162001095565b5b50919050565b6000620010258262000fa2565b91507fffffffffffffffffffffffffffffffffffffffffffffffffffffffffffffffff8214156200105b576200105a62001066565b5b600182019050919050565b7f4e487b7100000000000000000000000000000000000000000000000000000000600052601160045260246000fd5b7f4e487b7100000000000000000000000000000000000000000000000000000000600052602260045260246000fd5b6000601f19601f8301169050919050565b6130ff80620010e56000396000f3fe608060405234801561001057600080fd5b50600436106100f55760003560e01c8063783804d911610097578063daa3b67b11610066578063daa3b67b14610285578063e77995e0146102b5578063efeb5e58146102e7578063f6f0267d1461031a576100f5565b8063783804d9146101e95780638d1e2d0c146102195780638f971f031461024b57806399dea89414610269576100f5565b806321895494116100d357806321895494146101775780632a34ede1146101935780634fab3456146101af578063734b2a7c146101cb576100f5565b8063017a9105146100fa5780630daaaf161461012b57806311af53af1461015b575b600080fd5b610114600480360381019061010f9190611eb7565b610336565b6040516101229291906128ed565b60405180910390f35b61014560048036038101906101409190611ee0565b6103f2565b604051610152919061277b565b60405180910390f35b61017560048036038101906101709190611fea565b61042e565b005b610191600480360381019061018c9190612039565b6107a4565b005b6101ad60048036038101906101a89190611dbb565b610d1c565b005b6101c960048036038101906101c49190611e63565b610dff565b005b6101d3610eee565b6040516101e09190612878565b60405180910390f35b61020360048036038101906101fe9190611eb7565b610ef4565b604051610210919061273e565b60405180910390f35b610233600480360381019061022e9190611eb7565b611079565b60405161024293929190612992565b60405180910390f35b61025361113b565b6040516102609190612513565b60405180910390f35b610283600480360381019061027e9190611e63565b611161565b005b61029f600480360381019061029a9190611dfc565b611250565b6040516102ac9190612760565b60405180910390f35b6102cf60048036038101906102ca9190611eb7565b6115e9565b6040516102de93929190612992565b60405180910390f35b61030160048036038101906102fc9190611eb7565b6116ab565b60405161031194939291906129d0565b60405180910390f35b610334600480360381019061032f9190611f5b565b611763565b005b6006818154811061034657600080fd5b906000526020600020906003020160009150905080600001549080600201805461036f90612e49565b80601f016020809104026020016040519081016040528092919081815260200182805461039b90612e49565b80156103e85780601f106103bd576101008083540402835291602001916103e8565b820191906000526020600020905b8154815290600101906020018083116103cb57829003601f168201915b5050505050905082565b600084838584600060405160200161040e9594939291906124bc565b604051602081830303815290604052805190602001209050949350505050565b60008311801561043e5750600483105b61047d576040517f08c379a0000000000000000000000000000000000000000000000000000000008152600401610474906127f8565b60405180910390fd5b600183141561053857600160066001846104979190612ce3565b815481106104ce577f4e487b7100000000000000000000000000000000000000000000000000000000600052603260045260246000fd5b906000526020600020906003020160010160008373ffffffffffffffffffffffffffffffffffffffff1673ffffffffffffffffffffffffffffffffffffffff16815260200190815260200160002060006101000a81548160ff021916908315150217905550610764565b60028314156105f357600160056001846105529190612ce3565b81548110610589577f4e487b7100000000000000000000000000000000000000000000000000000000600052603260045260246000fd5b906000526020600020906004020160020160008373ffffffffffffffffffffffffffffffffffffffff1673ffffffffffffffffffffffffffffffffffffffff16815260200190815260200160002060006101000a81548160ff021916908315150217905550610763565b6003831415610762576001600460018461060d9190612ce3565b81548110610644577f4e487b7100000000000000000000000000000000000000000000000000000000600052603260045260246000fd5b906000526020600020906006020160030160008373ffffffffffffffffffffffffffffffffffffffff1673ffffffffffffffffffffffffffffffffffffffff16815260200190815260200160002060006101000a81548160ff02191690831515021790555060046001836106b89190612ce3565b815481106106ef577f4e487b7100000000000000000000000000000000000000000000000000000000600052603260045260246000fd5b9060005260206000209060060201600401819080600181540180825580915050600190039060005260206000200160009091909190916101000a81548173ffffffffffffffffffffffffffffffffffffffff021916908373ffffffffffffffffffffffffffffffffffffffff1602179055505b5b5b7feed4f6de47397d103ceffd01744ea7c5f2a30696d73adecea2bca5665efd77d28383836040516107979392919061295b565b60405180910390a1505050565b6107e46040518060400160405280600c81526020017f446973746e2e20506f696e7400000000000000000000000000000000000000008152503385611250565b15610c8f576000600260008681526020019081526020016000206005015414610bee57600282141561088c5760026000858152602001908152602001600020600401339080600181540180825580915050600190039060005260206000200160009091909190916101000a81548173ffffffffffffffffffffffffffffffffffffffff021916908373ffffffffffffffffffffffffffffffffffffffff16021790555061090e565b600182141561090d5760026000858152602001908152602001600020600301339080600181540180825580915050600190039060005260206000200160009091909190916101000a81548173ffffffffffffffffffffffffffffffffffffffff021916908373ffffffffffffffffffffffffffffffffffffffff1602179055505b5b6000600460018561091f9190612ce3565b81548110610956577f4e487b7100000000000000000000000000000000000000000000000000000000600052603260045260246000fd5b9060005260206000209060060201600401805490509050600060026000878152602001908152602001600020600301805490509050600060026000888152602001908152602001600020600401805490509050828160026109b79190612c89565b106109dc57600280600089815260200190815260200160002060050181905550610afc565b828260026109ea9190612c89565b1115610afb57600160026000898152602001908152602001600020600501819055506004600187610a1b9190612ce3565b81548110610a52577f4e487b7100000000000000000000000000000000000000000000000000000000600052603260045260246000fd5b9060005260206000209060060201600201879080600181540180825580915050600190039060005260206000200160009091909190915055600160036000828254610a9d9190612c33565b925050819055507fb2420315f443a44de2835af0e0daa2b428f40b5aeb0b779e1b140f97e82cc882876001600260008b81526020019081526020016000206002018960c8604051610af2959493929190612893565b60405180910390a15b5b867fc5d7ec6bc9020326623609ff49322e59634b6a1d27d908fda63aeb44104656dc3388600260008c8152602001908152602001600020600201600260008d8152602001908152602001600020600301600260008e8152602001908152602001600020600401600260008f81526020019081526020016000206005015460c8604051610b8e9796959493929190612636565b60405180910390a23373ffffffffffffffffffffffffffffffffffffffff1686887f0fdcf2f8da8da8a28800e84d61759346990a364ce13b9124c62e7066d144113987604051610bde9190612796565b60405180910390a4505050610c8a565b837fc5d7ec6bc9020326623609ff49322e59634b6a1d27d908fda63aeb44104656dc338560026000898152602001908152602001600020600201600260008a8152602001908152602001600020600301600260008b8152602001908152602001600020600401600260008c815260200190815260200160002060050154610193604051610c8197969594939291906126ba565b60405180910390a25b610d16565b837fc5d7ec6bc9020326623609ff49322e59634b6a1d27d908fda63aeb44104656dc338560026000898152602001908152602001600020600201600260008a8152602001908152602001600020600301600260008b81526020019081526020016000206004016002610191604051610d0d97969594939291906125b2565b60405180910390a25b50505050565b600660018160018154018082558091505003906000526020600020905050600060066001600680549050610d509190612ce3565b81548110610d87577f4e487b7100000000000000000000000000000000000000000000000000000000600052603260045260246000fd5b90600052602060002090600302019050600680549050816000018190555081816002019080519060200190610dbd929190611bb1565b507f5118442027d611358f8561ea9534df2708a1f1b1480bc00a177481644a71cb31816000015483604051610df39291906128ed565b60405180910390a15050565b600560018160018154018082558091505003906000526020600020905050600060056001600580549050610e339190612ce3565b81548110610e6a577f4e487b7100000000000000000000000000000000000000000000000000000000600052603260045260246000fd5b90600052602060002090600402019050600580549050816000018190555082816003019080519060200190610ea0929190611bb1565b508181600101819055507f5a455249f9b31b8e5c44c592ae8a4c1b2687a6e66d02ab5f4faf66649de945ed81600001548484604051610ee19392919061291d565b60405180910390a1505050565b60035481565b6060600060035411610f7757600067ffffffffffffffff811115610f41577f4e487b7100000000000000000000000000000000000000000000000000000000600052604160045260246000fd5b604051908082528060200260200182016040528015610f6f5781602001602082028036833780820191505090505b509050611074565b60008210158015610f8c575060048054905082105b610fcb576040517f08c379a0000000000000000000000000000000000000000000000000000000008152600401610fc290612858565b60405180910390fd5b6004600183610fda9190612ce3565b81548110611011577f4e487b7100000000000000000000000000000000000000000000000000000000600052603260045260246000fd5b906000526020600020906006020160020180548060200260200160405190810160405280929190818152602001828054801561106c57602002820191906000526020600020905b815481526020019060010190808311611058575b505050505090505b919050565b6004818154811061108957600080fd5b90600052602060002090600602016000915090508060000154908060010154908060050180546110b890612e49565b80601f01602080910402602001604051908101604052809291908181526020018280546110e490612e49565b80156111315780601f1061110657610100808354040283529160200191611131565b820191906000526020600020905b81548152906001019060200180831161111457829003601f168201915b5050505050905083565b600160009054906101000a900473ffffffffffffffffffffffffffffffffffffffff1681565b6004600181600181540180825580915050039060005260206000209050506000600460016004805490506111959190612ce3565b815481106111cc577f4e487b7100000000000000000000000000000000000000000000000000000000600052603260045260246000fd5b90600052602060002090600602019050600480549050816000018190555082816005019080519060200190611202929190611bb1565b508181600101819055507f357047ddfe6d3d71d9ffe78fbdf6def0d4735bfcaddf764c0d5b5307b0222878816000015484846040516112439392919061291d565b60405180910390a1505050565b600080604051602001611262906127d8565b60405160208183030381529060405280519060200120856040516020016112899190612796565b6040516020818303038152906040528051906020012014156112f9578373ffffffffffffffffffffffffffffffffffffffff16600160009054906101000a900473ffffffffffffffffffffffffffffffffffffffff1673ffffffffffffffffffffffffffffffffffffffff161490505b60405160200161130890612818565b604051602081830303815290604052805190602001208560405160200161132f9190612796565b6040516020818303038152906040528051906020012014156113f057600660018461135a9190612ce3565b81548110611391577f4e487b7100000000000000000000000000000000000000000000000000000000600052603260045260246000fd5b906000526020600020906003020160010160008573ffffffffffffffffffffffffffffffffffffffff1673ffffffffffffffffffffffffffffffffffffffff16815260200190815260200160002060009054906101000a900460ff1690505b6040516020016113ff906127b8565b60405160208183030381529060405280519060200120856040516020016114269190612796565b6040516020818303038152906040528051906020012014156114e75760056001846114519190612ce3565b81548110611488577f4e487b7100000000000000000000000000000000000000000000000000000000600052603260045260246000fd5b906000526020600020906004020160020160008573ffffffffffffffffffffffffffffffffffffffff1673ffffffffffffffffffffffffffffffffffffffff16815260200190815260200160002060009054906101000a900460ff1690505b6040516020016114f690612838565b604051602081830303815290604052805190602001208560405160200161151d9190612796565b6040516020818303038152906040528051906020012014156115de5760046001846115489190612ce3565b8154811061157f577f4e487b7100000000000000000000000000000000000000000000000000000000600052603260045260246000fd5b906000526020600020906006020160030160008573ffffffffffffffffffffffffffffffffffffffff1673ffffffffffffffffffffffffffffffffffffffff16815260200190815260200160002060009054906101000a900460ff1690505b809150509392505050565b600581815481106115f957600080fd5b906000526020600020906004020160009150905080600001549080600101549080600301805461162890612e49565b80601f016020809104026020016040519081016040528092919081815260200182805461165490612e49565b80156116a15780601f10611676576101008083540402835291602001916116a1565b820191906000526020600020905b81548152906001019060200180831161168457829003601f168201915b5050505050905083565b60026020528060005260406000206000915090508060000154908060010154908060020180546116da90612e49565b80601f016020809104026020016040519081016040528092919081815260200182805461170690612e49565b80156117535780601f1061172857610100808354040283529160200191611753565b820191906000526020600020905b81548152906001019060200180831161173657829003601f168201915b5050505050908060050154905084565b6117a36040518060400160405280600c81526020017f446973746e2e20506f696e7400000000000000000000000000000000000000008152503385611250565b15611b52576000600260008781526020019081526020016000206005015414611822577fb2420315f443a44de2835af0e0daa2b428f40b5aeb0b779e1b140f97e82cc8828560026000888152602001908152602001600020600501548686610199604051611815959493929190612ad0565b60405180910390a1611b4d565b8085848685600060405160200161183d9594939291906124bc565b604051602081830303815290604052805190602001201415611af457611861611c37565b8581600001818152505083816020018181525050848160400181905250600167ffffffffffffffff8111156118bf577f4e487b7100000000000000000000000000000000000000000000000000000000600052604160045260246000fd5b6040519080825280602002602001820160405280156118ed5781602001602082028036833780820191505090505b508160600181905250338160600151600081518110611935577f4e487b7100000000000000000000000000000000000000000000000000000000600052603260045260246000fd5b602002602001019073ffffffffffffffffffffffffffffffffffffffff16908173ffffffffffffffffffffffffffffffffffffffff1681525050600067ffffffffffffffff8111156119b0577f4e487b7100000000000000000000000000000000000000000000000000000000600052604160045260246000fd5b6040519080825280602002602001820160405280156119de5781602001602082028036833780820191505090505b50816080018190525060038160a0018181525050806002600088815260200190815260200160002060008201518160000155602082015181600101556040820151816002019080519060200190611a36929190611bb1565b506060820151816003019080519060200190611a53929190611c6d565b506080820151816004019080519060200190611a70929190611c6d565b5060a08201518160050155905050857fc5d7ec6bc9020326623609ff49322e59634b6a1d27d908fda63aeb44104656dc338688600260008c8152602001908152602001600020600301600260008d8152602001908152602001600020600401600360c8604051611ae6979695949392919061252e565b60405180910390a250611b4c565b7fb2420315f443a44de2835af0e0daa2b428f40b5aeb0b779e1b140f97e82cc8828560026000888152602001908152602001600020600501548686610193604051611b43959493929190612a76565b60405180910390a15b5b611baa565b7fb2420315f443a44de2835af0e0daa2b428f40b5aeb0b779e1b140f97e82cc8828560026000888152602001908152602001600020600501548686610191604051611ba1959493929190612a1c565b60405180910390a15b5050505050565b828054611bbd90612e49565b90600052602060002090601f016020900481019282611bdf5760008555611c26565b82601f10611bf857805160ff1916838001178555611c26565b82800160010185558215611c26579182015b82811115611c25578251825591602001919060010190611c0a565b5b509050611c339190611cf7565b5090565b6040518060c001604052806000815260200160008152602001606081526020016060815260200160608152602001600081525090565b828054828255906000526020600020908101928215611ce6579160200282015b82811115611ce55782518260006101000a81548173ffffffffffffffffffffffffffffffffffffffff021916908373ffffffffffffffffffffffffffffffffffffffff16021790555091602001919060010190611c8d565b5b509050611cf39190611cf7565b5090565b5b80821115611d10576000816000905550600101611cf8565b5090565b6000611d27611d2284612b4f565b612b2a565b905082815260208101848484011115611d3f57600080fd5b611d4a848285612e07565b509392505050565b600081359050611d6181613084565b92915050565b600081359050611d768161309b565b92915050565b600082601f830112611d8d57600080fd5b8135611d9d848260208601611d14565b91505092915050565b600081359050611db5816130b2565b92915050565b600060208284031215611dcd57600080fd5b600082013567ffffffffffffffff811115611de757600080fd5b611df384828501611d7c565b91505092915050565b600080600060608486031215611e1157600080fd5b600084013567ffffffffffffffff811115611e2b57600080fd5b611e3786828701611d7c565b9350506020611e4886828701611d52565b9250506040611e5986828701611da6565b9150509250925092565b60008060408385031215611e7657600080fd5b600083013567ffffffffffffffff811115611e9057600080fd5b611e9c85828601611d7c565b9250506020611ead85828601611da6565b9150509250929050565b600060208284031215611ec957600080fd5b6000611ed784828501611da6565b91505092915050565b60008060008060808587031215611ef657600080fd5b6000611f0487828801611da6565b945050602085013567ffffffffffffffff811115611f2157600080fd5b611f2d87828801611d7c565b9350506040611f3e87828801611da6565b9250506060611f4f87828801611da6565b91505092959194509250565b600080600080600060a08688031215611f7357600080fd5b6000611f8188828901611da6565b955050602086013567ffffffffffffffff811115611f9e57600080fd5b611faa88828901611d7c565b9450506040611fbb88828901611da6565b9350506060611fcc88828901611da6565b9250506080611fdd88828901611d67565b9150509295509295909350565b600080600060608486031215611fff57600080fd5b600061200d86828701611da6565b935050602061201e86828701611da6565b925050604061202f86828701611d52565b9150509250925092565b6000806000806080858703121561204f57600080fd5b600061205d87828801611da6565b945050602061206e87828801611da6565b935050604061207f87828801611da6565b925050606085013567ffffffffffffffff81111561209c57600080fd5b6120a887828801611d7c565b91505092959194509250565b60006120c083836120e4565b60208301905092915050565b60006120d88383612487565b60208301905092915050565b6120ed81612d37565b82525050565b6120fc81612d37565b82525050565b600061210d82612bba565b6121178185612bf5565b935061212283612b80565b8060005b8381101561215a5761213782612f5d565b61214188826120b4565b975061214c83612bdb565b925050600181019050612126565b5085935050505092915050565b600061217282612bc5565b61217c8185612c06565b935061218783612b95565b8060005b838110156121b857815161219f88826120cc565b97506121aa83612be8565b92505060018101905061218b565b5085935050505092915050565b6121ce81612d49565b82525050565b6121dd81612d55565b82525050565b6121ec81612d89565b82525050565b6121fb81612d9b565b82525050565b61220a81612dad565b82525050565b61221981612dbf565b82525050565b61222881612dd1565b82525050565b61223781612de3565b82525050565b61224681612df5565b82525050565b600061225782612bd0565b6122618185612c17565b9350612271818560208601612e16565b61227a81612f70565b840191505092915050565b600061229082612bd0565b61229a8185612c28565b93506122aa818560208601612e16565b80840191505092915050565b600081546122c381612e49565b6122cd8186612c17565b945060018216600081146122e857600181146122fa5761232d565b60ff198316865260208601935061232d565b61230385612ba5565b60005b8381101561232557815481890152600182019150602081019050612306565b808801955050505b50505092915050565b6000815461234381612e49565b61234d8186612c28565b945060018216600081146123685760018114612379576123ac565b60ff198316865281860193506123ac565b61238285612ba5565b60005b838110156123a457815481890152600182019150602081019050612385565b838801955050505b50505092915050565b60006123c2600883612c17565b91506123cd82612f8e565b602082019050919050565b60006123e5600783612c17565b91506123f082612fb7565b602082019050919050565b6000612408600d83612c17565b915061241382612fe0565b602082019050919050565b600061242b600583612c17565b915061243682613009565b602082019050919050565b600061244e600c83612c17565b915061245982613032565b602082019050919050565b6000612471601c83612c17565b915061247c8261305b565b602082019050919050565b61249081612d7f565b82525050565b61249f81612d7f565b82525050565b6124b66124b182612d7f565b612ec6565b82525050565b60006124c882886124a5565b6020820191506124d882876124a5565b6020820191506124e88286612285565b91506124f482856124a5565b6020820191506125048284612336565b91508190509695505050505050565b600060208201905061252860008301846120f3565b92915050565b600060e082019050612543600083018a6120f3565b6125506020830189612496565b8181036040830152612562818861224c565b905081810360608301526125768187612102565b9050818103608083015261258a8186612102565b905061259960a0830185612210565b6125a660c08301846121f2565b98975050505050505050565b600060e0820190506125c7600083018a6120f3565b6125d46020830189612496565b81810360408301526125e681886122b6565b905081810360608301526125fa8187612102565b9050818103608083015261260e8186612102565b905061261d60a0830185612201565b61262a60c083018461221f565b98975050505050505050565b600060e08201905061264b600083018a6120f3565b6126586020830189612496565b818103604083015261266a81886122b6565b9050818103606083015261267e8187612102565b905081810360808301526126928186612102565b90506126a160a0830185612496565b6126ae60c08301846121f2565b98975050505050505050565b600060e0820190506126cf600083018a6120f3565b6126dc6020830189612496565b81810360408301526126ee81886122b6565b905081810360608301526127028187612102565b905081810360808301526127168186612102565b905061272560a0830185612496565b61273260c083018461222e565b98975050505050505050565b600060208201905081810360008301526127588184612167565b905092915050565b600060208201905061277560008301846121c5565b92915050565b600060208201905061279060008301846121d4565b92915050565b600060208201905081810360008301526127b0818461224c565b905092915050565b600060208201905081810360008301526127d1816123b5565b9050919050565b600060208201905081810360008301526127f1816123d8565b9050919050565b60006020820190508181036000830152612811816123fb565b9050919050565b600060208201905081810360008301526128318161241e565b9050919050565b6000602082019050818103600083015261285181612441565b9050919050565b6000602082019050818103600083015261287181612464565b9050919050565b600060208201905061288d6000830184612496565b92915050565b600060a0820190506128a86000830188612496565b6128b560208301876121e3565b81810360408301526128c781866122b6565b90506128d66060830185612496565b6128e360808301846121f2565b9695505050505050565b60006040820190506129026000830185612496565b8181036020830152612914818461224c565b90509392505050565b60006060820190506129326000830186612496565b8181036020830152612944818561224c565b90506129536040830184612496565b949350505050565b60006060820190506129706000830186612496565b61297d6020830185612496565b61298a60408301846120f3565b949350505050565b60006060820190506129a76000830186612496565b6129b46020830185612496565b81810360408301526129c6818461224c565b9050949350505050565b60006080820190506129e56000830187612496565b6129f26020830186612496565b8181036040830152612a04818561224c565b9050612a136060830184612496565b95945050505050565b600060a082019050612a316000830188612496565b612a3e6020830187612496565b8181036040830152612a50818661224c565b9050612a5f6060830185612496565b612a6c608083018461221f565b9695505050505050565b600060a082019050612a8b6000830188612496565b612a986020830187612496565b8181036040830152612aaa818661224c565b9050612ab96060830185612496565b612ac6608083018461222e565b9695505050505050565b600060a082019050612ae56000830188612496565b612af26020830187612496565b8181036040830152612b04818661224c565b9050612b136060830185612496565b612b20608083018461223d565b9695505050505050565b6000612b34612b45565b9050612b408282612e95565b919050565b6000604051905090565b600067ffffffffffffffff821115612b6a57612b69612f2e565b5b612b7382612f70565b9050602081019050919050565b60008190508160005260206000209050919050565b6000819050602082019050919050565b60008190508160005260206000209050919050565b600081549050919050565b600081519050919050565b600081519050919050565b6000600182019050919050565b6000602082019050919050565b600082825260208201905092915050565b600082825260208201905092915050565b600082825260208201905092915050565b600081905092915050565b6000612c3e82612d7f565b9150612c4983612d7f565b9250827fffffffffffffffffffffffffffffffffffffffffffffffffffffffffffffffff03821115612c7e57612c7d612ed0565b5b828201905092915050565b6000612c9482612d7f565b9150612c9f83612d7f565b9250817fffffffffffffffffffffffffffffffffffffffffffffffffffffffffffffffff0483118215151615612cd857612cd7612ed0565b5b828202905092915050565b6000612cee82612d7f565b9150612cf983612d7f565b925082821015612d0c57612d0b612ed0565b5b828203905092915050565b600073ffffffffffffffffffffffffffffffffffffffff82169050919050565b6000612d4282612d5f565b9050919050565b60008115159050919050565b6000819050919050565b600073ffffffffffffffffffffffffffffffffffffffff82169050919050565b6000819050919050565b6000612d9482612d7f565b9050919050565b6000612da682612d7f565b9050919050565b6000612db882612d7f565b9050919050565b6000612dca82612d7f565b9050919050565b6000612ddc82612d7f565b9050919050565b6000612dee82612d7f565b9050919050565b6000612e0082612d7f565b9050919050565b82818337600083830152505050565b60005b83811015612e34578082015181840152602081019050612e19565b83811115612e43576000848401525b50505050565b60006002820490506001821680612e6157607f821691505b60208210811415612e7557612e74612eff565b5b50919050565b6000612e8e612e8983612f81565b612d17565b9050919050565b612e9e82612f70565b810181811067ffffffffffffffff82111715612ebd57612ebc612f2e565b5b80604052505050565b6000819050919050565b7f4e487b7100000000000000000000000000000000000000000000000000000000600052601160045260246000fd5b7f4e487b7100000000000000000000000000000000000000000000000000000000600052602260045260246000fd5b7f4e487b7100000000000000000000000000000000000000000000000000000000600052604160045260246000fd5b6000612f698254612e7b565b9050919050565b6000601f19601f8301169050919050565b60008160001c9050919050565b7f4469737472696374000000000000000000000000000000000000000000000000600082015250565b7f43656e7472616c00000000000000000000000000000000000000000000000000600082015250565b7f696e76616c6964206c6576656c00000000000000000000000000000000000000600082015250565b7f5374617465000000000000000000000000000000000000000000000000000000600082015250565b7f446973746e2e20506f696e740000000000000000000000000000000000000000600082015250565b7f496e76616c696420446973747269627574696f6e506f696e7420696400000000600082015250565b61308d81612d37565b811461309857600080fd5b50565b6130a481612d55565b81146130af57600080fd5b50565b6130bb81612d7f565b81146130c657600080fd5b5056fea2646970667358221220d3b2d4b8f27624522c19730b02b5fdbc905985e341d365c879e93645dcdb1b4064736f6c63430008030033",
  "immutableReferences": {},
  "source": "// SPDX-License-Identifier: GPL-3.0\r\npragma solidity >=0.5.0 <=0.8.4; \r\n\r\ncontract CredentialManager {\r\n    constructor() {\r\n        string[28] memory statesList=['Andhra Pradesh', 'Arunachal Pradesh', 'Assam', 'Bihar', 'Chhattisgarh', 'Goa', 'Gujarat', 'Haryana', 'Himachal Pradesh', 'Jharkhand', 'Karnataka', 'Kerala', 'Madhya Pradesh', 'Maharashtra', 'Manipur', 'Meghalaya', 'Mizoram', 'Nagaland', 'Odisha', 'Punjab', 'Rajasthan', 'Sikkim', 'Tamil Nadu', 'Telangana', 'Tripura', \"Uttar Pradesh\", \"Uttarakhand\", \"West Bengal\"];\r\n        \r\n        uint i=0;\r\n        for(i=0;i<28;i++)\r\n        addState(statesList[i]);  \r\n\r\n        string[4] memory distList = [\"d1\",\"d2\",\"d3\",\"d4\"];\r\n        for(i=0;i<4;i++)\r\n        addDistrict(distList[i], 1);\r\n\r\n        string[4] memory distPoint = [\"dp-1\",\"dp-2\",\"dp-3\",\"dp-4\"];\r\n        for(i=0;i<4;i++)\r\n        addDstnPoint(distPoint[i],(i+1));\r\n    }\r\n    \r\n    struct State {\r\n        uint id;\r\n        mapping(address=>bool) authorities;\r\n        string name;\r\n    }\r\n    \r\n    struct District {\r\n        uint id;\r\n        uint stateId;\r\n        mapping(address=>bool) authorities;\r\n        string name;\r\n    }\r\n    \r\n    struct DistributionPoint {\r\n        uint id;\r\n        uint districtId;\r\n        uint[] beneficiaryIds;\r\n        mapping(address=>bool) authorities;\r\n        address[] authoritiesList;\r\n        string name;\r\n    }\r\n    \r\n    struct Beneficiary {\r\n        uint id;\r\n        uint dstnId;\r\n        string credentials;\r\n        address[] approved;\r\n        address[] rejected;\r\n        uint finalStatus; //1-accept, 2-reject, 3-pending, 0-default\r\n    }\r\n    \r\n    string private secret = \"identify@capstone\";\r\n    address public centralAuthId = 0xf17f52151EbEF6C7334FAD080c5704D77216b732;\r\n    mapping(uint=>Beneficiary) public beneficiaries;\r\n    uint public beneficiaryCount;\r\n    DistributionPoint[] public dstnPoints;\r\n    District[] public districts;\r\n    State[] public states;\r\n    \r\n    event NewState(uint _id, string _name);\r\n    event NewDistrict(uint _id, string _name,uint _stateId);\r\n    event NewDstnPoint(uint _id, string _name, uint _districtId);\r\n    event NewAuthority(uint _level, uint _entityId, address _authorityId);\r\n    event NewBeneficiary(uint _id, uint _finalStatus, string _credentials, uint _dstnId, uint _statusCode);\r\n    event BeneficiaryValidation(\r\n        address _initiator,\r\n        uint indexed _id, \r\n        uint _dstnId, \r\n        string _credentials, \r\n        address[] _accepted, \r\n        address[] _rejected, \r\n        uint _finalStatus, \r\n        uint _statusCode\r\n    );\r\n    \r\n    event BeneficiaryValidationRemarks(\r\n        uint indexed _id,\r\n        uint indexed _dstnId, \r\n        address indexed _authorityId,\r\n        string _comment\r\n    );\r\n    \r\n    function addState(string memory _name) public{\r\n        states.push();\r\n        State storage s = states[states.length-1];\r\n        s.id = states.length;\r\n        s.name = _name;\r\n        emit NewState(s.id, _name);\r\n    }\r\n    \r\n    function addDistrict(string memory _districtName, uint _stateId) public {\r\n        districts.push();   \r\n        District storage d = districts[districts.length-1];\r\n        d.id = districts.length;\r\n        d.name = _districtName;\r\n        d.stateId=_stateId;\r\n        emit NewDistrict(d.id,_districtName, _stateId);\r\n    }\r\n    \r\n    function addDstnPoint(string memory _dstnPointName, uint _districtId) public {\r\n        dstnPoints.push();\r\n        DistributionPoint storage dp = dstnPoints[dstnPoints.length-1];\r\n        dp.id=dstnPoints.length;\r\n        dp.name = _dstnPointName;\r\n        dp.districtId = _districtId;\r\n        emit NewDstnPoint(dp.id, _dstnPointName, _districtId);\r\n    }\r\n    \r\n    function getToken(uint _id, string memory _credentials, uint _dstnId, uint _approvalStatus) public view returns(bytes32){\r\n        return keccak256(abi.encodePacked(_id,_dstnId,_credentials,_approvalStatus,secret));\r\n    }\r\n\r\n    function authBeneficiary(uint _id, uint _dstnId, uint _approvalStatus, string memory _comment) public{ \r\n        if(authorizeSigner(\"Distn. Point\", msg.sender, _dstnId))\r\n        {\r\n            if(beneficiaries[_id].finalStatus!=0) {\r\n                if(_approvalStatus==2)\r\n                beneficiaries[_id].rejected.push(msg.sender);\r\n                else if(_approvalStatus==1)\r\n                beneficiaries[_id].approved.push(msg.sender);\r\n                \r\n                uint authorityCount = dstnPoints[_dstnId-1].authoritiesList.length;\r\n                uint acceptanceCount = beneficiaries[_id].approved.length;\r\n                uint rejectionCount = beneficiaries[_id].rejected.length;\r\n                if(2*rejectionCount>=authorityCount)\r\n                    beneficiaries[_id].finalStatus=2;\r\n                else if(2*acceptanceCount>authorityCount)\r\n                {\r\n                    beneficiaries[_id].finalStatus=1;\r\n                    dstnPoints[_dstnId-1].beneficiaryIds.push(_id);\r\n                    beneficiaryCount+=1;\r\n                    \r\n                    emit NewBeneficiary(_id, 1, beneficiaries[_id].credentials, _dstnId, 200); //200 succesfully added\r\n                }\r\n                \r\n                emit BeneficiaryValidation(\r\n                    msg.sender,\r\n                    _id, \r\n                    _dstnId, \r\n                    beneficiaries[_id].credentials,\r\n                    beneficiaries[_id].approved, \r\n                    beneficiaries[_id].rejected,\r\n                    beneficiaries[_id].finalStatus,\r\n                    200\r\n                );\r\n                emit BeneficiaryValidationRemarks(_id, _dstnId, msg.sender, _comment);\r\n            }\r\n            else\r\n                emit BeneficiaryValidation(\r\n                    msg.sender,\r\n                    _id, \r\n                    _dstnId, \r\n                    beneficiaries[_id].credentials,\r\n                    beneficiaries[_id].approved, \r\n                    beneficiaries[_id].rejected,\r\n                    beneficiaries[_id].finalStatus,\r\n                    403\r\n                );\r\n        }\r\n        else \r\n            emit BeneficiaryValidation(\r\n                msg.sender,\r\n                _id, \r\n                _dstnId, \r\n                beneficiaries[_id].credentials,\r\n                beneficiaries[_id].approved, \r\n                beneficiaries[_id].rejected,\r\n                2,\r\n                401\r\n            ); \r\n    }\r\n    \r\n    function initiateBeneficiaryRegistration(uint _id, string memory _credentials, uint _dstnId, uint _approvalStatus, bytes32 _token) public{\r\n        if(authorizeSigner(\"Distn. Point\", msg.sender, _dstnId)) {\r\n            if(beneficiaries[_id].finalStatus!=0)\r\n                emit NewBeneficiary(_id, beneficiaries[_id].finalStatus, _credentials, _dstnId, 409); //Beneficiary registration started (finalStatus-3) / _accepted-1 / rejected-2\r\n            else {\r\n                if(keccak256(abi.encodePacked(_id,_dstnId,_credentials,_approvalStatus,secret)) == _token) {\r\n                    Beneficiary memory br;\r\n                    br.id = _id;\r\n                    br.dstnId = _dstnId;\r\n                    br.credentials = _credentials;\r\n                    br.approved = new address[](1);\r\n                    br.approved[0] = msg.sender;\r\n                    br.rejected = new address[](0);\r\n                    br.finalStatus = 3;\r\n                    \r\n                    beneficiaries[_id] = br;\r\n                \r\n                    emit BeneficiaryValidation(\r\n                        msg.sender,\r\n                        _id, \r\n                        _dstnId, \r\n                        _credentials,\r\n                        beneficiaries[_id].approved, \r\n                        beneficiaries[_id].rejected,\r\n                        3,\r\n                        200\r\n                    ); \r\n                }\r\n                else\r\n                    emit NewBeneficiary(_id, beneficiaries[_id].finalStatus, _credentials, _dstnId, 403); // 403 :  Forbidden action as tokens mismatch\r\n            }\r\n        }\r\n        else\r\n            emit NewBeneficiary(_id, beneficiaries[_id].finalStatus, _credentials, _dstnId, 401);  //401 authority not authorized to add Beneficiary\r\n    }\r\n\r\n    function getBeneficiaries(uint _dstnPointId) public view returns(uint[] memory) {\r\n        if(beneficiaryCount<=0)\r\n        return new uint[](0);\r\n        require(_dstnPointId>=0 && _dstnPointId<dstnPoints.length, \"Invalid DistributionPoint id\");\r\n        return dstnPoints[_dstnPointId-1].beneficiaryIds;\r\n        //returns beneficiary Ids of a dstn point\r\n    }\r\n    \r\n    function addAuthority(uint _level, uint _entityId, address _authorityId) public{\r\n        require(_level>0 && _level<4, \"invalid level\");\r\n        if(_level==1)\r\n        states[_entityId-1].authorities[_authorityId] = true;\r\n        else if(_level==2)\r\n        districts[_entityId-1].authorities[_authorityId] = true;\r\n        else if(_level==3)\r\n        {\r\n            dstnPoints[_entityId-1].authorities[_authorityId] = true;\r\n            dstnPoints[_entityId-1].authoritiesList.push(_authorityId);\r\n        }\r\n        emit NewAuthority(_level, _entityId, _authorityId);\r\n    }\r\n\r\n    function authorizeSigner(string memory _type, address _signer, uint _entityId) public view returns(bool){\r\n        \r\n        bool isAuthorized;\r\n\r\n        if(keccak256(abi.encode(_type)) == keccak256(abi.encode(\"Central\")))\r\n        isAuthorized = centralAuthId == _signer;\r\n        \r\n        if(keccak256(abi.encode(_type)) == keccak256(abi.encode(\"State\")))\r\n        isAuthorized = states[_entityId-1].authorities[_signer];\r\n        \r\n        if(keccak256(abi.encode(_type)) == keccak256(abi.encode(\"District\")))\r\n        isAuthorized = districts[_entityId-1].authorities[_signer];\r\n        \r\n        if(keccak256(abi.encode(_type)) == keccak256(abi.encode(\"Distn. Point\")))\r\n        isAuthorized = dstnPoints[_entityId-1].authorities[_signer];\r\n       \r\n        return isAuthorized;\r\n        \r\n    }\r\n}",
  "sourcePath": "F:/Prjcts/Capstone/identify/contracts/CredentialManager.sol",
  "compiler": {
    "name": "solc",
    "version": "0.8.3+commit.8d00100c.Emscripten.clang"
  },
  "schemaVersion": "3.3.3",
  "updatedAt": "2021-06-04T11:41:58.866Z",
  "networkType": "ethereum",
  "devdoc": {
    "kind": "dev",
    "methods": {},
    "version": 1
  },
  "userdoc": {
    "kind": "user",
    "methods": {},
    "version": 1
  }
}