{
  "contractName": "CredentialManager",
  "abi": [
    {
      "inputs": [],
      "stateMutability": "nonpayable",
      "type": "constructor"
    },
    {
      "anonymous": false,
      "inputs": [
        {
          "indexed": false,
          "internalType": "address",
          "name": "_initiator",
          "type": "address"
        },
        {
          "indexed": true,
          "internalType": "uint256",
          "name": "_id",
          "type": "uint256"
        },
        {
          "indexed": false,
          "internalType": "uint256",
          "name": "_dstnId",
          "type": "uint256"
        },
        {
          "indexed": false,
          "internalType": "string",
          "name": "_credentials",
          "type": "string"
        },
        {
          "indexed": false,
          "internalType": "address[]",
          "name": "_accepted",
          "type": "address[]"
        },
        {
          "indexed": false,
          "internalType": "address[]",
          "name": "_rejected",
          "type": "address[]"
        },
        {
          "indexed": false,
          "internalType": "uint256",
          "name": "_finalStatus",
          "type": "uint256"
        },
        {
          "indexed": false,
          "internalType": "uint256",
          "name": "_statusCode",
          "type": "uint256"
        }
      ],
      "name": "BeneficiaryValidation",
      "type": "event"
    },
    {
      "anonymous": false,
      "inputs": [
        {
          "indexed": false,
          "internalType": "uint256",
          "name": "_level",
          "type": "uint256"
        },
        {
          "indexed": false,
          "internalType": "uint256",
          "name": "_entityId",
          "type": "uint256"
        },
        {
          "indexed": false,
          "internalType": "address",
          "name": "_authorityId",
          "type": "address"
        }
      ],
      "name": "NewAuthority",
      "type": "event"
    },
    {
      "anonymous": false,
      "inputs": [
        {
          "indexed": false,
          "internalType": "uint256",
          "name": "_id",
          "type": "uint256"
        },
        {
          "indexed": false,
          "internalType": "uint256",
          "name": "_finalStatus",
          "type": "uint256"
        },
        {
          "indexed": false,
          "internalType": "string",
          "name": "_credentials",
          "type": "string"
        },
        {
          "indexed": false,
          "internalType": "uint256",
          "name": "_dstnId",
          "type": "uint256"
        },
        {
          "indexed": false,
          "internalType": "uint256",
          "name": "_statusCode",
          "type": "uint256"
        }
      ],
      "name": "NewBeneficiary",
      "type": "event"
    },
    {
      "anonymous": false,
      "inputs": [
        {
          "indexed": false,
          "internalType": "uint256",
          "name": "_id",
          "type": "uint256"
        },
        {
          "indexed": false,
          "internalType": "string",
          "name": "_name",
          "type": "string"
        },
        {
          "indexed": false,
          "internalType": "uint256",
          "name": "_stateId",
          "type": "uint256"
        }
      ],
      "name": "NewDistrict",
      "type": "event"
    },
    {
      "anonymous": false,
      "inputs": [
        {
          "indexed": false,
          "internalType": "uint256",
          "name": "_id",
          "type": "uint256"
        },
        {
          "indexed": false,
          "internalType": "string",
          "name": "_name",
          "type": "string"
        },
        {
          "indexed": false,
          "internalType": "uint256",
          "name": "_districtId",
          "type": "uint256"
        }
      ],
      "name": "NewDstnPoint",
      "type": "event"
    },
    {
      "anonymous": false,
      "inputs": [
        {
          "indexed": false,
          "internalType": "uint256",
          "name": "_id",
          "type": "uint256"
        },
        {
          "indexed": false,
          "internalType": "string",
          "name": "_name",
          "type": "string"
        }
      ],
      "name": "NewState",
      "type": "event"
    },
    {
      "inputs": [
        {
          "internalType": "uint256",
          "name": "",
          "type": "uint256"
        }
      ],
      "name": "beneficiaries",
      "outputs": [
        {
          "internalType": "uint256",
          "name": "id",
          "type": "uint256"
        },
        {
          "internalType": "uint256",
          "name": "dstnId",
          "type": "uint256"
        },
        {
          "internalType": "string",
          "name": "credentials",
          "type": "string"
        },
        {
          "internalType": "uint256",
          "name": "finalStatus",
          "type": "uint256"
        }
      ],
      "stateMutability": "view",
      "type": "function",
      "constant": true
    },
    {
      "inputs": [],
      "name": "beneficiaryCount",
      "outputs": [
        {
          "internalType": "uint256",
          "name": "",
          "type": "uint256"
        }
      ],
      "stateMutability": "view",
      "type": "function",
      "constant": true
    },
    {
      "inputs": [],
      "name": "centralAuthId",
      "outputs": [
        {
          "internalType": "address",
          "name": "",
          "type": "address"
        }
      ],
      "stateMutability": "view",
      "type": "function",
      "constant": true
    },
    {
      "inputs": [
        {
          "internalType": "uint256",
          "name": "",
          "type": "uint256"
        }
      ],
      "name": "districts",
      "outputs": [
        {
          "internalType": "uint256",
          "name": "id",
          "type": "uint256"
        },
        {
          "internalType": "uint256",
          "name": "stateId",
          "type": "uint256"
        },
        {
          "internalType": "string",
          "name": "name",
          "type": "string"
        }
      ],
      "stateMutability": "view",
      "type": "function",
      "constant": true
    },
    {
      "inputs": [
        {
          "internalType": "uint256",
          "name": "",
          "type": "uint256"
        }
      ],
      "name": "dstnPoints",
      "outputs": [
        {
          "internalType": "uint256",
          "name": "id",
          "type": "uint256"
        },
        {
          "internalType": "uint256",
          "name": "districtId",
          "type": "uint256"
        },
        {
          "internalType": "string",
          "name": "name",
          "type": "string"
        }
      ],
      "stateMutability": "view",
      "type": "function",
      "constant": true
    },
    {
      "inputs": [
        {
          "internalType": "uint256",
          "name": "",
          "type": "uint256"
        }
      ],
      "name": "states",
      "outputs": [
        {
          "internalType": "uint256",
          "name": "id",
          "type": "uint256"
        },
        {
          "internalType": "string",
          "name": "name",
          "type": "string"
        }
      ],
      "stateMutability": "view",
      "type": "function",
      "constant": true
    },
    {
      "inputs": [
        {
          "internalType": "string",
          "name": "_name",
          "type": "string"
        }
      ],
      "name": "addState",
      "outputs": [],
      "stateMutability": "nonpayable",
      "type": "function"
    },
    {
      "inputs": [
        {
          "internalType": "string",
          "name": "_districtName",
          "type": "string"
        },
        {
          "internalType": "uint256",
          "name": "_stateId",
          "type": "uint256"
        }
      ],
      "name": "addDistrict",
      "outputs": [],
      "stateMutability": "nonpayable",
      "type": "function"
    },
    {
      "inputs": [
        {
          "internalType": "string",
          "name": "_dstnPointName",
          "type": "string"
        },
        {
          "internalType": "uint256",
          "name": "_districtId",
          "type": "uint256"
        }
      ],
      "name": "addDstnPoint",
      "outputs": [],
      "stateMutability": "nonpayable",
      "type": "function"
    },
    {
      "inputs": [
        {
          "internalType": "uint256",
          "name": "_id",
          "type": "uint256"
        },
        {
          "internalType": "string",
          "name": "_credentials",
          "type": "string"
        },
        {
          "internalType": "uint256",
          "name": "_dstnId",
          "type": "uint256"
        },
        {
          "internalType": "uint256",
          "name": "_approvalStatus",
          "type": "uint256"
        }
      ],
      "name": "getToken",
      "outputs": [
        {
          "internalType": "bytes32",
          "name": "",
          "type": "bytes32"
        }
      ],
      "stateMutability": "view",
      "type": "function",
      "constant": true
    },
    {
      "inputs": [
        {
          "internalType": "uint256",
          "name": "_id",
          "type": "uint256"
        },
        {
          "internalType": "uint256",
          "name": "_dstnId",
          "type": "uint256"
        },
        {
          "internalType": "uint256",
          "name": "_approvalStatus",
          "type": "uint256"
        }
      ],
      "name": "authBeneficiary",
      "outputs": [],
      "stateMutability": "nonpayable",
      "type": "function"
    },
    {
      "inputs": [
        {
          "internalType": "uint256",
          "name": "_id",
          "type": "uint256"
        },
        {
          "internalType": "string",
          "name": "_credentials",
          "type": "string"
        },
        {
          "internalType": "uint256",
          "name": "_dstnId",
          "type": "uint256"
        },
        {
          "internalType": "uint256",
          "name": "_approvalStatus",
          "type": "uint256"
        },
        {
          "internalType": "bytes32",
          "name": "_token",
          "type": "bytes32"
        }
      ],
      "name": "initiateBeneficiaryRegistration",
      "outputs": [],
      "stateMutability": "nonpayable",
      "type": "function"
    },
    {
      "inputs": [
        {
          "internalType": "uint256",
          "name": "_dstnPointId",
          "type": "uint256"
        }
      ],
      "name": "getBeneficiaries",
      "outputs": [
        {
          "internalType": "uint256[]",
          "name": "",
          "type": "uint256[]"
        }
      ],
      "stateMutability": "view",
      "type": "function",
      "constant": true
    },
    {
      "inputs": [
        {
          "internalType": "uint256",
          "name": "_level",
          "type": "uint256"
        },
        {
          "internalType": "uint256",
          "name": "_entityId",
          "type": "uint256"
        },
        {
          "internalType": "address",
          "name": "_authorityId",
          "type": "address"
        }
      ],
      "name": "addAuthority",
      "outputs": [],
      "stateMutability": "nonpayable",
      "type": "function"
    },
    {
      "inputs": [
        {
          "internalType": "string",
          "name": "_type",
          "type": "string"
        },
        {
          "internalType": "address",
          "name": "_signer",
          "type": "address"
        },
        {
          "internalType": "uint256",
          "name": "_entityId",
          "type": "uint256"
        }
      ],
      "name": "authorizeSigner",
      "outputs": [
        {
          "internalType": "bool",
          "name": "",
          "type": "bool"
        }
      ],
      "stateMutability": "view",
      "type": "function",
      "constant": true
    }
  ],
  "bytecode": "0x60806040526040518060400160405280601181526020017f6964656e746966794063617073746f6e65000000000000000000000000000000815250600090805190602001906200005192919062000d74565b5073f17f52151ebef6c7334fad080c5704d77216b732600160006101000a81548173ffffffffffffffffffffffffffffffffffffffff021916908373ffffffffffffffffffffffffffffffffffffffff160217905550348015620000b457600080fd5b5060006040518061038001604052806040518060400160405280600e81526020017f416e64687261205072616465736800000000000000000000000000000000000081525081526020016040518060400160405280601181526020017f4172756e616368616c205072616465736800000000000000000000000000000081525081526020016040518060400160405280600581526020017f417373616d00000000000000000000000000000000000000000000000000000081525081526020016040518060400160405280600581526020017f426968617200000000000000000000000000000000000000000000000000000081525081526020016040518060400160405280600c81526020017f436868617474697367617268000000000000000000000000000000000000000081525081526020016040518060400160405280600381526020017f476f61000000000000000000000000000000000000000000000000000000000081525081526020016040518060400160405280600781526020017f47756a617261740000000000000000000000000000000000000000000000000081525081526020016040518060400160405280600781526020017f48617279616e610000000000000000000000000000000000000000000000000081525081526020016040518060400160405280601081526020017f48696d616368616c20507261646573680000000000000000000000000000000081525081526020016040518060400160405280600981526020017f4a6861726b68616e64000000000000000000000000000000000000000000000081525081526020016040518060400160405280600981526020017f4b61726e6174616b61000000000000000000000000000000000000000000000081525081526020016040518060400160405280600681526020017f4b6572616c61000000000000000000000000000000000000000000000000000081525081526020016040518060400160405280600e81526020017f4d6164687961205072616465736800000000000000000000000000000000000081525081526020016040518060400160405280600b81526020017f4d6168617261736874726100000000000000000000000000000000000000000081525081526020016040518060400160405280600781526020017f4d616e697075720000000000000000000000000000000000000000000000000081525081526020016040518060400160405280600981526020017f4d656768616c617961000000000000000000000000000000000000000000000081525081526020016040518060400160405280600781526020017f4d697a6f72616d0000000000000000000000000000000000000000000000000081525081526020016040518060400160405280600881526020017f4e6167616c616e6400000000000000000000000000000000000000000000000081525081526020016040518060400160405280600681526020017f4f6469736861000000000000000000000000000000000000000000000000000081525081526020016040518060400160405280600681526020017f50756e6a6162000000000000000000000000000000000000000000000000000081525081526020016040518060400160405280600981526020017f52616a61737468616e000000000000000000000000000000000000000000000081525081526020016040518060400160405280600681526020017f53696b6b696d000000000000000000000000000000000000000000000000000081525081526020016040518060400160405280600a81526020017f54616d696c204e6164750000000000000000000000000000000000000000000081525081526020016040518060400160405280600981526020017f54656c616e67616e61000000000000000000000000000000000000000000000081525081526020016040518060400160405280600781526020017f547269707572610000000000000000000000000000000000000000000000000081525081526020016040518060400160405280600d81526020017f557474617220507261646573680000000000000000000000000000000000000081525081526020016040518060400160405280600b81526020017f5574746172616b68616e6400000000000000000000000000000000000000000081525081526020016040518060400160405280600b81526020017f576573742042656e67616c000000000000000000000000000000000000000000815250815250905060005b601c811015620007a957620007938282601c811062000782577f4e487b7100000000000000000000000000000000000000000000000000000000600052603260045260246000fd5b602002015162000a9e60201b60201c565b8080620007a09062001018565b9150506200073a565b600060405180608001604052806040518060400160405280600281526020017f643100000000000000000000000000000000000000000000000000000000000081525081526020016040518060400160405280600281526020017f643200000000000000000000000000000000000000000000000000000000000081525081526020016040518060400160405280600281526020017f643300000000000000000000000000000000000000000000000000000000000081525081526020016040518060400160405280600281526020017f64340000000000000000000000000000000000000000000000000000000000008152508152509050600091505b6004821015620009185762000902818360048110620008ef577f4e487b7100000000000000000000000000000000000000000000000000000000600052603260045260246000fd5b6020020151600162000b8860201b60201c565b81806200090f9062001018565b925050620008a7565b600060405180608001604052806040518060400160405280600481526020017f64702d310000000000000000000000000000000000000000000000000000000081525081526020016040518060400160405280600481526020017f64702d320000000000000000000000000000000000000000000000000000000081525081526020016040518060400160405280600481526020017f64702d330000000000000000000000000000000000000000000000000000000081525081526020016040518060400160405280600481526020017f64702d34000000000000000000000000000000000000000000000000000000008152508152509050600092505b600483101562000a945762000a7e81846004811062000a5e577f4e487b7100000000000000000000000000000000000000000000000000000000600052603260045260246000fd5b602002015160018562000a72919062000f0a565b62000c7e60201b60201c565b828062000a8b9062001018565b93505062000a16565b50505050620010d5565b60066001816001815401808255809150500390600052602060002090505060006006600160068054905062000ad4919062000f67565b8154811062000b0c577f4e487b7100000000000000000000000000000000000000000000000000000000600052603260045260246000fd5b9060005260206000209060030201905060068054905081600001819055508181600201908051906020019062000b4492919062000d74565b507f5118442027d611358f8561ea9534df2708a1f1b1480bc00a177481644a71cb3181600001548360405162000b7c92919062000e76565b60405180910390a15050565b60056001816001815401808255809150500390600052602060002090505060006005600160058054905062000bbe919062000f67565b8154811062000bf6577f4e487b7100000000000000000000000000000000000000000000000000000000600052603260045260246000fd5b9060005260206000209060040201905060058054905081600001819055508281600301908051906020019062000c2e92919062000d74565b508181600101819055507f5a455249f9b31b8e5c44c592ae8a4c1b2687a6e66d02ab5f4faf66649de945ed8160000154848460405162000c719392919062000eaa565b60405180910390a1505050565b60046001816001815401808255809150500390600052602060002090505060006004600160048054905062000cb4919062000f67565b8154811062000cec577f4e487b7100000000000000000000000000000000000000000000000000000000600052603260045260246000fd5b9060005260206000209060060201905060048054905081600001819055508281600501908051906020019062000d2492919062000d74565b508181600101819055507f357047ddfe6d3d71d9ffe78fbdf6def0d4735bfcaddf764c0d5b5307b02228788160000154848460405162000d679392919062000eaa565b60405180910390a1505050565b82805462000d829062000fe2565b90600052602060002090601f01602090048101928262000da6576000855562000df2565b82601f1062000dc157805160ff191683800117855562000df2565b8280016001018555821562000df2579182015b8281111562000df157825182559160200191906001019062000dd4565b5b50905062000e01919062000e05565b5090565b5b8082111562000e2057600081600090555060010162000e06565b5090565b600062000e318262000eee565b62000e3d818562000ef9565b935062000e4f81856020860162000fac565b62000e5a81620010c4565b840191505092915050565b62000e708162000fa2565b82525050565b600060408201905062000e8d600083018562000e65565b818103602083015262000ea1818462000e24565b90509392505050565b600060608201905062000ec1600083018662000e65565b818103602083015262000ed5818562000e24565b905062000ee6604083018462000e65565b949350505050565b600081519050919050565b600082825260208201905092915050565b600062000f178262000fa2565b915062000f248362000fa2565b9250827fffffffffffffffffffffffffffffffffffffffffffffffffffffffffffffffff0382111562000f5c5762000f5b62001066565b5b828201905092915050565b600062000f748262000fa2565b915062000f818362000fa2565b92508282101562000f975762000f9662001066565b5b828203905092915050565b6000819050919050565b60005b8381101562000fcc57808201518184015260208101905062000faf565b8381111562000fdc576000848401525b50505050565b6000600282049050600182168062000ffb57607f821691505b6020821081141562001012576200101162001095565b5b50919050565b6000620010258262000fa2565b91507fffffffffffffffffffffffffffffffffffffffffffffffffffffffffffffffff8214156200105b576200105a62001066565b5b600182019050919050565b7f4e487b7100000000000000000000000000000000000000000000000000000000600052601160045260246000fd5b7f4e487b7100000000000000000000000000000000000000000000000000000000600052602260045260246000fd5b6000601f19601f8301169050919050565b61308280620010e56000396000f3fe608060405234801561001057600080fd5b50600436106100f55760003560e01c8063783804d911610097578063daa3b67b11610066578063daa3b67b14610285578063e77995e0146102b5578063efeb5e58146102e7578063f6f0267d1461031a576100f5565b8063783804d9146101e95780638d1e2d0c146102195780638f971f031461024b57806399dea89414610269576100f5565b80632a34ede1116100d35780632a34ede1146101775780634fab34561461019357806352011c81146101af578063734b2a7c146101cb576100f5565b8063017a9105146100fa5780630daaaf161461012b57806311af53af1461015b575b600080fd5b610114600480360381019061010f9190611e66565b610336565b604051610122929190612870565b60405180910390f35b61014560048036038101906101409190611e8f565b6103f2565b60405161015291906126fe565b60405180910390f35b61017560048036038101906101709190611f99565b61042e565b005b610191600480360381019061018c9190611d6a565b6107a4565b005b6101ad60048036038101906101a89190611e12565b610887565b005b6101c960048036038101906101c49190611fe8565b610976565b005b6101d3610e9d565b6040516101e091906127fb565b60405180910390f35b61020360048036038101906101fe9190611e66565b610ea3565b60405161021091906126c1565b60405180910390f35b610233600480360381019061022e9190611e66565b611028565b60405161024293929190612915565b60405180910390f35b6102536110ea565b6040516102609190612496565b60405180910390f35b610283600480360381019061027e9190611e12565b611110565b005b61029f600480360381019061029a9190611dab565b6111ff565b6040516102ac91906126e3565b60405180910390f35b6102cf60048036038101906102ca9190611e66565b611598565b6040516102de93929190612915565b60405180910390f35b61030160048036038101906102fc9190611e66565b61165a565b6040516103119493929190612953565b60405180910390f35b610334600480360381019061032f9190611f0a565b611712565b005b6006818154811061034657600080fd5b906000526020600020906003020160009150905080600001549080600201805461036f90612dcc565b80601f016020809104026020016040519081016040528092919081815260200182805461039b90612dcc565b80156103e85780601f106103bd576101008083540402835291602001916103e8565b820191906000526020600020905b8154815290600101906020018083116103cb57829003601f168201915b5050505050905082565b600084838584600060405160200161040e95949392919061243f565b604051602081830303815290604052805190602001209050949350505050565b60008311801561043e5750600483105b61047d576040517f08c379a00000000000000000000000000000000000000000000000000000000081526004016104749061277b565b60405180910390fd5b600183141561053857600160066001846104979190612c66565b815481106104ce577f4e487b7100000000000000000000000000000000000000000000000000000000600052603260045260246000fd5b906000526020600020906003020160010160008373ffffffffffffffffffffffffffffffffffffffff1673ffffffffffffffffffffffffffffffffffffffff16815260200190815260200160002060006101000a81548160ff021916908315150217905550610764565b60028314156105f357600160056001846105529190612c66565b81548110610589577f4e487b7100000000000000000000000000000000000000000000000000000000600052603260045260246000fd5b906000526020600020906004020160020160008373ffffffffffffffffffffffffffffffffffffffff1673ffffffffffffffffffffffffffffffffffffffff16815260200190815260200160002060006101000a81548160ff021916908315150217905550610763565b6003831415610762576001600460018461060d9190612c66565b81548110610644577f4e487b7100000000000000000000000000000000000000000000000000000000600052603260045260246000fd5b906000526020600020906006020160030160008373ffffffffffffffffffffffffffffffffffffffff1673ffffffffffffffffffffffffffffffffffffffff16815260200190815260200160002060006101000a81548160ff02191690831515021790555060046001836106b89190612c66565b815481106106ef577f4e487b7100000000000000000000000000000000000000000000000000000000600052603260045260246000fd5b9060005260206000209060060201600401819080600181540180825580915050600190039060005260206000200160009091909190916101000a81548173ffffffffffffffffffffffffffffffffffffffff021916908373ffffffffffffffffffffffffffffffffffffffff1602179055505b5b5b7feed4f6de47397d103ceffd01744ea7c5f2a30696d73adecea2bca5665efd77d2838383604051610797939291906128de565b60405180910390a1505050565b6006600181600181540180825580915050039060005260206000209050506000600660016006805490506107d89190612c66565b8154811061080f577f4e487b7100000000000000000000000000000000000000000000000000000000600052603260045260246000fd5b90600052602060002090600302019050600680549050816000018190555081816002019080519060200190610845929190611b60565b507f5118442027d611358f8561ea9534df2708a1f1b1480bc00a177481644a71cb3181600001548360405161087b929190612870565b60405180910390a15050565b6005600181600181540180825580915050039060005260206000209050506000600560016005805490506108bb9190612c66565b815481106108f2577f4e487b7100000000000000000000000000000000000000000000000000000000600052603260045260246000fd5b90600052602060002090600402019050600580549050816000018190555082816003019080519060200190610928929190611b60565b508181600101819055507f5a455249f9b31b8e5c44c592ae8a4c1b2687a6e66d02ab5f4faf66649de945ed81600001548484604051610969939291906128a0565b60405180910390a1505050565b6109b66040518060400160405280600c81526020017f446973746e2e20506f696e74000000000000000000000000000000000000000081525033846111ff565b15610e11576000600260008581526020019081526020016000206005015414610d70576002811415610a5e5760026000848152602001908152602001600020600401339080600181540180825580915050600190039060005260206000200160009091909190916101000a81548173ffffffffffffffffffffffffffffffffffffffff021916908373ffffffffffffffffffffffffffffffffffffffff160217905550610ae0565b6001811415610adf5760026000848152602001908152602001600020600301339080600181540180825580915050600190039060005260206000200160009091909190916101000a81548173ffffffffffffffffffffffffffffffffffffffff021916908373ffffffffffffffffffffffffffffffffffffffff1602179055505b5b60006004600184610af19190612c66565b81548110610b28577f4e487b7100000000000000000000000000000000000000000000000000000000600052603260045260246000fd5b906000526020600020906006020160040180549050905060006002600086815260200190815260200160002060030180549050905060006002600087815260200190815260200160002060040180549050905082816002610b899190612c0c565b10610bae57600280600088815260200190815260200160002060050181905550610cce565b82826002610bbc9190612c0c565b1115610ccd57600160026000888152602001908152602001600020600501819055506004600186610bed9190612c66565b81548110610c24577f4e487b7100000000000000000000000000000000000000000000000000000000600052603260045260246000fd5b9060005260206000209060060201600201869080600181540180825580915050600190039060005260206000200160009091909190915055600160036000828254610c6f9190612bb6565b925050819055507fb2420315f443a44de2835af0e0daa2b428f40b5aeb0b779e1b140f97e82cc882866001600260008a81526020019081526020016000206002018860c8604051610cc4959493929190612816565b60405180910390a15b5b857fc5d7ec6bc9020326623609ff49322e59634b6a1d27d908fda63aeb44104656dc3387600260008b8152602001908152602001600020600201600260008c8152602001908152602001600020600301600260008d8152602001908152602001600020600401600260008e81526020019081526020016000206005015460c8604051610d6097969594939291906125b9565b60405180910390a2505050610e0c565b827fc5d7ec6bc9020326623609ff49322e59634b6a1d27d908fda63aeb44104656dc33846002600088815260200190815260200160002060020160026000898152602001908152602001600020600301600260008a8152602001908152602001600020600401600260008b815260200190815260200160002060050154610193604051610e03979695949392919061263d565b60405180910390a25b610e98565b827fc5d7ec6bc9020326623609ff49322e59634b6a1d27d908fda63aeb44104656dc33846002600088815260200190815260200160002060020160026000898152602001908152602001600020600301600260008a81526020019081526020016000206004016002610191604051610e8f9796959493929190612535565b60405180910390a25b505050565b60035481565b6060600060035411610f2657600067ffffffffffffffff811115610ef0577f4e487b7100000000000000000000000000000000000000000000000000000000600052604160045260246000fd5b604051908082528060200260200182016040528015610f1e5781602001602082028036833780820191505090505b509050611023565b60008210158015610f3b575060048054905082105b610f7a576040517f08c379a0000000000000000000000000000000000000000000000000000000008152600401610f71906127db565b60405180910390fd5b6004600183610f899190612c66565b81548110610fc0577f4e487b7100000000000000000000000000000000000000000000000000000000600052603260045260246000fd5b906000526020600020906006020160020180548060200260200160405190810160405280929190818152602001828054801561101b57602002820191906000526020600020905b815481526020019060010190808311611007575b505050505090505b919050565b6004818154811061103857600080fd5b906000526020600020906006020160009150905080600001549080600101549080600501805461106790612dcc565b80601f016020809104026020016040519081016040528092919081815260200182805461109390612dcc565b80156110e05780601f106110b5576101008083540402835291602001916110e0565b820191906000526020600020905b8154815290600101906020018083116110c357829003601f168201915b5050505050905083565b600160009054906101000a900473ffffffffffffffffffffffffffffffffffffffff1681565b6004600181600181540180825580915050039060005260206000209050506000600460016004805490506111449190612c66565b8154811061117b577f4e487b7100000000000000000000000000000000000000000000000000000000600052603260045260246000fd5b906000526020600020906006020190506004805490508160000181905550828160050190805190602001906111b1929190611b60565b508181600101819055507f357047ddfe6d3d71d9ffe78fbdf6def0d4735bfcaddf764c0d5b5307b0222878816000015484846040516111f2939291906128a0565b60405180910390a1505050565b6000806040516020016112119061275b565b60405160208183030381529060405280519060200120856040516020016112389190612719565b6040516020818303038152906040528051906020012014156112a8578373ffffffffffffffffffffffffffffffffffffffff16600160009054906101000a900473ffffffffffffffffffffffffffffffffffffffff1673ffffffffffffffffffffffffffffffffffffffff161490505b6040516020016112b79061279b565b60405160208183030381529060405280519060200120856040516020016112de9190612719565b60405160208183030381529060405280519060200120141561139f5760066001846113099190612c66565b81548110611340577f4e487b7100000000000000000000000000000000000000000000000000000000600052603260045260246000fd5b906000526020600020906003020160010160008573ffffffffffffffffffffffffffffffffffffffff1673ffffffffffffffffffffffffffffffffffffffff16815260200190815260200160002060009054906101000a900460ff1690505b6040516020016113ae9061273b565b60405160208183030381529060405280519060200120856040516020016113d59190612719565b6040516020818303038152906040528051906020012014156114965760056001846114009190612c66565b81548110611437577f4e487b7100000000000000000000000000000000000000000000000000000000600052603260045260246000fd5b906000526020600020906004020160020160008573ffffffffffffffffffffffffffffffffffffffff1673ffffffffffffffffffffffffffffffffffffffff16815260200190815260200160002060009054906101000a900460ff1690505b6040516020016114a5906127bb565b60405160208183030381529060405280519060200120856040516020016114cc9190612719565b60405160208183030381529060405280519060200120141561158d5760046001846114f79190612c66565b8154811061152e577f4e487b7100000000000000000000000000000000000000000000000000000000600052603260045260246000fd5b906000526020600020906006020160030160008573ffffffffffffffffffffffffffffffffffffffff1673ffffffffffffffffffffffffffffffffffffffff16815260200190815260200160002060009054906101000a900460ff1690505b809150509392505050565b600581815481106115a857600080fd5b90600052602060002090600402016000915090508060000154908060010154908060030180546115d790612dcc565b80601f016020809104026020016040519081016040528092919081815260200182805461160390612dcc565b80156116505780601f1061162557610100808354040283529160200191611650565b820191906000526020600020905b81548152906001019060200180831161163357829003601f168201915b5050505050905083565b600260205280600052604060002060009150905080600001549080600101549080600201805461168990612dcc565b80601f01602080910402602001604051908101604052809291908181526020018280546116b590612dcc565b80156117025780601f106116d757610100808354040283529160200191611702565b820191906000526020600020905b8154815290600101906020018083116116e557829003601f168201915b5050505050908060050154905084565b6117526040518060400160405280600c81526020017f446973746e2e20506f696e74000000000000000000000000000000000000000081525033856111ff565b15611b015760006002600087815260200190815260200160002060050154146117d1577fb2420315f443a44de2835af0e0daa2b428f40b5aeb0b779e1b140f97e82cc88285600260008881526020019081526020016000206005015486866101996040516117c4959493929190612a53565b60405180910390a1611afc565b808584868560006040516020016117ec95949392919061243f565b604051602081830303815290604052805190602001201415611aa357611810611be6565b8581600001818152505083816020018181525050848160400181905250600167ffffffffffffffff81111561186e577f4e487b7100000000000000000000000000000000000000000000000000000000600052604160045260246000fd5b60405190808252806020026020018201604052801561189c5781602001602082028036833780820191505090505b5081606001819052503381606001516000815181106118e4577f4e487b7100000000000000000000000000000000000000000000000000000000600052603260045260246000fd5b602002602001019073ffffffffffffffffffffffffffffffffffffffff16908173ffffffffffffffffffffffffffffffffffffffff1681525050600067ffffffffffffffff81111561195f577f4e487b7100000000000000000000000000000000000000000000000000000000600052604160045260246000fd5b60405190808252806020026020018201604052801561198d5781602001602082028036833780820191505090505b50816080018190525060038160a00181815250508060026000888152602001908152602001600020600082015181600001556020820151816001015560408201518160020190805190602001906119e5929190611b60565b506060820151816003019080519060200190611a02929190611c1c565b506080820151816004019080519060200190611a1f929190611c1c565b5060a08201518160050155905050857fc5d7ec6bc9020326623609ff49322e59634b6a1d27d908fda63aeb44104656dc338688600260008c8152602001908152602001600020600301600260008d8152602001908152602001600020600401600360c8604051611a9597969594939291906124b1565b60405180910390a250611afb565b7fb2420315f443a44de2835af0e0daa2b428f40b5aeb0b779e1b140f97e82cc8828560026000888152602001908152602001600020600501548686610193604051611af29594939291906129f9565b60405180910390a15b5b611b59565b7fb2420315f443a44de2835af0e0daa2b428f40b5aeb0b779e1b140f97e82cc8828560026000888152602001908152602001600020600501548686610191604051611b5095949392919061299f565b60405180910390a15b5050505050565b828054611b6c90612dcc565b90600052602060002090601f016020900481019282611b8e5760008555611bd5565b82601f10611ba757805160ff1916838001178555611bd5565b82800160010185558215611bd5579182015b82811115611bd4578251825591602001919060010190611bb9565b5b509050611be29190611ca6565b5090565b6040518060c001604052806000815260200160008152602001606081526020016060815260200160608152602001600081525090565b828054828255906000526020600020908101928215611c95579160200282015b82811115611c945782518260006101000a81548173ffffffffffffffffffffffffffffffffffffffff021916908373ffffffffffffffffffffffffffffffffffffffff16021790555091602001919060010190611c3c565b5b509050611ca29190611ca6565b5090565b5b80821115611cbf576000816000905550600101611ca7565b5090565b6000611cd6611cd184612ad2565b612aad565b905082815260208101848484011115611cee57600080fd5b611cf9848285612d8a565b509392505050565b600081359050611d1081613007565b92915050565b600081359050611d258161301e565b92915050565b600082601f830112611d3c57600080fd5b8135611d4c848260208601611cc3565b91505092915050565b600081359050611d6481613035565b92915050565b600060208284031215611d7c57600080fd5b600082013567ffffffffffffffff811115611d9657600080fd5b611da284828501611d2b565b91505092915050565b600080600060608486031215611dc057600080fd5b600084013567ffffffffffffffff811115611dda57600080fd5b611de686828701611d2b565b9350506020611df786828701611d01565b9250506040611e0886828701611d55565b9150509250925092565b60008060408385031215611e2557600080fd5b600083013567ffffffffffffffff811115611e3f57600080fd5b611e4b85828601611d2b565b9250506020611e5c85828601611d55565b9150509250929050565b600060208284031215611e7857600080fd5b6000611e8684828501611d55565b91505092915050565b60008060008060808587031215611ea557600080fd5b6000611eb387828801611d55565b945050602085013567ffffffffffffffff811115611ed057600080fd5b611edc87828801611d2b565b9350506040611eed87828801611d55565b9250506060611efe87828801611d55565b91505092959194509250565b600080600080600060a08688031215611f2257600080fd5b6000611f3088828901611d55565b955050602086013567ffffffffffffffff811115611f4d57600080fd5b611f5988828901611d2b565b9450506040611f6a88828901611d55565b9350506060611f7b88828901611d55565b9250506080611f8c88828901611d16565b9150509295509295909350565b600080600060608486031215611fae57600080fd5b6000611fbc86828701611d55565b9350506020611fcd86828701611d55565b9250506040611fde86828701611d01565b9150509250925092565b600080600060608486031215611ffd57600080fd5b600061200b86828701611d55565b935050602061201c86828701611d55565b925050604061202d86828701611d55565b9150509250925092565b60006120438383612067565b60208301905092915050565b600061205b838361240a565b60208301905092915050565b61207081612cba565b82525050565b61207f81612cba565b82525050565b600061209082612b3d565b61209a8185612b78565b93506120a583612b03565b8060005b838110156120dd576120ba82612ee0565b6120c48882612037565b97506120cf83612b5e565b9250506001810190506120a9565b5085935050505092915050565b60006120f582612b48565b6120ff8185612b89565b935061210a83612b18565b8060005b8381101561213b578151612122888261204f565b975061212d83612b6b565b92505060018101905061210e565b5085935050505092915050565b61215181612ccc565b82525050565b61216081612cd8565b82525050565b61216f81612d0c565b82525050565b61217e81612d1e565b82525050565b61218d81612d30565b82525050565b61219c81612d42565b82525050565b6121ab81612d54565b82525050565b6121ba81612d66565b82525050565b6121c981612d78565b82525050565b60006121da82612b53565b6121e48185612b9a565b93506121f4818560208601612d99565b6121fd81612ef3565b840191505092915050565b600061221382612b53565b61221d8185612bab565b935061222d818560208601612d99565b80840191505092915050565b6000815461224681612dcc565b6122508186612b9a565b9450600182166000811461226b576001811461227d576122b0565b60ff19831686526020860193506122b0565b61228685612b28565b60005b838110156122a857815481890152600182019150602081019050612289565b808801955050505b50505092915050565b600081546122c681612dcc565b6122d08186612bab565b945060018216600081146122eb57600181146122fc5761232f565b60ff1983168652818601935061232f565b61230585612b28565b60005b8381101561232757815481890152600182019150602081019050612308565b838801955050505b50505092915050565b6000612345600883612b9a565b915061235082612f11565b602082019050919050565b6000612368600783612b9a565b915061237382612f3a565b602082019050919050565b600061238b600d83612b9a565b915061239682612f63565b602082019050919050565b60006123ae600583612b9a565b91506123b982612f8c565b602082019050919050565b60006123d1600c83612b9a565b91506123dc82612fb5565b602082019050919050565b60006123f4601c83612b9a565b91506123ff82612fde565b602082019050919050565b61241381612d02565b82525050565b61242281612d02565b82525050565b61243961243482612d02565b612e49565b82525050565b600061244b8288612428565b60208201915061245b8287612428565b60208201915061246b8286612208565b91506124778285612428565b60208201915061248782846122b9565b91508190509695505050505050565b60006020820190506124ab6000830184612076565b92915050565b600060e0820190506124c6600083018a612076565b6124d36020830189612419565b81810360408301526124e581886121cf565b905081810360608301526124f98187612085565b9050818103608083015261250d8186612085565b905061251c60a0830185612193565b61252960c0830184612175565b98975050505050505050565b600060e08201905061254a600083018a612076565b6125576020830189612419565b81810360408301526125698188612239565b9050818103606083015261257d8187612085565b905081810360808301526125918186612085565b90506125a060a0830185612184565b6125ad60c08301846121a2565b98975050505050505050565b600060e0820190506125ce600083018a612076565b6125db6020830189612419565b81810360408301526125ed8188612239565b905081810360608301526126018187612085565b905081810360808301526126158186612085565b905061262460a0830185612419565b61263160c0830184612175565b98975050505050505050565b600060e082019050612652600083018a612076565b61265f6020830189612419565b81810360408301526126718188612239565b905081810360608301526126858187612085565b905081810360808301526126998186612085565b90506126a860a0830185612419565b6126b560c08301846121b1565b98975050505050505050565b600060208201905081810360008301526126db81846120ea565b905092915050565b60006020820190506126f86000830184612148565b92915050565b60006020820190506127136000830184612157565b92915050565b6000602082019050818103600083015261273381846121cf565b905092915050565b6000602082019050818103600083015261275481612338565b9050919050565b600060208201905081810360008301526127748161235b565b9050919050565b600060208201905081810360008301526127948161237e565b9050919050565b600060208201905081810360008301526127b4816123a1565b9050919050565b600060208201905081810360008301526127d4816123c4565b9050919050565b600060208201905081810360008301526127f4816123e7565b9050919050565b60006020820190506128106000830184612419565b92915050565b600060a08201905061282b6000830188612419565b6128386020830187612166565b818103604083015261284a8186612239565b90506128596060830185612419565b6128666080830184612175565b9695505050505050565b60006040820190506128856000830185612419565b818103602083015261289781846121cf565b90509392505050565b60006060820190506128b56000830186612419565b81810360208301526128c781856121cf565b90506128d66040830184612419565b949350505050565b60006060820190506128f36000830186612419565b6129006020830185612419565b61290d6040830184612076565b949350505050565b600060608201905061292a6000830186612419565b6129376020830185612419565b818103604083015261294981846121cf565b9050949350505050565b60006080820190506129686000830187612419565b6129756020830186612419565b818103604083015261298781856121cf565b90506129966060830184612419565b95945050505050565b600060a0820190506129b46000830188612419565b6129c16020830187612419565b81810360408301526129d381866121cf565b90506129e26060830185612419565b6129ef60808301846121a2565b9695505050505050565b600060a082019050612a0e6000830188612419565b612a1b6020830187612419565b8181036040830152612a2d81866121cf565b9050612a3c6060830185612419565b612a4960808301846121b1565b9695505050505050565b600060a082019050612a686000830188612419565b612a756020830187612419565b8181036040830152612a8781866121cf565b9050612a966060830185612419565b612aa360808301846121c0565b9695505050505050565b6000612ab7612ac8565b9050612ac38282612e18565b919050565b6000604051905090565b600067ffffffffffffffff821115612aed57612aec612eb1565b5b612af682612ef3565b9050602081019050919050565b60008190508160005260206000209050919050565b6000819050602082019050919050565b60008190508160005260206000209050919050565b600081549050919050565b600081519050919050565b600081519050919050565b6000600182019050919050565b6000602082019050919050565b600082825260208201905092915050565b600082825260208201905092915050565b600082825260208201905092915050565b600081905092915050565b6000612bc182612d02565b9150612bcc83612d02565b9250827fffffffffffffffffffffffffffffffffffffffffffffffffffffffffffffffff03821115612c0157612c00612e53565b5b828201905092915050565b6000612c1782612d02565b9150612c2283612d02565b9250817fffffffffffffffffffffffffffffffffffffffffffffffffffffffffffffffff0483118215151615612c5b57612c5a612e53565b5b828202905092915050565b6000612c7182612d02565b9150612c7c83612d02565b925082821015612c8f57612c8e612e53565b5b828203905092915050565b600073ffffffffffffffffffffffffffffffffffffffff82169050919050565b6000612cc582612ce2565b9050919050565b60008115159050919050565b6000819050919050565b600073ffffffffffffffffffffffffffffffffffffffff82169050919050565b6000819050919050565b6000612d1782612d02565b9050919050565b6000612d2982612d02565b9050919050565b6000612d3b82612d02565b9050919050565b6000612d4d82612d02565b9050919050565b6000612d5f82612d02565b9050919050565b6000612d7182612d02565b9050919050565b6000612d8382612d02565b9050919050565b82818337600083830152505050565b60005b83811015612db7578082015181840152602081019050612d9c565b83811115612dc6576000848401525b50505050565b60006002820490506001821680612de457607f821691505b60208210811415612df857612df7612e82565b5b50919050565b6000612e11612e0c83612f04565b612c9a565b9050919050565b612e2182612ef3565b810181811067ffffffffffffffff82111715612e4057612e3f612eb1565b5b80604052505050565b6000819050919050565b7f4e487b7100000000000000000000000000000000000000000000000000000000600052601160045260246000fd5b7f4e487b7100000000000000000000000000000000000000000000000000000000600052602260045260246000fd5b7f4e487b7100000000000000000000000000000000000000000000000000000000600052604160045260246000fd5b6000612eec8254612dfe565b9050919050565b6000601f19601f8301169050919050565b60008160001c9050919050565b7f4469737472696374000000000000000000000000000000000000000000000000600082015250565b7f43656e7472616c00000000000000000000000000000000000000000000000000600082015250565b7f696e76616c6964206c6576656c00000000000000000000000000000000000000600082015250565b7f5374617465000000000000000000000000000000000000000000000000000000600082015250565b7f446973746e2e20506f696e740000000000000000000000000000000000000000600082015250565b7f496e76616c696420446973747269627574696f6e506f696e7420696400000000600082015250565b61301081612cba565b811461301b57600080fd5b50565b61302781612cd8565b811461303257600080fd5b50565b61303e81612d02565b811461304957600080fd5b5056fea26469706673582212205c03728e06203c203cfe57cd7c2b14b52c652c5578978d718866d1ebbd39ec5364736f6c63430008030033",
  "immutableReferences": {},
  "source": "// SPDX-License-Identifier: GPL-3.0\r\npragma solidity >=0.5.0 <=0.8.4; \r\n\r\ncontract CredentialManager {\r\n    constructor() {\r\n        string[28] memory statesList=['Andhra Pradesh', 'Arunachal Pradesh', 'Assam', 'Bihar', 'Chhattisgarh', 'Goa', 'Gujarat', 'Haryana', 'Himachal Pradesh', 'Jharkhand', 'Karnataka', 'Kerala', 'Madhya Pradesh', 'Maharashtra', 'Manipur', 'Meghalaya', 'Mizoram', 'Nagaland', 'Odisha', 'Punjab', 'Rajasthan', 'Sikkim', 'Tamil Nadu', 'Telangana', 'Tripura', \"Uttar Pradesh\", \"Uttarakhand\", \"West Bengal\"];\r\n        \r\n        uint i=0;\r\n        for(i=0;i<28;i++)\r\n        addState(statesList[i]);  \r\n\r\n        string[4] memory distList = [\"d1\",\"d2\",\"d3\",\"d4\"];\r\n        for(i=0;i<4;i++)\r\n        addDistrict(distList[i], 1);\r\n\r\n        string[4] memory distPoint = [\"dp-1\",\"dp-2\",\"dp-3\",\"dp-4\"];\r\n        for(i=0;i<4;i++)\r\n        addDstnPoint(distPoint[i],(i+1));\r\n    }\r\n    \r\n    struct State {\r\n        uint id;\r\n        mapping(address=>bool) authorities;\r\n        string name;\r\n    }\r\n    \r\n    struct District {\r\n        uint id;\r\n        uint stateId;\r\n        mapping(address=>bool) authorities;\r\n        string name;\r\n    }\r\n    \r\n    struct DistributionPoint {\r\n        uint id;\r\n        uint districtId;\r\n        uint[] beneficiaryIds;\r\n        mapping(address=>bool) authorities;\r\n        address[] authoritiesList;\r\n        string name;\r\n    }\r\n    \r\n    struct Beneficiary {\r\n        uint id;\r\n        uint dstnId;\r\n        string credentials;\r\n        address[] approved;\r\n        address[] rejected;\r\n        uint finalStatus; //1-accept, 2-reject, 3-pending, 0-default\r\n    }\r\n    \r\n    string private secret = \"identify@capstone\";\r\n    address public centralAuthId = 0xf17f52151EbEF6C7334FAD080c5704D77216b732;\r\n    mapping(uint=>Beneficiary) public beneficiaries;\r\n    uint public beneficiaryCount;\r\n    DistributionPoint[] public dstnPoints;\r\n    District[] public districts;\r\n    State[] public states;\r\n    \r\n    event NewState(uint _id, string _name);\r\n    event NewDistrict(uint _id, string _name,uint _stateId);\r\n    event NewDstnPoint(uint _id, string _name, uint _districtId);\r\n    event NewAuthority(uint _level, uint _entityId, address _authorityId);\r\n    event NewBeneficiary(uint _id, uint _finalStatus, string _credentials, uint _dstnId, uint _statusCode);\r\n    event BeneficiaryValidation(\r\n        address _initiator,\r\n        uint indexed _id, \r\n        uint _dstnId, \r\n        string _credentials, \r\n        address[] _accepted, \r\n        address[] _rejected, \r\n        uint _finalStatus, \r\n        uint _statusCode\r\n    );\r\n    \r\n    function addState(string memory _name) public{\r\n        states.push();\r\n        State storage s = states[states.length-1];\r\n        s.id = states.length;\r\n        s.name = _name;\r\n        emit NewState(s.id, _name);\r\n    }\r\n    \r\n    function addDistrict(string memory _districtName, uint _stateId) public {\r\n        districts.push();   \r\n        District storage d = districts[districts.length-1];\r\n        d.id = districts.length;\r\n        d.name = _districtName;\r\n        d.stateId=_stateId;\r\n        emit NewDistrict(d.id,_districtName, _stateId);\r\n    }\r\n    \r\n    function addDstnPoint(string memory _dstnPointName, uint _districtId) public {\r\n        dstnPoints.push();\r\n        DistributionPoint storage dp = dstnPoints[dstnPoints.length-1];\r\n        dp.id=dstnPoints.length;\r\n        dp.name = _dstnPointName;\r\n        dp.districtId = _districtId;\r\n        emit NewDstnPoint(dp.id, _dstnPointName, _districtId);\r\n    }\r\n    \r\n    function getToken(uint _id, string memory _credentials, uint _dstnId, uint _approvalStatus) public view returns(bytes32){\r\n        return keccak256(abi.encodePacked(_id,_dstnId,_credentials,_approvalStatus,secret));\r\n    }\r\n\r\n    function authBeneficiary(uint _id, uint _dstnId, uint _approvalStatus) public{ \r\n        if(authorizeSigner(\"Distn. Point\", msg.sender, _dstnId))\r\n        {\r\n            if(beneficiaries[_id].finalStatus!=0) {\r\n                if(_approvalStatus==2)\r\n                beneficiaries[_id].rejected.push(msg.sender);\r\n                else if(_approvalStatus==1)\r\n                beneficiaries[_id].approved.push(msg.sender);\r\n                \r\n                uint authorityCount = dstnPoints[_dstnId-1].authoritiesList.length;\r\n                uint acceptanceCount = beneficiaries[_id].approved.length;\r\n                uint rejectionCount = beneficiaries[_id].rejected.length;\r\n                if(2*rejectionCount>=authorityCount)\r\n                    beneficiaries[_id].finalStatus=2;\r\n                else if(2*acceptanceCount>authorityCount)\r\n                {\r\n                    beneficiaries[_id].finalStatus=1;\r\n                    dstnPoints[_dstnId-1].beneficiaryIds.push(_id);\r\n                    beneficiaryCount+=1;\r\n                    \r\n                    emit NewBeneficiary(_id, 1, beneficiaries[_id].credentials, _dstnId, 200); //200 succesfully added\r\n                }\r\n                \r\n                emit BeneficiaryValidation(\r\n                    msg.sender,\r\n                    _id, \r\n                    _dstnId, \r\n                    beneficiaries[_id].credentials,\r\n                    beneficiaries[_id].approved, \r\n                    beneficiaries[_id].rejected,\r\n                    beneficiaries[_id].finalStatus,\r\n                    200\r\n                );\r\n            }\r\n            else\r\n                emit BeneficiaryValidation(\r\n                    msg.sender,\r\n                    _id, \r\n                    _dstnId, \r\n                    beneficiaries[_id].credentials,\r\n                    beneficiaries[_id].approved, \r\n                    beneficiaries[_id].rejected,\r\n                    beneficiaries[_id].finalStatus,\r\n                    403\r\n                );\r\n        }\r\n        else \r\n            emit BeneficiaryValidation(\r\n                msg.sender,\r\n                _id, \r\n                _dstnId, \r\n                beneficiaries[_id].credentials,\r\n                beneficiaries[_id].approved, \r\n                beneficiaries[_id].rejected,\r\n                2,\r\n                401\r\n            ); \r\n    }\r\n    \r\n    function initiateBeneficiaryRegistration(uint _id, string memory _credentials, uint _dstnId, uint _approvalStatus, bytes32 _token) public{\r\n        if(authorizeSigner(\"Distn. Point\", msg.sender, _dstnId)) {\r\n            if(beneficiaries[_id].finalStatus!=0)\r\n                emit NewBeneficiary(_id, beneficiaries[_id].finalStatus, _credentials, _dstnId, 409); //Beneficiary registration started (finalStatus-3) / _accepted-1 / rejected-2\r\n            else {\r\n                if(keccak256(abi.encodePacked(_id,_dstnId,_credentials,_approvalStatus,secret)) == _token) {\r\n                    Beneficiary memory br;\r\n                    br.id = _id;\r\n                    br.dstnId = _dstnId;\r\n                    br.credentials = _credentials;\r\n                    br.approved = new address[](1);\r\n                    br.approved[0] = msg.sender;\r\n                    br.rejected = new address[](0);\r\n                    br.finalStatus = 3;\r\n                    \r\n                    beneficiaries[_id] = br;\r\n                \r\n                    emit BeneficiaryValidation(\r\n                        msg.sender,\r\n                        _id, \r\n                        _dstnId, \r\n                        _credentials,\r\n                        beneficiaries[_id].approved, \r\n                        beneficiaries[_id].rejected,\r\n                        3,\r\n                        200\r\n                    ); \r\n                }\r\n                else\r\n                    emit NewBeneficiary(_id, beneficiaries[_id].finalStatus, _credentials, _dstnId, 403); // 403 :  Forbidden action as tokens mismatch\r\n            }\r\n        }\r\n        else\r\n            emit NewBeneficiary(_id, beneficiaries[_id].finalStatus, _credentials, _dstnId, 401);  //401 authority not authorized to add Beneficiary\r\n    }\r\n\r\n    function getBeneficiaries(uint _dstnPointId) public view returns(uint[] memory) {\r\n        if(beneficiaryCount<=0)\r\n        return new uint[](0);\r\n        require(_dstnPointId>=0 && _dstnPointId<dstnPoints.length, \"Invalid DistributionPoint id\");\r\n        return dstnPoints[_dstnPointId-1].beneficiaryIds;\r\n        //returns beneficiary Ids of a dstn point\r\n    }\r\n    \r\n    function addAuthority(uint _level, uint _entityId, address _authorityId) public{\r\n        require(_level>0 && _level<4, \"invalid level\");\r\n        if(_level==1)\r\n        states[_entityId-1].authorities[_authorityId] = true;\r\n        else if(_level==2)\r\n        districts[_entityId-1].authorities[_authorityId] = true;\r\n        else if(_level==3)\r\n        {\r\n            dstnPoints[_entityId-1].authorities[_authorityId] = true;\r\n            dstnPoints[_entityId-1].authoritiesList.push(_authorityId);\r\n        }\r\n        emit NewAuthority(_level, _entityId, _authorityId);\r\n    }\r\n\r\n    function authorizeSigner(string memory _type, address _signer, uint _entityId) public view returns(bool){\r\n        \r\n        bool isAuthorized;\r\n\r\n        if(keccak256(abi.encode(_type)) == keccak256(abi.encode(\"Central\")))\r\n        isAuthorized = centralAuthId == _signer;\r\n        \r\n        if(keccak256(abi.encode(_type)) == keccak256(abi.encode(\"State\")))\r\n        isAuthorized = states[_entityId-1].authorities[_signer];\r\n        \r\n        if(keccak256(abi.encode(_type)) == keccak256(abi.encode(\"District\")))\r\n        isAuthorized = districts[_entityId-1].authorities[_signer];\r\n        \r\n        if(keccak256(abi.encode(_type)) == keccak256(abi.encode(\"Distn. Point\")))\r\n        isAuthorized = dstnPoints[_entityId-1].authorities[_signer];\r\n       \r\n        return isAuthorized;\r\n        \r\n    }\r\n}",
  "sourcePath": "F:/Prjcts/Capstone/identify/contracts/CredentialManager.sol",
  "compiler": {
    "name": "solc",
    "version": "0.8.3+commit.8d00100c.Emscripten.clang"
  },
  "schemaVersion": "3.3.3",
  "updatedAt": "2021-05-28T13:58:31.580Z",
  "networkType": "ethereum",
  "devdoc": {
    "kind": "dev",
    "methods": {},
    "version": 1
  },
  "userdoc": {
    "kind": "user",
    "methods": {},
    "version": 1
  }
}