{
  "contractName": "CredentialManager",
  "abi": [
    {
      "inputs": [],
      "stateMutability": "nonpayable",
      "type": "constructor"
    },
    {
      "anonymous": false,
      "inputs": [
        {
          "indexed": false,
          "internalType": "uint256",
          "name": "_level",
          "type": "uint256"
        },
        {
          "indexed": false,
          "internalType": "uint256",
          "name": "_entityId",
          "type": "uint256"
        },
        {
          "indexed": false,
          "internalType": "address",
          "name": "_authorityId",
          "type": "address"
        }
      ],
      "name": "NewAuthority",
      "type": "event"
    },
    {
      "anonymous": false,
      "inputs": [
        {
          "indexed": false,
          "internalType": "uint256",
          "name": "_id",
          "type": "uint256"
        },
        {
          "indexed": false,
          "internalType": "string",
          "name": "_credentials",
          "type": "string"
        },
        {
          "indexed": false,
          "internalType": "address",
          "name": "_registeredBy",
          "type": "address"
        },
        {
          "indexed": false,
          "internalType": "uint256",
          "name": "_dstnId",
          "type": "uint256"
        },
        {
          "indexed": false,
          "internalType": "uint256",
          "name": "_statusCode",
          "type": "uint256"
        }
      ],
      "name": "NewBeneficiary",
      "type": "event"
    },
    {
      "anonymous": false,
      "inputs": [
        {
          "indexed": false,
          "internalType": "uint256",
          "name": "_id",
          "type": "uint256"
        },
        {
          "indexed": false,
          "internalType": "string",
          "name": "_name",
          "type": "string"
        },
        {
          "indexed": false,
          "internalType": "uint256",
          "name": "_stateId",
          "type": "uint256"
        }
      ],
      "name": "NewDistrict",
      "type": "event"
    },
    {
      "anonymous": false,
      "inputs": [
        {
          "indexed": false,
          "internalType": "uint256",
          "name": "_id",
          "type": "uint256"
        },
        {
          "indexed": false,
          "internalType": "string",
          "name": "_name",
          "type": "string"
        },
        {
          "indexed": false,
          "internalType": "uint256",
          "name": "_districtId",
          "type": "uint256"
        }
      ],
      "name": "NewDstnPoint",
      "type": "event"
    },
    {
      "anonymous": false,
      "inputs": [
        {
          "indexed": false,
          "internalType": "uint256",
          "name": "_id",
          "type": "uint256"
        },
        {
          "indexed": false,
          "internalType": "string",
          "name": "_name",
          "type": "string"
        }
      ],
      "name": "NewState",
      "type": "event"
    },
    {
      "inputs": [
        {
          "internalType": "uint256",
          "name": "",
          "type": "uint256"
        }
      ],
      "name": "beneficiaries",
      "outputs": [
        {
          "internalType": "uint256",
          "name": "id",
          "type": "uint256"
        },
        {
          "internalType": "uint256",
          "name": "dstnId",
          "type": "uint256"
        },
        {
          "internalType": "string",
          "name": "credentials",
          "type": "string"
        }
      ],
      "stateMutability": "view",
      "type": "function",
      "constant": true
    },
    {
      "inputs": [],
      "name": "centralAuthId",
      "outputs": [
        {
          "internalType": "address",
          "name": "",
          "type": "address"
        }
      ],
      "stateMutability": "view",
      "type": "function",
      "constant": true
    },
    {
      "inputs": [
        {
          "internalType": "uint256",
          "name": "",
          "type": "uint256"
        }
      ],
      "name": "districts",
      "outputs": [
        {
          "internalType": "uint256",
          "name": "id",
          "type": "uint256"
        },
        {
          "internalType": "uint256",
          "name": "stateId",
          "type": "uint256"
        },
        {
          "internalType": "string",
          "name": "name",
          "type": "string"
        }
      ],
      "stateMutability": "view",
      "type": "function",
      "constant": true
    },
    {
      "inputs": [
        {
          "internalType": "uint256",
          "name": "",
          "type": "uint256"
        }
      ],
      "name": "dstnPoints",
      "outputs": [
        {
          "internalType": "uint256",
          "name": "id",
          "type": "uint256"
        },
        {
          "internalType": "uint256",
          "name": "districtId",
          "type": "uint256"
        },
        {
          "internalType": "string",
          "name": "name",
          "type": "string"
        }
      ],
      "stateMutability": "view",
      "type": "function",
      "constant": true
    },
    {
      "inputs": [
        {
          "internalType": "uint256",
          "name": "",
          "type": "uint256"
        }
      ],
      "name": "states",
      "outputs": [
        {
          "internalType": "uint256",
          "name": "id",
          "type": "uint256"
        },
        {
          "internalType": "string",
          "name": "name",
          "type": "string"
        }
      ],
      "stateMutability": "view",
      "type": "function",
      "constant": true
    },
    {
      "inputs": [
        {
          "internalType": "string",
          "name": "_name",
          "type": "string"
        }
      ],
      "name": "addState",
      "outputs": [],
      "stateMutability": "nonpayable",
      "type": "function"
    },
    {
      "inputs": [
        {
          "internalType": "string",
          "name": "_districtName",
          "type": "string"
        },
        {
          "internalType": "uint256",
          "name": "_stateId",
          "type": "uint256"
        }
      ],
      "name": "addDistrict",
      "outputs": [],
      "stateMutability": "nonpayable",
      "type": "function"
    },
    {
      "inputs": [
        {
          "internalType": "string",
          "name": "_dstnPointName",
          "type": "string"
        },
        {
          "internalType": "uint256",
          "name": "_districtId",
          "type": "uint256"
        }
      ],
      "name": "addDstnPoint",
      "outputs": [],
      "stateMutability": "nonpayable",
      "type": "function"
    },
    {
      "inputs": [
        {
          "internalType": "uint256",
          "name": "_id",
          "type": "uint256"
        },
        {
          "internalType": "string",
          "name": "_credentials",
          "type": "string"
        },
        {
          "internalType": "uint256",
          "name": "_dstnId",
          "type": "uint256"
        }
      ],
      "name": "addBeneficiary",
      "outputs": [],
      "stateMutability": "nonpayable",
      "type": "function"
    },
    {
      "inputs": [
        {
          "internalType": "uint256",
          "name": "_dstnPointId",
          "type": "uint256"
        }
      ],
      "name": "getBeneficiaries",
      "outputs": [
        {
          "internalType": "uint256[]",
          "name": "",
          "type": "uint256[]"
        }
      ],
      "stateMutability": "view",
      "type": "function",
      "constant": true
    },
    {
      "inputs": [],
      "name": "getBeneficiaryList",
      "outputs": [
        {
          "components": [
            {
              "internalType": "uint256",
              "name": "id",
              "type": "uint256"
            },
            {
              "internalType": "uint256",
              "name": "dstnId",
              "type": "uint256"
            },
            {
              "internalType": "string",
              "name": "credentials",
              "type": "string"
            }
          ],
          "internalType": "struct CredentialManager.Beneficiary[]",
          "name": "",
          "type": "tuple[]"
        }
      ],
      "stateMutability": "view",
      "type": "function",
      "constant": true
    },
    {
      "inputs": [
        {
          "internalType": "uint256",
          "name": "_level",
          "type": "uint256"
        },
        {
          "internalType": "uint256",
          "name": "_entityId",
          "type": "uint256"
        },
        {
          "internalType": "address",
          "name": "_authorityId",
          "type": "address"
        }
      ],
      "name": "addAuthority",
      "outputs": [],
      "stateMutability": "nonpayable",
      "type": "function"
    },
    {
      "inputs": [
        {
          "internalType": "string",
          "name": "_type",
          "type": "string"
        },
        {
          "internalType": "address",
          "name": "_signer",
          "type": "address"
        },
        {
          "internalType": "uint256",
          "name": "_entityId",
          "type": "uint256"
        }
      ],
      "name": "authorizeSigner",
      "outputs": [
        {
          "internalType": "bool",
          "name": "",
          "type": "bool"
        }
      ],
      "stateMutability": "view",
      "type": "function",
      "constant": true
    }
  ],
  "bytecode": "0x608060405273f17f52151ebef6c7334fad080c5704d77216b7326000806101000a81548173ffffffffffffffffffffffffffffffffffffffff021916908373ffffffffffffffffffffffffffffffffffffffff1602179055503480156200006557600080fd5b5060006040518061038001604052806040518060400160405280600e81526020017f416e64687261205072616465736800000000000000000000000000000000000081525081526020016040518060400160405280601181526020017f4172756e616368616c205072616465736800000000000000000000000000000081525081526020016040518060400160405280600581526020017f417373616d00000000000000000000000000000000000000000000000000000081525081526020016040518060400160405280600581526020017f426968617200000000000000000000000000000000000000000000000000000081525081526020016040518060400160405280600c81526020017f436868617474697367617268000000000000000000000000000000000000000081525081526020016040518060400160405280600381526020017f476f61000000000000000000000000000000000000000000000000000000000081525081526020016040518060400160405280600781526020017f47756a617261740000000000000000000000000000000000000000000000000081525081526020016040518060400160405280600781526020017f48617279616e610000000000000000000000000000000000000000000000000081525081526020016040518060400160405280601081526020017f48696d616368616c20507261646573680000000000000000000000000000000081525081526020016040518060400160405280600981526020017f4a6861726b68616e64000000000000000000000000000000000000000000000081525081526020016040518060400160405280600981526020017f4b61726e6174616b61000000000000000000000000000000000000000000000081525081526020016040518060400160405280600681526020017f4b6572616c61000000000000000000000000000000000000000000000000000081525081526020016040518060400160405280600e81526020017f4d6164687961205072616465736800000000000000000000000000000000000081525081526020016040518060400160405280600b81526020017f4d6168617261736874726100000000000000000000000000000000000000000081525081526020016040518060400160405280600781526020017f4d616e697075720000000000000000000000000000000000000000000000000081525081526020016040518060400160405280600981526020017f4d656768616c617961000000000000000000000000000000000000000000000081525081526020016040518060400160405280600781526020017f4d697a6f72616d0000000000000000000000000000000000000000000000000081525081526020016040518060400160405280600881526020017f4e6167616c616e6400000000000000000000000000000000000000000000000081525081526020016040518060400160405280600681526020017f4f6469736861000000000000000000000000000000000000000000000000000081525081526020016040518060400160405280600681526020017f50756e6a6162000000000000000000000000000000000000000000000000000081525081526020016040518060400160405280600981526020017f52616a61737468616e000000000000000000000000000000000000000000000081525081526020016040518060400160405280600681526020017f53696b6b696d000000000000000000000000000000000000000000000000000081525081526020016040518060400160405280600a81526020017f54616d696c204e6164750000000000000000000000000000000000000000000081525081526020016040518060400160405280600981526020017f54656c616e67616e61000000000000000000000000000000000000000000000081525081526020016040518060400160405280600781526020017f547269707572610000000000000000000000000000000000000000000000000081525081526020016040518060400160405280600d81526020017f557474617220507261646573680000000000000000000000000000000000000081525081526020016040518060400160405280600b81526020017f5574746172616b68616e6400000000000000000000000000000000000000000081525081526020016040518060400160405280600b81526020017f576573742042656e67616c000000000000000000000000000000000000000000815250815250905060005b601c8110156200075a57620007448282601c811062000733577f4e487b7100000000000000000000000000000000000000000000000000000000600052603260045260246000fd5b602002015162000a4f60201b60201c565b8080620007519062000fc9565b915050620006eb565b600060405180608001604052806040518060400160405280600281526020017f643100000000000000000000000000000000000000000000000000000000000081525081526020016040518060400160405280600281526020017f643200000000000000000000000000000000000000000000000000000000000081525081526020016040518060400160405280600281526020017f643300000000000000000000000000000000000000000000000000000000000081525081526020016040518060400160405280600281526020017f64340000000000000000000000000000000000000000000000000000000000008152508152509050600091505b6004821015620008c957620008b3818360048110620008a0577f4e487b7100000000000000000000000000000000000000000000000000000000600052603260045260246000fd5b6020020151600162000b3960201b60201c565b8180620008c09062000fc9565b92505062000858565b600060405180608001604052806040518060400160405280600481526020017f64702d310000000000000000000000000000000000000000000000000000000081525081526020016040518060400160405280600481526020017f64702d320000000000000000000000000000000000000000000000000000000081525081526020016040518060400160405280600481526020017f64702d330000000000000000000000000000000000000000000000000000000081525081526020016040518060400160405280600481526020017f64702d34000000000000000000000000000000000000000000000000000000008152508152509050600092505b600483101562000a455762000a2f81846004811062000a0f577f4e487b7100000000000000000000000000000000000000000000000000000000600052603260045260246000fd5b602002015160018562000a23919062000ebb565b62000c2f60201b60201c565b828062000a3c9062000fc9565b935050620009c7565b5050505062001086565b60046001816001815401808255809150500390600052602060002090505060006004600160048054905062000a85919062000f18565b8154811062000abd577f4e487b7100000000000000000000000000000000000000000000000000000000600052603260045260246000fd5b9060005260206000209060030201905060048054905081600001819055508181600201908051906020019062000af592919062000d25565b507f5118442027d611358f8561ea9534df2708a1f1b1480bc00a177481644a71cb3181600001548360405162000b2d92919062000e27565b60405180910390a15050565b60036001816001815401808255809150500390600052602060002090505060006003600160038054905062000b6f919062000f18565b8154811062000ba7577f4e487b7100000000000000000000000000000000000000000000000000000000600052603260045260246000fd5b9060005260206000209060040201905060038054905081600001819055508281600301908051906020019062000bdf92919062000d25565b508181600101819055507f5a455249f9b31b8e5c44c592ae8a4c1b2687a6e66d02ab5f4faf66649de945ed8160000154848460405162000c229392919062000e5b565b60405180910390a1505050565b60026001816001815401808255809150500390600052602060002090505060006002600160028054905062000c65919062000f18565b8154811062000c9d577f4e487b7100000000000000000000000000000000000000000000000000000000600052603260045260246000fd5b9060005260206000209060050201905060028054905081600001819055508281600401908051906020019062000cd592919062000d25565b508181600101819055507f357047ddfe6d3d71d9ffe78fbdf6def0d4735bfcaddf764c0d5b5307b02228788160000154848460405162000d189392919062000e5b565b60405180910390a1505050565b82805462000d339062000f93565b90600052602060002090601f01602090048101928262000d57576000855562000da3565b82601f1062000d7257805160ff191683800117855562000da3565b8280016001018555821562000da3579182015b8281111562000da257825182559160200191906001019062000d85565b5b50905062000db2919062000db6565b5090565b5b8082111562000dd157600081600090555060010162000db7565b5090565b600062000de28262000e9f565b62000dee818562000eaa565b935062000e0081856020860162000f5d565b62000e0b8162001075565b840191505092915050565b62000e218162000f53565b82525050565b600060408201905062000e3e600083018562000e16565b818103602083015262000e52818462000dd5565b90509392505050565b600060608201905062000e72600083018662000e16565b818103602083015262000e86818562000dd5565b905062000e97604083018462000e16565b949350505050565b600081519050919050565b600082825260208201905092915050565b600062000ec88262000f53565b915062000ed58362000f53565b9250827fffffffffffffffffffffffffffffffffffffffffffffffffffffffffffffffff0382111562000f0d5762000f0c62001017565b5b828201905092915050565b600062000f258262000f53565b915062000f328362000f53565b92508282101562000f485762000f4762001017565b5b828203905092915050565b6000819050919050565b60005b8381101562000f7d57808201518184015260208101905062000f60565b8381111562000f8d576000848401525b50505050565b6000600282049050600182168062000fac57607f821691505b6020821081141562000fc35762000fc262001046565b5b50919050565b600062000fd68262000f53565b91507fffffffffffffffffffffffffffffffffffffffffffffffffffffffffffffffff8214156200100c576200100b62001017565b5b600182019050919050565b7f4e487b7100000000000000000000000000000000000000000000000000000000600052601160045260246000fd5b7f4e487b7100000000000000000000000000000000000000000000000000000000600052602260045260246000fd5b6000601f19601f8301169050919050565b61204580620010966000396000f3fe608060405234801561001057600080fd5b50600436106100cf5760003560e01c80638d1e2d0c1161008c578063daa3b67b11610066578063daa3b67b14610211578063de5602bd14610241578063e77995e01461025f578063efeb5e5814610291576100cf565b80638d1e2d0c146101a55780638f971f03146101d757806399dea894146101f5576100cf565b8063017a9105146100d457806311af53af146101055780632a34ede1146101215780634fab34561461013d5780635820373314610159578063783804d914610175575b600080fd5b6100ee60048036038101906100e991906114e8565b6102c3565b6040516100fc929190611a53565b60405180910390f35b61011f600480360381019061011a9190611578565b61037f565b005b61013b600480360381019061013691906113ec565b610619565b005b61015760048036038101906101529190611494565b6106fc565b005b610173600480360381019061016e9190611511565b6107eb565b005b61018f600480360381019061018a91906114e8565b6109a7565b60405161019c9190611914565b60405180910390f35b6101bf60048036038101906101ba91906114e8565b610ae6565b6040516101ce93929190611bac565b60405180910390f35b6101df610ba8565b6040516101ec91906118d7565b60405180910390f35b61020f600480360381019061020a9190611494565b610bcc565b005b61022b6004803603810190610226919061142d565b610cbb565b6040516102389190611936565b60405180910390f35b61024961102e565b60405161025691906118f2565b60405180910390f35b610279600480360381019061027491906114e8565b611133565b60405161028893929190611bac565b60405180910390f35b6102ab60048036038101906102a691906114e8565b6111f5565b6040516102ba93929190611bac565b60405180910390f35b600481815481106102d357600080fd5b90600052602060002090600302016000915090508060000154908060020180546102fc90611dc1565b80601f016020809104026020016040519081016040528092919081815260200182805461032890611dc1565b80156103755780601f1061034a57610100808354040283529160200191610375565b820191906000526020600020905b81548152906001019060200180831161035857829003601f168201915b5050505050905082565b60008311801561038f5750600483105b6103ce576040517f08c379a00000000000000000000000000000000000000000000000000000000081526004016103c5906119b3565b60405180910390fd5b600183141561047d57600160048381548110610413577f4e487b7100000000000000000000000000000000000000000000000000000000600052603260045260246000fd5b906000526020600020906003020160010160008373ffffffffffffffffffffffffffffffffffffffff1673ffffffffffffffffffffffffffffffffffffffff16815260200190815260200160002060006101000a81548160ff0219169083151502179055506105d9565b600283141561052c576001600383815481106104c2577f4e487b7100000000000000000000000000000000000000000000000000000000600052603260045260246000fd5b906000526020600020906004020160020160008373ffffffffffffffffffffffffffffffffffffffff1673ffffffffffffffffffffffffffffffffffffffff16815260200190815260200160002060006101000a81548160ff0219169083151502179055506105d8565b60038314156105d757600160028381548110610571577f4e487b7100000000000000000000000000000000000000000000000000000000600052603260045260246000fd5b906000526020600020906005020160030160008373ffffffffffffffffffffffffffffffffffffffff1673ffffffffffffffffffffffffffffffffffffffff16815260200190815260200160002060006101000a81548160ff0219169083151502179055505b5b5b7feed4f6de47397d103ceffd01744ea7c5f2a30696d73adecea2bca5665efd77d283838360405161060c93929190611b75565b60405180910390a1505050565b60046001816001815401808255809150500390600052602060002090505060006004600160048054905061064d9190611cdf565b81548110610684577f4e487b7100000000000000000000000000000000000000000000000000000000600052603260045260246000fd5b906000526020600020906003020190506004805490508160000181905550818160020190805190602001906106ba9291906112b7565b507f5118442027d611358f8561ea9534df2708a1f1b1480bc00a177481644a71cb318160000154836040516106f0929190611a53565b60405180910390a15050565b6003600181600181540180825580915050039060005260206000209050506000600360016003805490506107309190611cdf565b81548110610767577f4e487b7100000000000000000000000000000000000000000000000000000000600052603260045260246000fd5b9060005260206000209060040201905060038054905081600001819055508281600301908051906020019061079d9291906112b7565b508181600101819055507f5a455249f9b31b8e5c44c592ae8a4c1b2687a6e66d02ab5f4faf66649de945ed816000015484846040516107de93929190611b37565b60405180910390a1505050565b61082b6040518060400160405280600c81526020017f446973746e2e20506f696e7400000000000000000000000000000000000000008152503383610cbb565b15610960576002818154811061086a577f4e487b7100000000000000000000000000000000000000000000000000000000600052603260045260246000fd5b906000526020600020906005020160020183908060018154018082558091505060019003906000526020600020016000909190919091505560016040518060600160405280858152602001838152602001848152509080600181540180825580915050600190039060005260206000209060030201600090919091909150600082015181600001556020820151816001015560408201518160020190805190602001906109189291906112b7565b5050507f9073ef80421a7d39d83c448352596e1d1ff5a354b962bd3e569225ddc3f12f948383338460c8604051610953959493929190611a83565b60405180910390a16109a2565b7f9073ef80421a7d39d83c448352596e1d1ff5a354b962bd3e569225ddc3f12f9483833384610191604051610999959493929190611add565b60405180910390a15b505050565b60606000600180549050116109f1576040517f08c379a00000000000000000000000000000000000000000000000000000000081526004016109e8906119f3565b60405180910390fd5b60008210158015610a06575060028054905082105b610a45576040517f08c379a0000000000000000000000000000000000000000000000000000000008152600401610a3c90611a33565b60405180910390fd5b60028281548110610a7f577f4e487b7100000000000000000000000000000000000000000000000000000000600052603260045260246000fd5b9060005260206000209060050201600201805480602002602001604051908101604052809291908181526020018280548015610ada57602002820191906000526020600020905b815481526020019060010190808311610ac6575b50505050509050919050565b60028181548110610af657600080fd5b9060005260206000209060050201600091509050806000015490806001015490806004018054610b2590611dc1565b80601f0160208091040260200160405190810160405280929190818152602001828054610b5190611dc1565b8015610b9e5780601f10610b7357610100808354040283529160200191610b9e565b820191906000526020600020905b815481529060010190602001808311610b8157829003601f168201915b5050505050905083565b60008054906101000a900473ffffffffffffffffffffffffffffffffffffffff1681565b600260018160018154018082558091505003906000526020600020905050600060026001600280549050610c009190611cdf565b81548110610c37577f4e487b7100000000000000000000000000000000000000000000000000000000600052603260045260246000fd5b90600052602060002090600502019050600280549050816000018190555082816004019080519060200190610c6d9291906112b7565b508181600101819055507f357047ddfe6d3d71d9ffe78fbdf6def0d4735bfcaddf764c0d5b5307b022287881600001548484604051610cae93929190611b37565b60405180910390a1505050565b600080604051602001610ccd90611993565b6040516020818303038152906040528051906020012085604051602001610cf49190611951565b604051602081830303815290604052805190602001201415610d62578373ffffffffffffffffffffffffffffffffffffffff1660008054906101000a900473ffffffffffffffffffffffffffffffffffffffff1673ffffffffffffffffffffffffffffffffffffffff161490505b604051602001610d71906119d3565b6040516020818303038152906040528051906020012085604051602001610d989190611951565b604051602081830303815290604052805190602001201415610e4d5760048381548110610dee577f4e487b7100000000000000000000000000000000000000000000000000000000600052603260045260246000fd5b906000526020600020906003020160010160008573ffffffffffffffffffffffffffffffffffffffff1673ffffffffffffffffffffffffffffffffffffffff16815260200190815260200160002060009054906101000a900460ff1690505b604051602001610e5c90611973565b6040516020818303038152906040528051906020012085604051602001610e839190611951565b604051602081830303815290604052805190602001201415610f385760038381548110610ed9577f4e487b7100000000000000000000000000000000000000000000000000000000600052603260045260246000fd5b906000526020600020906004020160020160008573ffffffffffffffffffffffffffffffffffffffff1673ffffffffffffffffffffffffffffffffffffffff16815260200190815260200160002060009054906101000a900460ff1690505b604051602001610f4790611a13565b6040516020818303038152906040528051906020012085604051602001610f6e9190611951565b6040516020818303038152906040528051906020012014156110235760028381548110610fc4577f4e487b7100000000000000000000000000000000000000000000000000000000600052603260045260246000fd5b906000526020600020906005020160030160008573ffffffffffffffffffffffffffffffffffffffff1673ffffffffffffffffffffffffffffffffffffffff16815260200190815260200160002060009054906101000a900460ff1690505b809150509392505050565b60606001805480602002602001604051908101604052809291908181526020016000905b8282101561112a5783829060005260206000209060030201604051806060016040529081600082015481526020016001820154815260200160028201805461109990611dc1565b80601f01602080910402602001604051908101604052809291908181526020018280546110c590611dc1565b80156111125780601f106110e757610100808354040283529160200191611112565b820191906000526020600020905b8154815290600101906020018083116110f557829003601f168201915b50505050508152505081526020019060010190611052565b50505050905090565b6003818154811061114357600080fd5b906000526020600020906004020160009150905080600001549080600101549080600301805461117290611dc1565b80601f016020809104026020016040519081016040528092919081815260200182805461119e90611dc1565b80156111eb5780601f106111c0576101008083540402835291602001916111eb565b820191906000526020600020905b8154815290600101906020018083116111ce57829003601f168201915b5050505050905083565b6001818154811061120557600080fd5b906000526020600020906003020160009150905080600001549080600101549080600201805461123490611dc1565b80601f016020809104026020016040519081016040528092919081815260200182805461126090611dc1565b80156112ad5780601f10611282576101008083540402835291602001916112ad565b820191906000526020600020905b81548152906001019060200180831161129057829003601f168201915b5050505050905083565b8280546112c390611dc1565b90600052602060002090601f0160209004810192826112e5576000855561132c565b82601f106112fe57805160ff191683800117855561132c565b8280016001018555821561132c579182015b8281111561132b578251825591602001919060010190611310565b5b509050611339919061133d565b5090565b5b8082111561135657600081600090555060010161133e565b5090565b600061136d61136884611c0f565b611bea565b90508281526020810184848401111561138557600080fd5b611390848285611d7f565b509392505050565b6000813590506113a781611fe1565b92915050565b600082601f8301126113be57600080fd5b81356113ce84826020860161135a565b91505092915050565b6000813590506113e681611ff8565b92915050565b6000602082840312156113fe57600080fd5b600082013567ffffffffffffffff81111561141857600080fd5b611424848285016113ad565b91505092915050565b60008060006060848603121561144257600080fd5b600084013567ffffffffffffffff81111561145c57600080fd5b611468868287016113ad565b935050602061147986828701611398565b925050604061148a868287016113d7565b9150509250925092565b600080604083850312156114a757600080fd5b600083013567ffffffffffffffff8111156114c157600080fd5b6114cd858286016113ad565b92505060206114de858286016113d7565b9150509250929050565b6000602082840312156114fa57600080fd5b6000611508848285016113d7565b91505092915050565b60008060006060848603121561152657600080fd5b6000611534868287016113d7565b935050602084013567ffffffffffffffff81111561155157600080fd5b61155d868287016113ad565b925050604061156e868287016113d7565b9150509250925092565b60008060006060848603121561158d57600080fd5b600061159b868287016113d7565b93505060206115ac868287016113d7565b92505060406115bd86828701611398565b9150509250925092565b60006115d38383611869565b905092915050565b60006115e783836118b9565b60208301905092915050565b6115fc81611d13565b82525050565b600061160d82611c60565b6116178185611c9b565b93508360208202850161162985611c40565b8060005b85811015611665578484038952815161164685826115c7565b945061165183611c81565b925060208a0199505060018101905061162d565b50829750879550505050505092915050565b600061168282611c6b565b61168c8185611cac565b935061169783611c50565b8060005b838110156116c85781516116af88826115db565b97506116ba83611c8e565b92505060018101905061169b565b5085935050505092915050565b6116de81611d25565b82525050565b6116ed81611d5b565b82525050565b6116fc81611d6d565b82525050565b600061170d82611c76565b6117178185611cbd565b9350611727818560208601611d8e565b61173081611eb1565b840191505092915050565b600061174682611c76565b6117508185611cce565b9350611760818560208601611d8e565b61176981611eb1565b840191505092915050565b6000611781600883611cce565b915061178c82611ec2565b602082019050919050565b60006117a4600783611cce565b91506117af82611eeb565b602082019050919050565b60006117c7600d83611cce565b91506117d282611f14565b602082019050919050565b60006117ea600583611cce565b91506117f582611f3d565b602082019050919050565b600061180d601983611cce565b915061181882611f66565b602082019050919050565b6000611830600c83611cce565b915061183b82611f8f565b602082019050919050565b6000611853601c83611cce565b915061185e82611fb8565b602082019050919050565b600060608301600083015161188160008601826118b9565b50602083015161189460208601826118b9565b50604083015184820360408601526118ac8282611702565b9150508091505092915050565b6118c281611d51565b82525050565b6118d181611d51565b82525050565b60006020820190506118ec60008301846115f3565b92915050565b6000602082019050818103600083015261190c8184611602565b905092915050565b6000602082019050818103600083015261192e8184611677565b905092915050565b600060208201905061194b60008301846116d5565b92915050565b6000602082019050818103600083015261196b818461173b565b905092915050565b6000602082019050818103600083015261198c81611774565b9050919050565b600060208201905081810360008301526119ac81611797565b9050919050565b600060208201905081810360008301526119cc816117ba565b9050919050565b600060208201905081810360008301526119ec816117dd565b9050919050565b60006020820190508181036000830152611a0c81611800565b9050919050565b60006020820190508181036000830152611a2c81611823565b9050919050565b60006020820190508181036000830152611a4c81611846565b9050919050565b6000604082019050611a6860008301856118c8565b8181036020830152611a7a818461173b565b90509392505050565b600060a082019050611a9860008301886118c8565b8181036020830152611aaa818761173b565b9050611ab960408301866115f3565b611ac660608301856118c8565b611ad360808301846116e4565b9695505050505050565b600060a082019050611af260008301886118c8565b8181036020830152611b04818761173b565b9050611b1360408301866115f3565b611b2060608301856118c8565b611b2d60808301846116f3565b9695505050505050565b6000606082019050611b4c60008301866118c8565b8181036020830152611b5e818561173b565b9050611b6d60408301846118c8565b949350505050565b6000606082019050611b8a60008301866118c8565b611b9760208301856118c8565b611ba460408301846115f3565b949350505050565b6000606082019050611bc160008301866118c8565b611bce60208301856118c8565b8181036040830152611be0818461173b565b9050949350505050565b6000611bf4611c05565b9050611c008282611df3565b919050565b6000604051905090565b600067ffffffffffffffff821115611c2a57611c29611e82565b5b611c3382611eb1565b9050602081019050919050565b6000819050602082019050919050565b6000819050602082019050919050565b600081519050919050565b600081519050919050565b600081519050919050565b6000602082019050919050565b6000602082019050919050565b600082825260208201905092915050565b600082825260208201905092915050565b600082825260208201905092915050565b600082825260208201905092915050565b6000611cea82611d51565b9150611cf583611d51565b925082821015611d0857611d07611e24565b5b828203905092915050565b6000611d1e82611d31565b9050919050565b60008115159050919050565b600073ffffffffffffffffffffffffffffffffffffffff82169050919050565b6000819050919050565b6000611d6682611d51565b9050919050565b6000611d7882611d51565b9050919050565b82818337600083830152505050565b60005b83811015611dac578082015181840152602081019050611d91565b83811115611dbb576000848401525b50505050565b60006002820490506001821680611dd957607f821691505b60208210811415611ded57611dec611e53565b5b50919050565b611dfc82611eb1565b810181811067ffffffffffffffff82111715611e1b57611e1a611e82565b5b80604052505050565b7f4e487b7100000000000000000000000000000000000000000000000000000000600052601160045260246000fd5b7f4e487b7100000000000000000000000000000000000000000000000000000000600052602260045260246000fd5b7f4e487b7100000000000000000000000000000000000000000000000000000000600052604160045260246000fd5b6000601f19601f8301169050919050565b7f4469737472696374000000000000000000000000000000000000000000000000600082015250565b7f43656e7472616c00000000000000000000000000000000000000000000000000600082015250565b7f696e76616c6964206c6576656c00000000000000000000000000000000000000600082015250565b7f5374617465000000000000000000000000000000000000000000000000000000600082015250565b7f4e6f2042656e6566696369617279207265676973746572656400000000000000600082015250565b7f446973746e2e20506f696e740000000000000000000000000000000000000000600082015250565b7f496e76616c696420446973747269627574696f6e506f696e7420696400000000600082015250565b611fea81611d13565b8114611ff557600080fd5b50565b61200181611d51565b811461200c57600080fd5b5056fea264697066735822122049a5ff74913f0daf4a097fee9f50f8fa90a2e41d45d6fbcf5e0f03eaaa091a5464736f6c63430008030033",
  "immutableReferences": {},
  "source": "// SPDX-License-Identifier: GPL-3.0\r\npragma solidity >=0.5.0 <=0.8.4; \r\n\r\ncontract CredentialManager {\r\n    constructor() {\r\n        string[28] memory statesList=['Andhra Pradesh', 'Arunachal Pradesh', 'Assam', 'Bihar', 'Chhattisgarh', 'Goa', 'Gujarat', 'Haryana', 'Himachal Pradesh', 'Jharkhand', 'Karnataka', 'Kerala', 'Madhya Pradesh', 'Maharashtra', 'Manipur', 'Meghalaya', 'Mizoram', 'Nagaland', 'Odisha', 'Punjab', 'Rajasthan', 'Sikkim', 'Tamil Nadu', 'Telangana', 'Tripura', \"Uttar Pradesh\", \"Uttarakhand\", \"West Bengal\"];\r\n        \r\n        uint i=0;\r\n        for(i=0;i<28;i++)\r\n        addState(statesList[i]);  \r\n\r\n        string[4] memory distList = [\"d1\",\"d2\",\"d3\",\"d4\"];\r\n        for(i=0;i<4;i++)\r\n        addDistrict(distList[i], 1);\r\n\r\n        string[4] memory distPoint = [\"dp-1\",\"dp-2\",\"dp-3\",\"dp-4\"];\r\n        for(i=0;i<4;i++)\r\n        addDstnPoint(distPoint[i],(i+1));\r\n    }\r\n    \r\n    struct State {\r\n        uint id;\r\n        mapping(address=>bool) authorities;\r\n        string name;\r\n    }\r\n    \r\n    struct District {\r\n        uint id;\r\n        uint stateId;\r\n        mapping(address=>bool) authorities;\r\n        string name;\r\n    }\r\n    \r\n    struct DistributionPoint {\r\n        uint id;\r\n        uint districtId;\r\n        uint[] beneficiaryIds;\r\n        mapping(address=>bool) authorities;\r\n        string name;\r\n    }\r\n    \r\n    struct Beneficiary {\r\n        uint id;\r\n        uint dstnId;\r\n        string credentials;\r\n    }\r\n    \r\n    address public centralAuthId = 0xf17f52151EbEF6C7334FAD080c5704D77216b732;\r\n    Beneficiary[] public beneficiaries;\r\n    DistributionPoint[] public dstnPoints;\r\n    District[] public districts;\r\n    State[] public states;\r\n    \r\n    event NewState(uint _id, string _name);\r\n    event NewDistrict(uint _id, string _name,uint _stateId);\r\n    event NewDstnPoint(uint _id, string _name, uint _districtId);\r\n    event NewAuthority(uint _level, uint _entityId, address _authorityId);\r\n    event NewBeneficiary(uint _id, string _credentials, address _registeredBy, uint _dstnId, uint _statusCode);\r\n    \r\n    function addState(string memory _name) public{\r\n        states.push();\r\n        State storage s = states[states.length-1];\r\n        s.id = states.length;\r\n        s.name = _name;\r\n        emit NewState(s.id, _name);\r\n    }\r\n    \r\n    function addDistrict(string memory _districtName, uint _stateId) public {\r\n        districts.push();   \r\n        District storage d = districts[districts.length-1];\r\n        d.id = districts.length;\r\n        d.name = _districtName;\r\n        d.stateId=_stateId;\r\n        emit NewDistrict(d.id,_districtName, _stateId);\r\n    }\r\n    \r\n    function addDstnPoint(string memory _dstnPointName, uint _districtId) public {\r\n        dstnPoints.push();\r\n        DistributionPoint storage dp = dstnPoints[dstnPoints.length-1];\r\n        dp.id=dstnPoints.length;\r\n        dp.name = _dstnPointName;\r\n        dp.districtId = _districtId;\r\n        emit NewDstnPoint(dp.id, _dstnPointName, _districtId);\r\n    }\r\n    \r\n    function addBeneficiary(uint _id, string memory _credentials, uint _dstnId) public{\r\n        if(authorizeSigner(\"Distn. Point\", msg.sender, _dstnId))\r\n        {\r\n            dstnPoints[_dstnId].beneficiaryIds.push(_id);\r\n            beneficiaries.push(Beneficiary(_id, _dstnId, _credentials));\r\n            emit NewBeneficiary(_id, _credentials, msg.sender, _dstnId, 200);\r\n        }\r\n        else\r\n            emit NewBeneficiary(_id, _credentials, msg.sender, _dstnId, 401); \r\n    }\r\n    \r\n    \r\n    function getBeneficiaries(uint _dstnPointId) public view returns(uint[] memory) {\r\n        require(beneficiaries.length>0, \"No Beneficiary registered\");\r\n        require(_dstnPointId>=0 && _dstnPointId<dstnPoints.length, \"Invalid DistributionPoint id\");\r\n        return dstnPoints[_dstnPointId].beneficiaryIds;\r\n        //returns beneficiary Ids of a dstn point\r\n    }\r\n    \r\n    function getBeneficiaryList() public view returns(Beneficiary[] memory) {\r\n        return beneficiaries;\r\n    }\r\n    \r\n    function addAuthority(uint _level, uint _entityId, address _authorityId) public{\r\n        require(_level>0 && _level<4, \"invalid level\");\r\n        if(_level==1)\r\n        states[_entityId].authorities[_authorityId] = true;\r\n        else if(_level==2)\r\n        districts[_entityId].authorities[_authorityId] = true;\r\n        else if(_level==3)\r\n        dstnPoints[_entityId].authorities[_authorityId] = true;\r\n        emit NewAuthority(_level, _entityId, _authorityId);\r\n    }\r\n\r\n    function authorizeSigner(string memory _type, address _signer, uint _entityId) public view returns(bool){\r\n        \r\n        bool isAuthorized;\r\n\r\n        if(keccak256(abi.encode(_type)) == keccak256(abi.encode(\"Central\")))\r\n        isAuthorized = centralAuthId == _signer;\r\n        \r\n        if(keccak256(abi.encode(_type)) == keccak256(abi.encode(\"State\")))\r\n        isAuthorized = states[_entityId].authorities[_signer];\r\n        \r\n        if(keccak256(abi.encode(_type)) == keccak256(abi.encode(\"District\")))\r\n        isAuthorized = districts[_entityId].authorities[_signer];\r\n        \r\n        if(keccak256(abi.encode(_type)) == keccak256(abi.encode(\"Distn. Point\")))\r\n        isAuthorized = dstnPoints[_entityId].authorities[_signer];\r\n       \r\n        return isAuthorized;\r\n        \r\n    }\r\n}",
  "sourcePath": "F:\\Prjcts\\Capstone\\identify\\contracts\\CredentialManager.sol",
  "compiler": {
    "name": "solc",
    "version": "0.8.3+commit.8d00100c.Emscripten.clang"
  },
  "schemaVersion": "3.3.3",
  "updatedAt": "2021-05-16T07:22:55.144Z",
  "networkType": "ethereum",
  "devdoc": {
    "kind": "dev",
    "methods": {},
    "version": 1
  },
  "userdoc": {
    "kind": "user",
    "methods": {},
    "version": 1
  }
}