{
  "contractName": "Inventory",
  "abi": [
    {
      "anonymous": false,
      "inputs": [
        {
          "indexed": false,
          "internalType": "bytes32",
          "name": "txnId",
          "type": "bytes32"
        },
        {
          "indexed": false,
          "internalType": "uint256",
          "name": "receivedTimestamp",
          "type": "uint256"
        },
        {
          "indexed": false,
          "internalType": "address",
          "name": "receiver",
          "type": "address"
        },
        {
          "indexed": false,
          "internalType": "uint256",
          "name": "statusCode",
          "type": "uint256"
        }
      ],
      "name": "AckTxn",
      "type": "event"
    },
    {
      "anonymous": false,
      "inputs": [
        {
          "indexed": false,
          "internalType": "bytes32",
          "name": "txnId",
          "type": "bytes32"
        },
        {
          "indexed": false,
          "internalType": "uint256",
          "name": "receivedTimestamp",
          "type": "uint256"
        },
        {
          "indexed": false,
          "internalType": "address",
          "name": "receiver",
          "type": "address"
        },
        {
          "indexed": false,
          "internalType": "uint256",
          "name": "statusCode",
          "type": "uint256"
        }
      ],
      "name": "errorAckTxn",
      "type": "event"
    },
    {
      "anonymous": false,
      "inputs": [
        {
          "indexed": false,
          "internalType": "bytes32",
          "name": "txnId",
          "type": "bytes32"
        },
        {
          "indexed": false,
          "internalType": "address",
          "name": "initiator",
          "type": "address"
        },
        {
          "indexed": true,
          "internalType": "string",
          "name": "fromEntityIndex",
          "type": "string"
        },
        {
          "indexed": false,
          "internalType": "string",
          "name": "fromEntity",
          "type": "string"
        },
        {
          "indexed": false,
          "internalType": "uint256",
          "name": "fromEntityId",
          "type": "uint256"
        },
        {
          "indexed": false,
          "internalType": "string",
          "name": "toEntity",
          "type": "string"
        },
        {
          "indexed": false,
          "internalType": "uint256",
          "name": "toEntityId",
          "type": "uint256"
        },
        {
          "indexed": true,
          "internalType": "string",
          "name": "entityLevel",
          "type": "string"
        },
        {
          "indexed": false,
          "internalType": "uint256",
          "name": "sentTimestamp",
          "type": "uint256"
        },
        {
          "indexed": false,
          "internalType": "uint256",
          "name": "receivedTimestamp",
          "type": "uint256"
        },
        {
          "indexed": false,
          "internalType": "uint256[]",
          "name": "resources",
          "type": "uint256[]"
        },
        {
          "indexed": false,
          "internalType": "uint256",
          "name": "statusCode",
          "type": "uint256"
        }
      ],
      "name": "newTxn",
      "type": "event"
    },
    {
      "inputs": [
        {
          "internalType": "bytes32",
          "name": "",
          "type": "bytes32"
        }
      ],
      "name": "resourceTxns",
      "outputs": [
        {
          "internalType": "bytes32",
          "name": "id",
          "type": "bytes32"
        },
        {
          "internalType": "address",
          "name": "initiator",
          "type": "address"
        },
        {
          "internalType": "address",
          "name": "receiver",
          "type": "address"
        },
        {
          "internalType": "string",
          "name": "fromEntity",
          "type": "string"
        },
        {
          "internalType": "string",
          "name": "toEntity",
          "type": "string"
        },
        {
          "internalType": "string",
          "name": "entityLevel",
          "type": "string"
        },
        {
          "internalType": "uint256",
          "name": "sentTimestamp",
          "type": "uint256"
        },
        {
          "internalType": "uint256",
          "name": "receivedTimestamp",
          "type": "uint256"
        },
        {
          "internalType": "bool",
          "name": "created",
          "type": "bool"
        }
      ],
      "stateMutability": "view",
      "type": "function",
      "constant": true
    },
    {
      "inputs": [
        {
          "internalType": "bytes32",
          "name": "_token",
          "type": "bytes32"
        },
        {
          "internalType": "string",
          "name": "_fromEntity",
          "type": "string"
        },
        {
          "internalType": "uint256",
          "name": "_fromEntityId",
          "type": "uint256"
        },
        {
          "internalType": "string",
          "name": "_toEntity",
          "type": "string"
        },
        {
          "internalType": "uint256",
          "name": "_toEntityId",
          "type": "uint256"
        },
        {
          "internalType": "string",
          "name": "_level",
          "type": "string"
        },
        {
          "internalType": "uint256",
          "name": "_sentTimestamp",
          "type": "uint256"
        },
        {
          "internalType": "uint256",
          "name": "_receivedTimestamp",
          "type": "uint256"
        },
        {
          "internalType": "uint256[]",
          "name": "_resourceQuantities",
          "type": "uint256[]"
        },
        {
          "internalType": "address",
          "name": "_credManagerAddress",
          "type": "address"
        },
        {
          "internalType": "bool",
          "name": "_similar",
          "type": "bool"
        }
      ],
      "name": "sendTxn",
      "outputs": [],
      "stateMutability": "nonpayable",
      "type": "function"
    },
    {
      "inputs": [
        {
          "internalType": "bytes32",
          "name": "_txnId",
          "type": "bytes32"
        },
        {
          "internalType": "uint256",
          "name": "_recvdTimestamp",
          "type": "uint256"
        },
        {
          "internalType": "uint256",
          "name": "_entityId",
          "type": "uint256"
        },
        {
          "internalType": "string",
          "name": "_level",
          "type": "string"
        },
        {
          "internalType": "address",
          "name": "_credManagerAddress",
          "type": "address"
        }
      ],
      "name": "acknowledgeTxn",
      "outputs": [],
      "stateMutability": "nonpayable",
      "type": "function"
    },
    {
      "inputs": [
        {
          "internalType": "bytes32",
          "name": "_txnId",
          "type": "bytes32"
        }
      ],
      "name": "getTxnResources",
      "outputs": [
        {
          "internalType": "uint256[]",
          "name": "",
          "type": "uint256[]"
        }
      ],
      "stateMutability": "view",
      "type": "function",
      "constant": true
    }
  ],
  "bytecode": "0x60806040526040518060400160405280601181526020017f6964656e746966794063617073746f6e65000000000000000000000000000000815250600090805190602001906200005192919062000066565b503480156200005f57600080fd5b506200017b565b828054620000749062000116565b90600052602060002090601f016020900481019282620000985760008555620000e4565b82601f10620000b357805160ff1916838001178555620000e4565b82800160010185558215620000e4579182015b82811115620000e3578251825591602001919060010190620000c6565b5b509050620000f39190620000f7565b5090565b5b8082111562000112576000816000905550600101620000f8565b5090565b600060028204905060018216806200012f57607f821691505b602082108114156200014657620001456200014c565b5b50919050565b7f4e487b7100000000000000000000000000000000000000000000000000000000600052602260045260246000fd5b611b23806200018b6000396000f3fe608060405234801561001057600080fd5b506004361061004c5760003560e01c80631c722ffb146100515780633bb98e35146100895780636966ab40146100b9578063db6d530e146100d5575b600080fd5b61006b60048036038101906100669190610de9565b6100f1565b604051610080999897969594939291906113cc565b60405180910390f35b6100a3600480360381019061009e9190610de9565b610324565b6040516100b091906113aa565b60405180910390f35b6100d360048036038101906100ce9190610e12565b6103fc565b005b6100ef60048036038101906100ea9190610f62565b6108d6565b005b60016020528060005260406000206000915090508060000154908060010160009054906101000a900473ffffffffffffffffffffffffffffffffffffffff16908060020160009054906101000a900473ffffffffffffffffffffffffffffffffffffffff169080600301805461016690611909565b80601f016020809104026020016040519081016040528092919081815260200182805461019290611909565b80156101df5780601f106101b4576101008083540402835291602001916101df565b820191906000526020600020905b8154815290600101906020018083116101c257829003601f168201915b5050505050908060040180546101f490611909565b80601f016020809104026020016040519081016040528092919081815260200182805461022090611909565b801561026d5780601f106102425761010080835404028352916020019161026d565b820191906000526020600020905b81548152906001019060200180831161025057829003601f168201915b50505050509080600501805461028290611909565b80601f01602080910402602001604051908101604052809291908181526020018280546102ae90611909565b80156102fb5780601f106102d0576101008083540402835291602001916102fb565b820191906000526020600020905b8154815290600101906020018083116102de57829003601f168201915b5050505050908060060154908060070154908060090160009054906101000a900460ff16905089565b6060600115156001600084815260200190815260200160002060090160009054906101000a900460ff16151514610390576040517f08c379a00000000000000000000000000000000000000000000000000000000081526004016103879061170b565b60405180910390fd5b600160008381526020019081526020016000206008018054806020026020016040519081016040528092919081815260200182805480156103f057602002820191906000526020600020905b8154815260200190600101908083116103dc575b50505050509050919050565b600082905060008b5111610445576040517f08c379a000000000000000000000000000000000000000000000000000000000815260040161043c906116eb565b60405180910390fd5b60006040518061016001604052808d8c8b8b60405160200161046a9493929190611671565b6040516020818303038152906040528051906020012081526020018d81526020018c81526020018b81526020018a81526020018981526020018881526020018681526020018781526020018e815260200184151581525090506000808373ffffffffffffffffffffffffffffffffffffffff1663daa3b67b8460a001513386604001516040518463ffffffff1660e01b815260040161050b93929190611633565b60206040518083038186803b15801561052357600080fd5b505afa158015610537573d6000803e3d6000fd5b505050506040513d601f19601f8201168201806040525081019061055b9190610dc0565b90508015610821576040518060400160405280600c81526020017f446973746e2e20506f696e740000000000000000000000000000000000000000815250805190602001208a80519060200120148015610619575082610120015183602001518460400151856060015186608001518760a001518860c001518961010001518a60e0015160008c61014001516040516020016106009a9998979695949392919061130a565b6040516020818303038152906040528051906020012014155b1561062857610193915061081c565b60c89150604051806101400160405280846000015181526020013373ffffffffffffffffffffffffffffffffffffffff168152602001600073ffffffffffffffffffffffffffffffffffffffff16815260200184602001518152602001846060015181526020018460a0015181526020018460c00151815260200184610100015181526020018460e0015181526020016001151581525060016000856000015181526020019081526020016000206000820151816000015560208201518160010160006101000a81548173ffffffffffffffffffffffffffffffffffffffff021916908373ffffffffffffffffffffffffffffffffffffffff16021790555060408201518160020160006101000a81548173ffffffffffffffffffffffffffffffffffffffff021916908373ffffffffffffffffffffffffffffffffffffffff160217905550606082015181600301908051906020019061078a929190610b69565b5060808201518160040190805190602001906107a7929190610b69565b5060a08201518160050190805190602001906107c4929190610b69565b5060c0820151816006015560e082015181600701556101008201518160080190805190602001906107f6929190610bef565b506101208201518160090160006101000a81548160ff0219169083151502179055509050505b610827565b61019191505b8260a0015160405161083991906112f3565b6040518091039020836020015160405161085391906112f3565b60405180910390207f8686ed395c5deae649870b3dafcf26bb8e42051ba0a4e42f70b9041ea77e746e8560000151338760200151886040015189606001518a608001518b60c001518c61010001518d60e001518d6040516108bd9a9998979695949392919061146e565b60405180910390a3505050505050505050505050505050565b60008411610919576040517f08c379a0000000000000000000000000000000000000000000000000000000008152600401610910906116cb565b60405180910390fd5b6001600086815260200190815260200160002060090160009054906101000a900460ff16610985577fa028032e2f791877c3c121bc2e800ca601982d7fdd265a6d6499acfa7f39b1818585336101906040516109789493929190611564565b60405180910390a1610b62565b60006001600087815260200190815260200160002060070154146109e3577fa028032e2f791877c3c121bc2e800ca601982d7fdd265a6d6499acfa7f39b181858533610faa6040516109da94939291906115a9565b60405180910390a15b60008190508073ffffffffffffffffffffffffffffffffffffffff1663daa3b67b8433876040518463ffffffff1660e01b8152600401610a2593929190611633565b60206040518083038186803b158015610a3d57600080fd5b505afa158015610a51573d6000803e3d6000fd5b505050506040513d601f19601f82011682018060405250810190610a759190610dc0565b610abd577fa028032e2f791877c3c121bc2e800ca601982d7fdd265a6d6499acfa7f39b181868633610fab604051610ab094939291906115ee565b60405180910390a1610b60565b6000600160008881526020019081526020016000209050858160070181905550338160020160006101000a81548173ffffffffffffffffffffffffffffffffffffffff021916908373ffffffffffffffffffffffffffffffffffffffff1602179055507f198279c15db5a6a80681ccdbc3c4f4fc2a14d8caef5bfeb03a19b96a1dbddf1e87873360c8604051610b56949392919061151f565b60405180910390a1505b505b5050505050565b828054610b7590611909565b90600052602060002090601f016020900481019282610b975760008555610bde565b82601f10610bb057805160ff1916838001178555610bde565b82800160010185558215610bde579182015b82811115610bdd578251825591602001919060010190610bc2565b5b509050610beb9190610c3c565b5090565b828054828255906000526020600020908101928215610c2b579160200282015b82811115610c2a578251825591602001919060010190610c0f565b5b509050610c389190610c3c565b5090565b5b80821115610c55576000816000905550600101610c3d565b5090565b6000610c6c610c6784611750565b61172b565b90508083825260208201905082856020860282011115610c8b57600080fd5b60005b85811015610cbb5781610ca18882610dab565b845260208401935060208301925050600181019050610c8e565b5050509392505050565b6000610cd8610cd38461177c565b61172b565b905082815260208101848484011115610cf057600080fd5b610cfb8482856118c7565b509392505050565b600081359050610d1281611a91565b92915050565b600082601f830112610d2957600080fd5b8135610d39848260208601610c59565b91505092915050565b600081359050610d5181611aa8565b92915050565b600081519050610d6681611aa8565b92915050565b600081359050610d7b81611abf565b92915050565b600082601f830112610d9257600080fd5b8135610da2848260208601610cc5565b91505092915050565b600081359050610dba81611ad6565b92915050565b600060208284031215610dd257600080fd5b6000610de084828501610d57565b91505092915050565b600060208284031215610dfb57600080fd5b6000610e0984828501610d6c565b91505092915050565b60008060008060008060008060008060006101608c8e031215610e3457600080fd5b6000610e428e828f01610d6c565b9b505060208c013567ffffffffffffffff811115610e5f57600080fd5b610e6b8e828f01610d81565b9a50506040610e7c8e828f01610dab565b99505060608c013567ffffffffffffffff811115610e9957600080fd5b610ea58e828f01610d81565b9850506080610eb68e828f01610dab565b97505060a08c013567ffffffffffffffff811115610ed357600080fd5b610edf8e828f01610d81565b96505060c0610ef08e828f01610dab565b95505060e0610f018e828f01610dab565b9450506101008c013567ffffffffffffffff811115610f1f57600080fd5b610f2b8e828f01610d18565b935050610120610f3d8e828f01610d03565b925050610140610f4f8e828f01610d42565b9150509295989b509295989b9093969950565b600080600080600060a08688031215610f7a57600080fd5b6000610f8888828901610d6c565b9550506020610f9988828901610dab565b9450506040610faa88828901610dab565b935050606086013567ffffffffffffffff811115610fc757600080fd5b610fd388828901610d81565b9250506080610fe488828901610d03565b9150509295509295909350565b6000610ffd83836112af565b60208301905092915050565b600061101583836112cd565b60208301905092915050565b61102a8161182d565b82525050565b600061103b826117d2565b61104581856117f5565b9350611050836117ad565b8060005b838110156110815781516110688882610ff1565b9750611073836117e8565b925050600181019050611054565b5085935050505092915050565b6000611099826117d2565b6110a38185611806565b93506110ae836117ad565b8060005b838110156110df5781516110c68882611009565b97506110d1836117e8565b9250506001810190506110b2565b5085935050505092915050565b6110f58161183f565b82525050565b61110c6111078261183f565b61196c565b82525050565b61111b8161184b565b82525050565b61112a8161187f565b82525050565b61113981611891565b82525050565b611148816118a3565b82525050565b611157816118b5565b82525050565b6000611168826117dd565b6111728185611811565b93506111828185602086016118d6565b61118b816119f8565b840191505092915050565b60006111a1826117dd565b6111ab8185611822565b93506111bb8185602086016118d6565b80840191505092915050565b600081546111d481611909565b6111de8186611822565b945060018216600081146111f9576001811461120a5761123d565b60ff1983168652818601935061123d565b611213856117bd565b60005b8381101561123557815481890152600182019150602081019050611216565b838801955050505b50505092915050565b6000611253601183611811565b915061125e82611a16565b602082019050919050565b6000611276601283611811565b915061128182611a3f565b602082019050919050565b6000611299600e83611811565b91506112a482611a68565b602082019050919050565b6112b881611875565b82525050565b6112c781611875565b82525050565b6112d681611875565b82525050565b6112ed6112e882611875565b61197e565b82525050565b60006112ff8284611196565b915081905092915050565b6000611316828d611196565b9150611322828c6112dc565b602082019150611332828b611196565b915061133e828a6112dc565b60208201915061134e8289611196565b915061135a82886112dc565b60208201915061136a82876112dc565b60208201915061137a828661108e565b915061138682856111c7565b915061139282846110fb565b6001820191508190509b9a5050505050505050505050565b600060208201905081810360008301526113c48184611030565b905092915050565b6000610120820190506113e2600083018c611112565b6113ef602083018b611021565b6113fc604083018a611021565b818103606083015261140e818961115d565b90508181036080830152611422818861115d565b905081810360a0830152611436818761115d565b905061144560c08301866112be565b61145260e08301856112be565b6114606101008301846110ec565b9a9950505050505050505050565b600061014082019050611484600083018d611112565b611491602083018c611021565b81810360408301526114a3818b61115d565b90506114b2606083018a6112be565b81810360808301526114c4818961115d565b90506114d360a08301886112be565b6114e060c08301876112be565b6114ed60e08301866112be565b8181036101008301526115008185611030565b90506115106101208301846112be565b9b9a5050505050505050505050565b60006080820190506115346000830187611112565b61154160208301866112be565b61154e6040830185611021565b61155b6060830184611121565b95945050505050565b60006080820190506115796000830187611112565b61158660208301866112be565b6115936040830185611021565b6115a06060830184611130565b95945050505050565b60006080820190506115be6000830187611112565b6115cb60208301866112be565b6115d86040830185611021565b6115e5606083018461113f565b95945050505050565b60006080820190506116036000830187611112565b61161060208301866112be565b61161d6040830185611021565b61162a606083018461114e565b95945050505050565b6000606082019050818103600083015261164d818661115d565b905061165c6020830185611021565b61166960408301846112be565b949350505050565b6000608082019050818103600083015261168b818761115d565b9050818103602083015261169f818661115d565b905081810360408301526116b3818561115d565b90506116c260608301846112be565b95945050505050565b600060208201905081810360008301526116e481611246565b9050919050565b6000602082019050818103600083015261170481611269565b9050919050565b600060208201905081810360008301526117248161128c565b9050919050565b6000611735611746565b9050611741828261193b565b919050565b6000604051905090565b600067ffffffffffffffff82111561176b5761176a6119c9565b5b602082029050602081019050919050565b600067ffffffffffffffff821115611797576117966119c9565b5b6117a0826119f8565b9050602081019050919050565b6000819050602082019050919050565b60008190508160005260206000209050919050565b600081519050919050565b600081519050919050565b6000602082019050919050565b600082825260208201905092915050565b600081905092915050565b600082825260208201905092915050565b600081905092915050565b600061183882611855565b9050919050565b60008115159050919050565b6000819050919050565b600073ffffffffffffffffffffffffffffffffffffffff82169050919050565b6000819050919050565b600061188a82611875565b9050919050565b600061189c82611875565b9050919050565b60006118ae82611875565b9050919050565b60006118c082611875565b9050919050565b82818337600083830152505050565b60005b838110156118f45780820151818401526020810190506118d9565b83811115611903576000848401525b50505050565b6000600282049050600182168061192157607f821691505b602082108114156119355761193461199a565b5b50919050565b611944826119f8565b810181811067ffffffffffffffff82111715611963576119626119c9565b5b80604052505050565b600061197782611988565b9050919050565b6000819050919050565b600061199382611a09565b9050919050565b7f4e487b7100000000000000000000000000000000000000000000000000000000600052602260045260246000fd5b7f4e487b7100000000000000000000000000000000000000000000000000000000600052604160045260246000fd5b6000601f19601f8301169050919050565b60008160f81b9050919050565b7f496e76616c69642074696d657374616d70000000000000000000000000000000600082015250565b7f496e76616c69642066726f6d456e746974790000000000000000000000000000600082015250565b7f496e76616c69642074786e206964000000000000000000000000000000000000600082015250565b611a9a8161182d565b8114611aa557600080fd5b50565b611ab18161183f565b8114611abc57600080fd5b50565b611ac88161184b565b8114611ad357600080fd5b50565b611adf81611875565b8114611aea57600080fd5b5056fea26469706673582212207dc602e87fcfaf7b610d48d430876d5c7deb7d740491294e501043f857ab361364736f6c63430008030033",
  "immutableReferences": {},
  "source": "// SPDX-License-Identifier: GPL-3.0\r\n\r\npragma solidity >=0.5.0 <=0.8.4;\r\nimport \"./CredentialManager.sol\";\r\n\r\ncontract Inventory {\r\n    \r\n    string private secret = \"identify@capstone\";\r\n\r\n    struct resourceTransaction {\r\n        bytes32 id;\r\n        address initiator;\r\n        address receiver;\r\n        string fromEntity; \r\n        string toEntity; \r\n        string entityLevel; \r\n        uint sentTimestamp; \r\n        uint receivedTimestamp;\r\n        uint[] resourceQuantities; //array of quantities where index is id of the resource\r\n        bool created;\r\n    }\r\n\r\n    mapping(bytes32=>resourceTransaction) public resourceTxns;\r\n    \r\n    event newTxn(\r\n        bytes32 txnId,\r\n        address initiator,\r\n        string indexed fromEntityIndex, //stores keccak256 hash of the string. To filter, filter using hash(key)\r\n        string fromEntity,\r\n        uint fromEntityId,\r\n        string toEntity,\r\n        uint toEntityId,\r\n        string indexed entityLevel,\r\n        uint sentTimestamp,\r\n        uint receivedTimestamp,\r\n        uint[] resources,\r\n        uint statusCode\r\n    );\r\n\r\n    event AckTxn(\r\n        bytes32 txnId,\r\n        uint receivedTimestamp,\r\n        address receiver,\r\n        uint statusCode\r\n    );\r\n\r\n    event errorAckTxn (\r\n        bytes32 txnId,\r\n        uint receivedTimestamp,\r\n        address receiver,\r\n        uint statusCode\r\n    );\r\n    \r\n    struct TempTxn {\r\n        bytes32 txnId;\r\n        string fromEntity;\r\n        uint fromEntityId;\r\n        string toEntity;\r\n        uint toEntityId;\r\n        string level;\r\n        uint sentTimestamp;\r\n        uint[] resourceQuantities;\r\n        uint receivedTimestamp;\r\n        bytes32 token;\r\n        bool similar;\r\n    }\r\n    \r\n    function sendTxn(\r\n        bytes32 _token, \r\n        string memory _fromEntity,\r\n        uint _fromEntityId, \r\n        string memory _toEntity, \r\n        uint _toEntityId, \r\n        string memory _level,\r\n        uint  _sentTimestamp, \r\n        uint _receivedTimestamp, \r\n        uint[] memory _resourceQuantities, \r\n        address _credManagerAddress,\r\n        bool _similar\r\n    ) public {\r\n        \r\n        CredentialManager cm = CredentialManager(_credManagerAddress);\r\n        require(bytes(_fromEntity).length>0, \"Invalid fromEntity\");\r\n        \r\n        TempTxn memory tempTxn = TempTxn(\r\n            keccak256(abi.encode(_fromEntity,_toEntity,_level,_sentTimestamp)), \r\n            _fromEntity,\r\n            _fromEntityId,\r\n            _toEntity,\r\n            _toEntityId,\r\n            _level,\r\n            _sentTimestamp,\r\n            _resourceQuantities,\r\n            _receivedTimestamp,\r\n            _token,\r\n            _similar\r\n        );\r\n        \r\n        uint statusCode;\r\n        bool isAuthorized = cm.authorizeSigner(tempTxn.level, msg.sender, tempTxn.fromEntityId);\r\n        \r\n        if(isAuthorized)\r\n        {\r\n            if(keccak256(bytes(_level)) == keccak256(bytes(\"Distn. Point\")) && keccak256(\r\n                abi.encodePacked(\r\n                    tempTxn.fromEntity, \r\n                    tempTxn.fromEntityId, \r\n                    tempTxn.toEntity,\r\n                    tempTxn.toEntityId,\r\n                    tempTxn.level,\r\n                    tempTxn.sentTimestamp,\r\n                    tempTxn.receivedTimestamp,\r\n                    tempTxn.resourceQuantities,\r\n                    secret,\r\n                    tempTxn.similar\r\n                )) != tempTxn.token)\r\n                    statusCode=403;\r\n            else{\r\n                statusCode=200;\r\n                resourceTxns[tempTxn.txnId] = resourceTransaction(\r\n                    tempTxn.txnId, \r\n                    msg.sender, \r\n                    address(0), \r\n                    tempTxn.fromEntity, \r\n                    tempTxn.toEntity, \r\n                    tempTxn.level, \r\n                    tempTxn.sentTimestamp, \r\n                    tempTxn.receivedTimestamp, \r\n                    tempTxn.resourceQuantities, \r\n                    true\r\n                );\r\n            }\r\n        }else   \r\n            statusCode = 401;\r\n        \r\n        emit newTxn(\r\n            tempTxn.txnId, \r\n            msg.sender, \r\n            tempTxn.fromEntity, \r\n            tempTxn.fromEntity, \r\n            tempTxn.fromEntityId, \r\n            tempTxn.toEntity, \r\n            tempTxn.toEntityId, \r\n            tempTxn.level, \r\n            tempTxn.sentTimestamp, \r\n            tempTxn.receivedTimestamp, \r\n            tempTxn.resourceQuantities,\r\n            statusCode\r\n        );\r\n    }\r\n    \r\n    function acknowledgeTxn(\r\n        bytes32 _txnId, \r\n        uint _recvdTimestamp, \r\n        uint _entityId, \r\n        string memory _level, \r\n        address _credManagerAddress\r\n    ) public {\r\n        require(_recvdTimestamp>0, \"Invalid timestamp\");\r\n        if(!resourceTxns[_txnId].created)\r\n            emit errorAckTxn(_txnId, _recvdTimestamp, msg.sender,400);\r\n        else {\r\n            if(resourceTxns[_txnId].receivedTimestamp!=0) \r\n                emit errorAckTxn(_txnId, _recvdTimestamp, msg.sender, 4010);\r\n            CredentialManager cm = CredentialManager(_credManagerAddress);\r\n            if(!cm.authorizeSigner(_level, msg.sender, _entityId))\r\n                emit errorAckTxn(_txnId, _recvdTimestamp, msg.sender, 4011);\r\n            else\r\n            {\r\n                resourceTransaction storage txn = resourceTxns[_txnId];\r\n                txn.receivedTimestamp = _recvdTimestamp;\r\n                txn.receiver = msg.sender;\r\n                emit AckTxn(_txnId, _recvdTimestamp, msg.sender, 200);\r\n            }\r\n        }             \r\n    }\r\n    \r\n    function getTxnResources(bytes32 _txnId) public view returns(uint[] memory) {\r\n        require(resourceTxns[_txnId].created==true, \"Invalid txn id\");\r\n        return resourceTxns[_txnId].resourceQuantities;\r\n    }\r\n}",
  "sourcePath": "F:/Prjcts/Capstone/identify/contracts/Inventory.sol",
  "compiler": {
    "name": "solc",
    "version": "0.8.3+commit.8d00100c.Emscripten.clang"
  },
  "schemaVersion": "3.3.3",
  "updatedAt": "2021-05-20T14:14:12.271Z",
  "networkType": "ethereum",
  "devdoc": {
    "kind": "dev",
    "methods": {},
    "version": 1
  },
  "userdoc": {
    "kind": "user",
    "methods": {},
    "version": 1
  }
}