{
  "contractName": "Inventory",
  "abi": [
    {
      "anonymous": false,
      "inputs": [
        {
          "indexed": false,
          "internalType": "bytes32",
          "name": "txnId",
          "type": "bytes32"
        },
        {
          "indexed": false,
          "internalType": "uint256",
          "name": "receivedTimestamp",
          "type": "uint256"
        },
        {
          "indexed": false,
          "internalType": "address",
          "name": "receiver",
          "type": "address"
        },
        {
          "indexed": false,
          "internalType": "uint256",
          "name": "statusCode",
          "type": "uint256"
        }
      ],
      "name": "AckTxn",
      "type": "event"
    },
    {
      "anonymous": false,
      "inputs": [
        {
          "indexed": false,
          "internalType": "bytes32",
          "name": "txnId",
          "type": "bytes32"
        },
        {
          "indexed": false,
          "internalType": "uint256",
          "name": "receivedTimestamp",
          "type": "uint256"
        },
        {
          "indexed": false,
          "internalType": "address",
          "name": "receiver",
          "type": "address"
        },
        {
          "indexed": false,
          "internalType": "uint256",
          "name": "statusCode",
          "type": "uint256"
        }
      ],
      "name": "errorAckTxn",
      "type": "event"
    },
    {
      "anonymous": false,
      "inputs": [
        {
          "indexed": false,
          "internalType": "bytes32",
          "name": "txnId",
          "type": "bytes32"
        },
        {
          "indexed": false,
          "internalType": "address",
          "name": "initiator",
          "type": "address"
        },
        {
          "indexed": true,
          "internalType": "string",
          "name": "fromEntityIndex",
          "type": "string"
        },
        {
          "indexed": false,
          "internalType": "string",
          "name": "fromEntity",
          "type": "string"
        },
        {
          "indexed": false,
          "internalType": "uint256",
          "name": "fromEntityId",
          "type": "uint256"
        },
        {
          "indexed": false,
          "internalType": "string",
          "name": "toEntity",
          "type": "string"
        },
        {
          "indexed": false,
          "internalType": "uint256",
          "name": "toEntityId",
          "type": "uint256"
        },
        {
          "indexed": true,
          "internalType": "string",
          "name": "entityLevel",
          "type": "string"
        },
        {
          "indexed": false,
          "internalType": "uint256",
          "name": "sentTimestamp",
          "type": "uint256"
        },
        {
          "indexed": false,
          "internalType": "uint256",
          "name": "receivedTimestamp",
          "type": "uint256"
        },
        {
          "indexed": false,
          "internalType": "uint256[]",
          "name": "resources",
          "type": "uint256[]"
        },
        {
          "indexed": false,
          "internalType": "uint256",
          "name": "statusCode",
          "type": "uint256"
        }
      ],
      "name": "newTxn",
      "type": "event"
    },
    {
      "inputs": [
        {
          "internalType": "bytes32",
          "name": "",
          "type": "bytes32"
        }
      ],
      "name": "resourceTxns",
      "outputs": [
        {
          "internalType": "bytes32",
          "name": "id",
          "type": "bytes32"
        },
        {
          "internalType": "address",
          "name": "initiator",
          "type": "address"
        },
        {
          "internalType": "address",
          "name": "receiver",
          "type": "address"
        },
        {
          "internalType": "string",
          "name": "fromEntity",
          "type": "string"
        },
        {
          "internalType": "string",
          "name": "toEntity",
          "type": "string"
        },
        {
          "internalType": "string",
          "name": "entityLevel",
          "type": "string"
        },
        {
          "internalType": "uint256",
          "name": "sentTimestamp",
          "type": "uint256"
        },
        {
          "internalType": "uint256",
          "name": "receivedTimestamp",
          "type": "uint256"
        },
        {
          "internalType": "bool",
          "name": "created",
          "type": "bool"
        }
      ],
      "stateMutability": "view",
      "type": "function",
      "constant": true
    },
    {
      "inputs": [
        {
          "internalType": "bytes32",
          "name": "_token",
          "type": "bytes32"
        },
        {
          "internalType": "string",
          "name": "_fromEntity",
          "type": "string"
        },
        {
          "internalType": "uint256",
          "name": "_fromEntityId",
          "type": "uint256"
        },
        {
          "internalType": "string",
          "name": "_toEntity",
          "type": "string"
        },
        {
          "internalType": "uint256",
          "name": "_toEntityId",
          "type": "uint256"
        },
        {
          "internalType": "string",
          "name": "_level",
          "type": "string"
        },
        {
          "internalType": "uint256",
          "name": "_sentTimestamp",
          "type": "uint256"
        },
        {
          "internalType": "uint256",
          "name": "_receivedTimestamp",
          "type": "uint256"
        },
        {
          "internalType": "uint256[]",
          "name": "_resourceQuantities",
          "type": "uint256[]"
        },
        {
          "internalType": "address",
          "name": "_credManagerAddress",
          "type": "address"
        }
      ],
      "name": "sendTxn",
      "outputs": [],
      "stateMutability": "nonpayable",
      "type": "function"
    },
    {
      "inputs": [
        {
          "internalType": "bytes32",
          "name": "_txnId",
          "type": "bytes32"
        },
        {
          "internalType": "uint256",
          "name": "_recvdTimestamp",
          "type": "uint256"
        },
        {
          "internalType": "uint256",
          "name": "_entityId",
          "type": "uint256"
        },
        {
          "internalType": "string",
          "name": "_level",
          "type": "string"
        },
        {
          "internalType": "address",
          "name": "_credManagerAddress",
          "type": "address"
        }
      ],
      "name": "acknowledgeTxn",
      "outputs": [],
      "stateMutability": "nonpayable",
      "type": "function"
    },
    {
      "inputs": [
        {
          "internalType": "bytes32",
          "name": "_txnId",
          "type": "bytes32"
        }
      ],
      "name": "getTxnResources",
      "outputs": [
        {
          "internalType": "uint256[]",
          "name": "",
          "type": "uint256[]"
        }
      ],
      "stateMutability": "view",
      "type": "function",
      "constant": true
    }
  ],
  "bytecode": "0x60806040526040518060400160405280600681526020017f6b61626f6f6d0000000000000000000000000000000000000000000000000000815250600090805190602001906200005192919062000066565b503480156200005f57600080fd5b506200017b565b828054620000749062000116565b90600052602060002090601f016020900481019282620000985760008555620000e4565b82601f10620000b357805160ff1916838001178555620000e4565b82800160010185558215620000e4579182015b82811115620000e3578251825591602001919060010190620000c6565b5b509050620000f39190620000f7565b5090565b5b8082111562000112576000816000905550600101620000f8565b5090565b600060028204905060018216806200012f57607f821691505b602082108114156200014657620001456200014c565b5b50919050565b7f4e487b7100000000000000000000000000000000000000000000000000000000600052602260045260246000fd5b6119bc806200018b6000396000f3fe608060405234801561001057600080fd5b506004361061004c5760003560e01c80631c722ffb146100515780633bb98e35146100895780636d6b11c3146100b9578063db6d530e146100d5575b600080fd5b61006b60048036038101906100669190610daf565b6100f1565b604051610080999897969594939291906112ab565b60405180910390f35b6100a3600480360381019061009e9190610daf565b610324565b6040516100b09190611289565b60405180910390f35b6100d360048036038101906100ce9190610dd8565b6103fc565b005b6100ef60048036038101906100ea9190610f13565b6108b1565b005b60016020528060005260406000206000915090508060000154908060010160009054906101000a900473ffffffffffffffffffffffffffffffffffffffff16908060020160009054906101000a900473ffffffffffffffffffffffffffffffffffffffff1690806003018054610166906117d3565b80601f0160208091040260200160405190810160405280929190818152602001828054610192906117d3565b80156101df5780601f106101b4576101008083540402835291602001916101df565b820191906000526020600020905b8154815290600101906020018083116101c257829003601f168201915b5050505050908060040180546101f4906117d3565b80601f0160208091040260200160405190810160405280929190818152602001828054610220906117d3565b801561026d5780601f106102425761010080835404028352916020019161026d565b820191906000526020600020905b81548152906001019060200180831161025057829003601f168201915b505050505090806005018054610282906117d3565b80601f01602080910402602001604051908101604052809291908181526020018280546102ae906117d3565b80156102fb5780601f106102d0576101008083540402835291602001916102fb565b820191906000526020600020905b8154815290600101906020018083116102de57829003601f168201915b5050505050908060060154908060070154908060090160009054906101000a900460ff16905089565b6060600115156001600084815260200190815260200160002060090160009054906101000a900460ff16151514610390576040517f08c379a0000000000000000000000000000000000000000000000000000000008152600401610387906115ea565b60405180910390fd5b600160008381526020019081526020016000206008018054806020026020016040519081016040528092919081815260200182805480156103f057602002820191906000526020600020905b8154815260200190600101908083116103dc575b50505050509050919050565b600081905060008a5111610445576040517f08c379a000000000000000000000000000000000000000000000000000000000815260040161043c906115ca565b60405180910390fd5b60006040518061014001604052808c8b8a8a60405160200161046a9493929190611550565b6040516020818303038152906040528051906020012081526020018c81526020018b81526020018a81526020018981526020018881526020018781526020018581526020018681526020018d81525090506000806040518060400160405280600c81526020017f446973746e2e20506f696e7400000000000000000000000000000000000000008152508051906020012089805190602001201415610567578260c00151915082610120015183602001518460400151856060015186608001518760e001518860c0015160405160200161054996959493929190611225565b60405160208183030381529060405280519060200120149050610607565b82610100015191508373ffffffffffffffffffffffffffffffffffffffff1663daa3b67b8460a001513386604001516040518463ffffffff1660e01b81526004016105b493929190611512565b60206040518083038186803b1580156105cc57600080fd5b505afa1580156105e0573d6000803e3d6000fd5b505050506040513d601f19601f820116820180604052508101906106049190610d86565b90505b600081610618576101919050610807565b604051806101400160405280856000015181526020013373ffffffffffffffffffffffffffffffffffffffff168152602001600073ffffffffffffffffffffffffffffffffffffffff16815260200185602001518152602001856060015181526020018560a0015181526020018560c0015181526020018481526020018560e0015181526020016001151581525060016000866000015181526020019081526020016000206000820151816000015560208201518160010160006101000a81548173ffffffffffffffffffffffffffffffffffffffff021916908373ffffffffffffffffffffffffffffffffffffffff16021790555060408201518160020160006101000a81548173ffffffffffffffffffffffffffffffffffffffff021916908373ffffffffffffffffffffffffffffffffffffffff1602179055506060820151816003019080519060200190610771929190610b44565b50608082015181600401908051906020019061078e929190610b44565b5060a08201518160050190805190602001906107ab929190610b44565b5060c0820151816006015560e082015181600701556101008201518160080190805190602001906107dd929190610bca565b506101208201518160090160006101000a81548160ff02191690831515021790555090505060c890505b8360a00151604051610819919061120e565b60405180910390208460200151604051610833919061120e565b60405180910390207f8686ed395c5deae649870b3dafcf26bb8e42051ba0a4e42f70b9041ea77e746e866000015133886020015189604001518a606001518b608001518c60c001518c8e60e001518c6040516108989a9998979695949392919061134d565b60405180910390a3505050505050505050505050505050565b600084116108f4576040517f08c379a00000000000000000000000000000000000000000000000000000000081526004016108eb906115aa565b60405180910390fd5b6001600086815260200190815260200160002060090160009054906101000a900460ff16610960577fa028032e2f791877c3c121bc2e800ca601982d7fdd265a6d6499acfa7f39b1818585336101906040516109539493929190611443565b60405180910390a1610b3d565b60006001600087815260200190815260200160002060070154146109be577fa028032e2f791877c3c121bc2e800ca601982d7fdd265a6d6499acfa7f39b181858533610faa6040516109b59493929190611488565b60405180910390a15b60008190508073ffffffffffffffffffffffffffffffffffffffff1663daa3b67b8433876040518463ffffffff1660e01b8152600401610a0093929190611512565b60206040518083038186803b158015610a1857600080fd5b505afa158015610a2c573d6000803e3d6000fd5b505050506040513d601f19601f82011682018060405250810190610a509190610d86565b610a98577fa028032e2f791877c3c121bc2e800ca601982d7fdd265a6d6499acfa7f39b181868633610fab604051610a8b94939291906114cd565b60405180910390a1610b3b565b6000600160008881526020019081526020016000209050858160070181905550338160020160006101000a81548173ffffffffffffffffffffffffffffffffffffffff021916908373ffffffffffffffffffffffffffffffffffffffff1602179055507f198279c15db5a6a80681ccdbc3c4f4fc2a14d8caef5bfeb03a19b96a1dbddf1e87873360c8604051610b3194939291906113fe565b60405180910390a1505b505b5050505050565b828054610b50906117d3565b90600052602060002090601f016020900481019282610b725760008555610bb9565b82601f10610b8b57805160ff1916838001178555610bb9565b82800160010185558215610bb9579182015b82811115610bb8578251825591602001919060010190610b9d565b5b509050610bc69190610c17565b5090565b828054828255906000526020600020908101928215610c06579160200282015b82811115610c05578251825591602001919060010190610bea565b5b509050610c139190610c17565b5090565b5b80821115610c30576000816000905550600101610c18565b5090565b6000610c47610c428461162f565b61160a565b90508083825260208201905082856020860282011115610c6657600080fd5b60005b85811015610c965781610c7c8882610d71565b845260208401935060208301925050600181019050610c69565b5050509392505050565b6000610cb3610cae8461165b565b61160a565b905082815260208101848484011115610ccb57600080fd5b610cd6848285611791565b509392505050565b600081359050610ced8161192a565b92915050565b600082601f830112610d0457600080fd5b8135610d14848260208601610c34565b91505092915050565b600081519050610d2c81611941565b92915050565b600081359050610d4181611958565b92915050565b600082601f830112610d5857600080fd5b8135610d68848260208601610ca0565b91505092915050565b600081359050610d808161196f565b92915050565b600060208284031215610d9857600080fd5b6000610da684828501610d1d565b91505092915050565b600060208284031215610dc157600080fd5b6000610dcf84828501610d32565b91505092915050565b6000806000806000806000806000806101408b8d031215610df857600080fd5b6000610e068d828e01610d32565b9a505060208b013567ffffffffffffffff811115610e2357600080fd5b610e2f8d828e01610d47565b9950506040610e408d828e01610d71565b98505060608b013567ffffffffffffffff811115610e5d57600080fd5b610e698d828e01610d47565b9750506080610e7a8d828e01610d71565b96505060a08b013567ffffffffffffffff811115610e9757600080fd5b610ea38d828e01610d47565b95505060c0610eb48d828e01610d71565b94505060e0610ec58d828e01610d71565b9350506101008b013567ffffffffffffffff811115610ee357600080fd5b610eef8d828e01610cf3565b925050610120610f018d828e01610cde565b9150509295989b9194979a5092959850565b600080600080600060a08688031215610f2b57600080fd5b6000610f3988828901610d32565b9550506020610f4a88828901610d71565b9450506040610f5b88828901610d71565b935050606086013567ffffffffffffffff811115610f7857600080fd5b610f8488828901610d47565b9250506080610f9588828901610cde565b9150509295509295909350565b6000610fae83836111ca565b60208301905092915050565b6000610fc683836111e8565b60208301905092915050565b610fdb816116f7565b82525050565b6000610fec8261169c565b610ff681856116bf565b93506110018361168c565b8060005b838110156110325781516110198882610fa2565b9750611024836116b2565b925050600181019050611005565b5085935050505092915050565b600061104a8261169c565b61105481856116d0565b935061105f8361168c565b8060005b838110156110905781516110778882610fba565b9750611082836116b2565b925050600181019050611063565b5085935050505092915050565b6110a681611709565b82525050565b6110b581611715565b82525050565b6110c481611749565b82525050565b6110d38161175b565b82525050565b6110e28161176d565b82525050565b6110f18161177f565b82525050565b6000611102826116a7565b61110c81856116db565b935061111c8185602086016117a0565b6111258161189e565b840191505092915050565b600061113b826116a7565b61114581856116ec565b93506111558185602086016117a0565b80840191505092915050565b600061116e6011836116db565b9150611179826118af565b602082019050919050565b60006111916012836116db565b915061119c826118d8565b602082019050919050565b60006111b4600e836116db565b91506111bf82611901565b602082019050919050565b6111d38161173f565b82525050565b6111e28161173f565b82525050565b6111f18161173f565b82525050565b6112086112038261173f565b611836565b82525050565b600061121a8284611130565b915081905092915050565b60006112318289611130565b915061123d82886111f7565b60208201915061124d8287611130565b915061125982866111f7565b602082019150611269828561103f565b915061127582846111f7565b602082019150819050979650505050505050565b600060208201905081810360008301526112a38184610fe1565b905092915050565b6000610120820190506112c1600083018c6110ac565b6112ce602083018b610fd2565b6112db604083018a610fd2565b81810360608301526112ed81896110f7565b9050818103608083015261130181886110f7565b905081810360a083015261131581876110f7565b905061132460c08301866111d9565b61133160e08301856111d9565b61133f61010083018461109d565b9a9950505050505050505050565b600061014082019050611363600083018d6110ac565b611370602083018c610fd2565b8181036040830152611382818b6110f7565b9050611391606083018a6111d9565b81810360808301526113a381896110f7565b90506113b260a08301886111d9565b6113bf60c08301876111d9565b6113cc60e08301866111d9565b8181036101008301526113df8185610fe1565b90506113ef6101208301846111d9565b9b9a5050505050505050505050565b600060808201905061141360008301876110ac565b61142060208301866111d9565b61142d6040830185610fd2565b61143a60608301846110bb565b95945050505050565b600060808201905061145860008301876110ac565b61146560208301866111d9565b6114726040830185610fd2565b61147f60608301846110ca565b95945050505050565b600060808201905061149d60008301876110ac565b6114aa60208301866111d9565b6114b76040830185610fd2565b6114c460608301846110d9565b95945050505050565b60006080820190506114e260008301876110ac565b6114ef60208301866111d9565b6114fc6040830185610fd2565b61150960608301846110e8565b95945050505050565b6000606082019050818103600083015261152c81866110f7565b905061153b6020830185610fd2565b61154860408301846111d9565b949350505050565b6000608082019050818103600083015261156a81876110f7565b9050818103602083015261157e81866110f7565b9050818103604083015261159281856110f7565b90506115a160608301846111d9565b95945050505050565b600060208201905081810360008301526115c381611161565b9050919050565b600060208201905081810360008301526115e381611184565b9050919050565b60006020820190508181036000830152611603816111a7565b9050919050565b6000611614611625565b90506116208282611805565b919050565b6000604051905090565b600067ffffffffffffffff82111561164a5761164961186f565b5b602082029050602081019050919050565b600067ffffffffffffffff8211156116765761167561186f565b5b61167f8261189e565b9050602081019050919050565b6000819050602082019050919050565b600081519050919050565b600081519050919050565b6000602082019050919050565b600082825260208201905092915050565b600081905092915050565b600082825260208201905092915050565b600081905092915050565b60006117028261171f565b9050919050565b60008115159050919050565b6000819050919050565b600073ffffffffffffffffffffffffffffffffffffffff82169050919050565b6000819050919050565b60006117548261173f565b9050919050565b60006117668261173f565b9050919050565b60006117788261173f565b9050919050565b600061178a8261173f565b9050919050565b82818337600083830152505050565b60005b838110156117be5780820151818401526020810190506117a3565b838111156117cd576000848401525b50505050565b600060028204905060018216806117eb57607f821691505b602082108114156117ff576117fe611840565b5b50919050565b61180e8261189e565b810181811067ffffffffffffffff8211171561182d5761182c61186f565b5b80604052505050565b6000819050919050565b7f4e487b7100000000000000000000000000000000000000000000000000000000600052602260045260246000fd5b7f4e487b7100000000000000000000000000000000000000000000000000000000600052604160045260246000fd5b6000601f19601f8301169050919050565b7f496e76616c69642074696d657374616d70000000000000000000000000000000600082015250565b7f496e76616c69642066726f6d456e746974790000000000000000000000000000600082015250565b7f496e76616c69642074786e206964000000000000000000000000000000000000600082015250565b611933816116f7565b811461193e57600080fd5b50565b61194a81611709565b811461195557600080fd5b50565b61196181611715565b811461196c57600080fd5b50565b6119788161173f565b811461198357600080fd5b5056fea2646970667358221220f47d1e1145b7f6ebb4f827535ba4a13125ee184212b0936ad5afb1ea697cfd5564736f6c63430008030033",
  "immutableReferences": {},
  "source": "// SPDX-License-Identifier: GPL-3.0\r\n\r\npragma solidity >=0.5.0 <=0.8.4;\r\nimport \"./CredentialManager.sol\";\r\n\r\ncontract Inventory {\r\n    \r\n    string private secret = \"kaboom\";\r\n\r\n    struct resourceTransaction {\r\n        bytes32 id;\r\n        address initiator;\r\n        address receiver;\r\n        string fromEntity; \r\n        string toEntity; \r\n        string entityLevel; \r\n        uint sentTimestamp; \r\n        uint receivedTimestamp;\r\n        uint[] resourceQuantities; //array of quantities where index is id of the resource\r\n        bool created;\r\n    }\r\n\r\n    mapping(bytes32=>resourceTransaction) public resourceTxns;\r\n    \r\n    event newTxn(\r\n        bytes32 txnId,\r\n        address initiator,\r\n        string indexed fromEntityIndex, //stores keccak256 hash of the string. To filter, filter using hash(key)\r\n        string fromEntity,\r\n        uint fromEntityId,\r\n        string toEntity,\r\n        uint toEntityId,\r\n        string indexed entityLevel,\r\n        uint sentTimestamp,\r\n        uint receivedTimestamp,\r\n        uint[] resources,\r\n        uint statusCode\r\n    );\r\n\r\n    event AckTxn(\r\n        bytes32 txnId,\r\n        uint receivedTimestamp,\r\n        address receiver,\r\n        uint statusCode\r\n    );\r\n\r\n    event errorAckTxn (\r\n        bytes32 txnId,\r\n        uint receivedTimestamp,\r\n        address receiver,\r\n        uint statusCode\r\n    );\r\n    \r\n    struct TempTxn {\r\n        bytes32 txnId;\r\n        string fromEntity;\r\n        uint fromEntityId;\r\n        string toEntity;\r\n        uint toEntityId;\r\n        string level;\r\n        uint sentTimestamp;\r\n        uint[] resourceQuantities;\r\n        uint receivedTimestamp;\r\n        bytes32 token;\r\n    }\r\n    \r\n    function sendTxn(\r\n        bytes32 _token, \r\n        string memory _fromEntity,\r\n        uint _fromEntityId, \r\n        string memory _toEntity, \r\n        uint _toEntityId, \r\n        string memory _level,\r\n        uint  _sentTimestamp, \r\n        uint _receivedTimestamp, \r\n        uint[] memory _resourceQuantities, \r\n        address _credManagerAddress\r\n    ) public {\r\n        \r\n        CredentialManager cm = CredentialManager(_credManagerAddress);\r\n        require(bytes(_fromEntity).length>0, \"Invalid fromEntity\");\r\n        \r\n        TempTxn memory tempTxn = TempTxn(\r\n            keccak256(abi.encode(_fromEntity,_toEntity,_level,_sentTimestamp)), \r\n            _fromEntity,\r\n            _fromEntityId,\r\n            _toEntity,\r\n            _toEntityId,\r\n            _level,\r\n            _sentTimestamp,\r\n            _resourceQuantities,\r\n            _receivedTimestamp,\r\n            _token\r\n        );\r\n        \r\n        uint receivedTimestamp;\r\n        bool isAuthorized;\r\n        if(keccak256(bytes(_level)) == keccak256(bytes(\"Distn. Point\"))) \r\n        {\r\n            receivedTimestamp = tempTxn.sentTimestamp;\r\n            isAuthorized = keccak256(\r\n                abi.encodePacked(\r\n                    tempTxn.fromEntity, \r\n                    tempTxn.fromEntityId, \r\n                    tempTxn.toEntity, \r\n                    tempTxn.toEntityId,\r\n                    tempTxn.resourceQuantities,\r\n                    tempTxn.sentTimestamp\r\n                )) == tempTxn.token;\r\n        }\r\n        else\r\n        {\r\n            receivedTimestamp = tempTxn.receivedTimestamp;\r\n            isAuthorized = cm.authorizeSigner(tempTxn.level, msg.sender, tempTxn.fromEntityId);\r\n        }\r\n        \r\n        uint statusCode;\r\n        \r\n        if(!isAuthorized)\r\n        {\r\n            statusCode=401;\r\n        }\r\n        else {\r\n            resourceTxns[tempTxn.txnId] = resourceTransaction(\r\n                tempTxn.txnId, \r\n                msg.sender, \r\n                address(0), \r\n                tempTxn.fromEntity, \r\n                tempTxn.toEntity, \r\n                tempTxn.level, \r\n                tempTxn.sentTimestamp, \r\n                receivedTimestamp, \r\n                tempTxn.resourceQuantities, \r\n                true\r\n            );\r\n            statusCode = 200;\r\n        }\r\n        \r\n        emit newTxn(\r\n            tempTxn.txnId, \r\n            msg.sender, \r\n            tempTxn.fromEntity, \r\n            tempTxn.fromEntity, \r\n            tempTxn.fromEntityId, \r\n            tempTxn.toEntity, \r\n            tempTxn.toEntityId, \r\n            tempTxn.level, \r\n            tempTxn.sentTimestamp, \r\n            receivedTimestamp, \r\n            tempTxn.resourceQuantities,\r\n            statusCode\r\n        );\r\n    }\r\n    \r\n    function acknowledgeTxn(\r\n        bytes32 _txnId, \r\n        uint _recvdTimestamp, \r\n        uint _entityId, \r\n        string memory _level, \r\n        address _credManagerAddress\r\n    ) public {\r\n        require(_recvdTimestamp>0, \"Invalid timestamp\");\r\n        if(!resourceTxns[_txnId].created)\r\n            emit errorAckTxn(_txnId, _recvdTimestamp, msg.sender,400);\r\n        else {\r\n            if(resourceTxns[_txnId].receivedTimestamp!=0) \r\n                emit errorAckTxn(_txnId, _recvdTimestamp, msg.sender, 4010);\r\n            CredentialManager cm = CredentialManager(_credManagerAddress);\r\n            if(!cm.authorizeSigner(_level, msg.sender, _entityId))\r\n                emit errorAckTxn(_txnId, _recvdTimestamp, msg.sender, 4011);\r\n            else\r\n            {\r\n                resourceTransaction storage txn = resourceTxns[_txnId];\r\n                txn.receivedTimestamp = _recvdTimestamp;\r\n                txn.receiver = msg.sender;\r\n                emit AckTxn(_txnId, _recvdTimestamp, msg.sender, 200);\r\n            }\r\n        }             \r\n    }\r\n    \r\n    function getTxnResources(bytes32 _txnId) public view returns(uint[] memory) {\r\n        require(resourceTxns[_txnId].created==true, \"Invalid txn id\");\r\n        return resourceTxns[_txnId].resourceQuantities;\r\n    }\r\n}",
  "sourcePath": "F:/Prjcts/Capstone/identify/contracts/Inventory.sol",
  "compiler": {
    "name": "solc",
    "version": "0.8.3+commit.8d00100c.Emscripten.clang"
  },
  "schemaVersion": "3.3.3",
  "updatedAt": "2021-05-16T07:22:55.098Z",
  "networkType": "ethereum",
  "devdoc": {
    "kind": "dev",
    "methods": {},
    "version": 1
  },
  "userdoc": {
    "kind": "user",
    "methods": {},
    "version": 1
  }
}