{
  "contractName": "CredentialManager",
  "abi": [
    {
      "inputs": [],
      "stateMutability": "nonpayable",
      "type": "constructor"
    },
    {
      "anonymous": false,
      "inputs": [
        {
          "indexed": false,
          "internalType": "uint256",
          "name": "_id",
          "type": "uint256"
        },
        {
          "indexed": false,
          "internalType": "uint256[]",
          "name": "_dstnPointId",
          "type": "uint256[]"
        },
        {
          "indexed": false,
          "internalType": "address",
          "name": "_authorityId",
          "type": "address"
        }
      ],
      "name": "NewDistrict",
      "type": "event"
    },
    {
      "anonymous": false,
      "inputs": [
        {
          "indexed": false,
          "internalType": "uint256",
          "name": "_id",
          "type": "uint256"
        },
        {
          "indexed": false,
          "internalType": "uint256[]",
          "name": "_beneficiaries",
          "type": "uint256[]"
        },
        {
          "indexed": false,
          "internalType": "address",
          "name": "_authorityId",
          "type": "address"
        }
      ],
      "name": "NewDstnPoint",
      "type": "event"
    },
    {
      "anonymous": false,
      "inputs": [
        {
          "indexed": false,
          "internalType": "uint256",
          "name": "_id",
          "type": "uint256"
        },
        {
          "indexed": false,
          "internalType": "uint256[]",
          "name": "_districtIds",
          "type": "uint256[]"
        },
        {
          "indexed": false,
          "internalType": "address",
          "name": "_authorityId",
          "type": "address"
        }
      ],
      "name": "NewState",
      "type": "event"
    },
    {
      "inputs": [
        {
          "internalType": "uint256",
          "name": "",
          "type": "uint256"
        }
      ],
      "name": "beneficiaries",
      "outputs": [
        {
          "internalType": "uint256",
          "name": "id",
          "type": "uint256"
        },
        {
          "internalType": "string",
          "name": "credentials",
          "type": "string"
        }
      ],
      "stateMutability": "view",
      "type": "function",
      "constant": true
    },
    {
      "inputs": [
        {
          "internalType": "uint256",
          "name": "",
          "type": "uint256"
        }
      ],
      "name": "districts",
      "outputs": [
        {
          "internalType": "uint256",
          "name": "id",
          "type": "uint256"
        },
        {
          "internalType": "address",
          "name": "authorityId",
          "type": "address"
        }
      ],
      "stateMutability": "view",
      "type": "function",
      "constant": true
    },
    {
      "inputs": [
        {
          "internalType": "uint256",
          "name": "",
          "type": "uint256"
        }
      ],
      "name": "dstnPoints",
      "outputs": [
        {
          "internalType": "uint256",
          "name": "id",
          "type": "uint256"
        },
        {
          "internalType": "address",
          "name": "authorityId",
          "type": "address"
        }
      ],
      "stateMutability": "view",
      "type": "function",
      "constant": true
    },
    {
      "inputs": [
        {
          "internalType": "uint256",
          "name": "",
          "type": "uint256"
        }
      ],
      "name": "states",
      "outputs": [
        {
          "internalType": "uint256",
          "name": "id",
          "type": "uint256"
        },
        {
          "internalType": "address",
          "name": "authorityId",
          "type": "address"
        }
      ],
      "stateMutability": "view",
      "type": "function",
      "constant": true
    },
    {
      "inputs": [
        {
          "internalType": "uint256[]",
          "name": "_districtIds",
          "type": "uint256[]"
        },
        {
          "internalType": "address",
          "name": "_authorityId",
          "type": "address"
        }
      ],
      "name": "addState",
      "outputs": [],
      "stateMutability": "nonpayable",
      "type": "function"
    },
    {
      "inputs": [
        {
          "internalType": "uint256[]",
          "name": "_dstnIds",
          "type": "uint256[]"
        },
        {
          "internalType": "address",
          "name": "_authorityId",
          "type": "address"
        }
      ],
      "name": "addDistrict",
      "outputs": [],
      "stateMutability": "nonpayable",
      "type": "function"
    },
    {
      "inputs": [
        {
          "internalType": "uint256[]",
          "name": "_beneficiaries",
          "type": "uint256[]"
        },
        {
          "internalType": "address",
          "name": "_authorityId",
          "type": "address"
        }
      ],
      "name": "addDstnPoint",
      "outputs": [],
      "stateMutability": "nonpayable",
      "type": "function"
    },
    {
      "inputs": [
        {
          "internalType": "uint256",
          "name": "_id",
          "type": "uint256"
        },
        {
          "internalType": "string",
          "name": "_credentials",
          "type": "string"
        }
      ],
      "name": "addBeneficiary",
      "outputs": [],
      "stateMutability": "nonpayable",
      "type": "function"
    },
    {
      "inputs": [
        {
          "internalType": "uint256",
          "name": "_stateId",
          "type": "uint256"
        }
      ],
      "name": "getDistricts",
      "outputs": [
        {
          "internalType": "uint256[]",
          "name": "",
          "type": "uint256[]"
        }
      ],
      "stateMutability": "view",
      "type": "function",
      "constant": true
    },
    {
      "inputs": [
        {
          "internalType": "uint256",
          "name": "_districtId",
          "type": "uint256"
        }
      ],
      "name": "getDstnPoints",
      "outputs": [
        {
          "internalType": "uint256[]",
          "name": "",
          "type": "uint256[]"
        }
      ],
      "stateMutability": "view",
      "type": "function",
      "constant": true
    },
    {
      "inputs": [
        {
          "internalType": "uint256",
          "name": "_dstnPointId",
          "type": "uint256"
        }
      ],
      "name": "getBeneficiaries",
      "outputs": [
        {
          "internalType": "uint256[]",
          "name": "",
          "type": "uint256[]"
        }
      ],
      "stateMutability": "view",
      "type": "function",
      "constant": true
    },
    {
      "inputs": [],
      "name": "getBeneficiaryList",
      "outputs": [
        {
          "components": [
            {
              "internalType": "uint256",
              "name": "id",
              "type": "uint256"
            },
            {
              "internalType": "string",
              "name": "credentials",
              "type": "string"
            }
          ],
          "internalType": "struct CredentialManager.Beneficiary[]",
          "name": "",
          "type": "tuple[]"
        }
      ],
      "stateMutability": "view",
      "type": "function",
      "constant": true
    },
    {
      "inputs": [
        {
          "internalType": "string",
          "name": "_type",
          "type": "string"
        },
        {
          "internalType": "address",
          "name": "signer",
          "type": "address"
        },
        {
          "internalType": "uint256",
          "name": "_entityId",
          "type": "uint256"
        }
      ],
      "name": "authorizeSigner",
      "outputs": [
        {
          "internalType": "bool",
          "name": "",
          "type": "bool"
        }
      ],
      "stateMutability": "view",
      "type": "function",
      "constant": true
    }
  ],
  "bytecode": "0x60806040523480156200001157600080fd5b506200005e64e6155a93b56040518060400160405280600a81526020017f3277546357647352356f000000000000000000000000000000000000000000008152506200031060201b60201c565b620000aa6481c0c560eb6040518060400160405280600a81526020017f7849777a613335556257000000000000000000000000000000000000000000008152506200031060201b60201c565b620000f6649efaae5bc06040518060400160405280600a81526020017f314d4a6b344a656d556e000000000000000000000000000000000000000000008152506200031060201b60201c565b6200014264b33ca1c58b6040518060400160405280600a81526020017f3447585a48534b787835000000000000000000000000000000000000000000008152506200031060201b60201c565b6200018e64ced1793e316040518060400160405280600a81526020017f7332304634745a675a67000000000000000000000000000000000000000000008152506200031060201b60201c565b620001da64c80525ee656040518060400160405280600a81526020017f566f71396432716e6f4f000000000000000000000000000000000000000000008152506200031060201b60201c565b6200022664af92f19aaf6040518060400160405280600a81526020017f4d663369734c33536349000000000000000000000000000000000000000000008152506200031060201b60201c565b6200027264cf6e62d2f46040518060400160405280600a81526020017f6b514b38676165725437000000000000000000000000000000000000000000008152506200031060201b60201c565b620002be64c8897e88146040518060400160405280600a81526020017f47497a49634d7a763564000000000000000000000000000000000000000000008152506200031060201b60201c565b6200030a64cecc85fd6a6040518060400160405280600a81526020017f6f6645347a5554774c35000000000000000000000000000000000000000000008152506200031060201b60201c565b62000494565b60006040518060400160405280848152602001838152509080600181540180825580915050600190039060005260206000209060020201600090919091909150600082015181600001556020820151816001019080519060200190620003789291906200037f565b5050505050565b8280546200038d906200042f565b90600052602060002090601f016020900481019282620003b15760008555620003fd565b82601f10620003cc57805160ff1916838001178555620003fd565b82800160010185558215620003fd579182015b82811115620003fc578251825591602001919060010190620003df565b5b5090506200040c919062000410565b5090565b5b808211156200042b57600081600090555060010162000411565b5090565b600060028204905060018216806200044857607f821691505b602082108114156200045f576200045e62000465565b5b50919050565b7f4e487b7100000000000000000000000000000000000000000000000000000000600052602260045260246000fd5b611cde80620004a46000396000f3fe608060405234801561001057600080fd5b50600436106100cf5760003560e01c8063b62a91841161008c578063daa3b67b11610066578063daa3b67b14610236578063de5602bd14610266578063e77995e014610284578063efeb5e58146102b5576100cf565b8063b62a9184146101ce578063c816007d146101ea578063d42819a014610206576100cf565b8063017a9105146100d4578063419bac86146101055780634f073b6414610135578063638a0f3714610151578063783804d91461016d5780638d1e2d0c1461019d575b600080fd5b6100ee60048036038101906100e991906112b2565b6102e6565b6040516100fc9291906117f5565b60405180910390f35b61011f600480360381019061011a91906112b2565b61033a565b60405161012c9190611676565b60405180910390f35b61014f600480360381019061014a91906112db565b610479565b005b61016b600480360381019061016691906111f7565b6104e6565b005b610187600480360381019061018291906112b2565b6105fc565b6040516101949190611676565b60405180910390f35b6101b760048036038101906101b291906112b2565b61073a565b6040516101c59291906117f5565b60405180910390f35b6101e860048036038101906101e391906111f7565b61078e565b005b61020460048036038101906101ff91906111f7565b6108a4565b005b610220600480360381019061021b91906112b2565b6109ba565b60405161022d9190611676565b60405180910390f35b610250600480360381019061024b919061124b565b610af9565b60405161025d9190611698565b60405180910390f35b61026e610dd4565b60405161027b9190611654565b60405180910390f35b61029e600480360381019061029991906112b2565b610ecf565b6040516102ac9291906117f5565b60405180910390f35b6102cf60048036038101906102ca91906112b2565b610f23565b6040516102dd92919061185c565b60405180910390f35b600381815481106102f657600080fd5b90600052602060002090600302016000915090508060000154908060020160009054906101000a900473ffffffffffffffffffffffffffffffffffffffff16905082565b6060600060018054905011610384576040517f08c379a000000000000000000000000000000000000000000000000000000000815260040161037b90611755565b60405180910390fd5b60008210158015610399575060028054905082105b6103d8576040517f08c379a00000000000000000000000000000000000000000000000000000000081526004016103cf906116f5565b60405180910390fd5b60028281548110610412577f4e487b7100000000000000000000000000000000000000000000000000000000600052603260045260246000fd5b906000526020600020906003020160010180548060200260200160405190810160405280929190818152602001828054801561046d57602002820191906000526020600020905b815481526020019060010190808311610459575b50505050509050919050565b600060405180604001604052808481526020018381525090806001815401808255809150506001900390600052602060002090600202016000909190919091506000820151816000015560208201518160010190805190602001906104df929190610fdf565b5050505050565b60006002805490509050600260405180606001604052808381526020018581526020018473ffffffffffffffffffffffffffffffffffffffff168152509080600181540180825580915050600190039060005260206000209060030201600090919091909150600082015181600001556020820151816001019080519060200190610572929190611065565b5060408201518160020160006101000a81548173ffffffffffffffffffffffffffffffffffffffff021916908373ffffffffffffffffffffffffffffffffffffffff16021790555050507f323d831bdf224b6ed762e110cc88fc8fc094cae79f09a4b69a9431036399818c8184846040516105ef9392919061181e565b60405180910390a1505050565b60606000808054905011610645576040517f08c379a000000000000000000000000000000000000000000000000000000000815260040161063c90611735565b60405180910390fd5b6000821015801561065a575060018054905082105b610699576040517f08c379a0000000000000000000000000000000000000000000000000000000008152600401610690906117d5565b60405180910390fd5b600182815481106106d3577f4e487b7100000000000000000000000000000000000000000000000000000000600052603260045260246000fd5b906000526020600020906003020160010180548060200260200160405190810160405280929190818152602001828054801561072e57602002820191906000526020600020905b81548152602001906001019080831161071a575b50505050509050919050565b6001818154811061074a57600080fd5b90600052602060002090600302016000915090508060000154908060020160009054906101000a900473ffffffffffffffffffffffffffffffffffffffff16905082565b60006003805490509050600360405180606001604052808381526020018581526020018473ffffffffffffffffffffffffffffffffffffffff16815250908060018154018082558091505060019003906000526020600020906003020160009091909190915060008201518160000155602082015181600101908051906020019061081a929190611065565b5060408201518160020160006101000a81548173ffffffffffffffffffffffffffffffffffffffff021916908373ffffffffffffffffffffffffffffffffffffffff16021790555050507fcd920c8ac08fdcaaefb1167c4e128bca6ea7b78785a2cb9cad94d5816096a2dc8184846040516108979392919061181e565b60405180910390a1505050565b60006001805490509050600160405180606001604052808381526020018581526020018473ffffffffffffffffffffffffffffffffffffffff168152509080600181540180825580915050600190039060005260206000209060030201600090919091909150600082015181600001556020820151816001019080519060200190610930929190611065565b5060408201518160020160006101000a81548173ffffffffffffffffffffffffffffffffffffffff021916908373ffffffffffffffffffffffffffffffffffffffff16021790555050507f10d420e1394aabe13dc60016fe9414d35a39316b85b3953b5a48e9f99aebc2668184846040516109ad9392919061181e565b60405180910390a1505050565b6060600060038054905011610a04576040517f08c379a00000000000000000000000000000000000000000000000000000000081526004016109fb90611795565b60405180910390fd5b60008210158015610a19575060038054905082105b610a58576040517f08c379a0000000000000000000000000000000000000000000000000000000008152600401610a4f906117b5565b60405180910390fd5b60038281548110610a92577f4e487b7100000000000000000000000000000000000000000000000000000000600052603260045260246000fd5b9060005260206000209060030201600101805480602002602001604051908101604052809291908181526020018280548015610aed57602002820191906000526020600020905b815481526020019060010190808311610ad9575b50505050509050919050565b600080604051602001610b0b90611715565b6040516020818303038152906040528051906020012085604051602001610b3291906116b3565b604051602081830303815290604052805190602001201415610beb578373ffffffffffffffffffffffffffffffffffffffff1660038481548110610b9f577f4e487b7100000000000000000000000000000000000000000000000000000000600052603260045260246000fd5b906000526020600020906003020160020160009054906101000a900473ffffffffffffffffffffffffffffffffffffffff1673ffffffffffffffffffffffffffffffffffffffff161490505b604051602001610bfa906116d5565b6040516020818303038152906040528051906020012085604051602001610c2191906116b3565b604051602081830303815290604052805190602001201415610cda578373ffffffffffffffffffffffffffffffffffffffff1660028481548110610c8e577f4e487b7100000000000000000000000000000000000000000000000000000000600052603260045260246000fd5b906000526020600020906003020160020160009054906101000a900473ffffffffffffffffffffffffffffffffffffffff1673ffffffffffffffffffffffffffffffffffffffff161490505b604051602001610ce990611775565b6040516020818303038152906040528051906020012085604051602001610d1091906116b3565b604051602081830303815290604052805190602001201415610dc9578373ffffffffffffffffffffffffffffffffffffffff1660018481548110610d7d577f4e487b7100000000000000000000000000000000000000000000000000000000600052603260045260246000fd5b906000526020600020906003020160020160009054906101000a900473ffffffffffffffffffffffffffffffffffffffff1673ffffffffffffffffffffffffffffffffffffffff161490505b809150509392505050565b60606000805480602002602001604051908101604052809291908181526020016000905b82821015610ec6578382906000526020600020906002020160405180604001604052908160008201548152602001600182018054610e3590611a37565b80601f0160208091040260200160405190810160405280929190818152602001828054610e6190611a37565b8015610eae5780601f10610e8357610100808354040283529160200191610eae565b820191906000526020600020905b815481529060010190602001808311610e9157829003601f168201915b50505050508152505081526020019060010190610df8565b50505050905090565b60028181548110610edf57600080fd5b90600052602060002090600302016000915090508060000154908060020160009054906101000a900473ffffffffffffffffffffffffffffffffffffffff16905082565b60008181548110610f3357600080fd5b9060005260206000209060020201600091509050806000015490806001018054610f5c90611a37565b80601f0160208091040260200160405190810160405280929190818152602001828054610f8890611a37565b8015610fd55780601f10610faa57610100808354040283529160200191610fd5565b820191906000526020600020905b815481529060010190602001808311610fb857829003601f168201915b5050505050905082565b828054610feb90611a37565b90600052602060002090601f01602090048101928261100d5760008555611054565b82601f1061102657805160ff1916838001178555611054565b82800160010185558215611054579182015b82811115611053578251825591602001919060010190611038565b5b50905061106191906110b2565b5090565b8280548282559060005260206000209081019282156110a1579160200282015b828111156110a0578251825591602001919060010190611085565b5b5090506110ae91906110b2565b5090565b5b808211156110cb5760008160009055506001016110b3565b5090565b60006110e26110dd846118b1565b61188c565b9050808382526020820190508285602086028201111561110157600080fd5b60005b85811015611131578161111788826111e2565b845260208401935060208301925050600181019050611104565b5050509392505050565b600061114e611149846118dd565b61188c565b90508281526020810184848401111561116657600080fd5b6111718482856119f5565b509392505050565b60008135905061118881611c7a565b92915050565b600082601f83011261119f57600080fd5b81356111af8482602086016110cf565b91505092915050565b600082601f8301126111c957600080fd5b81356111d984826020860161113b565b91505092915050565b6000813590506111f181611c91565b92915050565b6000806040838503121561120a57600080fd5b600083013567ffffffffffffffff81111561122457600080fd5b6112308582860161118e565b925050602061124185828601611179565b9150509250929050565b60008060006060848603121561126057600080fd5b600084013567ffffffffffffffff81111561127a57600080fd5b611286868287016111b8565b935050602061129786828701611179565b92505060406112a8868287016111e2565b9150509250925092565b6000602082840312156112c457600080fd5b60006112d2848285016111e2565b91505092915050565b600080604083850312156112ee57600080fd5b60006112fc858286016111e2565b925050602083013567ffffffffffffffff81111561131957600080fd5b611325858286016111b8565b9150509250929050565b600061133b83836115f9565b905092915050565b600061134f8383611636565b60208301905092915050565b611364816119ad565b82525050565b60006113758261192e565b61137f8185611969565b9350836020820285016113918561190e565b8060005b858110156113cd57848403895281516113ae858261132f565b94506113b98361194f565b925060208a01995050600181019050611395565b50829750879550505050505092915050565b60006113ea82611939565b6113f4818561197a565b93506113ff8361191e565b8060005b838110156114305781516114178882611343565b97506114228361195c565b925050600181019050611403565b5085935050505092915050565b611446816119bf565b82525050565b600061145782611944565b611461818561198b565b9350611471818560208601611a04565b61147a81611af8565b840191505092915050565b600061149082611944565b61149a818561199c565b93506114aa818560208601611a04565b6114b381611af8565b840191505092915050565b60006114cb60088361199c565b91506114d682611b09565b602082019050919050565b60006114ee60138361199c565b91506114f982611b32565b602082019050919050565b600061151160058361199c565b915061151c82611b5b565b602082019050919050565b600061153460198361199c565b915061153f82611b84565b602082019050919050565b600061155760208361199c565b915061156282611bad565b602082019050919050565b600061157a600c8361199c565b915061158582611bd6565b602082019050919050565b600061159d60168361199c565b91506115a882611bff565b602082019050919050565b60006115c060108361199c565b91506115cb82611c28565b602082019050919050565b60006115e3601c8361199c565b91506115ee82611c51565b602082019050919050565b60006040830160008301516116116000860182611636565b5060208301518482036020860152611629828261144c565b9150508091505092915050565b61163f816119eb565b82525050565b61164e816119eb565b82525050565b6000602082019050818103600083015261166e818461136a565b905092915050565b6000602082019050818103600083015261169081846113df565b905092915050565b60006020820190506116ad600083018461143d565b92915050565b600060208201905081810360008301526116cd8184611485565b905092915050565b600060208201905081810360008301526116ee816114be565b9050919050565b6000602082019050818103600083015261170e816114e1565b9050919050565b6000602082019050818103600083015261172e81611504565b9050919050565b6000602082019050818103600083015261174e81611527565b9050919050565b6000602082019050818103600083015261176e8161154a565b9050919050565b6000602082019050818103600083015261178e8161156d565b9050919050565b600060208201905081810360008301526117ae81611590565b9050919050565b600060208201905081810360008301526117ce816115b3565b9050919050565b600060208201905081810360008301526117ee816115d6565b9050919050565b600060408201905061180a6000830185611645565b611817602083018461135b565b9392505050565b60006060820190506118336000830186611645565b818103602083015261184581856113df565b9050611854604083018461135b565b949350505050565b60006040820190506118716000830185611645565b81810360208301526118838184611485565b90509392505050565b60006118966118a7565b90506118a28282611a69565b919050565b6000604051905090565b600067ffffffffffffffff8211156118cc576118cb611ac9565b5b602082029050602081019050919050565b600067ffffffffffffffff8211156118f8576118f7611ac9565b5b61190182611af8565b9050602081019050919050565b6000819050602082019050919050565b6000819050602082019050919050565b600081519050919050565b600081519050919050565b600081519050919050565b6000602082019050919050565b6000602082019050919050565b600082825260208201905092915050565b600082825260208201905092915050565b600082825260208201905092915050565b600082825260208201905092915050565b60006119b8826119cb565b9050919050565b60008115159050919050565b600073ffffffffffffffffffffffffffffffffffffffff82169050919050565b6000819050919050565b82818337600083830152505050565b60005b83811015611a22578082015181840152602081019050611a07565b83811115611a31576000848401525b50505050565b60006002820490506001821680611a4f57607f821691505b60208210811415611a6357611a62611a9a565b5b50919050565b611a7282611af8565b810181811067ffffffffffffffff82111715611a9157611a90611ac9565b5b80604052505050565b7f4e487b7100000000000000000000000000000000000000000000000000000000600052602260045260246000fd5b7f4e487b7100000000000000000000000000000000000000000000000000000000600052604160045260246000fd5b6000601f19601f8301169050919050565b7f4469737472696374000000000000000000000000000000000000000000000000600082015250565b7f496e76616c696420646973747269637420496400000000000000000000000000600082015250565b7f5374617465000000000000000000000000000000000000000000000000000000600082015250565b7f4e6f2042656e6566696369617279207265676973746572656400000000000000600082015250565b7f4e6f20646973747269627574696f6e20706f696e742072656769737465726564600082015250565b7f446973746e2e20506f696e740000000000000000000000000000000000000000600082015250565b7f4e6f206469737472696374207265676973746572656400000000000000000000600082015250565b7f496e76616c696420737461746520696400000000000000000000000000000000600082015250565b7f496e76616c696420446973747269627574696f6e506f696e7420696400000000600082015250565b611c83816119ad565b8114611c8e57600080fd5b50565b611c9a816119eb565b8114611ca557600080fd5b5056fea26469706673582212206ea8f73f29831509d48b24ea98024deaa33ec0059bd8c0d3b5468463b98f558764736f6c63430008030033",
  "immutableReferences": {},
  "source": "// SPDX-License-Identifier: GPL-3.0\r\npragma solidity >=0.5.0 <=0.8.3; \r\n\r\ncontract CredentialManager {\r\n\r\n    constructor() {\r\n        addBeneficiary(988200735669,\"2wTcWdsR5o\");\r\n        addBeneficiary(557284942059,\"xIwza35UbW\");\r\n        addBeneficiary(682810563520,\"1MJk4JemUn\");\r\n        addBeneficiary(769816380811,\"4GXZHSKxx5\");\r\n        addBeneficiary(888277646897,\"s20F4tZgZg\");\r\n        addBeneficiary(859079831141,\"Voq9d2qnoO\");\r\n        addBeneficiary(754084584111,\"Mf3isL3ScI\");\r\n        addBeneficiary(890910200564,\"kQK8gaerT7\");\r\n        addBeneficiary(861300230164,\"GIzIcMzv5d\");\r\n        addBeneficiary(888194596202,\"ofE4zUTwL5\");\r\n    }\r\n    struct State {\r\n        uint id;\r\n        uint[] districtIds;\r\n        address authorityId;\r\n    }\r\n    \r\n    struct District {\r\n        uint id;\r\n        uint[] dstnIds;\r\n        address authorityId;\r\n    }\r\n    \r\n    struct DistributionPoint {\r\n        uint id;\r\n        uint[] beneficiaryIds;\r\n        address authorityId;\r\n    }\r\n    \r\n    struct Beneficiary {\r\n        uint id;\r\n        string credentials;\r\n    }\r\n    \r\n    Beneficiary[] public beneficiaries;\r\n    DistributionPoint[] public dstnPoints;\r\n    District[] public districts;\r\n    State[] public states;\r\n    \r\n    event NewState(uint _id, uint[] _districtIds, address _authorityId);\r\n    event NewDistrict(uint _id, uint[] _dstnPointId, address _authorityId);\r\n    event NewDstnPoint(uint _id, uint[] _beneficiaries, address _authorityId);\r\n    \r\n    function addState(uint[] memory _districtIds, address _authorityId) public{\r\n        uint id = states.length;\r\n        states.push(State(id,_districtIds,_authorityId));\r\n        emit NewState(id, _districtIds, _authorityId);\r\n    }\r\n    \r\n    function addDistrict(uint[] memory _dstnIds, address _authorityId) public {\r\n        uint id = districts.length;\r\n        districts.push(District(id, _dstnIds, _authorityId));   \r\n        emit NewDistrict(id, _dstnIds, _authorityId);\r\n    }\r\n    \r\n    function addDstnPoint(uint[] memory _beneficiaries, address _authorityId) public {\r\n        uint id = dstnPoints.length;\r\n        dstnPoints.push(DistributionPoint(id, _beneficiaries, _authorityId));\r\n        emit NewDstnPoint(id, _beneficiaries, _authorityId);\r\n    }\r\n    \r\n    function addBeneficiary(uint _id, string memory _credentials) public{\r\n        beneficiaries.push(Beneficiary(_id, _credentials));\r\n    }\r\n    \r\n    function getDistricts(uint _stateId) public view returns(uint[] memory) {\r\n        require(states.length>0, \"No district registered\");\r\n        require(_stateId>=0 && _stateId<states.length, \"Invalid state id\");\r\n        return states[_stateId].districtIds;\r\n        //returns list of district ids in a state\r\n    }\r\n    \r\n    function getDstnPoints(uint _districtId) public view returns(uint[] memory) {\r\n        require(dstnPoints.length>0, \"No distribution point registered\");\r\n        require(_districtId>=0 && _districtId<districts.length, \"Invalid district Id\");\r\n        return districts[_districtId].dstnIds;\r\n        //returns the list of dstn point ids in a district\r\n    }\r\n    \r\n    function getBeneficiaries(uint _dstnPointId) public view returns(uint[] memory) {\r\n        require(beneficiaries.length>0, \"No Beneficiary registered\");\r\n        require(_dstnPointId>=0 && _dstnPointId<dstnPoints.length, \"Invalid DistributionPoint id\");\r\n        return dstnPoints[_dstnPointId].beneficiaryIds;\r\n        //returns beneficiary Ids of a dstn point\r\n    }\r\n    \r\n    function getBeneficiaryList() public view returns(Beneficiary[] memory) {\r\n        return beneficiaries;\r\n    }\r\n    \r\n    function authorizeSigner(string memory _type, address signer, uint _entityId) public view returns(bool){\r\n        \r\n        bool isAuthorized;\r\n        \r\n        if(keccak256(abi.encode(_type)) == keccak256(abi.encode(\"State\")))\r\n        isAuthorized = states[_entityId].authorityId == signer;\r\n        \r\n        if(keccak256(abi.encode(_type)) == keccak256(abi.encode(\"District\")))\r\n        isAuthorized = districts[_entityId].authorityId == signer;\r\n        \r\n        if(keccak256(abi.encode(_type)) == keccak256(abi.encode(\"Distn. Point\")))\r\n        isAuthorized = dstnPoints[_entityId].authorityId == signer;\r\n       \r\n        return isAuthorized;\r\n        \r\n    }\r\n}",
  "sourcePath": "F:/Prjcts/Capstone/identify/contracts/CredentialManager.sol",
  "compiler": {
    "name": "solc",
    "version": "0.8.3+commit.8d00100c.Emscripten.clang"
  },
  "schemaVersion": "3.3.3",
  "updatedAt": "2021-04-17T15:00:44.470Z",
  "networkType": "ethereum",
  "devdoc": {
    "kind": "dev",
    "methods": {},
    "version": 1
  },
  "userdoc": {
    "kind": "user",
    "methods": {},
    "version": 1
  }
}