{
  "contractName": "CredentialManager",
  "abi": [
    {
      "inputs": [],
      "stateMutability": "nonpayable",
      "type": "constructor"
    },
    {
      "anonymous": false,
      "inputs": [
        {
          "indexed": false,
          "internalType": "uint256",
          "name": "_level",
          "type": "uint256"
        },
        {
          "indexed": false,
          "internalType": "uint256",
          "name": "_entityId",
          "type": "uint256"
        },
        {
          "indexed": false,
          "internalType": "address",
          "name": "_authorityId",
          "type": "address"
        }
      ],
      "name": "NewAuthority",
      "type": "event"
    },
    {
      "anonymous": false,
      "inputs": [
        {
          "indexed": false,
          "internalType": "uint256",
          "name": "_id",
          "type": "uint256"
        },
        {
          "indexed": false,
          "internalType": "string",
          "name": "_credentials",
          "type": "string"
        },
        {
          "indexed": false,
          "internalType": "address",
          "name": "_registeredBy",
          "type": "address"
        },
        {
          "indexed": false,
          "internalType": "uint256",
          "name": "_dstnId",
          "type": "uint256"
        }
      ],
      "name": "NewBeneficiary",
      "type": "event"
    },
    {
      "anonymous": false,
      "inputs": [
        {
          "indexed": false,
          "internalType": "uint256",
          "name": "_id",
          "type": "uint256"
        },
        {
          "indexed": false,
          "internalType": "string",
          "name": "_name",
          "type": "string"
        },
        {
          "indexed": false,
          "internalType": "uint256",
          "name": "_stateId",
          "type": "uint256"
        }
      ],
      "name": "NewDistrict",
      "type": "event"
    },
    {
      "anonymous": false,
      "inputs": [
        {
          "indexed": false,
          "internalType": "uint256",
          "name": "_id",
          "type": "uint256"
        },
        {
          "indexed": false,
          "internalType": "string",
          "name": "_name",
          "type": "string"
        },
        {
          "indexed": false,
          "internalType": "uint256",
          "name": "_districtId",
          "type": "uint256"
        }
      ],
      "name": "NewDstnPoint",
      "type": "event"
    },
    {
      "anonymous": false,
      "inputs": [
        {
          "indexed": false,
          "internalType": "uint256",
          "name": "_id",
          "type": "uint256"
        },
        {
          "indexed": false,
          "internalType": "string",
          "name": "_name",
          "type": "string"
        }
      ],
      "name": "NewState",
      "type": "event"
    },
    {
      "inputs": [
        {
          "internalType": "uint256",
          "name": "",
          "type": "uint256"
        }
      ],
      "name": "beneficiaries",
      "outputs": [
        {
          "internalType": "uint256",
          "name": "id",
          "type": "uint256"
        },
        {
          "internalType": "uint256",
          "name": "dstnId",
          "type": "uint256"
        },
        {
          "internalType": "string",
          "name": "credentials",
          "type": "string"
        }
      ],
      "stateMutability": "view",
      "type": "function",
      "constant": true
    },
    {
      "inputs": [],
      "name": "centralAuthId",
      "outputs": [
        {
          "internalType": "address",
          "name": "",
          "type": "address"
        }
      ],
      "stateMutability": "view",
      "type": "function",
      "constant": true
    },
    {
      "inputs": [
        {
          "internalType": "uint256",
          "name": "",
          "type": "uint256"
        }
      ],
      "name": "districts",
      "outputs": [
        {
          "internalType": "uint256",
          "name": "id",
          "type": "uint256"
        },
        {
          "internalType": "uint256",
          "name": "stateId",
          "type": "uint256"
        },
        {
          "internalType": "string",
          "name": "name",
          "type": "string"
        }
      ],
      "stateMutability": "view",
      "type": "function",
      "constant": true
    },
    {
      "inputs": [
        {
          "internalType": "uint256",
          "name": "",
          "type": "uint256"
        }
      ],
      "name": "dstnPoints",
      "outputs": [
        {
          "internalType": "uint256",
          "name": "id",
          "type": "uint256"
        },
        {
          "internalType": "uint256",
          "name": "districtId",
          "type": "uint256"
        },
        {
          "internalType": "string",
          "name": "name",
          "type": "string"
        }
      ],
      "stateMutability": "view",
      "type": "function",
      "constant": true
    },
    {
      "inputs": [
        {
          "internalType": "uint256",
          "name": "",
          "type": "uint256"
        }
      ],
      "name": "states",
      "outputs": [
        {
          "internalType": "uint256",
          "name": "id",
          "type": "uint256"
        },
        {
          "internalType": "string",
          "name": "name",
          "type": "string"
        }
      ],
      "stateMutability": "view",
      "type": "function",
      "constant": true
    },
    {
      "inputs": [
        {
          "internalType": "string",
          "name": "_name",
          "type": "string"
        }
      ],
      "name": "addState",
      "outputs": [],
      "stateMutability": "nonpayable",
      "type": "function"
    },
    {
      "inputs": [
        {
          "internalType": "string",
          "name": "_districtName",
          "type": "string"
        },
        {
          "internalType": "uint256",
          "name": "_stateId",
          "type": "uint256"
        }
      ],
      "name": "addDistrict",
      "outputs": [],
      "stateMutability": "nonpayable",
      "type": "function"
    },
    {
      "inputs": [
        {
          "internalType": "string",
          "name": "_dstnPointName",
          "type": "string"
        },
        {
          "internalType": "uint256",
          "name": "_districtId",
          "type": "uint256"
        }
      ],
      "name": "addDstnPoint",
      "outputs": [],
      "stateMutability": "nonpayable",
      "type": "function"
    },
    {
      "inputs": [
        {
          "internalType": "uint256",
          "name": "_id",
          "type": "uint256"
        },
        {
          "internalType": "string",
          "name": "_credentials",
          "type": "string"
        },
        {
          "internalType": "uint256",
          "name": "_dstnId",
          "type": "uint256"
        }
      ],
      "name": "addBeneficiary",
      "outputs": [],
      "stateMutability": "nonpayable",
      "type": "function"
    },
    {
      "inputs": [
        {
          "internalType": "uint256",
          "name": "_dstnPointId",
          "type": "uint256"
        }
      ],
      "name": "getBeneficiaries",
      "outputs": [
        {
          "internalType": "uint256[]",
          "name": "",
          "type": "uint256[]"
        }
      ],
      "stateMutability": "view",
      "type": "function",
      "constant": true
    },
    {
      "inputs": [],
      "name": "getBeneficiaryList",
      "outputs": [
        {
          "components": [
            {
              "internalType": "uint256",
              "name": "id",
              "type": "uint256"
            },
            {
              "internalType": "uint256",
              "name": "dstnId",
              "type": "uint256"
            },
            {
              "internalType": "string",
              "name": "credentials",
              "type": "string"
            }
          ],
          "internalType": "struct CredentialManager.Beneficiary[]",
          "name": "",
          "type": "tuple[]"
        }
      ],
      "stateMutability": "view",
      "type": "function",
      "constant": true
    },
    {
      "inputs": [
        {
          "internalType": "uint256",
          "name": "_level",
          "type": "uint256"
        },
        {
          "internalType": "uint256",
          "name": "_entityId",
          "type": "uint256"
        },
        {
          "internalType": "address",
          "name": "_authority",
          "type": "address"
        }
      ],
      "name": "addAuthority",
      "outputs": [],
      "stateMutability": "nonpayable",
      "type": "function"
    },
    {
      "inputs": [
        {
          "internalType": "string",
          "name": "_type",
          "type": "string"
        },
        {
          "internalType": "address",
          "name": "_signer",
          "type": "address"
        },
        {
          "internalType": "uint256",
          "name": "_entityId",
          "type": "uint256"
        }
      ],
      "name": "authorizeSigner",
      "outputs": [
        {
          "internalType": "bool",
          "name": "",
          "type": "bool"
        }
      ],
      "stateMutability": "view",
      "type": "function",
      "constant": true
    }
  ],
  "bytecode": "0x608060405273f17f52151ebef6c7334fad080c5704d77216b7326000806101000a81548173ffffffffffffffffffffffffffffffffffffffff021916908373ffffffffffffffffffffffffffffffffffffffff1602179055503480156200006557600080fd5b5060006040518061038001604052806040518060400160405280600e81526020017f416e64687261205072616465736800000000000000000000000000000000000081525081526020016040518060400160405280601181526020017f4172756e616368616c205072616465736800000000000000000000000000000081525081526020016040518060400160405280600581526020017f417373616d00000000000000000000000000000000000000000000000000000081525081526020016040518060400160405280600581526020017f426968617200000000000000000000000000000000000000000000000000000081525081526020016040518060400160405280600c81526020017f436868617474697367617268000000000000000000000000000000000000000081525081526020016040518060400160405280600381526020017f476f61000000000000000000000000000000000000000000000000000000000081525081526020016040518060400160405280600781526020017f47756a617261740000000000000000000000000000000000000000000000000081525081526020016040518060400160405280600781526020017f48617279616e610000000000000000000000000000000000000000000000000081525081526020016040518060400160405280601081526020017f48696d616368616c20507261646573680000000000000000000000000000000081525081526020016040518060400160405280600981526020017f4a6861726b68616e64000000000000000000000000000000000000000000000081525081526020016040518060400160405280600981526020017f4b61726e6174616b61000000000000000000000000000000000000000000000081525081526020016040518060400160405280600681526020017f4b6572616c61000000000000000000000000000000000000000000000000000081525081526020016040518060400160405280600e81526020017f4d6164687961205072616465736800000000000000000000000000000000000081525081526020016040518060400160405280600b81526020017f4d6168617261736874726100000000000000000000000000000000000000000081525081526020016040518060400160405280600781526020017f4d616e697075720000000000000000000000000000000000000000000000000081525081526020016040518060400160405280600981526020017f4d656768616c617961000000000000000000000000000000000000000000000081525081526020016040518060400160405280600781526020017f4d697a6f72616d0000000000000000000000000000000000000000000000000081525081526020016040518060400160405280600881526020017f4e6167616c616e6400000000000000000000000000000000000000000000000081525081526020016040518060400160405280600681526020017f4f6469736861000000000000000000000000000000000000000000000000000081525081526020016040518060400160405280600681526020017f50756e6a6162000000000000000000000000000000000000000000000000000081525081526020016040518060400160405280600981526020017f52616a61737468616e000000000000000000000000000000000000000000000081525081526020016040518060400160405280600681526020017f53696b6b696d000000000000000000000000000000000000000000000000000081525081526020016040518060400160405280600a81526020017f54616d696c204e6164750000000000000000000000000000000000000000000081525081526020016040518060400160405280600981526020017f54656c616e67616e61000000000000000000000000000000000000000000000081525081526020016040518060400160405280600781526020017f547269707572610000000000000000000000000000000000000000000000000081525081526020016040518060400160405280600d81526020017f557474617220507261646573680000000000000000000000000000000000000081525081526020016040518060400160405280600b81526020017f5574746172616b68616e6400000000000000000000000000000000000000000081525081526020016040518060400160405280600b81526020017f576573742042656e67616c000000000000000000000000000000000000000000815250815250905060005b601c8110156200075a57620007448282601c811062000733577f4e487b7100000000000000000000000000000000000000000000000000000000600052603260045260246000fd5b60200201516200076260201b60201c565b8080620007519062000a4f565b915050620006eb565b505062000b0c565b6004600181600181540180825580915050039060005260206000209050506000600460016004805490506200079891906200099e565b81548110620007d0577f4e487b7100000000000000000000000000000000000000000000000000000000600052603260045260246000fd5b90600052602060002090600302019050600480549050816000018190555081816002019080519060200190620008089291906200084c565b507f5118442027d611358f8561ea9534df2708a1f1b1480bc00a177481644a71cb31816000015483604051620008409291906200094e565b60405180910390a15050565b8280546200085a9062000a19565b90600052602060002090601f0160209004810192826200087e5760008555620008ca565b82601f106200089957805160ff1916838001178555620008ca565b82800160010185558215620008ca579182015b82811115620008c9578251825591602001919060010190620008ac565b5b509050620008d99190620008dd565b5090565b5b80821115620008f8576000816000905550600101620008de565b5090565b6000620009098262000982565b6200091581856200098d565b935062000927818560208601620009e3565b620009328162000afb565b840191505092915050565b6200094881620009d9565b82525050565b60006040820190506200096560008301856200093d565b8181036020830152620009798184620008fc565b90509392505050565b600081519050919050565b600082825260208201905092915050565b6000620009ab82620009d9565b9150620009b883620009d9565b925082821015620009ce57620009cd62000a9d565b5b828203905092915050565b6000819050919050565b60005b8381101562000a03578082015181840152602081019050620009e6565b8381111562000a13576000848401525b50505050565b6000600282049050600182168062000a3257607f821691505b6020821081141562000a495762000a4862000acc565b5b50919050565b600062000a5c82620009d9565b91507fffffffffffffffffffffffffffffffffffffffffffffffffffffffffffffffff82141562000a925762000a9162000a9d565b5b600182019050919050565b7f4e487b7100000000000000000000000000000000000000000000000000000000600052601160045260246000fd5b7f4e487b7100000000000000000000000000000000000000000000000000000000600052602260045260246000fd5b6000601f19601f8301169050919050565b611f0c8062000b1c6000396000f3fe608060405234801561001057600080fd5b50600436106100cf5760003560e01c80638d1e2d0c1161008c578063daa3b67b11610066578063daa3b67b14610211578063de5602bd14610241578063e77995e01461025f578063efeb5e5814610291576100cf565b80638d1e2d0c146101a55780638f971f03146101d757806399dea894146101f5576100cf565b8063017a9105146100d457806311af53af146101055780632a34ede1146101215780634fab34561461013d5780635820373314610159578063783804d914610175575b600080fd5b6100ee60048036038101906100e99190611459565b6102c3565b6040516100fc9291906119a6565b60405180910390f35b61011f600480360381019061011a91906114e9565b61037f565b005b61013b6004803603810190610136919061135d565b610619565b005b61015760048036038101906101529190611405565b6106fc565b005b610173600480360381019061016e9190611482565b6107eb565b005b61018f600480360381019061018a9190611459565b610918565b60405161019c9190611867565b60405180910390f35b6101bf60048036038101906101ba9190611459565b610a57565b6040516101ce93929190611a97565b60405180910390f35b6101df610b19565b6040516101ec919061182a565b60405180910390f35b61020f600480360381019061020a9190611405565b610b3d565b005b61022b6004803603810190610226919061139e565b610c2c565b6040516102389190611889565b60405180910390f35b610249610f9f565b6040516102569190611845565b60405180910390f35b61027960048036038101906102749190611459565b6110a4565b60405161028893929190611a97565b60405180910390f35b6102ab60048036038101906102a69190611459565b611166565b6040516102ba93929190611a97565b60405180910390f35b600481815481106102d357600080fd5b90600052602060002090600302016000915090508060000154908060020180546102fc90611c88565b80601f016020809104026020016040519081016040528092919081815260200182805461032890611c88565b80156103755780601f1061034a57610100808354040283529160200191610375565b820191906000526020600020905b81548152906001019060200180831161035857829003601f168201915b5050505050905082565b60008311801561038f5750600483105b6103ce576040517f08c379a00000000000000000000000000000000000000000000000000000000081526004016103c590611906565b60405180910390fd5b600183141561047d57600160048381548110610413577f4e487b7100000000000000000000000000000000000000000000000000000000600052603260045260246000fd5b906000526020600020906003020160010160008373ffffffffffffffffffffffffffffffffffffffff1673ffffffffffffffffffffffffffffffffffffffff16815260200190815260200160002060006101000a81548160ff0219169083151502179055506105d9565b600283141561052c576001600383815481106104c2577f4e487b7100000000000000000000000000000000000000000000000000000000600052603260045260246000fd5b906000526020600020906004020160020160008373ffffffffffffffffffffffffffffffffffffffff1673ffffffffffffffffffffffffffffffffffffffff16815260200190815260200160002060006101000a81548160ff0219169083151502179055506105d8565b60038314156105d757600160028381548110610571577f4e487b7100000000000000000000000000000000000000000000000000000000600052603260045260246000fd5b906000526020600020906005020160030160008373ffffffffffffffffffffffffffffffffffffffff1673ffffffffffffffffffffffffffffffffffffffff16815260200190815260200160002060006101000a81548160ff0219169083151502179055505b5b5b7feed4f6de47397d103ceffd01744ea7c5f2a30696d73adecea2bca5665efd77d283838360405161060c93929190611a60565b60405180910390a1505050565b60046001816001815401808255809150500390600052602060002090505060006004600160048054905061064d9190611bca565b81548110610684577f4e487b7100000000000000000000000000000000000000000000000000000000600052603260045260246000fd5b906000526020600020906003020190506004805490508160000181905550818160020190805190602001906106ba929190611228565b507f5118442027d611358f8561ea9534df2708a1f1b1480bc00a177481644a71cb318160000154836040516106f09291906119a6565b60405180910390a15050565b6003600181600181540180825580915050039060005260206000209050506000600360016003805490506107309190611bca565b81548110610767577f4e487b7100000000000000000000000000000000000000000000000000000000600052603260045260246000fd5b9060005260206000209060040201905060038054905081600001819055508281600301908051906020019061079d929190611228565b508181600101819055507f5a455249f9b31b8e5c44c592ae8a4c1b2687a6e66d02ab5f4faf66649de945ed816000015484846040516107de93929190611a22565b60405180910390a1505050565b60028181548110610825577f4e487b7100000000000000000000000000000000000000000000000000000000600052603260045260246000fd5b906000526020600020906005020160020183908060018154018082558091505060019003906000526020600020016000909190919091505560016040518060600160405280858152602001838152602001848152509080600181540180825580915050600190039060005260206000209060030201600090919091909150600082015181600001556020820151816001015560408201518160020190805190602001906108d3929190611228565b5050507f11ec863ed9db15abde31a461c1307950608583357fde049a83308eb8841f92138383338460405161090b94939291906119d6565b60405180910390a1505050565b6060600060018054905011610962576040517f08c379a000000000000000000000000000000000000000000000000000000000815260040161095990611946565b60405180910390fd5b60008210158015610977575060028054905082105b6109b6576040517f08c379a00000000000000000000000000000000000000000000000000000000081526004016109ad90611986565b60405180910390fd5b600282815481106109f0577f4e487b7100000000000000000000000000000000000000000000000000000000600052603260045260246000fd5b9060005260206000209060050201600201805480602002602001604051908101604052809291908181526020018280548015610a4b57602002820191906000526020600020905b815481526020019060010190808311610a37575b50505050509050919050565b60028181548110610a6757600080fd5b9060005260206000209060050201600091509050806000015490806001015490806004018054610a9690611c88565b80601f0160208091040260200160405190810160405280929190818152602001828054610ac290611c88565b8015610b0f5780601f10610ae457610100808354040283529160200191610b0f565b820191906000526020600020905b815481529060010190602001808311610af257829003601f168201915b5050505050905083565b60008054906101000a900473ffffffffffffffffffffffffffffffffffffffff1681565b600260018160018154018082558091505003906000526020600020905050600060026001600280549050610b719190611bca565b81548110610ba8577f4e487b7100000000000000000000000000000000000000000000000000000000600052603260045260246000fd5b90600052602060002090600502019050600280549050816000018190555082816004019080519060200190610bde929190611228565b508181600101819055507f357047ddfe6d3d71d9ffe78fbdf6def0d4735bfcaddf764c0d5b5307b022287881600001548484604051610c1f93929190611a22565b60405180910390a1505050565b600080604051602001610c3e906118e6565b6040516020818303038152906040528051906020012085604051602001610c6591906118a4565b604051602081830303815290604052805190602001201415610cd3578373ffffffffffffffffffffffffffffffffffffffff1660008054906101000a900473ffffffffffffffffffffffffffffffffffffffff1673ffffffffffffffffffffffffffffffffffffffff161490505b604051602001610ce290611926565b6040516020818303038152906040528051906020012085604051602001610d0991906118a4565b604051602081830303815290604052805190602001201415610dbe5760048381548110610d5f577f4e487b7100000000000000000000000000000000000000000000000000000000600052603260045260246000fd5b906000526020600020906003020160010160008573ffffffffffffffffffffffffffffffffffffffff1673ffffffffffffffffffffffffffffffffffffffff16815260200190815260200160002060009054906101000a900460ff1690505b604051602001610dcd906118c6565b6040516020818303038152906040528051906020012085604051602001610df491906118a4565b604051602081830303815290604052805190602001201415610ea95760038381548110610e4a577f4e487b7100000000000000000000000000000000000000000000000000000000600052603260045260246000fd5b906000526020600020906004020160020160008573ffffffffffffffffffffffffffffffffffffffff1673ffffffffffffffffffffffffffffffffffffffff16815260200190815260200160002060009054906101000a900460ff1690505b604051602001610eb890611966565b6040516020818303038152906040528051906020012085604051602001610edf91906118a4565b604051602081830303815290604052805190602001201415610f945760028381548110610f35577f4e487b7100000000000000000000000000000000000000000000000000000000600052603260045260246000fd5b906000526020600020906005020160030160008573ffffffffffffffffffffffffffffffffffffffff1673ffffffffffffffffffffffffffffffffffffffff16815260200190815260200160002060009054906101000a900460ff1690505b809150509392505050565b60606001805480602002602001604051908101604052809291908181526020016000905b8282101561109b5783829060005260206000209060030201604051806060016040529081600082015481526020016001820154815260200160028201805461100a90611c88565b80601f016020809104026020016040519081016040528092919081815260200182805461103690611c88565b80156110835780601f1061105857610100808354040283529160200191611083565b820191906000526020600020905b81548152906001019060200180831161106657829003601f168201915b50505050508152505081526020019060010190610fc3565b50505050905090565b600381815481106110b457600080fd5b90600052602060002090600402016000915090508060000154908060010154908060030180546110e390611c88565b80601f016020809104026020016040519081016040528092919081815260200182805461110f90611c88565b801561115c5780601f106111315761010080835404028352916020019161115c565b820191906000526020600020905b81548152906001019060200180831161113f57829003601f168201915b5050505050905083565b6001818154811061117657600080fd5b90600052602060002090600302016000915090508060000154908060010154908060020180546111a590611c88565b80601f01602080910402602001604051908101604052809291908181526020018280546111d190611c88565b801561121e5780601f106111f35761010080835404028352916020019161121e565b820191906000526020600020905b81548152906001019060200180831161120157829003601f168201915b5050505050905083565b82805461123490611c88565b90600052602060002090601f016020900481019282611256576000855561129d565b82601f1061126f57805160ff191683800117855561129d565b8280016001018555821561129d579182015b8281111561129c578251825591602001919060010190611281565b5b5090506112aa91906112ae565b5090565b5b808211156112c75760008160009055506001016112af565b5090565b60006112de6112d984611afa565b611ad5565b9050828152602081018484840111156112f657600080fd5b611301848285611c46565b509392505050565b60008135905061131881611ea8565b92915050565b600082601f83011261132f57600080fd5b813561133f8482602086016112cb565b91505092915050565b60008135905061135781611ebf565b92915050565b60006020828403121561136f57600080fd5b600082013567ffffffffffffffff81111561138957600080fd5b6113958482850161131e565b91505092915050565b6000806000606084860312156113b357600080fd5b600084013567ffffffffffffffff8111156113cd57600080fd5b6113d98682870161131e565b93505060206113ea86828701611309565b92505060406113fb86828701611348565b9150509250925092565b6000806040838503121561141857600080fd5b600083013567ffffffffffffffff81111561143257600080fd5b61143e8582860161131e565b925050602061144f85828601611348565b9150509250929050565b60006020828403121561146b57600080fd5b600061147984828501611348565b91505092915050565b60008060006060848603121561149757600080fd5b60006114a586828701611348565b935050602084013567ffffffffffffffff8111156114c257600080fd5b6114ce8682870161131e565b92505060406114df86828701611348565b9150509250925092565b6000806000606084860312156114fe57600080fd5b600061150c86828701611348565b935050602061151d86828701611348565b925050604061152e86828701611309565b9150509250925092565b600061154483836117bc565b905092915050565b6000611558838361180c565b60208301905092915050565b61156d81611bfe565b82525050565b600061157e82611b4b565b6115888185611b86565b93508360208202850161159a85611b2b565b8060005b858110156115d657848403895281516115b78582611538565b94506115c283611b6c565b925060208a0199505060018101905061159e565b50829750879550505050505092915050565b60006115f382611b56565b6115fd8185611b97565b935061160883611b3b565b8060005b83811015611639578151611620888261154c565b975061162b83611b79565b92505060018101905061160c565b5085935050505092915050565b61164f81611c10565b82525050565b600061166082611b61565b61166a8185611ba8565b935061167a818560208601611c55565b61168381611d78565b840191505092915050565b600061169982611b61565b6116a38185611bb9565b93506116b3818560208601611c55565b6116bc81611d78565b840191505092915050565b60006116d4600883611bb9565b91506116df82611d89565b602082019050919050565b60006116f7600783611bb9565b915061170282611db2565b602082019050919050565b600061171a600d83611bb9565b915061172582611ddb565b602082019050919050565b600061173d600583611bb9565b915061174882611e04565b602082019050919050565b6000611760601983611bb9565b915061176b82611e2d565b602082019050919050565b6000611783600c83611bb9565b915061178e82611e56565b602082019050919050565b60006117a6601c83611bb9565b91506117b182611e7f565b602082019050919050565b60006060830160008301516117d4600086018261180c565b5060208301516117e7602086018261180c565b50604083015184820360408601526117ff8282611655565b9150508091505092915050565b61181581611c3c565b82525050565b61182481611c3c565b82525050565b600060208201905061183f6000830184611564565b92915050565b6000602082019050818103600083015261185f8184611573565b905092915050565b6000602082019050818103600083015261188181846115e8565b905092915050565b600060208201905061189e6000830184611646565b92915050565b600060208201905081810360008301526118be818461168e565b905092915050565b600060208201905081810360008301526118df816116c7565b9050919050565b600060208201905081810360008301526118ff816116ea565b9050919050565b6000602082019050818103600083015261191f8161170d565b9050919050565b6000602082019050818103600083015261193f81611730565b9050919050565b6000602082019050818103600083015261195f81611753565b9050919050565b6000602082019050818103600083015261197f81611776565b9050919050565b6000602082019050818103600083015261199f81611799565b9050919050565b60006040820190506119bb600083018561181b565b81810360208301526119cd818461168e565b90509392505050565b60006080820190506119eb600083018761181b565b81810360208301526119fd818661168e565b9050611a0c6040830185611564565b611a19606083018461181b565b95945050505050565b6000606082019050611a37600083018661181b565b8181036020830152611a49818561168e565b9050611a58604083018461181b565b949350505050565b6000606082019050611a75600083018661181b565b611a82602083018561181b565b611a8f6040830184611564565b949350505050565b6000606082019050611aac600083018661181b565b611ab9602083018561181b565b8181036040830152611acb818461168e565b9050949350505050565b6000611adf611af0565b9050611aeb8282611cba565b919050565b6000604051905090565b600067ffffffffffffffff821115611b1557611b14611d49565b5b611b1e82611d78565b9050602081019050919050565b6000819050602082019050919050565b6000819050602082019050919050565b600081519050919050565b600081519050919050565b600081519050919050565b6000602082019050919050565b6000602082019050919050565b600082825260208201905092915050565b600082825260208201905092915050565b600082825260208201905092915050565b600082825260208201905092915050565b6000611bd582611c3c565b9150611be083611c3c565b925082821015611bf357611bf2611ceb565b5b828203905092915050565b6000611c0982611c1c565b9050919050565b60008115159050919050565b600073ffffffffffffffffffffffffffffffffffffffff82169050919050565b6000819050919050565b82818337600083830152505050565b60005b83811015611c73578082015181840152602081019050611c58565b83811115611c82576000848401525b50505050565b60006002820490506001821680611ca057607f821691505b60208210811415611cb457611cb3611d1a565b5b50919050565b611cc382611d78565b810181811067ffffffffffffffff82111715611ce257611ce1611d49565b5b80604052505050565b7f4e487b7100000000000000000000000000000000000000000000000000000000600052601160045260246000fd5b7f4e487b7100000000000000000000000000000000000000000000000000000000600052602260045260246000fd5b7f4e487b7100000000000000000000000000000000000000000000000000000000600052604160045260246000fd5b6000601f19601f8301169050919050565b7f4469737472696374000000000000000000000000000000000000000000000000600082015250565b7f43656e7472616c00000000000000000000000000000000000000000000000000600082015250565b7f696e76616c6964206c6576656c00000000000000000000000000000000000000600082015250565b7f5374617465000000000000000000000000000000000000000000000000000000600082015250565b7f4e6f2042656e6566696369617279207265676973746572656400000000000000600082015250565b7f446973746e2e20506f696e740000000000000000000000000000000000000000600082015250565b7f496e76616c696420446973747269627574696f6e506f696e7420696400000000600082015250565b611eb181611bfe565b8114611ebc57600080fd5b50565b611ec881611c3c565b8114611ed357600080fd5b5056fea264697066735822122022aff26d23588a9d27c9abbb96d0a78ae200e211e6cb49e30a02ce6d5c15b68264736f6c63430008030033",
  "immutableReferences": {},
  "source": "// SPDX-License-Identifier: GPL-3.0\r\npragma solidity >=0.5.0 <=0.8.4; \r\n\r\ncontract CredentialManager {\r\n    constructor() {\r\n        string[28] memory statesList=['Andhra Pradesh', 'Arunachal Pradesh', 'Assam', 'Bihar', 'Chhattisgarh', 'Goa', 'Gujarat', 'Haryana', 'Himachal Pradesh', 'Jharkhand', 'Karnataka', 'Kerala', 'Madhya Pradesh', 'Maharashtra', 'Manipur', 'Meghalaya', 'Mizoram', 'Nagaland', 'Odisha', 'Punjab', 'Rajasthan', 'Sikkim', 'Tamil Nadu', 'Telangana', 'Tripura', \"Uttar Pradesh\", \"Uttarakhand\", \"West Bengal\"];\r\n        \r\n        uint i=0;\r\n        for(i=0;i<28;i++)\r\n        addState(statesList[i]);  \r\n    }\r\n    \r\n    struct State {\r\n        uint id;\r\n        mapping(address=>bool) authorities;\r\n        string name;\r\n    }\r\n    \r\n    struct District {\r\n        uint id;\r\n        uint stateId;\r\n        mapping(address=>bool) authorities;\r\n        string name;\r\n    }\r\n    \r\n    struct DistributionPoint {\r\n        uint id;\r\n        uint districtId;\r\n        uint[] beneficiaryIds;\r\n        mapping(address=>bool) authorities;\r\n        string name;\r\n    }\r\n    \r\n    struct Beneficiary {\r\n        uint id;\r\n        uint dstnId;\r\n        string credentials;\r\n    }\r\n    \r\n    address public centralAuthId = 0xf17f52151EbEF6C7334FAD080c5704D77216b732;\r\n    Beneficiary[] public beneficiaries;\r\n    DistributionPoint[] public dstnPoints;\r\n    District[] public districts;\r\n    State[] public states;\r\n    \r\n    event NewState(uint _id, string _name);\r\n    event NewDistrict(uint _id, string _name,uint _stateId);\r\n    event NewDstnPoint(uint _id, string _name, uint _districtId);\r\n    event NewAuthority(uint _level, uint _entityId, address _authorityId);\r\n    event NewBeneficiary(uint _id, string _credentials, address _registeredBy, uint _dstnId);\r\n    \r\n    function addState(string memory _name) public{\r\n        states.push();\r\n        State storage s = states[states.length-1];\r\n        s.id = states.length;\r\n        s.name = _name;\r\n        emit NewState(s.id, _name);\r\n    }\r\n    \r\n    function addDistrict(string memory _districtName, uint _stateId) public {\r\n        districts.push();   \r\n        District storage d = districts[districts.length-1];\r\n        d.id = districts.length;\r\n        d.name = _districtName;\r\n        d.stateId=_stateId;\r\n        emit NewDistrict(d.id,_districtName, _stateId);\r\n    }\r\n    \r\n    function addDstnPoint(string memory _dstnPointName, uint _districtId) public {\r\n        dstnPoints.push();\r\n        DistributionPoint storage dp = dstnPoints[dstnPoints.length-1];\r\n        dp.id=dstnPoints.length;\r\n        dp.name = _dstnPointName;\r\n        dp.districtId = _districtId;\r\n        emit NewDstnPoint(dp.id, _dstnPointName, _districtId);\r\n    }\r\n    \r\n    function addBeneficiary(uint _id, string memory _credentials, uint _dstnId) public{\r\n        dstnPoints[_dstnId].beneficiaryIds.push(_id);\r\n        beneficiaries.push(Beneficiary(_id, _dstnId, _credentials));\r\n        emit NewBeneficiary(_id, _credentials, msg.sender, _dstnId);\r\n    }\r\n    \r\n    \r\n    function getBeneficiaries(uint _dstnPointId) public view returns(uint[] memory) {\r\n        require(beneficiaries.length>0, \"No Beneficiary registered\");\r\n        require(_dstnPointId>=0 && _dstnPointId<dstnPoints.length, \"Invalid DistributionPoint id\");\r\n        return dstnPoints[_dstnPointId].beneficiaryIds;\r\n        //returns beneficiary Ids of a dstn point\r\n    }\r\n    \r\n    function getBeneficiaryList() public view returns(Beneficiary[] memory) {\r\n        return beneficiaries;\r\n    }\r\n    \r\n    function addAuthority(uint _level, uint _entityId, address _authority) public{\r\n        require(_level>0 && _level<4, \"invalid level\");\r\n        if(_level==1)\r\n        states[_entityId].authorities[_authority] = true;\r\n        else if(_level==2)\r\n        districts[_entityId].authorities[_authority] = true;\r\n        else if(_level==3)\r\n        dstnPoints[_entityId].authorities[_authority] = true;\r\n        emit NewAuthority(_level, _entityId, _authority);\r\n    }\r\n    \r\n    function authorizeSigner(string memory _type, address _signer, uint _entityId) public view returns(bool){\r\n        \r\n        bool isAuthorized;\r\n\r\n        if(keccak256(abi.encode(_type)) == keccak256(abi.encode(\"Central\")))\r\n        isAuthorized = centralAuthId == _signer;\r\n        \r\n        if(keccak256(abi.encode(_type)) == keccak256(abi.encode(\"State\")))\r\n        isAuthorized = states[_entityId].authorities[_signer];\r\n        \r\n        if(keccak256(abi.encode(_type)) == keccak256(abi.encode(\"District\")))\r\n        isAuthorized = districts[_entityId].authorities[_signer];\r\n        \r\n        if(keccak256(abi.encode(_type)) == keccak256(abi.encode(\"Distn. Point\")))\r\n        isAuthorized = dstnPoints[_entityId].authorities[_signer];\r\n       \r\n        return isAuthorized;\r\n        \r\n    }\r\n}",
  "sourcePath": "F:/Prjcts/Capstone/identify/contracts/CredentialManager.sol",
  "compiler": {
    "name": "solc",
    "version": "0.8.3+commit.8d00100c.Emscripten.clang"
  },
  "schemaVersion": "3.3.3",
  "updatedAt": "2021-05-08T08:27:53.892Z",
  "networkType": "ethereum",
  "devdoc": {
    "kind": "dev",
    "methods": {},
    "version": 1
  },
  "userdoc": {
    "kind": "user",
    "methods": {},
    "version": 1
  }
}