{
  "contractName": "CredentialManager",
  "abi": [
    {
      "inputs": [],
      "stateMutability": "nonpayable",
      "type": "constructor"
    },
    {
      "anonymous": false,
      "inputs": [
        {
          "indexed": false,
          "internalType": "uint256",
          "name": "_id",
          "type": "uint256"
        },
        {
          "indexed": false,
          "internalType": "uint256[]",
          "name": "_dstnPointId",
          "type": "uint256[]"
        },
        {
          "indexed": false,
          "internalType": "address",
          "name": "_authorityId",
          "type": "address"
        }
      ],
      "name": "NewDistrict",
      "type": "event"
    },
    {
      "anonymous": false,
      "inputs": [
        {
          "indexed": false,
          "internalType": "uint256",
          "name": "_id",
          "type": "uint256"
        },
        {
          "indexed": false,
          "internalType": "uint256[]",
          "name": "_beneficiaries",
          "type": "uint256[]"
        },
        {
          "indexed": false,
          "internalType": "address",
          "name": "_authorityId",
          "type": "address"
        }
      ],
      "name": "NewDstnPoint",
      "type": "event"
    },
    {
      "anonymous": false,
      "inputs": [
        {
          "indexed": false,
          "internalType": "uint256",
          "name": "_id",
          "type": "uint256"
        },
        {
          "indexed": false,
          "internalType": "uint256[]",
          "name": "_districtIds",
          "type": "uint256[]"
        },
        {
          "indexed": false,
          "internalType": "address",
          "name": "_authorityId",
          "type": "address"
        }
      ],
      "name": "NewState",
      "type": "event"
    },
    {
      "inputs": [
        {
          "internalType": "uint256",
          "name": "",
          "type": "uint256"
        }
      ],
      "name": "beneficiaries",
      "outputs": [
        {
          "internalType": "uint256",
          "name": "id",
          "type": "uint256"
        },
        {
          "internalType": "string",
          "name": "credentials",
          "type": "string"
        }
      ],
      "stateMutability": "view",
      "type": "function",
      "constant": true
    },
    {
      "inputs": [],
      "name": "centralAuthId",
      "outputs": [
        {
          "internalType": "address",
          "name": "",
          "type": "address"
        }
      ],
      "stateMutability": "view",
      "type": "function",
      "constant": true
    },
    {
      "inputs": [
        {
          "internalType": "uint256",
          "name": "",
          "type": "uint256"
        }
      ],
      "name": "districts",
      "outputs": [
        {
          "internalType": "uint256",
          "name": "id",
          "type": "uint256"
        },
        {
          "internalType": "address",
          "name": "authorityId",
          "type": "address"
        }
      ],
      "stateMutability": "view",
      "type": "function",
      "constant": true
    },
    {
      "inputs": [
        {
          "internalType": "uint256",
          "name": "",
          "type": "uint256"
        }
      ],
      "name": "dstnPoints",
      "outputs": [
        {
          "internalType": "uint256",
          "name": "id",
          "type": "uint256"
        },
        {
          "internalType": "address",
          "name": "authorityId",
          "type": "address"
        }
      ],
      "stateMutability": "view",
      "type": "function",
      "constant": true
    },
    {
      "inputs": [
        {
          "internalType": "uint256",
          "name": "",
          "type": "uint256"
        }
      ],
      "name": "states",
      "outputs": [
        {
          "internalType": "uint256",
          "name": "id",
          "type": "uint256"
        },
        {
          "internalType": "address",
          "name": "authorityId",
          "type": "address"
        }
      ],
      "stateMutability": "view",
      "type": "function",
      "constant": true
    },
    {
      "inputs": [
        {
          "internalType": "uint256[]",
          "name": "_districtIds",
          "type": "uint256[]"
        },
        {
          "internalType": "address",
          "name": "_authorityId",
          "type": "address"
        }
      ],
      "name": "addState",
      "outputs": [],
      "stateMutability": "nonpayable",
      "type": "function"
    },
    {
      "inputs": [
        {
          "internalType": "uint256[]",
          "name": "_dstnIds",
          "type": "uint256[]"
        },
        {
          "internalType": "address",
          "name": "_authorityId",
          "type": "address"
        }
      ],
      "name": "addDistrict",
      "outputs": [],
      "stateMutability": "nonpayable",
      "type": "function"
    },
    {
      "inputs": [
        {
          "internalType": "uint256[]",
          "name": "_beneficiaries",
          "type": "uint256[]"
        },
        {
          "internalType": "address",
          "name": "_authorityId",
          "type": "address"
        }
      ],
      "name": "addDstnPoint",
      "outputs": [],
      "stateMutability": "nonpayable",
      "type": "function"
    },
    {
      "inputs": [
        {
          "internalType": "uint256",
          "name": "_id",
          "type": "uint256"
        },
        {
          "internalType": "string",
          "name": "_credentials",
          "type": "string"
        }
      ],
      "name": "addBeneficiary",
      "outputs": [],
      "stateMutability": "nonpayable",
      "type": "function"
    },
    {
      "inputs": [
        {
          "internalType": "uint256",
          "name": "_stateId",
          "type": "uint256"
        }
      ],
      "name": "getDistricts",
      "outputs": [
        {
          "internalType": "uint256[]",
          "name": "",
          "type": "uint256[]"
        }
      ],
      "stateMutability": "view",
      "type": "function",
      "constant": true
    },
    {
      "inputs": [
        {
          "internalType": "uint256",
          "name": "_districtId",
          "type": "uint256"
        }
      ],
      "name": "getDstnPoints",
      "outputs": [
        {
          "internalType": "uint256[]",
          "name": "",
          "type": "uint256[]"
        }
      ],
      "stateMutability": "view",
      "type": "function",
      "constant": true
    },
    {
      "inputs": [
        {
          "internalType": "uint256",
          "name": "_dstnPointId",
          "type": "uint256"
        }
      ],
      "name": "getBeneficiaries",
      "outputs": [
        {
          "internalType": "uint256[]",
          "name": "",
          "type": "uint256[]"
        }
      ],
      "stateMutability": "view",
      "type": "function",
      "constant": true
    },
    {
      "inputs": [],
      "name": "getBeneficiaryList",
      "outputs": [
        {
          "components": [
            {
              "internalType": "uint256",
              "name": "id",
              "type": "uint256"
            },
            {
              "internalType": "string",
              "name": "credentials",
              "type": "string"
            }
          ],
          "internalType": "struct CredentialManager.Beneficiary[]",
          "name": "",
          "type": "tuple[]"
        }
      ],
      "stateMutability": "view",
      "type": "function",
      "constant": true
    },
    {
      "inputs": [
        {
          "internalType": "string",
          "name": "_type",
          "type": "string"
        },
        {
          "internalType": "address",
          "name": "_signer",
          "type": "address"
        },
        {
          "internalType": "uint256",
          "name": "_entityId",
          "type": "uint256"
        }
      ],
      "name": "authorizeSigner",
      "outputs": [
        {
          "internalType": "bool",
          "name": "",
          "type": "bool"
        }
      ],
      "stateMutability": "view",
      "type": "function",
      "constant": true
    }
  ],
  "bytecode": "0x608060405273f17f52151ebef6c7334fad080c5704d77216b7326000806101000a81548173ffffffffffffffffffffffffffffffffffffffff021916908373ffffffffffffffffffffffffffffffffffffffff1602179055503480156200006557600080fd5b50620000b264e6155a93b56040518060400160405280600a81526020017f3277546357647352356f000000000000000000000000000000000000000000008152506200036460201b60201c565b620000fe6481c0c560eb6040518060400160405280600a81526020017f7849777a613335556257000000000000000000000000000000000000000000008152506200036460201b60201c565b6200014a649efaae5bc06040518060400160405280600a81526020017f314d4a6b344a656d556e000000000000000000000000000000000000000000008152506200036460201b60201c565b6200019664b33ca1c58b6040518060400160405280600a81526020017f3447585a48534b787835000000000000000000000000000000000000000000008152506200036460201b60201c565b620001e264ced1793e316040518060400160405280600a81526020017f7332304634745a675a67000000000000000000000000000000000000000000008152506200036460201b60201c565b6200022e64c80525ee656040518060400160405280600a81526020017f566f71396432716e6f4f000000000000000000000000000000000000000000008152506200036460201b60201c565b6200027a64af92f19aaf6040518060400160405280600a81526020017f4d663369734c33536349000000000000000000000000000000000000000000008152506200036460201b60201c565b620002c664cf6e62d2f46040518060400160405280600a81526020017f6b514b38676165725437000000000000000000000000000000000000000000008152506200036460201b60201c565b6200031264c8897e88146040518060400160405280600a81526020017f47497a49634d7a763564000000000000000000000000000000000000000000008152506200036460201b60201c565b6200035e64cecc85fd6a6040518060400160405280600a81526020017f6f6645347a5554774c35000000000000000000000000000000000000000000008152506200036460201b60201c565b620004e8565b60016040518060400160405280848152602001838152509080600181540180825580915050600190039060005260206000209060020201600090919091909150600082015181600001556020820151816001019080519060200190620003cc929190620003d3565b5050505050565b828054620003e19062000483565b90600052602060002090601f01602090048101928262000405576000855562000451565b82601f106200042057805160ff191683800117855562000451565b8280016001018555821562000451579182015b828111156200045057825182559160200191906001019062000433565b5b50905062000460919062000464565b5090565b5b808211156200047f57600081600090555060010162000465565b5090565b600060028204905060018216806200049c57607f821691505b60208210811415620004b357620004b2620004b9565b5b50919050565b7f4e487b7100000000000000000000000000000000000000000000000000000000600052602260045260246000fd5b611e6780620004f86000396000f3fe608060405234801561001057600080fd5b50600436106100ea5760003560e01c8063b62a91841161008c578063daa3b67b11610066578063daa3b67b1461026f578063de5602bd1461029f578063e77995e0146102bd578063efeb5e58146102ee576100ea565b8063b62a918414610207578063c816007d14610223578063d42819a01461023f576100ea565b8063638a0f37116100c8578063638a0f371461016c578063783804d9146101885780638d1e2d0c146101b85780638f971f03146101e9576100ea565b8063017a9105146100ef578063419bac86146101205780634f073b6414610150575b600080fd5b610109600480360381019061010491906113b4565b61031f565b604051610117929190611955565b60405180910390f35b61013a600480360381019061013591906113b4565b610373565b60405161014791906117b6565b60405180910390f35b61016a600480360381019061016591906113dd565b6104b2565b005b610186600480360381019061018191906112f9565b61051f565b005b6101a2600480360381019061019d91906113b4565b610635565b6040516101af91906117b6565b60405180910390f35b6101d260048036038101906101cd91906113b4565b610774565b6040516101e0929190611955565b60405180910390f35b6101f16107c8565b6040516101fe9190611779565b60405180910390f35b610221600480360381019061021c91906112f9565b6107ec565b005b61023d600480360381019061023891906112f9565b610902565b005b610259600480360381019061025491906113b4565b610a18565b60405161026691906117b6565b60405180910390f35b6102896004803603810190610284919061134d565b610b57565b60405161029691906117d8565b60405180910390f35b6102a7610ed6565b6040516102b49190611794565b60405180910390f35b6102d760048036038101906102d291906113b4565b610fd1565b6040516102e5929190611955565b60405180910390f35b610308600480360381019061030391906113b4565b611025565b6040516103169291906119bc565b60405180910390f35b6004818154811061032f57600080fd5b90600052602060002090600302016000915090508060000154908060020160009054906101000a900473ffffffffffffffffffffffffffffffffffffffff16905082565b60606000600280549050116103bd576040517f08c379a00000000000000000000000000000000000000000000000000000000081526004016103b4906118b5565b60405180910390fd5b600082101580156103d2575060038054905082105b610411576040517f08c379a000000000000000000000000000000000000000000000000000000000815260040161040890611855565b60405180910390fd5b6003828154811061044b577f4e487b7100000000000000000000000000000000000000000000000000000000600052603260045260246000fd5b90600052602060002090600302016001018054806020026020016040519081016040528092919081815260200182805480156104a657602002820191906000526020600020905b815481526020019060010190808311610492575b50505050509050919050565b600160405180604001604052808481526020018381525090806001815401808255809150506001900390600052602060002090600202016000909190919091506000820151816000015560208201518160010190805190602001906105189291906110e1565b5050505050565b60006003805490509050600360405180606001604052808381526020018581526020018473ffffffffffffffffffffffffffffffffffffffff1681525090806001815401808255809150506001900390600052602060002090600302016000909190919091506000820151816000015560208201518160010190805190602001906105ab929190611167565b5060408201518160020160006101000a81548173ffffffffffffffffffffffffffffffffffffffff021916908373ffffffffffffffffffffffffffffffffffffffff16021790555050507f323d831bdf224b6ed762e110cc88fc8fc094cae79f09a4b69a9431036399818c8184846040516106289392919061197e565b60405180910390a1505050565b606060006001805490501161067f576040517f08c379a000000000000000000000000000000000000000000000000000000000815260040161067690611895565b60405180910390fd5b60008210158015610694575060028054905082105b6106d3576040517f08c379a00000000000000000000000000000000000000000000000000000000081526004016106ca90611935565b60405180910390fd5b6002828154811061070d577f4e487b7100000000000000000000000000000000000000000000000000000000600052603260045260246000fd5b906000526020600020906003020160010180548060200260200160405190810160405280929190818152602001828054801561076857602002820191906000526020600020905b815481526020019060010190808311610754575b50505050509050919050565b6002818154811061078457600080fd5b90600052602060002090600302016000915090508060000154908060020160009054906101000a900473ffffffffffffffffffffffffffffffffffffffff16905082565b60008054906101000a900473ffffffffffffffffffffffffffffffffffffffff1681565b60006004805490509050600460405180606001604052808381526020018581526020018473ffffffffffffffffffffffffffffffffffffffff168152509080600181540180825580915050600190039060005260206000209060030201600090919091909150600082015181600001556020820151816001019080519060200190610878929190611167565b5060408201518160020160006101000a81548173ffffffffffffffffffffffffffffffffffffffff021916908373ffffffffffffffffffffffffffffffffffffffff16021790555050507fcd920c8ac08fdcaaefb1167c4e128bca6ea7b78785a2cb9cad94d5816096a2dc8184846040516108f59392919061197e565b60405180910390a1505050565b60006002805490509050600260405180606001604052808381526020018581526020018473ffffffffffffffffffffffffffffffffffffffff16815250908060018154018082558091505060019003906000526020600020906003020160009091909190915060008201518160000155602082015181600101908051906020019061098e929190611167565b5060408201518160020160006101000a81548173ffffffffffffffffffffffffffffffffffffffff021916908373ffffffffffffffffffffffffffffffffffffffff16021790555050507f10d420e1394aabe13dc60016fe9414d35a39316b85b3953b5a48e9f99aebc266818484604051610a0b9392919061197e565b60405180910390a1505050565b6060600060048054905011610a62576040517f08c379a0000000000000000000000000000000000000000000000000000000008152600401610a59906118f5565b60405180910390fd5b60008210158015610a77575060048054905082105b610ab6576040517f08c379a0000000000000000000000000000000000000000000000000000000008152600401610aad90611915565b60405180910390fd5b60048281548110610af0577f4e487b7100000000000000000000000000000000000000000000000000000000600052603260045260246000fd5b9060005260206000209060030201600101805480602002602001604051908101604052809291908181526020018280548015610b4b57602002820191906000526020600020905b815481526020019060010190808311610b37575b50505050509050919050565b600080604051602001610b6990611835565b6040516020818303038152906040528051906020012085604051602001610b9091906117f3565b604051602081830303815290604052805190602001201415610bfe578373ffffffffffffffffffffffffffffffffffffffff1660008054906101000a900473ffffffffffffffffffffffffffffffffffffffff1673ffffffffffffffffffffffffffffffffffffffff161490505b604051602001610c0d90611875565b6040516020818303038152906040528051906020012085604051602001610c3491906117f3565b604051602081830303815290604052805190602001201415610ced578373ffffffffffffffffffffffffffffffffffffffff1660048481548110610ca1577f4e487b7100000000000000000000000000000000000000000000000000000000600052603260045260246000fd5b906000526020600020906003020160020160009054906101000a900473ffffffffffffffffffffffffffffffffffffffff1673ffffffffffffffffffffffffffffffffffffffff161490505b604051602001610cfc90611815565b6040516020818303038152906040528051906020012085604051602001610d2391906117f3565b604051602081830303815290604052805190602001201415610ddc578373ffffffffffffffffffffffffffffffffffffffff1660038481548110610d90577f4e487b7100000000000000000000000000000000000000000000000000000000600052603260045260246000fd5b906000526020600020906003020160020160009054906101000a900473ffffffffffffffffffffffffffffffffffffffff1673ffffffffffffffffffffffffffffffffffffffff161490505b604051602001610deb906118d5565b6040516020818303038152906040528051906020012085604051602001610e1291906117f3565b604051602081830303815290604052805190602001201415610ecb578373ffffffffffffffffffffffffffffffffffffffff1660028481548110610e7f577f4e487b7100000000000000000000000000000000000000000000000000000000600052603260045260246000fd5b906000526020600020906003020160020160009054906101000a900473ffffffffffffffffffffffffffffffffffffffff1673ffffffffffffffffffffffffffffffffffffffff161490505b809150509392505050565b60606001805480602002602001604051908101604052809291908181526020016000905b82821015610fc8578382906000526020600020906002020160405180604001604052908160008201548152602001600182018054610f3790611b97565b80601f0160208091040260200160405190810160405280929190818152602001828054610f6390611b97565b8015610fb05780601f10610f8557610100808354040283529160200191610fb0565b820191906000526020600020905b815481529060010190602001808311610f9357829003601f168201915b50505050508152505081526020019060010190610efa565b50505050905090565b60038181548110610fe157600080fd5b90600052602060002090600302016000915090508060000154908060020160009054906101000a900473ffffffffffffffffffffffffffffffffffffffff16905082565b6001818154811061103557600080fd5b906000526020600020906002020160009150905080600001549080600101805461105e90611b97565b80601f016020809104026020016040519081016040528092919081815260200182805461108a90611b97565b80156110d75780601f106110ac576101008083540402835291602001916110d7565b820191906000526020600020905b8154815290600101906020018083116110ba57829003601f168201915b5050505050905082565b8280546110ed90611b97565b90600052602060002090601f01602090048101928261110f5760008555611156565b82601f1061112857805160ff1916838001178555611156565b82800160010185558215611156579182015b8281111561115557825182559160200191906001019061113a565b5b50905061116391906111b4565b5090565b8280548282559060005260206000209081019282156111a3579160200282015b828111156111a2578251825591602001919060010190611187565b5b5090506111b091906111b4565b5090565b5b808211156111cd5760008160009055506001016111b5565b5090565b60006111e46111df84611a11565b6119ec565b9050808382526020820190508285602086028201111561120357600080fd5b60005b85811015611233578161121988826112e4565b845260208401935060208301925050600181019050611206565b5050509392505050565b600061125061124b84611a3d565b6119ec565b90508281526020810184848401111561126857600080fd5b611273848285611b55565b509392505050565b60008135905061128a81611e03565b92915050565b600082601f8301126112a157600080fd5b81356112b18482602086016111d1565b91505092915050565b600082601f8301126112cb57600080fd5b81356112db84826020860161123d565b91505092915050565b6000813590506112f381611e1a565b92915050565b6000806040838503121561130c57600080fd5b600083013567ffffffffffffffff81111561132657600080fd5b61133285828601611290565b92505060206113438582860161127b565b9150509250929050565b60008060006060848603121561136257600080fd5b600084013567ffffffffffffffff81111561137c57600080fd5b611388868287016112ba565b93505060206113998682870161127b565b92505060406113aa868287016112e4565b9150509250925092565b6000602082840312156113c657600080fd5b60006113d4848285016112e4565b91505092915050565b600080604083850312156113f057600080fd5b60006113fe858286016112e4565b925050602083013567ffffffffffffffff81111561141b57600080fd5b611427858286016112ba565b9150509250929050565b600061143d838361171e565b905092915050565b6000611451838361175b565b60208301905092915050565b61146681611b0d565b82525050565b600061147782611a8e565b6114818185611ac9565b93508360208202850161149385611a6e565b8060005b858110156114cf57848403895281516114b08582611431565b94506114bb83611aaf565b925060208a01995050600181019050611497565b50829750879550505050505092915050565b60006114ec82611a99565b6114f68185611ada565b935061150183611a7e565b8060005b838110156115325781516115198882611445565b975061152483611abc565b925050600181019050611505565b5085935050505092915050565b61154881611b1f565b82525050565b600061155982611aa4565b6115638185611aeb565b9350611573818560208601611b64565b61157c81611c58565b840191505092915050565b600061159282611aa4565b61159c8185611afc565b93506115ac818560208601611b64565b6115b581611c58565b840191505092915050565b60006115cd600883611afc565b91506115d882611c69565b602082019050919050565b60006115f0600783611afc565b91506115fb82611c92565b602082019050919050565b6000611613601383611afc565b915061161e82611cbb565b602082019050919050565b6000611636600583611afc565b915061164182611ce4565b602082019050919050565b6000611659601983611afc565b915061166482611d0d565b602082019050919050565b600061167c602083611afc565b915061168782611d36565b602082019050919050565b600061169f600c83611afc565b91506116aa82611d5f565b602082019050919050565b60006116c2601683611afc565b91506116cd82611d88565b602082019050919050565b60006116e5601083611afc565b91506116f082611db1565b602082019050919050565b6000611708601c83611afc565b915061171382611dda565b602082019050919050565b6000604083016000830151611736600086018261175b565b506020830151848203602086015261174e828261154e565b9150508091505092915050565b61176481611b4b565b82525050565b61177381611b4b565b82525050565b600060208201905061178e600083018461145d565b92915050565b600060208201905081810360008301526117ae818461146c565b905092915050565b600060208201905081810360008301526117d081846114e1565b905092915050565b60006020820190506117ed600083018461153f565b92915050565b6000602082019050818103600083015261180d8184611587565b905092915050565b6000602082019050818103600083015261182e816115c0565b9050919050565b6000602082019050818103600083015261184e816115e3565b9050919050565b6000602082019050818103600083015261186e81611606565b9050919050565b6000602082019050818103600083015261188e81611629565b9050919050565b600060208201905081810360008301526118ae8161164c565b9050919050565b600060208201905081810360008301526118ce8161166f565b9050919050565b600060208201905081810360008301526118ee81611692565b9050919050565b6000602082019050818103600083015261190e816116b5565b9050919050565b6000602082019050818103600083015261192e816116d8565b9050919050565b6000602082019050818103600083015261194e816116fb565b9050919050565b600060408201905061196a600083018561176a565b611977602083018461145d565b9392505050565b6000606082019050611993600083018661176a565b81810360208301526119a581856114e1565b90506119b4604083018461145d565b949350505050565b60006040820190506119d1600083018561176a565b81810360208301526119e38184611587565b90509392505050565b60006119f6611a07565b9050611a028282611bc9565b919050565b6000604051905090565b600067ffffffffffffffff821115611a2c57611a2b611c29565b5b602082029050602081019050919050565b600067ffffffffffffffff821115611a5857611a57611c29565b5b611a6182611c58565b9050602081019050919050565b6000819050602082019050919050565b6000819050602082019050919050565b600081519050919050565b600081519050919050565b600081519050919050565b6000602082019050919050565b6000602082019050919050565b600082825260208201905092915050565b600082825260208201905092915050565b600082825260208201905092915050565b600082825260208201905092915050565b6000611b1882611b2b565b9050919050565b60008115159050919050565b600073ffffffffffffffffffffffffffffffffffffffff82169050919050565b6000819050919050565b82818337600083830152505050565b60005b83811015611b82578082015181840152602081019050611b67565b83811115611b91576000848401525b50505050565b60006002820490506001821680611baf57607f821691505b60208210811415611bc357611bc2611bfa565b5b50919050565b611bd282611c58565b810181811067ffffffffffffffff82111715611bf157611bf0611c29565b5b80604052505050565b7f4e487b7100000000000000000000000000000000000000000000000000000000600052602260045260246000fd5b7f4e487b7100000000000000000000000000000000000000000000000000000000600052604160045260246000fd5b6000601f19601f8301169050919050565b7f4469737472696374000000000000000000000000000000000000000000000000600082015250565b7f43656e7472616c00000000000000000000000000000000000000000000000000600082015250565b7f496e76616c696420646973747269637420496400000000000000000000000000600082015250565b7f5374617465000000000000000000000000000000000000000000000000000000600082015250565b7f4e6f2042656e6566696369617279207265676973746572656400000000000000600082015250565b7f4e6f20646973747269627574696f6e20706f696e742072656769737465726564600082015250565b7f446973746e2e20506f696e740000000000000000000000000000000000000000600082015250565b7f4e6f206469737472696374207265676973746572656400000000000000000000600082015250565b7f496e76616c696420737461746520696400000000000000000000000000000000600082015250565b7f496e76616c696420446973747269627574696f6e506f696e7420696400000000600082015250565b611e0c81611b0d565b8114611e1757600080fd5b50565b611e2381611b4b565b8114611e2e57600080fd5b5056fea2646970667358221220f848b9975f49ce5a99928297256195171c81c88bfa60c10b4899f67b2c38f16664736f6c63430008030033",
  "immutableReferences": {},
  "source": "// SPDX-License-Identifier: GPL-3.0\r\npragma solidity >=0.5.0 <=0.8.3; \r\n\r\ncontract CredentialManager {\r\n\r\n    constructor() {\r\n        addBeneficiary(988200735669,\"2wTcWdsR5o\");\r\n        addBeneficiary(557284942059,\"xIwza35UbW\");\r\n        addBeneficiary(682810563520,\"1MJk4JemUn\");\r\n        addBeneficiary(769816380811,\"4GXZHSKxx5\");\r\n        addBeneficiary(888277646897,\"s20F4tZgZg\");\r\n        addBeneficiary(859079831141,\"Voq9d2qnoO\");\r\n        addBeneficiary(754084584111,\"Mf3isL3ScI\");\r\n        addBeneficiary(890910200564,\"kQK8gaerT7\");\r\n        addBeneficiary(861300230164,\"GIzIcMzv5d\");\r\n        addBeneficiary(888194596202,\"ofE4zUTwL5\");\r\n    }\r\n    struct State {\r\n        uint id;\r\n        uint[] districtIds;\r\n        address authorityId;\r\n    }\r\n    \r\n    struct District {\r\n        uint id;\r\n        uint[] dstnIds;\r\n        address authorityId;\r\n    }\r\n    \r\n    struct DistributionPoint {\r\n        uint id;\r\n        uint[] beneficiaryIds;\r\n        address authorityId;\r\n    }\r\n    \r\n    struct Beneficiary {\r\n        uint id;\r\n        string credentials;\r\n    }\r\n    \r\n    address public centralAuthId = 0xf17f52151EbEF6C7334FAD080c5704D77216b732;\r\n    Beneficiary[] public beneficiaries;\r\n    DistributionPoint[] public dstnPoints;\r\n    District[] public districts;\r\n    State[] public states;\r\n    \r\n    event NewState(uint _id, uint[] _districtIds, address _authorityId);\r\n    event NewDistrict(uint _id, uint[] _dstnPointId, address _authorityId);\r\n    event NewDstnPoint(uint _id, uint[] _beneficiaries, address _authorityId);\r\n    \r\n    function addState(uint[] memory _districtIds, address _authorityId) public{\r\n        uint id = states.length;\r\n        states.push(State(id,_districtIds,_authorityId));\r\n        emit NewState(id, _districtIds, _authorityId);\r\n    }\r\n    \r\n    function addDistrict(uint[] memory _dstnIds, address _authorityId) public {\r\n        uint id = districts.length;\r\n        districts.push(District(id, _dstnIds, _authorityId));   \r\n        emit NewDistrict(id, _dstnIds, _authorityId);\r\n    }\r\n    \r\n    function addDstnPoint(uint[] memory _beneficiaries, address _authorityId) public {\r\n        uint id = dstnPoints.length;\r\n        dstnPoints.push(DistributionPoint(id, _beneficiaries, _authorityId));\r\n        emit NewDstnPoint(id, _beneficiaries, _authorityId);\r\n    }\r\n    \r\n    function addBeneficiary(uint _id, string memory _credentials) public{\r\n        beneficiaries.push(Beneficiary(_id, _credentials));\r\n    }\r\n\r\n    function getDistricts(uint _stateId) public view returns(uint[] memory) {\r\n        require(states.length>0, \"No district registered\");\r\n        require(_stateId>=0 && _stateId<states.length, \"Invalid state id\");\r\n        return states[_stateId].districtIds;\r\n        //returns list of district ids in a state\r\n    }\r\n    \r\n    function getDstnPoints(uint _districtId) public view returns(uint[] memory) {\r\n        require(dstnPoints.length>0, \"No distribution point registered\");\r\n        require(_districtId>=0 && _districtId<districts.length, \"Invalid district Id\");\r\n        return districts[_districtId].dstnIds;\r\n        //returns the list of dstn point ids in a district\r\n    }\r\n    \r\n    function getBeneficiaries(uint _dstnPointId) public view returns(uint[] memory) {\r\n        require(beneficiaries.length>0, \"No Beneficiary registered\");\r\n        require(_dstnPointId>=0 && _dstnPointId<dstnPoints.length, \"Invalid DistributionPoint id\");\r\n        return dstnPoints[_dstnPointId].beneficiaryIds;\r\n        //returns beneficiary Ids of a dstn point\r\n    }\r\n    \r\n    function getBeneficiaryList() public view returns(Beneficiary[] memory) {\r\n        return beneficiaries;\r\n    }\r\n    \r\n    function authorizeSigner(string memory _type, address _signer, uint _entityId) public view returns(bool){\r\n        \r\n        bool isAuthorized;\r\n\r\n        if(keccak256(abi.encode(_type)) == keccak256(abi.encode(\"Central\")))\r\n        isAuthorized = centralAuthId == _signer;\r\n        \r\n        if(keccak256(abi.encode(_type)) == keccak256(abi.encode(\"State\")))\r\n        isAuthorized = states[_entityId].authorityId == _signer;\r\n        \r\n        if(keccak256(abi.encode(_type)) == keccak256(abi.encode(\"District\")))\r\n        isAuthorized = districts[_entityId].authorityId == _signer;\r\n        \r\n        if(keccak256(abi.encode(_type)) == keccak256(abi.encode(\"Distn. Point\")))\r\n        isAuthorized = dstnPoints[_entityId].authorityId == _signer;\r\n       \r\n        return isAuthorized;\r\n        \r\n    }\r\n}",
  "sourcePath": "F:/Prjcts/Capstone/identify/contracts/CredentialManager.sol",
  "compiler": {
    "name": "solc",
    "version": "0.8.3+commit.8d00100c.Emscripten.clang"
  },
  "schemaVersion": "3.3.3",
  "updatedAt": "2021-04-19T07:19:37.051Z",
  "networkType": "ethereum",
  "devdoc": {
    "kind": "dev",
    "methods": {},
    "version": 1
  },
  "userdoc": {
    "kind": "user",
    "methods": {},
    "version": 1
  }
}