{
  "contractName": "CredentialManager",
  "abi": [
    {
      "inputs": [],
      "stateMutability": "nonpayable",
      "type": "constructor"
    },
    {
      "anonymous": false,
      "inputs": [
        {
          "indexed": false,
          "internalType": "uint256",
          "name": "_level",
          "type": "uint256"
        },
        {
          "indexed": false,
          "internalType": "uint256",
          "name": "_entityId",
          "type": "uint256"
        },
        {
          "indexed": false,
          "internalType": "string",
          "name": "_authorityId",
          "type": "string"
        }
      ],
      "name": "NewAuthority",
      "type": "event"
    },
    {
      "anonymous": false,
      "inputs": [
        {
          "indexed": false,
          "internalType": "uint256",
          "name": "_id",
          "type": "uint256"
        },
        {
          "indexed": false,
          "internalType": "string",
          "name": "_credentials",
          "type": "string"
        },
        {
          "indexed": false,
          "internalType": "string",
          "name": "_registeredBy",
          "type": "string"
        },
        {
          "indexed": false,
          "internalType": "uint256",
          "name": "_dstnId",
          "type": "uint256"
        }
      ],
      "name": "NewBeneficiary",
      "type": "event"
    },
    {
      "anonymous": false,
      "inputs": [
        {
          "indexed": false,
          "internalType": "uint256",
          "name": "_id",
          "type": "uint256"
        },
        {
          "indexed": false,
          "internalType": "string",
          "name": "_name",
          "type": "string"
        },
        {
          "indexed": false,
          "internalType": "uint256",
          "name": "_stateId",
          "type": "uint256"
        }
      ],
      "name": "NewDistrict",
      "type": "event"
    },
    {
      "anonymous": false,
      "inputs": [
        {
          "indexed": false,
          "internalType": "uint256",
          "name": "_id",
          "type": "uint256"
        },
        {
          "indexed": false,
          "internalType": "string",
          "name": "_name",
          "type": "string"
        },
        {
          "indexed": false,
          "internalType": "uint256",
          "name": "_districtId",
          "type": "uint256"
        }
      ],
      "name": "NewDstnPoint",
      "type": "event"
    },
    {
      "anonymous": false,
      "inputs": [
        {
          "indexed": false,
          "internalType": "uint256",
          "name": "_id",
          "type": "uint256"
        },
        {
          "indexed": false,
          "internalType": "string",
          "name": "_name",
          "type": "string"
        }
      ],
      "name": "NewState",
      "type": "event"
    },
    {
      "inputs": [
        {
          "internalType": "uint256",
          "name": "",
          "type": "uint256"
        }
      ],
      "name": "beneficiaries",
      "outputs": [
        {
          "internalType": "uint256",
          "name": "id",
          "type": "uint256"
        },
        {
          "internalType": "uint256",
          "name": "dstnId",
          "type": "uint256"
        },
        {
          "internalType": "string",
          "name": "credentials",
          "type": "string"
        }
      ],
      "stateMutability": "view",
      "type": "function",
      "constant": true
    },
    {
      "inputs": [],
      "name": "centralAuthId",
      "outputs": [
        {
          "internalType": "string",
          "name": "",
          "type": "string"
        }
      ],
      "stateMutability": "view",
      "type": "function",
      "constant": true
    },
    {
      "inputs": [
        {
          "internalType": "uint256",
          "name": "",
          "type": "uint256"
        }
      ],
      "name": "districts",
      "outputs": [
        {
          "internalType": "uint256",
          "name": "id",
          "type": "uint256"
        },
        {
          "internalType": "uint256",
          "name": "stateId",
          "type": "uint256"
        },
        {
          "internalType": "string",
          "name": "name",
          "type": "string"
        }
      ],
      "stateMutability": "view",
      "type": "function",
      "constant": true
    },
    {
      "inputs": [
        {
          "internalType": "uint256",
          "name": "",
          "type": "uint256"
        }
      ],
      "name": "dstnPoints",
      "outputs": [
        {
          "internalType": "uint256",
          "name": "id",
          "type": "uint256"
        },
        {
          "internalType": "uint256",
          "name": "districtId",
          "type": "uint256"
        },
        {
          "internalType": "string",
          "name": "name",
          "type": "string"
        }
      ],
      "stateMutability": "view",
      "type": "function",
      "constant": true
    },
    {
      "inputs": [
        {
          "internalType": "uint256",
          "name": "",
          "type": "uint256"
        }
      ],
      "name": "states",
      "outputs": [
        {
          "internalType": "uint256",
          "name": "id",
          "type": "uint256"
        },
        {
          "internalType": "string",
          "name": "name",
          "type": "string"
        }
      ],
      "stateMutability": "view",
      "type": "function",
      "constant": true
    },
    {
      "inputs": [
        {
          "internalType": "string",
          "name": "_name",
          "type": "string"
        }
      ],
      "name": "addState",
      "outputs": [],
      "stateMutability": "nonpayable",
      "type": "function"
    },
    {
      "inputs": [
        {
          "internalType": "string",
          "name": "_districtName",
          "type": "string"
        },
        {
          "internalType": "uint256",
          "name": "_stateId",
          "type": "uint256"
        }
      ],
      "name": "addDistrict",
      "outputs": [],
      "stateMutability": "nonpayable",
      "type": "function"
    },
    {
      "inputs": [
        {
          "internalType": "string",
          "name": "_dstnPointName",
          "type": "string"
        },
        {
          "internalType": "uint256",
          "name": "_districtId",
          "type": "uint256"
        }
      ],
      "name": "addDstnPoint",
      "outputs": [],
      "stateMutability": "nonpayable",
      "type": "function"
    },
    {
      "inputs": [
        {
          "internalType": "uint256",
          "name": "_id",
          "type": "uint256"
        },
        {
          "internalType": "string",
          "name": "_credentials",
          "type": "string"
        },
        {
          "internalType": "string",
          "name": "_authorityId",
          "type": "string"
        },
        {
          "internalType": "uint256",
          "name": "_dstnId",
          "type": "uint256"
        }
      ],
      "name": "addBeneficiary",
      "outputs": [],
      "stateMutability": "nonpayable",
      "type": "function"
    },
    {
      "inputs": [
        {
          "internalType": "uint256",
          "name": "_dstnPointId",
          "type": "uint256"
        }
      ],
      "name": "getBeneficiaries",
      "outputs": [
        {
          "internalType": "uint256[]",
          "name": "",
          "type": "uint256[]"
        }
      ],
      "stateMutability": "view",
      "type": "function",
      "constant": true
    },
    {
      "inputs": [],
      "name": "getBeneficiaryList",
      "outputs": [
        {
          "components": [
            {
              "internalType": "uint256",
              "name": "id",
              "type": "uint256"
            },
            {
              "internalType": "uint256",
              "name": "dstnId",
              "type": "uint256"
            },
            {
              "internalType": "string",
              "name": "credentials",
              "type": "string"
            }
          ],
          "internalType": "struct CredentialManager.Beneficiary[]",
          "name": "",
          "type": "tuple[]"
        }
      ],
      "stateMutability": "view",
      "type": "function",
      "constant": true
    },
    {
      "inputs": [
        {
          "internalType": "uint256",
          "name": "_level",
          "type": "uint256"
        },
        {
          "internalType": "uint256",
          "name": "_entityId",
          "type": "uint256"
        },
        {
          "internalType": "string",
          "name": "_authorityId",
          "type": "string"
        }
      ],
      "name": "addAuthority",
      "outputs": [],
      "stateMutability": "nonpayable",
      "type": "function"
    },
    {
      "inputs": [
        {
          "internalType": "uint256",
          "name": "_level",
          "type": "uint256"
        },
        {
          "internalType": "uint256",
          "name": "_entityId",
          "type": "uint256"
        },
        {
          "internalType": "string",
          "name": "_authorityId",
          "type": "string"
        },
        {
          "internalType": "string",
          "name": "_password",
          "type": "string"
        }
      ],
      "name": "addAuthority",
      "outputs": [],
      "stateMutability": "nonpayable",
      "type": "function"
    },
    {
      "inputs": [
        {
          "internalType": "string",
          "name": "_type",
          "type": "string"
        },
        {
          "internalType": "string",
          "name": "_signer",
          "type": "string"
        },
        {
          "internalType": "uint256",
          "name": "_entityId",
          "type": "uint256"
        },
        {
          "internalType": "string",
          "name": "_password",
          "type": "string"
        }
      ],
      "name": "authorizeSigner",
      "outputs": [
        {
          "internalType": "bool",
          "name": "",
          "type": "bool"
        }
      ],
      "stateMutability": "view",
      "type": "function",
      "constant": true
    },
    {
      "inputs": [
        {
          "internalType": "string",
          "name": "_type",
          "type": "string"
        },
        {
          "internalType": "string",
          "name": "_signer",
          "type": "string"
        },
        {
          "internalType": "uint256",
          "name": "_entityId",
          "type": "uint256"
        }
      ],
      "name": "authorizeSigner",
      "outputs": [
        {
          "internalType": "bool",
          "name": "",
          "type": "bool"
        }
      ],
      "stateMutability": "view",
      "type": "function",
      "constant": true
    }
  ],
  "bytecode": "0x608060405260405180606001604052806028815260200162002c266028913960009080519060200190620000359291906200082a565b503480156200004357600080fd5b5060006040518061038001604052806040518060400160405280600e81526020017f416e64687261205072616465736800000000000000000000000000000000000081525081526020016040518060400160405280601181526020017f4172756e616368616c205072616465736800000000000000000000000000000081525081526020016040518060400160405280600581526020017f417373616d00000000000000000000000000000000000000000000000000000081525081526020016040518060400160405280600581526020017f426968617200000000000000000000000000000000000000000000000000000081525081526020016040518060400160405280600c81526020017f436868617474697367617268000000000000000000000000000000000000000081525081526020016040518060400160405280600381526020017f476f61000000000000000000000000000000000000000000000000000000000081525081526020016040518060400160405280600781526020017f47756a617261740000000000000000000000000000000000000000000000000081525081526020016040518060400160405280600781526020017f48617279616e610000000000000000000000000000000000000000000000000081525081526020016040518060400160405280601081526020017f48696d616368616c20507261646573680000000000000000000000000000000081525081526020016040518060400160405280600981526020017f4a6861726b68616e64000000000000000000000000000000000000000000000081525081526020016040518060400160405280600981526020017f4b61726e6174616b61000000000000000000000000000000000000000000000081525081526020016040518060400160405280600681526020017f4b6572616c61000000000000000000000000000000000000000000000000000081525081526020016040518060400160405280600e81526020017f4d6164687961205072616465736800000000000000000000000000000000000081525081526020016040518060400160405280600b81526020017f4d6168617261736874726100000000000000000000000000000000000000000081525081526020016040518060400160405280600781526020017f4d616e697075720000000000000000000000000000000000000000000000000081525081526020016040518060400160405280600981526020017f4d656768616c617961000000000000000000000000000000000000000000000081525081526020016040518060400160405280600781526020017f4d697a6f72616d0000000000000000000000000000000000000000000000000081525081526020016040518060400160405280600881526020017f4e6167616c616e6400000000000000000000000000000000000000000000000081525081526020016040518060400160405280600681526020017f4f6469736861000000000000000000000000000000000000000000000000000081525081526020016040518060400160405280600681526020017f50756e6a6162000000000000000000000000000000000000000000000000000081525081526020016040518060400160405280600981526020017f52616a61737468616e000000000000000000000000000000000000000000000081525081526020016040518060400160405280600681526020017f53696b6b696d000000000000000000000000000000000000000000000000000081525081526020016040518060400160405280600a81526020017f54616d696c204e6164750000000000000000000000000000000000000000000081525081526020016040518060400160405280600981526020017f54656c616e67616e61000000000000000000000000000000000000000000000081525081526020016040518060400160405280600781526020017f547269707572610000000000000000000000000000000000000000000000000081525081526020016040518060400160405280600d81526020017f557474617220507261646573680000000000000000000000000000000000000081525081526020016040518060400160405280600b81526020017f5574746172616b68616e6400000000000000000000000000000000000000000081525081526020016040518060400160405280600b81526020017f576573742042656e67616c000000000000000000000000000000000000000000815250815250905060005b601c8110156200073857620007228282601c811062000711577f4e487b7100000000000000000000000000000000000000000000000000000000600052603260045260246000fd5b60200201516200074060201b60201c565b80806200072f9062000a2d565b915050620006c9565b505062000aea565b6004600181600181540180825580915050039060005260206000209050506000600460016004805490506200077691906200097c565b81548110620007ae577f4e487b7100000000000000000000000000000000000000000000000000000000600052603260045260246000fd5b90600052602060002090600302019050600480549050816000018190555081816002019080519060200190620007e69291906200082a565b507f5118442027d611358f8561ea9534df2708a1f1b1480bc00a177481644a71cb318160000154836040516200081e9291906200092c565b60405180910390a15050565b8280546200083890620009f7565b90600052602060002090601f0160209004810192826200085c5760008555620008a8565b82601f106200087757805160ff1916838001178555620008a8565b82800160010185558215620008a8579182015b82811115620008a75782518255916020019190600101906200088a565b5b509050620008b79190620008bb565b5090565b5b80821115620008d6576000816000905550600101620008bc565b5090565b6000620008e78262000960565b620008f381856200096b565b935062000905818560208601620009c1565b620009108162000ad9565b840191505092915050565b6200092681620009b7565b82525050565b60006040820190506200094360008301856200091b565b8181036020830152620009578184620008da565b90509392505050565b600081519050919050565b600082825260208201905092915050565b60006200098982620009b7565b91506200099683620009b7565b925082821015620009ac57620009ab62000a7b565b5b828203905092915050565b6000819050919050565b60005b83811015620009e1578082015181840152602081019050620009c4565b83811115620009f1576000848401525b50505050565b6000600282049050600182168062000a1057607f821691505b6020821081141562000a275762000a2662000aaa565b5b50919050565b600062000a3a82620009b7565b91507fffffffffffffffffffffffffffffffffffffffffffffffffffffffffffffffff82141562000a705762000a6f62000a7b565b5b600182019050919050565b7f4e487b7100000000000000000000000000000000000000000000000000000000600052601160045260246000fd5b7f4e487b7100000000000000000000000000000000000000000000000000000000600052602260045260246000fd5b6000601f19601f8301169050919050565b61212c8062000afa6000396000f3fe608060405234801561001057600080fd5b50600436106100f55760003560e01c80638d1e2d0c11610097578063de5602bd11610066578063de5602bd14610283578063e340d7ad146102a1578063e77995e0146102d1578063efeb5e5814610303576100f5565b80638d1e2d0c146101e75780638f7cc877146102195780638f971f031461024957806399dea89414610267576100f5565b806353857b46116100d357806353857b46146101635780636ef054fe1461017f578063783804d91461019b578063861379f8146101cb576100f5565b8063017a9105146100fa5780632a34ede11461012b5780634fab345614610147575b600080fd5b610114600480360381019061010f919061153c565b610335565b604051610122929190611c14565b60405180910390f35b6101456004803603810190610140919061137d565b6103f1565b005b610161600480360381019061015c91906114e8565b6104d4565b005b61017d600480360381019061017891906115f8565b6105c3565b005b6101996004803603810190610194919061165f565b61076b565b005b6101b560048036038101906101b0919061153c565b610828565b6040516101c29190611ad5565b60405180910390f35b6101e560048036038101906101e09190611565565b610967565b005b61020160048036038101906101fc919061153c565b610a95565b60405161021093929190611cd5565b60405180910390f35b610233600480360381019061022e919061143d565b610b57565b6040516102409190611af7565b60405180910390f35b610251610c40565b60405161025e9190611b12565b60405180910390f35b610281600480360381019061027c91906114e8565b610cce565b005b61028b610dbd565b6040516102989190611ab3565b60405180910390f35b6102bb60048036038101906102b691906113be565b610ec2565b6040516102c89190611af7565b60405180910390f35b6102eb60048036038101906102e6919061153c565b6110d9565b6040516102fa93929190611cd5565b60405180910390f35b61031d6004803603810190610318919061153c565b61119b565b60405161032c93929190611cd5565b60405180910390f35b6004818154811061034557600080fd5b906000526020600020906003020160009150905080600001549080600201805461036e90611ebf565b80601f016020809104026020016040519081016040528092919081815260200182805461039a90611ebf565b80156103e75780601f106103bc576101008083540402835291602001916103e7565b820191906000526020600020905b8154815290600101906020018083116103ca57829003601f168201915b5050505050905082565b6004600181600181540180825580915050039060005260206000209050506000600460016004805490506104259190611e33565b8154811061045c577f4e487b7100000000000000000000000000000000000000000000000000000000600052603260045260246000fd5b9060005260206000209060030201905060048054905081600001819055508181600201908051906020019061049292919061125d565b507f5118442027d611358f8561ea9534df2708a1f1b1480bc00a177481644a71cb318160000154836040516104c8929190611c14565b60405180910390a15050565b6003600181600181540180825580915050039060005260206000209050506000600360016003805490506105089190611e33565b8154811061053f577f4e487b7100000000000000000000000000000000000000000000000000000000600052603260045260246000fd5b9060005260206000209060040201905060038054905081600001819055508281600301908051906020019061057592919061125d565b508181600101819055507f5a455249f9b31b8e5c44c592ae8a4c1b2687a6e66d02ab5f4faf66649de945ed816000015484846040516105b693929190611c97565b60405180910390a1505050565b6000831180156105d35750600483105b610612576040517f08c379a000000000000000000000000000000000000000000000000000000000815260040161060990611b74565b60405180910390fd5b60018314156106a057600160048381548110610657577f4e487b7100000000000000000000000000000000000000000000000000000000600052603260045260246000fd5b9060005260206000209060030201600101826040516106769190611a9c565b908152602001604051809103902060006101000a81548160ff02191690831515021790555061072b565b600283141561072a576001600383815481106106e5577f4e487b7100000000000000000000000000000000000000000000000000000000600052603260045260246000fd5b9060005260206000209060040201600201826040516107049190611a9c565b908152602001604051809103902060006101000a81548160ff0219169083151502179055505b5b7ffcbddac6978b7c4db4852f705116708c6b9ec4e04af0ae999945779744c3064e83838360405161075e93929190611cd5565b60405180910390a1505050565b80600284815481106107a6577f4e487b7100000000000000000000000000000000000000000000000000000000600052603260045260246000fd5b9060005260206000209060050201600301836040516107c59190611a9c565b908152602001604051809103902090805190602001906107e692919061125d565b507ffcbddac6978b7c4db4852f705116708c6b9ec4e04af0ae999945779744c3064e84848460405161081a93929190611cd5565b60405180910390a150505050565b6060600060018054905011610872576040517f08c379a000000000000000000000000000000000000000000000000000000000815260040161086990611bb4565b60405180910390fd5b60008210158015610887575060028054905082105b6108c6576040517f08c379a00000000000000000000000000000000000000000000000000000000081526004016108bd90611bf4565b60405180910390fd5b60028281548110610900577f4e487b7100000000000000000000000000000000000000000000000000000000600052603260045260246000fd5b906000526020600020906005020160020180548060200260200160405190810160405280929190818152602001828054801561095b57602002820191906000526020600020905b815481526020019060010190808311610947575b50505050509050919050565b600281815481106109a1577f4e487b7100000000000000000000000000000000000000000000000000000000600052603260045260246000fd5b90600052602060002090600502016002018490806001815401808255809150506001900390600052602060002001600090919091909150556001604051806060016040528086815260200183815260200185815250908060018154018082558091505060019003906000526020600020906003020160009091909190915060008201518160000155602082015181600101556040820151816002019080519060200190610a4f92919061125d565b5050507fda8382ffe7bca405829c47aef93633cae3c5e4b1f4782de389050975ca5d87ed84848484604051610a879493929190611c44565b60405180910390a150505050565b60028181548110610aa557600080fd5b9060005260206000209060050201600091509050806000015490806001015490806004018054610ad490611ebf565b80601f0160208091040260200160405190810160405280929190818152602001828054610b0090611ebf565b8015610b4d5780601f10610b2257610100808354040283529160200191610b4d565b820191906000526020600020905b815481529060010190602001808311610b3057829003601f168201915b5050505050905083565b600080604051602001610b6990611bd4565b6040516020818303038152906040528051906020012086604051602001610b909190611b12565b604051602081830303815290604052805190602001201415610c3457828051906020012060028581548110610bee577f4e487b7100000000000000000000000000000000000000000000000000000000600052603260045260246000fd5b906000526020600020906005020160030186604051610c0d9190611a9c565b9081526020016040518091039020604051610c289190611a85565b60405180910390201490505b80915050949350505050565b60008054610c4d90611ebf565b80601f0160208091040260200160405190810160405280929190818152602001828054610c7990611ebf565b8015610cc65780601f10610c9b57610100808354040283529160200191610cc6565b820191906000526020600020905b815481529060010190602001808311610ca957829003601f168201915b505050505081565b600260018160018154018082558091505003906000526020600020905050600060026001600280549050610d029190611e33565b81548110610d39577f4e487b7100000000000000000000000000000000000000000000000000000000600052603260045260246000fd5b90600052602060002090600502019050600280549050816000018190555082816004019080519060200190610d6f92919061125d565b508181600101819055507f357047ddfe6d3d71d9ffe78fbdf6def0d4735bfcaddf764c0d5b5307b022287881600001548484604051610db093929190611c97565b60405180910390a1505050565b60606001805480602002602001604051908101604052809291908181526020016000905b82821015610eb957838290600052602060002090600302016040518060600160405290816000820154815260200160018201548152602001600282018054610e2890611ebf565b80601f0160208091040260200160405190810160405280929190818152602001828054610e5490611ebf565b8015610ea15780601f10610e7657610100808354040283529160200191610ea1565b820191906000526020600020905b815481529060010190602001808311610e8457829003601f168201915b50505050508152505081526020019060010190610de1565b50505050905090565b600080604051602001610ed490611b54565b6040516020818303038152906040528051906020012085604051602001610efb9190611b12565b604051602081830303815290604052805190602001201415610f3a5783805190602001206000604051610f2e9190611a85565b60405180910390201490505b604051602001610f4990611b94565b6040516020818303038152906040528051906020012085604051602001610f709190611b12565b6040516020818303038152906040528051906020012014156110045760048381548110610fc6577f4e487b7100000000000000000000000000000000000000000000000000000000600052603260045260246000fd5b906000526020600020906003020160010184604051610fe59190611a9c565b908152602001604051809103902060009054906101000a900460ff1690505b60405160200161101390611b34565b604051602081830303815290604052805190602001208560405160200161103a9190611b12565b6040516020818303038152906040528051906020012014156110ce5760038381548110611090577f4e487b7100000000000000000000000000000000000000000000000000000000600052603260045260246000fd5b9060005260206000209060040201600201846040516110af9190611a9c565b908152602001604051809103902060009054906101000a900460ff1690505b809150509392505050565b600381815481106110e957600080fd5b906000526020600020906004020160009150905080600001549080600101549080600301805461111890611ebf565b80601f016020809104026020016040519081016040528092919081815260200182805461114490611ebf565b80156111915780601f1061116657610100808354040283529160200191611191565b820191906000526020600020905b81548152906001019060200180831161117457829003601f168201915b5050505050905083565b600181815481106111ab57600080fd5b90600052602060002090600302016000915090508060000154908060010154908060020180546111da90611ebf565b80601f016020809104026020016040519081016040528092919081815260200182805461120690611ebf565b80156112535780601f1061122857610100808354040283529160200191611253565b820191906000526020600020905b81548152906001019060200180831161123657829003601f168201915b5050505050905083565b82805461126990611ebf565b90600052602060002090601f01602090048101928261128b57600085556112d2565b82601f106112a457805160ff19168380011785556112d2565b828001600101855582156112d2579182015b828111156112d15782518255916020019190600101906112b6565b5b5090506112df91906112e3565b5090565b5b808211156112fc5760008160009055506001016112e4565b5090565b600061131361130e84611d38565b611d13565b90508281526020810184848401111561132b57600080fd5b611336848285611e7d565b509392505050565b600082601f83011261134f57600080fd5b813561135f848260208601611300565b91505092915050565b600081359050611377816120df565b92915050565b60006020828403121561138f57600080fd5b600082013567ffffffffffffffff8111156113a957600080fd5b6113b58482850161133e565b91505092915050565b6000806000606084860312156113d357600080fd5b600084013567ffffffffffffffff8111156113ed57600080fd5b6113f98682870161133e565b935050602084013567ffffffffffffffff81111561141657600080fd5b6114228682870161133e565b925050604061143386828701611368565b9150509250925092565b6000806000806080858703121561145357600080fd5b600085013567ffffffffffffffff81111561146d57600080fd5b6114798782880161133e565b945050602085013567ffffffffffffffff81111561149657600080fd5b6114a28782880161133e565b93505060406114b387828801611368565b925050606085013567ffffffffffffffff8111156114d057600080fd5b6114dc8782880161133e565b91505092959194509250565b600080604083850312156114fb57600080fd5b600083013567ffffffffffffffff81111561151557600080fd5b6115218582860161133e565b925050602061153285828601611368565b9150509250929050565b60006020828403121561154e57600080fd5b600061155c84828501611368565b91505092915050565b6000806000806080858703121561157b57600080fd5b600061158987828801611368565b945050602085013567ffffffffffffffff8111156115a657600080fd5b6115b28782880161133e565b935050604085013567ffffffffffffffff8111156115cf57600080fd5b6115db8782880161133e565b92505060606115ec87828801611368565b91505092959194509250565b60008060006060848603121561160d57600080fd5b600061161b86828701611368565b935050602061162c86828701611368565b925050604084013567ffffffffffffffff81111561164957600080fd5b6116558682870161133e565b9150509250925092565b6000806000806080858703121561167557600080fd5b600061168387828801611368565b945050602061169487828801611368565b935050604085013567ffffffffffffffff8111156116b157600080fd5b6116bd8782880161133e565b925050606085013567ffffffffffffffff8111156116da57600080fd5b6116e68782880161133e565b91505092959194509250565b60006116fe8383611a17565b905092915050565b60006117128383611a67565b60208301905092915050565b600061172982611d9e565b6117338185611dd9565b93508360208202850161174585611d69565b8060005b85811015611781578484038952815161176285826116f2565b945061176d83611dbf565b925060208a01995050600181019050611749565b50829750879550505050505092915050565b600061179e82611da9565b6117a88185611dea565b93506117b383611d79565b8060005b838110156117e45781516117cb8882611706565b97506117d683611dcc565b9250506001810190506117b7565b5085935050505092915050565b6117fa81611e67565b82525050565b6000815461180d81611ebf565b6118178186611dfb565b94506001821660008114611832576001811461184357611876565b60ff19831686528186019350611876565b61184c85611d89565b60005b8381101561186e5781548189015260018201915060208101905061184f565b838801955050505b50505092915050565b600061188a82611db4565b6118948185611e06565b93506118a4818560208601611e8c565b6118ad81611faf565b840191505092915050565b60006118c382611db4565b6118cd8185611e17565b93506118dd818560208601611e8c565b6118e681611faf565b840191505092915050565b60006118fc82611db4565b6119068185611e28565b9350611916818560208601611e8c565b80840191505092915050565b600061192f600883611e17565b915061193a82611fc0565b602082019050919050565b6000611952600783611e17565b915061195d82611fe9565b602082019050919050565b6000611975600d83611e17565b915061198082612012565b602082019050919050565b6000611998600583611e17565b91506119a38261203b565b602082019050919050565b60006119bb601983611e17565b91506119c682612064565b602082019050919050565b60006119de600c83611e17565b91506119e98261208d565b602082019050919050565b6000611a01601c83611e17565b9150611a0c826120b6565b602082019050919050565b6000606083016000830151611a2f6000860182611a67565b506020830151611a426020860182611a67565b5060408301518482036040860152611a5a828261187f565b9150508091505092915050565b611a7081611e73565b82525050565b611a7f81611e73565b82525050565b6000611a918284611800565b915081905092915050565b6000611aa882846118f1565b915081905092915050565b60006020820190508181036000830152611acd818461171e565b905092915050565b60006020820190508181036000830152611aef8184611793565b905092915050565b6000602082019050611b0c60008301846117f1565b92915050565b60006020820190508181036000830152611b2c81846118b8565b905092915050565b60006020820190508181036000830152611b4d81611922565b9050919050565b60006020820190508181036000830152611b6d81611945565b9050919050565b60006020820190508181036000830152611b8d81611968565b9050919050565b60006020820190508181036000830152611bad8161198b565b9050919050565b60006020820190508181036000830152611bcd816119ae565b9050919050565b60006020820190508181036000830152611bed816119d1565b9050919050565b60006020820190508181036000830152611c0d816119f4565b9050919050565b6000604082019050611c296000830185611a76565b8181036020830152611c3b81846118b8565b90509392505050565b6000608082019050611c596000830187611a76565b8181036020830152611c6b81866118b8565b90508181036040830152611c7f81856118b8565b9050611c8e6060830184611a76565b95945050505050565b6000606082019050611cac6000830186611a76565b8181036020830152611cbe81856118b8565b9050611ccd6040830184611a76565b949350505050565b6000606082019050611cea6000830186611a76565b611cf76020830185611a76565b8181036040830152611d0981846118b8565b9050949350505050565b6000611d1d611d2e565b9050611d298282611ef1565b919050565b6000604051905090565b600067ffffffffffffffff821115611d5357611d52611f80565b5b611d5c82611faf565b9050602081019050919050565b6000819050602082019050919050565b6000819050602082019050919050565b60008190508160005260206000209050919050565b600081519050919050565b600081519050919050565b600081519050919050565b6000602082019050919050565b6000602082019050919050565b600082825260208201905092915050565b600082825260208201905092915050565b600081905092915050565b600082825260208201905092915050565b600082825260208201905092915050565b600081905092915050565b6000611e3e82611e73565b9150611e4983611e73565b925082821015611e5c57611e5b611f22565b5b828203905092915050565b60008115159050919050565b6000819050919050565b82818337600083830152505050565b60005b83811015611eaa578082015181840152602081019050611e8f565b83811115611eb9576000848401525b50505050565b60006002820490506001821680611ed757607f821691505b60208210811415611eeb57611eea611f51565b5b50919050565b611efa82611faf565b810181811067ffffffffffffffff82111715611f1957611f18611f80565b5b80604052505050565b7f4e487b7100000000000000000000000000000000000000000000000000000000600052601160045260246000fd5b7f4e487b7100000000000000000000000000000000000000000000000000000000600052602260045260246000fd5b7f4e487b7100000000000000000000000000000000000000000000000000000000600052604160045260246000fd5b6000601f19601f8301169050919050565b7f4469737472696374000000000000000000000000000000000000000000000000600082015250565b7f43656e7472616c00000000000000000000000000000000000000000000000000600082015250565b7f696e76616c6964206c6576656c00000000000000000000000000000000000000600082015250565b7f5374617465000000000000000000000000000000000000000000000000000000600082015250565b7f4e6f2042656e6566696369617279207265676973746572656400000000000000600082015250565b7f446973746e2e20506f696e740000000000000000000000000000000000000000600082015250565b7f496e76616c696420446973747269627574696f6e506f696e7420696400000000600082015250565b6120e881611e73565b81146120f357600080fd5b5056fea264697066735822122000f781762425dd6ee90bdc532f2569381901623ff0b91914b3742fbcb30ed5f764736f6c6343000803003366313766353231353145624546364337333334464144303830633537303444373732313662373332",
  "immutableReferences": {},
  "source": "// SPDX-License-Identifier: GPL-3.0\r\npragma solidity >=0.5.0 <=0.8.4; \r\n\r\ncontract CredentialManager {\r\n    constructor() {\r\n        string[28] memory statesList=['Andhra Pradesh', 'Arunachal Pradesh', 'Assam', 'Bihar', 'Chhattisgarh', 'Goa', 'Gujarat', 'Haryana', 'Himachal Pradesh', 'Jharkhand', 'Karnataka', 'Kerala', 'Madhya Pradesh', 'Maharashtra', 'Manipur', 'Meghalaya', 'Mizoram', 'Nagaland', 'Odisha', 'Punjab', 'Rajasthan', 'Sikkim', 'Tamil Nadu', 'Telangana', 'Tripura', \"Uttar Pradesh\", \"Uttarakhand\", \"West Bengal\"];\r\n        \r\n        uint i=0;\r\n        for(i=0;i<28;i++)\r\n        addState(statesList[i]);  \r\n    }\r\n    \r\n    struct State {\r\n        uint id;\r\n        mapping(string=>bool) authorities;\r\n        string name;\r\n    }\r\n    \r\n    struct District {\r\n        uint id;\r\n        uint stateId;\r\n        mapping(string=>bool) authorities;\r\n        string name;\r\n    }\r\n    \r\n    struct DistributionPoint {\r\n        uint id;\r\n        uint districtId;\r\n        uint[] beneficiaryIds;\r\n        mapping(string=>string) authorities; //id=>passwordHash\r\n        string name;\r\n    }\r\n    \r\n    struct Beneficiary {\r\n        uint id;\r\n        uint dstnId;\r\n        string credentials;\r\n    }\r\n    \r\n    string public centralAuthId = \"f17f52151EbEF6C7334FAD080c5704D77216b732\";\r\n    Beneficiary[] public beneficiaries;\r\n    DistributionPoint[] public dstnPoints;\r\n    District[] public districts;\r\n    State[] public states;\r\n    \r\n    event NewState(uint _id, string _name);\r\n    event NewDistrict(uint _id, string _name,uint _stateId);\r\n    event NewDstnPoint(uint _id, string _name, uint _districtId);\r\n    event NewAuthority(uint _level, uint _entityId, string _authorityId);\r\n    event NewBeneficiary(uint _id, string _credentials, string _registeredBy, uint _dstnId);\r\n    \r\n    function addState(string memory _name) public{\r\n        states.push();\r\n        State storage s = states[states.length-1];\r\n        s.id = states.length;\r\n        s.name = _name;\r\n        emit NewState(s.id, _name);\r\n    }\r\n    \r\n    function addDistrict(string memory _districtName, uint _stateId) public {\r\n        districts.push();   \r\n        District storage d = districts[districts.length-1];\r\n        d.id = districts.length;\r\n        d.name = _districtName;\r\n        d.stateId=_stateId;\r\n        emit NewDistrict(d.id,_districtName, _stateId);\r\n    }\r\n    \r\n    function addDstnPoint(string memory _dstnPointName, uint _districtId) public {\r\n        dstnPoints.push();\r\n        DistributionPoint storage dp = dstnPoints[dstnPoints.length-1];\r\n        dp.id=dstnPoints.length;\r\n        dp.name = _dstnPointName;\r\n        dp.districtId = _districtId;\r\n        emit NewDstnPoint(dp.id, _dstnPointName, _districtId);\r\n    }\r\n    \r\n    function addBeneficiary(uint _id, string memory _credentials, string memory _authorityId, uint _dstnId) public{\r\n        dstnPoints[_dstnId].beneficiaryIds.push(_id);\r\n        beneficiaries.push(Beneficiary(_id, _dstnId, _credentials));\r\n        emit NewBeneficiary(_id, _credentials, _authorityId, _dstnId);\r\n    }\r\n    \r\n    \r\n    function getBeneficiaries(uint _dstnPointId) public view returns(uint[] memory) {\r\n        require(beneficiaries.length>0, \"No Beneficiary registered\");\r\n        require(_dstnPointId>=0 && _dstnPointId<dstnPoints.length, \"Invalid DistributionPoint id\");\r\n        return dstnPoints[_dstnPointId].beneficiaryIds;\r\n        //returns beneficiary Ids of a dstn point\r\n    }\r\n    \r\n    function getBeneficiaryList() public view returns(Beneficiary[] memory) {\r\n        return beneficiaries;\r\n    }\r\n    \r\n    function addAuthority(uint _level, uint _entityId, string memory _authorityId) public{\r\n        require(_level>0 && _level<4, \"invalid level\");\r\n        if(_level==1)\r\n        states[_entityId].authorities[_authorityId] = true;\r\n        else if(_level==2)\r\n        districts[_entityId].authorities[_authorityId] = true;\r\n        emit NewAuthority(_level, _entityId, _authorityId);\r\n    }\r\n    \r\n    function addAuthority(uint _level, uint _entityId, string memory _authorityId, string memory _password) public {\r\n        dstnPoints[_entityId].authorities[_authorityId] = _password;\r\n        emit NewAuthority(_level, _entityId, _authorityId);\r\n    }\r\n    \r\n    function authorizeSigner(string memory _type, string memory _signer, uint _entityId) public view returns(bool){\r\n        \r\n        bool isAuthorized;\r\n\r\n        if(keccak256(abi.encode(_type)) == keccak256(abi.encode(\"Central\")))\r\n        isAuthorized = keccak256(bytes(centralAuthId)) == keccak256(bytes(_signer));\r\n        \r\n        if(keccak256(abi.encode(_type)) == keccak256(abi.encode(\"State\")))\r\n        isAuthorized = states[_entityId].authorities[_signer];\r\n        \r\n        if(keccak256(abi.encode(_type)) == keccak256(abi.encode(\"District\")))\r\n        isAuthorized = districts[_entityId].authorities[_signer];\r\n       \r\n        return isAuthorized;\r\n        \r\n    }\r\n    \r\n    function authorizeSigner(string memory _type, string memory _signer, uint _entityId, string memory _password) public view returns(bool){\r\n        \r\n        bool isAuthorized;\r\n        \r\n        if(keccak256(abi.encode(_type)) == keccak256(abi.encode(\"Distn. Point\")))\r\n        isAuthorized = keccak256(bytes(dstnPoints[_entityId].authorities[_signer])) == keccak256(bytes(_password));\r\n       \r\n        return isAuthorized;\r\n        \r\n    }\r\n}",
  "sourcePath": "F:/Prjcts/Capstone/identify/contracts/CredentialManager.sol",
  "compiler": {
    "name": "solc",
    "version": "0.8.3+commit.8d00100c.Emscripten.clang"
  },
  "schemaVersion": "3.3.3",
  "updatedAt": "2021-05-14T16:16:53.865Z",
  "networkType": "ethereum",
  "devdoc": {
    "kind": "dev",
    "methods": {},
    "version": 1
  },
  "userdoc": {
    "kind": "user",
    "methods": {},
    "version": 1
  }
}