{
  "contractName": "Inventory",
  "abi": [
    {
      "anonymous": false,
      "inputs": [
        {
          "indexed": false,
          "internalType": "bytes32",
          "name": "txnId",
          "type": "bytes32"
        },
        {
          "indexed": false,
          "internalType": "uint256",
          "name": "receivedTimestamp",
          "type": "uint256"
        },
        {
          "indexed": false,
          "internalType": "address",
          "name": "receiver",
          "type": "address"
        }
      ],
      "name": "AckTxn",
      "type": "event"
    },
    {
      "anonymous": false,
      "inputs": [
        {
          "indexed": false,
          "internalType": "bytes32",
          "name": "txnId",
          "type": "bytes32"
        },
        {
          "indexed": true,
          "internalType": "address",
          "name": "initiator",
          "type": "address"
        },
        {
          "indexed": true,
          "internalType": "string",
          "name": "fromEntityIndex",
          "type": "string"
        },
        {
          "indexed": false,
          "internalType": "string",
          "name": "fromEntity",
          "type": "string"
        },
        {
          "indexed": false,
          "internalType": "string",
          "name": "toEntity",
          "type": "string"
        },
        {
          "indexed": true,
          "internalType": "string",
          "name": "entityLevel",
          "type": "string"
        },
        {
          "indexed": false,
          "internalType": "uint256",
          "name": "sentTimestamp",
          "type": "uint256"
        },
        {
          "indexed": false,
          "internalType": "uint256",
          "name": "receivedTimestamp",
          "type": "uint256"
        },
        {
          "indexed": false,
          "internalType": "uint256[]",
          "name": "resources",
          "type": "uint256[]"
        },
        {
          "indexed": false,
          "internalType": "uint256",
          "name": "statusCode",
          "type": "uint256"
        }
      ],
      "name": "newTxn",
      "type": "event"
    },
    {
      "inputs": [
        {
          "internalType": "bytes32",
          "name": "",
          "type": "bytes32"
        }
      ],
      "name": "resourceTxns",
      "outputs": [
        {
          "internalType": "bytes32",
          "name": "id",
          "type": "bytes32"
        },
        {
          "internalType": "address",
          "name": "initiator",
          "type": "address"
        },
        {
          "internalType": "address",
          "name": "receiver",
          "type": "address"
        },
        {
          "internalType": "string",
          "name": "fromEntity",
          "type": "string"
        },
        {
          "internalType": "string",
          "name": "toEntity",
          "type": "string"
        },
        {
          "internalType": "string",
          "name": "entityLevel",
          "type": "string"
        },
        {
          "internalType": "uint256",
          "name": "sentTimestamp",
          "type": "uint256"
        },
        {
          "internalType": "uint256",
          "name": "receivedTimestamp",
          "type": "uint256"
        },
        {
          "internalType": "bool",
          "name": "created",
          "type": "bool"
        }
      ],
      "stateMutability": "view",
      "type": "function",
      "constant": true
    },
    {
      "inputs": [
        {
          "internalType": "string",
          "name": "_fromEntity",
          "type": "string"
        },
        {
          "internalType": "uint256",
          "name": "_fromEntityId",
          "type": "uint256"
        },
        {
          "internalType": "string",
          "name": "_toEntity",
          "type": "string"
        },
        {
          "internalType": "string",
          "name": "_level",
          "type": "string"
        },
        {
          "internalType": "uint256",
          "name": "_sentTimestamp",
          "type": "uint256"
        },
        {
          "internalType": "uint256",
          "name": "_receivedTimestamp",
          "type": "uint256"
        },
        {
          "internalType": "uint256[]",
          "name": "_resourceQuantities",
          "type": "uint256[]"
        },
        {
          "internalType": "address",
          "name": "_credManagerAddress",
          "type": "address"
        }
      ],
      "name": "sendTxn",
      "outputs": [
        {
          "internalType": "uint256",
          "name": "",
          "type": "uint256"
        },
        {
          "internalType": "bytes32",
          "name": "",
          "type": "bytes32"
        }
      ],
      "stateMutability": "nonpayable",
      "type": "function"
    },
    {
      "inputs": [
        {
          "internalType": "bytes32",
          "name": "_txnId",
          "type": "bytes32"
        },
        {
          "internalType": "uint256",
          "name": "_recvdTimestamp",
          "type": "uint256"
        }
      ],
      "name": "acknowledgeTxn",
      "outputs": [],
      "stateMutability": "nonpayable",
      "type": "function"
    },
    {
      "inputs": [
        {
          "internalType": "bytes32",
          "name": "_txnId",
          "type": "bytes32"
        }
      ],
      "name": "getTxnResources",
      "outputs": [
        {
          "internalType": "uint256[]",
          "name": "",
          "type": "uint256[]"
        }
      ],
      "stateMutability": "view",
      "type": "function",
      "constant": true
    }
  ],
  "bytecode": "0x608060405234801561001057600080fd5b50611565806100206000396000f3fe608060405234801561001057600080fd5b506004361061004c5760003560e01c80631c722ffb146100515780633bb98e351461008957806398dfcdc3146100b9578063f1fbdd2f146100d5575b600080fd5b61006b60048036038101906100669190610c4e565b610106565b60405161008099989796959493929190610f92565b60405180910390f35b6100a3600480360381019061009e9190610c4e565b610339565b6040516100b09190610f70565b60405180910390f35b6100d360048036038101906100ce9190610c77565b61040f565b005b6100ef60048036038101906100ea9190610cb3565b61054a565b6040516100fd9291906111e7565b60405180910390f35b60006020528060005260406000206000915090508060000154908060010160009054906101000a900473ffffffffffffffffffffffffffffffffffffffff16908060020160009054906101000a900473ffffffffffffffffffffffffffffffffffffffff169080600301805461017b90611386565b80601f01602080910402602001604051908101604052809291908181526020018280546101a790611386565b80156101f45780601f106101c9576101008083540402835291602001916101f4565b820191906000526020600020905b8154815290600101906020018083116101d757829003601f168201915b50505050509080600401805461020990611386565b80601f016020809104026020016040519081016040528092919081815260200182805461023590611386565b80156102825780601f1061025757610100808354040283529160200191610282565b820191906000526020600020905b81548152906001019060200180831161026557829003601f168201915b50505050509080600501805461029790611386565b80601f01602080910402602001604051908101604052809291908181526020018280546102c390611386565b80156103105780601f106102e557610100808354040283529160200191610310565b820191906000526020600020905b8154815290600101906020018083116102f357829003601f168201915b5050505050908060060154908060070154908060090160009054906101000a900460ff16905089565b60606001151560008084815260200190815260200160002060090160009054906101000a900460ff161515146103a4576040517f08c379a000000000000000000000000000000000000000000000000000000000815260040161039b906111c7565b60405180910390fd5b60008083815260200190815260200160002060080180548060200260200160405190810160405280929190818152602001828054801561040357602002820191906000526020600020905b8154815260200190600101908083116103ef575b50505050509050919050565b60008083815260200190815260200160002060090160009054906101000a900460ff16610465577f4e487b7100000000000000000000000000000000000000000000000000000000600052600160045260246000fd5b600081116104a8576040517f08c379a000000000000000000000000000000000000000000000000000000000815260040161049f90611187565b60405180910390fd5b60008060008481526020019081526020016000209050818160070181905550338160020160006101000a81548173ffffffffffffffffffffffffffffffffffffffff021916908373ffffffffffffffffffffffffffffffffffffffff1602179055507fd4f400cd2e2fcb0786d5df3c869e3846b2fbddca4e4e235f75e9aff57482050283833360405161053d939291906110b8565b60405180910390a1505050565b60008060008390506000808273ffffffffffffffffffffffffffffffffffffffff1663daa3b67b8b338f6040518463ffffffff1660e01b8152600401610592939291906110ef565b60206040518083038186803b1580156105aa57600080fd5b505afa1580156105be573d6000803e3d6000fd5b505050506040513d601f19601f820116820180604052508101906105e29190610c25565b6105f05761019191506105f5565b60c891505b60008d5111610639576040517f08c379a0000000000000000000000000000000000000000000000000000000008152600401610630906111a7565b60405180910390fd5b8c8b8b8b604051602001610650949392919061112d565b60405160208183030381529060405280519060200120905061067061095f565b8181600001818152505033816020019073ffffffffffffffffffffffffffffffffffffffff16908173ffffffffffffffffffffffffffffffffffffffff16815250508d81606001819052508b81608001819052508a8160a00181905250898160c00181815250506040518060400160405280600c81526020017f446973746e2e20506f696e740000000000000000000000000000000000000000815250805190602001208e80519060200120141561072d57888160e00181815250505b60018161012001901515908115158152505087816101000181905250806000808481526020019081526020016000206000820151816000015560208201518160010160006101000a81548173ffffffffffffffffffffffffffffffffffffffff021916908373ffffffffffffffffffffffffffffffffffffffff16021790555060408201518160020160006101000a81548173ffffffffffffffffffffffffffffffffffffffff021916908373ffffffffffffffffffffffffffffffffffffffff16021790555060608201518160030190805190602001906108109291906109e3565b50608082015181600401908051906020019061082d9291906109e3565b5060a082015181600501908051906020019061084a9291906109e3565b5060c0820151816006015560e0820151816007015561010082015181600801908051906020019061087c929190610a69565b506101208201518160090160006101000a81548160ff0219169083151502179055509050508060a001516040516108b39190610f59565b604051809103902081606001516040516108cd9190610f59565b60405180910390203373ffffffffffffffffffffffffffffffffffffffff167f5e949d7b4f554333384c4c7fad774b1e4b74c543fcf2e8cfd0c791983c803c4a8460000151856060015186608001518760c001518860e001518961010001518c6040516109409796959493929190611034565b60405180910390a4828295509550505050509850989650505050505050565b60405180610140016040528060008019168152602001600073ffffffffffffffffffffffffffffffffffffffff168152602001600073ffffffffffffffffffffffffffffffffffffffff1681526020016060815260200160608152602001606081526020016000815260200160008152602001606081526020016000151581525090565b8280546109ef90611386565b90600052602060002090601f016020900481019282610a115760008555610a58565b82601f10610a2a57805160ff1916838001178555610a58565b82800160010185558215610a58579182015b82811115610a57578251825591602001919060010190610a3c565b5b509050610a659190610ab6565b5090565b828054828255906000526020600020908101928215610aa5579160200282015b82811115610aa4578251825591602001919060010190610a89565b5b509050610ab29190610ab6565b5090565b5b80821115610acf576000816000905550600101610ab7565b5090565b6000610ae6610ae184611235565b611210565b90508083825260208201905082856020860282011115610b0557600080fd5b60005b85811015610b355781610b1b8882610c10565b845260208401935060208301925050600181019050610b08565b5050509392505050565b6000610b52610b4d84611261565b611210565b905082815260208101848484011115610b6a57600080fd5b610b75848285611344565b509392505050565b600081359050610b8c816114d3565b92915050565b600082601f830112610ba357600080fd5b8135610bb3848260208601610ad3565b91505092915050565b600081519050610bcb816114ea565b92915050565b600081359050610be081611501565b92915050565b600082601f830112610bf757600080fd5b8135610c07848260208601610b3f565b91505092915050565b600081359050610c1f81611518565b92915050565b600060208284031215610c3757600080fd5b6000610c4584828501610bbc565b91505092915050565b600060208284031215610c6057600080fd5b6000610c6e84828501610bd1565b91505092915050565b60008060408385031215610c8a57600080fd5b6000610c9885828601610bd1565b9250506020610ca985828601610c10565b9150509250929050565b600080600080600080600080610100898b031215610cd057600080fd5b600089013567ffffffffffffffff811115610cea57600080fd5b610cf68b828c01610be6565b9850506020610d078b828c01610c10565b975050604089013567ffffffffffffffff811115610d2457600080fd5b610d308b828c01610be6565b965050606089013567ffffffffffffffff811115610d4d57600080fd5b610d598b828c01610be6565b9550506080610d6a8b828c01610c10565b94505060a0610d7b8b828c01610c10565b93505060c089013567ffffffffffffffff811115610d9857600080fd5b610da48b828c01610b92565b92505060e0610db58b828c01610b7d565b9150509295985092959890939650565b6000610dd18383610f3b565b60208301905092915050565b610de6816112f2565b82525050565b6000610df7826112a2565b610e0181856112c5565b9350610e0c83611292565b8060005b83811015610e3d578151610e248882610dc5565b9750610e2f836112b8565b925050600181019050610e10565b5085935050505092915050565b610e5381611304565b82525050565b610e6281611310565b82525050565b6000610e73826112ad565b610e7d81856112d6565b9350610e8d818560208601611353565b610e9681611447565b840191505092915050565b6000610eac826112ad565b610eb681856112e7565b9350610ec6818560208601611353565b80840191505092915050565b6000610edf6011836112d6565b9150610eea82611458565b602082019050919050565b6000610f026012836112d6565b9150610f0d82611481565b602082019050919050565b6000610f25600e836112d6565b9150610f30826114aa565b602082019050919050565b610f448161133a565b82525050565b610f538161133a565b82525050565b6000610f658284610ea1565b915081905092915050565b60006020820190508181036000830152610f8a8184610dec565b905092915050565b600061012082019050610fa8600083018c610e59565b610fb5602083018b610ddd565b610fc2604083018a610ddd565b8181036060830152610fd48189610e68565b90508181036080830152610fe88188610e68565b905081810360a0830152610ffc8187610e68565b905061100b60c0830186610f4a565b61101860e0830185610f4a565b611026610100830184610e4a565b9a9950505050505050505050565b600060e082019050611049600083018a610e59565b818103602083015261105b8189610e68565b9050818103604083015261106f8188610e68565b905061107e6060830187610f4a565b61108b6080830186610f4a565b81810360a083015261109d8185610dec565b90506110ac60c0830184610f4a565b98975050505050505050565b60006060820190506110cd6000830186610e59565b6110da6020830185610f4a565b6110e76040830184610ddd565b949350505050565b600060608201905081810360008301526111098186610e68565b90506111186020830185610ddd565b6111256040830184610f4a565b949350505050565b600060808201905081810360008301526111478187610e68565b9050818103602083015261115b8186610e68565b9050818103604083015261116f8185610e68565b905061117e6060830184610f4a565b95945050505050565b600060208201905081810360008301526111a081610ed2565b9050919050565b600060208201905081810360008301526111c081610ef5565b9050919050565b600060208201905081810360008301526111e081610f18565b9050919050565b60006040820190506111fc6000830185610f4a565b6112096020830184610e59565b9392505050565b600061121a61122b565b905061122682826113b8565b919050565b6000604051905090565b600067ffffffffffffffff8211156112505761124f611418565b5b602082029050602081019050919050565b600067ffffffffffffffff82111561127c5761127b611418565b5b61128582611447565b9050602081019050919050565b6000819050602082019050919050565b600081519050919050565b600081519050919050565b6000602082019050919050565b600082825260208201905092915050565b600082825260208201905092915050565b600081905092915050565b60006112fd8261131a565b9050919050565b60008115159050919050565b6000819050919050565b600073ffffffffffffffffffffffffffffffffffffffff82169050919050565b6000819050919050565b82818337600083830152505050565b60005b83811015611371578082015181840152602081019050611356565b83811115611380576000848401525b50505050565b6000600282049050600182168061139e57607f821691505b602082108114156113b2576113b16113e9565b5b50919050565b6113c182611447565b810181811067ffffffffffffffff821117156113e0576113df611418565b5b80604052505050565b7f4e487b7100000000000000000000000000000000000000000000000000000000600052602260045260246000fd5b7f4e487b7100000000000000000000000000000000000000000000000000000000600052604160045260246000fd5b6000601f19601f8301169050919050565b7f496e76616c69642074696d657374616d70000000000000000000000000000000600082015250565b7f496e76616c69642066726f6d456e746974790000000000000000000000000000600082015250565b7f496e76616c69642074786e206964000000000000000000000000000000000000600082015250565b6114dc816112f2565b81146114e757600080fd5b50565b6114f381611304565b81146114fe57600080fd5b50565b61150a81611310565b811461151557600080fd5b50565b6115218161133a565b811461152c57600080fd5b5056fea2646970667358221220e9dd7de3a3105bcb00251b85ca67d18f51fff3b4e303bc9d6c2725de3d78e52364736f6c63430008030033",
  "immutableReferences": {},
  "source": "// SPDX-License-Identifier: GPL-3.0\r\n\r\npragma solidity >=0.5.0 <=0.8.3;\r\nimport \"./CredentialManager.sol\";\r\n\r\ncontract Inventory {\r\n\r\n    struct resourceTransaction {\r\n        bytes32 id;\r\n        address initiator;\r\n        address receiver;\r\n        string fromEntity; \r\n        string toEntity; \r\n        string entityLevel; \r\n        uint sentTimestamp; \r\n        uint receivedTimestamp;\r\n        uint[] resourceQuantities; //array of quantities where index is id of the resource\r\n        bool created;\r\n    }\r\n\r\n    mapping(bytes32=>resourceTransaction) public resourceTxns;\r\n    \r\n    event newTxn(\r\n        bytes32 txnId,\r\n        address indexed initiator,\r\n        string indexed fromEntityIndex, //stores keccak256 hash of the string. To filter, filter using hash(key)\r\n        string fromEntity,\r\n        string toEntity,\r\n        string indexed entityLevel,\r\n        uint sentTimestamp,\r\n        uint receivedTimestamp,\r\n        uint[] resources,\r\n        uint statusCode\r\n    );\r\n\r\n    event AckTxn(\r\n        bytes32 txnId,\r\n        uint receivedTimestamp,\r\n        address receiver\r\n    );\r\n    \r\n    \r\n    function sendTxn(string memory _fromEntity, uint _fromEntityId, string memory _toEntity, string memory _level, uint  _sentTimestamp, uint _receivedTimestamp, uint[] memory _resourceQuantities, address _credManagerAddress) public returns(uint,bytes32){\r\n        \r\n        CredentialManager cm = CredentialManager(_credManagerAddress);\r\n        uint statusCode;\r\n        bytes32 txnId;\r\n        if(!cm.authorizeSigner(_level, msg.sender, _fromEntityId))\r\n            statusCode = 401;\r\n        else\r\n            statusCode = 200;\r\n        require(bytes(_fromEntity).length>0, \"Invalid fromEntity\");\r\n        txnId = keccak256(abi.encode(_fromEntity,_toEntity,_level,_sentTimestamp));\r\n        resourceTransaction memory rtx;\r\n        rtx.id = txnId;\r\n        rtx.initiator = msg.sender;\r\n        rtx.fromEntity = _fromEntity;\r\n        rtx.toEntity = _toEntity;\r\n        rtx.entityLevel = _level;\r\n        rtx.sentTimestamp = _sentTimestamp;\r\n        if(keccak256(bytes(_fromEntity)) == keccak256(bytes(\"Distn. Point\")))\r\n        rtx.receivedTimestamp = _receivedTimestamp;\r\n        rtx.created = true;\r\n        rtx.resourceQuantities = _resourceQuantities;\r\n        resourceTxns[txnId] = rtx;\r\n        emit newTxn(rtx.id, msg.sender, rtx.fromEntity, rtx.fromEntity, rtx.toEntity, rtx.entityLevel, rtx.sentTimestamp, rtx.receivedTimestamp, rtx.resourceQuantities, statusCode);\r\n        return (statusCode,txnId);\r\n    }\r\n    \r\n    function acknowledgeTxn(bytes32 _txnId, uint _recvdTimestamp) public {\r\n        assert(resourceTxns[_txnId].created);\r\n        require(_recvdTimestamp>0, \"Invalid timestamp\");\r\n        \r\n        resourceTransaction storage txn = resourceTxns[_txnId];\r\n        txn.receivedTimestamp = _recvdTimestamp;\r\n        txn.receiver = msg.sender;\r\n\r\n        emit AckTxn(_txnId, _recvdTimestamp, msg.sender);\r\n    }\r\n    \r\n    function getTxnResources(bytes32 _txnId) public view returns(uint[] memory) {\r\n        require(resourceTxns[_txnId].created==true, \"Invalid txn id\");\r\n        return resourceTxns[_txnId].resourceQuantities;\r\n    }\r\n}",
  "sourcePath": "F:/Prjcts/Capstone/identify/contracts/Inventory.sol",
  "compiler": {
    "name": "solc",
    "version": "0.8.3+commit.8d00100c.Emscripten.clang"
  },
  "schemaVersion": "3.3.3",
  "updatedAt": "2021-04-18T09:26:12.308Z",
  "networkType": "ethereum",
  "devdoc": {
    "kind": "dev",
    "methods": {},
    "version": 1
  },
  "userdoc": {
    "kind": "user",
    "methods": {},
    "version": 1
  }
}