{
  "contractName": "Inventory",
  "abi": [
    {
      "anonymous": false,
      "inputs": [
        {
          "indexed": false,
          "internalType": "bytes32",
          "name": "txnId",
          "type": "bytes32"
        },
        {
          "indexed": false,
          "internalType": "uint256",
          "name": "receivedTimestamp",
          "type": "uint256"
        },
        {
          "indexed": false,
          "internalType": "address",
          "name": "receiver",
          "type": "address"
        },
        {
          "indexed": false,
          "internalType": "uint256",
          "name": "statusCode",
          "type": "uint256"
        }
      ],
      "name": "AckTxn",
      "type": "event"
    },
    {
      "anonymous": false,
      "inputs": [
        {
          "indexed": false,
          "internalType": "bytes32",
          "name": "txnId",
          "type": "bytes32"
        },
        {
          "indexed": false,
          "internalType": "uint256",
          "name": "receivedTimestamp",
          "type": "uint256"
        },
        {
          "indexed": false,
          "internalType": "address",
          "name": "receiver",
          "type": "address"
        },
        {
          "indexed": false,
          "internalType": "uint256",
          "name": "statusCode",
          "type": "uint256"
        }
      ],
      "name": "errorAckTxn",
      "type": "event"
    },
    {
      "anonymous": false,
      "inputs": [
        {
          "indexed": false,
          "internalType": "bytes32",
          "name": "txnId",
          "type": "bytes32"
        },
        {
          "indexed": true,
          "internalType": "address",
          "name": "initiator",
          "type": "address"
        },
        {
          "indexed": true,
          "internalType": "string",
          "name": "fromEntityIndex",
          "type": "string"
        },
        {
          "indexed": false,
          "internalType": "string",
          "name": "fromEntity",
          "type": "string"
        },
        {
          "indexed": false,
          "internalType": "uint256",
          "name": "fromEntityId",
          "type": "uint256"
        },
        {
          "indexed": false,
          "internalType": "string",
          "name": "toEntity",
          "type": "string"
        },
        {
          "indexed": false,
          "internalType": "uint256",
          "name": "toEntityId",
          "type": "uint256"
        },
        {
          "indexed": true,
          "internalType": "string",
          "name": "entityLevel",
          "type": "string"
        },
        {
          "indexed": false,
          "internalType": "uint256",
          "name": "sentTimestamp",
          "type": "uint256"
        },
        {
          "indexed": false,
          "internalType": "uint256",
          "name": "receivedTimestamp",
          "type": "uint256"
        },
        {
          "indexed": false,
          "internalType": "uint256[]",
          "name": "resources",
          "type": "uint256[]"
        },
        {
          "indexed": false,
          "internalType": "uint256",
          "name": "statusCode",
          "type": "uint256"
        }
      ],
      "name": "newTxn",
      "type": "event"
    },
    {
      "inputs": [
        {
          "internalType": "bytes32",
          "name": "",
          "type": "bytes32"
        }
      ],
      "name": "resourceTxns",
      "outputs": [
        {
          "internalType": "bytes32",
          "name": "id",
          "type": "bytes32"
        },
        {
          "internalType": "address",
          "name": "initiator",
          "type": "address"
        },
        {
          "internalType": "address",
          "name": "receiver",
          "type": "address"
        },
        {
          "internalType": "string",
          "name": "fromEntity",
          "type": "string"
        },
        {
          "internalType": "string",
          "name": "toEntity",
          "type": "string"
        },
        {
          "internalType": "string",
          "name": "entityLevel",
          "type": "string"
        },
        {
          "internalType": "uint256",
          "name": "sentTimestamp",
          "type": "uint256"
        },
        {
          "internalType": "uint256",
          "name": "receivedTimestamp",
          "type": "uint256"
        },
        {
          "internalType": "bool",
          "name": "created",
          "type": "bool"
        }
      ],
      "stateMutability": "view",
      "type": "function",
      "constant": true
    },
    {
      "inputs": [
        {
          "internalType": "string",
          "name": "_fromEntity",
          "type": "string"
        },
        {
          "internalType": "uint256",
          "name": "_fromEntityId",
          "type": "uint256"
        },
        {
          "internalType": "string",
          "name": "_toEntity",
          "type": "string"
        },
        {
          "internalType": "uint256",
          "name": "_toEntityId",
          "type": "uint256"
        },
        {
          "internalType": "string",
          "name": "_level",
          "type": "string"
        },
        {
          "internalType": "uint256",
          "name": "_sentTimestamp",
          "type": "uint256"
        },
        {
          "internalType": "uint256",
          "name": "_receivedTimestamp",
          "type": "uint256"
        },
        {
          "internalType": "uint256[]",
          "name": "_resourceQuantities",
          "type": "uint256[]"
        },
        {
          "internalType": "address",
          "name": "_credManagerAddress",
          "type": "address"
        }
      ],
      "name": "sendTxn",
      "outputs": [],
      "stateMutability": "nonpayable",
      "type": "function"
    },
    {
      "inputs": [
        {
          "internalType": "bytes32",
          "name": "_txnId",
          "type": "bytes32"
        },
        {
          "internalType": "uint256",
          "name": "_recvdTimestamp",
          "type": "uint256"
        },
        {
          "internalType": "uint256",
          "name": "_entityId",
          "type": "uint256"
        },
        {
          "internalType": "string",
          "name": "_level",
          "type": "string"
        },
        {
          "internalType": "address",
          "name": "_credManagerAddress",
          "type": "address"
        }
      ],
      "name": "acknowledgeTxn",
      "outputs": [],
      "stateMutability": "nonpayable",
      "type": "function"
    },
    {
      "inputs": [
        {
          "internalType": "bytes32",
          "name": "_txnId",
          "type": "bytes32"
        }
      ],
      "name": "getTxnResources",
      "outputs": [
        {
          "internalType": "uint256[]",
          "name": "",
          "type": "uint256[]"
        }
      ],
      "stateMutability": "view",
      "type": "function",
      "constant": true
    }
  ],
  "bytecode": "0x608060405234801561001057600080fd5b5061190c806100206000396000f3fe608060405234801561001057600080fd5b506004361061004c5760003560e01c80631c722ffb146100515780632902fcbd146100895780633bb98e35146100a5578063db6d530e146100d5575b600080fd5b61006b60048036038101906100669190610d75565b6100f1565b6040516100809998979695949392919061116b565b60405180910390f35b6100a3600480360381019061009e9190610e2d565b610324565b005b6100bf60048036038101906100ba9190610d75565b6107a4565b6040516100cc9190611149565b60405180910390f35b6100ef60048036038101906100ea9190610d9e565b61087a565b005b60006020528060005260406000206000915090508060000154908060010160009054906101000a900473ffffffffffffffffffffffffffffffffffffffff16908060020160009054906101000a900473ffffffffffffffffffffffffffffffffffffffff16908060030180546101669061172d565b80601f01602080910402602001604051908101604052809291908181526020018280546101929061172d565b80156101df5780601f106101b4576101008083540402835291602001916101df565b820191906000526020600020905b8154815290600101906020018083116101c257829003601f168201915b5050505050908060040180546101f49061172d565b80601f01602080910402602001604051908101604052809291908181526020018280546102209061172d565b801561026d5780601f106102425761010080835404028352916020019161026d565b820191906000526020600020905b81548152906001019060200180831161025057829003601f168201915b5050505050908060050180546102829061172d565b80601f01602080910402602001604051908101604052809291908181526020018280546102ae9061172d565b80156102fb5780601f106102d0576101008083540402835291602001916102fb565b820191906000526020600020905b8154815290600101906020018083116102de57829003601f168201915b5050505050908060060154908060070154908060090160009054906101000a900460ff16905089565b600081905060008a511161036d576040517f08c379a00000000000000000000000000000000000000000000000000000000081526004016103649061151d565b60405180910390fd5b60008a89888860405160200161038694939291906114a3565b60405160208183030381529060405280519060200120905060008b905060008b905060008b905060008b905060008a9050600089905060006040518060400160405280600c81526020017f446973746e2e20506f696e740000000000000000000000000000000000000000815250805190602001208e805190602001201415610411578c9050610415565b8b90505b8873ffffffffffffffffffffffffffffffffffffffff1663daa3b67b8f33896040518463ffffffff1660e01b815260040161045293929190611465565b60206040518083038186803b15801561046a57600080fd5b505afa15801561047e573d6000803e3d6000fd5b505050506040513d601f19601f820116820180604052508101906104a29190610d4c565b610537578d6040516104b49190611132565b6040518091039020876040516104ca9190611132565b60405180910390203373ffffffffffffffffffffffffffffffffffffffff167f8686ed395c5deae649870b3dafcf26bb8e42051ba0a4e42f70b9041ea77e746e8b8b8b8b8b8b8a8c61019160405161052a999897969594939291906112af565b60405180910390a4610790565b6040518061014001604052808981526020013373ffffffffffffffffffffffffffffffffffffffff168152602001600073ffffffffffffffffffffffffffffffffffffffff1681526020018881526020018681526020018f81526020018481526020018281526020018c8152602001600115158152506000808a81526020019081526020016000206000820151816000015560208201518160010160006101000a81548173ffffffffffffffffffffffffffffffffffffffff021916908373ffffffffffffffffffffffffffffffffffffffff16021790555060408201518160020160006101000a81548173ffffffffffffffffffffffffffffffffffffffff021916908373ffffffffffffffffffffffffffffffffffffffff1602179055506060820151816003019080519060200190610673929190610b0a565b506080820151816004019080519060200190610690929190610b0a565b5060a08201518160050190805190602001906106ad929190610b0a565b5060c0820151816006015560e082015181600701556101008201518160080190805190602001906106df929190610b90565b506101208201518160090160006101000a81548160ff0219169083151502179055509050508d6040516107129190611132565b6040518091039020876040516107289190611132565b60405180910390203373ffffffffffffffffffffffffffffffffffffffff167f8686ed395c5deae649870b3dafcf26bb8e42051ba0a4e42f70b9041ea77e746e8b8b8b8b8b8b8a8c60c86040516107879998979695949392919061120d565b60405180910390a45b505050505050505050505050505050505050565b60606001151560008084815260200190815260200160002060090160009054906101000a900460ff1615151461080f576040517f08c379a00000000000000000000000000000000000000000000000000000000081526004016108069061153d565b60405180910390fd5b60008083815260200190815260200160002060080180548060200260200160405190810160405280929190818152602001828054801561086e57602002820191906000526020600020905b81548152602001906001019080831161085a575b50505050509050919050565b600084116108bd576040517f08c379a00000000000000000000000000000000000000000000000000000000081526004016108b4906114fd565b60405180910390fd5b60008086815260200190815260200160002060090160009054906101000a900460ff16610928577fa028032e2f791877c3c121bc2e800ca601982d7fdd265a6d6499acfa7f39b18185853361019060405161091b9493929190611396565b60405180910390a1610b03565b60008060008781526020019081526020016000206007015414610985577fa028032e2f791877c3c121bc2e800ca601982d7fdd265a6d6499acfa7f39b181858533610faa60405161097c94939291906113db565b60405180910390a15b60008190508073ffffffffffffffffffffffffffffffffffffffff1663daa3b67b8433876040518463ffffffff1660e01b81526004016109c793929190611465565b60206040518083038186803b1580156109df57600080fd5b505afa1580156109f3573d6000803e3d6000fd5b505050506040513d601f19601f82011682018060405250810190610a179190610d4c565b610a5f577fa028032e2f791877c3c121bc2e800ca601982d7fdd265a6d6499acfa7f39b181868633610fab604051610a529493929190611420565b60405180910390a1610b01565b60008060008881526020019081526020016000209050858160070181905550338160020160006101000a81548173ffffffffffffffffffffffffffffffffffffffff021916908373ffffffffffffffffffffffffffffffffffffffff1602179055507f198279c15db5a6a80681ccdbc3c4f4fc2a14d8caef5bfeb03a19b96a1dbddf1e87873360c8604051610af79493929190611351565b60405180910390a1505b505b5050505050565b828054610b169061172d565b90600052602060002090601f016020900481019282610b385760008555610b7f565b82601f10610b5157805160ff1916838001178555610b7f565b82800160010185558215610b7f579182015b82811115610b7e578251825591602001919060010190610b63565b5b509050610b8c9190610bdd565b5090565b828054828255906000526020600020908101928215610bcc579160200282015b82811115610bcb578251825591602001919060010190610bb0565b5b509050610bd99190610bdd565b5090565b5b80821115610bf6576000816000905550600101610bde565b5090565b6000610c0d610c0884611582565b61155d565b90508083825260208201905082856020860282011115610c2c57600080fd5b60005b85811015610c5c5781610c428882610d37565b845260208401935060208301925050600181019050610c2f565b5050509392505050565b6000610c79610c74846115ae565b61155d565b905082815260208101848484011115610c9157600080fd5b610c9c8482856116eb565b509392505050565b600081359050610cb38161187a565b92915050565b600082601f830112610cca57600080fd5b8135610cda848260208601610bfa565b91505092915050565b600081519050610cf281611891565b92915050565b600081359050610d07816118a8565b92915050565b600082601f830112610d1e57600080fd5b8135610d2e848260208601610c66565b91505092915050565b600081359050610d46816118bf565b92915050565b600060208284031215610d5e57600080fd5b6000610d6c84828501610ce3565b91505092915050565b600060208284031215610d8757600080fd5b6000610d9584828501610cf8565b91505092915050565b600080600080600060a08688031215610db657600080fd5b6000610dc488828901610cf8565b9550506020610dd588828901610d37565b9450506040610de688828901610d37565b935050606086013567ffffffffffffffff811115610e0357600080fd5b610e0f88828901610d0d565b9250506080610e2088828901610ca4565b9150509295509295909350565b60008060008060008060008060006101208a8c031215610e4c57600080fd5b60008a013567ffffffffffffffff811115610e6657600080fd5b610e728c828d01610d0d565b9950506020610e838c828d01610d37565b98505060408a013567ffffffffffffffff811115610ea057600080fd5b610eac8c828d01610d0d565b9750506060610ebd8c828d01610d37565b96505060808a013567ffffffffffffffff811115610eda57600080fd5b610ee68c828d01610d0d565b95505060a0610ef78c828d01610d37565b94505060c0610f088c828d01610d37565b93505060e08a013567ffffffffffffffff811115610f2557600080fd5b610f318c828d01610cb9565b925050610100610f438c828d01610ca4565b9150509295985092959850929598565b6000610f5f8383611114565b60208301905092915050565b610f748161163f565b82525050565b6000610f85826115ef565b610f8f8185611612565b9350610f9a836115df565b8060005b83811015610fcb578151610fb28882610f53565b9750610fbd83611605565b925050600181019050610f9e565b5085935050505092915050565b610fe181611651565b82525050565b610ff08161165d565b82525050565b610fff81611691565b82525050565b61100e816116a3565b82525050565b61101d816116b5565b82525050565b61102c816116c7565b82525050565b61103b816116d9565b82525050565b600061104c826115fa565b6110568185611623565b93506110668185602086016116fa565b61106f816117ee565b840191505092915050565b6000611085826115fa565b61108f8185611634565b935061109f8185602086016116fa565b80840191505092915050565b60006110b8601183611623565b91506110c3826117ff565b602082019050919050565b60006110db601283611623565b91506110e682611828565b602082019050919050565b60006110fe600e83611623565b915061110982611851565b602082019050919050565b61111d81611687565b82525050565b61112c81611687565b82525050565b600061113e828461107a565b915081905092915050565b600060208201905081810360008301526111638184610f7a565b905092915050565b600061012082019050611181600083018c610fe7565b61118e602083018b610f6b565b61119b604083018a610f6b565b81810360608301526111ad8189611041565b905081810360808301526111c18188611041565b905081810360a08301526111d58187611041565b90506111e460c0830186611123565b6111f160e0830185611123565b6111ff610100830184610fd8565b9a9950505050505050505050565b600061012082019050611223600083018c610fe7565b8181036020830152611235818b611041565b9050611244604083018a611123565b81810360608301526112568189611041565b90506112656080830188611123565b61127260a0830187611123565b61127f60c0830186611123565b81810360e08301526112918185610f7a565b90506112a1610100830184610ff6565b9a9950505050505050505050565b6000610120820190506112c5600083018c610fe7565b81810360208301526112d7818b611041565b90506112e6604083018a611123565b81810360608301526112f88189611041565b90506113076080830188611123565b61131460a0830187611123565b61132160c0830186611123565b81810360e08301526113338185610f7a565b9050611343610100830184611032565b9a9950505050505050505050565b60006080820190506113666000830187610fe7565b6113736020830186611123565b6113806040830185610f6b565b61138d6060830184610ff6565b95945050505050565b60006080820190506113ab6000830187610fe7565b6113b86020830186611123565b6113c56040830185610f6b565b6113d26060830184611005565b95945050505050565b60006080820190506113f06000830187610fe7565b6113fd6020830186611123565b61140a6040830185610f6b565b6114176060830184611014565b95945050505050565b60006080820190506114356000830187610fe7565b6114426020830186611123565b61144f6040830185610f6b565b61145c6060830184611023565b95945050505050565b6000606082019050818103600083015261147f8186611041565b905061148e6020830185610f6b565b61149b6040830184611123565b949350505050565b600060808201905081810360008301526114bd8187611041565b905081810360208301526114d18186611041565b905081810360408301526114e58185611041565b90506114f46060830184611123565b95945050505050565b60006020820190508181036000830152611516816110ab565b9050919050565b60006020820190508181036000830152611536816110ce565b9050919050565b60006020820190508181036000830152611556816110f1565b9050919050565b6000611567611578565b9050611573828261175f565b919050565b6000604051905090565b600067ffffffffffffffff82111561159d5761159c6117bf565b5b602082029050602081019050919050565b600067ffffffffffffffff8211156115c9576115c86117bf565b5b6115d2826117ee565b9050602081019050919050565b6000819050602082019050919050565b600081519050919050565b600081519050919050565b6000602082019050919050565b600082825260208201905092915050565b600082825260208201905092915050565b600081905092915050565b600061164a82611667565b9050919050565b60008115159050919050565b6000819050919050565b600073ffffffffffffffffffffffffffffffffffffffff82169050919050565b6000819050919050565b600061169c82611687565b9050919050565b60006116ae82611687565b9050919050565b60006116c082611687565b9050919050565b60006116d282611687565b9050919050565b60006116e482611687565b9050919050565b82818337600083830152505050565b60005b838110156117185780820151818401526020810190506116fd565b83811115611727576000848401525b50505050565b6000600282049050600182168061174557607f821691505b6020821081141561175957611758611790565b5b50919050565b611768826117ee565b810181811067ffffffffffffffff82111715611787576117866117bf565b5b80604052505050565b7f4e487b7100000000000000000000000000000000000000000000000000000000600052602260045260246000fd5b7f4e487b7100000000000000000000000000000000000000000000000000000000600052604160045260246000fd5b6000601f19601f8301169050919050565b7f496e76616c69642074696d657374616d70000000000000000000000000000000600082015250565b7f496e76616c69642066726f6d456e746974790000000000000000000000000000600082015250565b7f496e76616c69642074786e206964000000000000000000000000000000000000600082015250565b6118838161163f565b811461188e57600080fd5b50565b61189a81611651565b81146118a557600080fd5b50565b6118b18161165d565b81146118bc57600080fd5b50565b6118c881611687565b81146118d357600080fd5b5056fea26469706673582212200a1b45356b2e0dc904984e480e14608d034be34f21a449d0f12de66bfbc77dc364736f6c63430008030033",
  "immutableReferences": {},
  "source": "// SPDX-License-Identifier: GPL-3.0\r\n\r\npragma solidity >=0.5.0 <=0.8.4;\r\nimport \"./CredentialManager.sol\";\r\n\r\ncontract Inventory {\r\n\r\n    struct resourceTransaction {\r\n        bytes32 id;\r\n        address initiator;\r\n        address receiver;\r\n        string fromEntity; \r\n        string toEntity; \r\n        string entityLevel; \r\n        uint sentTimestamp; \r\n        uint receivedTimestamp;\r\n        uint[] resourceQuantities; //array of quantities where index is id of the resource\r\n        bool created;\r\n    }\r\n\r\n    mapping(bytes32=>resourceTransaction) public resourceTxns;\r\n    \r\n    event newTxn(\r\n        bytes32 txnId,\r\n        address indexed initiator,\r\n        string indexed fromEntityIndex, //stores keccak256 hash of the string. To filter, filter using hash(key)\r\n        string fromEntity,\r\n        uint fromEntityId,\r\n        string toEntity,\r\n        uint toEntityId,\r\n        string indexed entityLevel,\r\n        uint sentTimestamp,\r\n        uint receivedTimestamp,\r\n        uint[] resources,\r\n        uint statusCode\r\n    );\r\n\r\n    event AckTxn(\r\n        bytes32 txnId,\r\n        uint receivedTimestamp,\r\n        address receiver,\r\n        uint statusCode\r\n    );\r\n\r\n    event errorAckTxn (\r\n        bytes32 txnId,\r\n        uint receivedTimestamp,\r\n        address receiver,\r\n        uint statusCode\r\n    );\r\n    \r\n    \r\n    function sendTxn(string memory _fromEntity, uint _fromEntityId, string memory _toEntity, uint _toEntityId, string memory _level, uint  _sentTimestamp, uint _receivedTimestamp, uint[] memory _resourceQuantities, address _credManagerAddress) public {\r\n        \r\n        CredentialManager cm = CredentialManager(_credManagerAddress);\r\n        require(bytes(_fromEntity).length>0, \"Invalid fromEntity\");\r\n        \r\n        bytes32 txnId = keccak256(abi.encode(_fromEntity,_toEntity,_level,_sentTimestamp));        \r\n        string memory fromEntity = _fromEntity; \r\n        uint fromEntityId = _fromEntityId;\r\n        string memory toEntity = _toEntity;\r\n        uint toEntityId = _toEntityId;\r\n        uint sentTimestamp = _sentTimestamp;\r\n        uint[] memory resourceQuantities = _resourceQuantities;\r\n        uint receivedTimestamp;\r\n        if(keccak256(bytes(_level)) == keccak256(bytes(\"Distn. Point\")))\r\n            receivedTimestamp = _sentTimestamp;\r\n        else    \r\n            receivedTimestamp = _receivedTimestamp;\r\n        \r\n        if(!cm.authorizeSigner(_level, msg.sender, fromEntityId))\r\n            emit newTxn(txnId, msg.sender, fromEntity, fromEntity, fromEntityId, toEntity, toEntityId, _level, sentTimestamp, receivedTimestamp, resourceQuantities, 401);\r\n\r\n        else\r\n        {\r\n            resourceTxns[txnId] = resourceTransaction(txnId, msg.sender, address(0), fromEntity, toEntity, _level, sentTimestamp, receivedTimestamp, _resourceQuantities, true);\r\n            emit newTxn(txnId, msg.sender, fromEntity, fromEntity, fromEntityId, toEntity, toEntityId, _level, sentTimestamp, receivedTimestamp, resourceQuantities, 200);\r\n        }\r\n    }\r\n    \r\n    function acknowledgeTxn(bytes32 _txnId, uint _recvdTimestamp, uint _entityId, string memory _level, address _credManagerAddress) public {\r\n        require(_recvdTimestamp>0, \"Invalid timestamp\");\r\n        if(!resourceTxns[_txnId].created)\r\n            emit errorAckTxn(_txnId, _recvdTimestamp, msg.sender,400);\r\n        else {\r\n            if(resourceTxns[_txnId].receivedTimestamp!=0) \r\n                emit errorAckTxn(_txnId, _recvdTimestamp, msg.sender, 4010);\r\n            CredentialManager cm = CredentialManager(_credManagerAddress);\r\n            if(!cm.authorizeSigner(_level, msg.sender, _entityId))\r\n                emit errorAckTxn(_txnId, _recvdTimestamp, msg.sender, 4011);\r\n            else\r\n            {\r\n                resourceTransaction storage txn = resourceTxns[_txnId];\r\n                txn.receivedTimestamp = _recvdTimestamp;\r\n                txn.receiver = msg.sender;\r\n                emit AckTxn(_txnId, _recvdTimestamp, msg.sender, 200);\r\n            }\r\n        }             \r\n    }\r\n    \r\n    function getTxnResources(bytes32 _txnId) public view returns(uint[] memory) {\r\n        require(resourceTxns[_txnId].created==true, \"Invalid txn id\");\r\n        return resourceTxns[_txnId].resourceQuantities;\r\n    }\r\n}",
  "sourcePath": "F:/Prjcts/Capstone/identify/contracts/Inventory.sol",
  "compiler": {
    "name": "solc",
    "version": "0.8.3+commit.8d00100c.Emscripten.clang"
  },
  "schemaVersion": "3.3.3",
  "updatedAt": "2021-05-08T08:27:53.697Z",
  "networkType": "ethereum",
  "devdoc": {
    "kind": "dev",
    "methods": {},
    "version": 1
  },
  "userdoc": {
    "kind": "user",
    "methods": {},
    "version": 1
  }
}