{
  "contractName": "Inventory",
  "abi": [
    {
      "anonymous": false,
      "inputs": [
        {
          "indexed": false,
          "internalType": "bytes32",
          "name": "txnId",
          "type": "bytes32"
        },
        {
          "indexed": false,
          "internalType": "uint256",
          "name": "receivedTimestamp",
          "type": "uint256"
        },
        {
          "indexed": false,
          "internalType": "address",
          "name": "receiver",
          "type": "address"
        },
        {
          "indexed": false,
          "internalType": "uint256",
          "name": "statusCode",
          "type": "uint256"
        }
      ],
      "name": "AckTxn",
      "type": "event"
    },
    {
      "anonymous": false,
      "inputs": [
        {
          "indexed": false,
          "internalType": "bytes32",
          "name": "txnId",
          "type": "bytes32"
        },
        {
          "indexed": false,
          "internalType": "uint256",
          "name": "receivedTimestamp",
          "type": "uint256"
        },
        {
          "indexed": false,
          "internalType": "address",
          "name": "receiver",
          "type": "address"
        },
        {
          "indexed": false,
          "internalType": "uint256",
          "name": "statusCode",
          "type": "uint256"
        }
      ],
      "name": "errorAckTxn",
      "type": "event"
    },
    {
      "anonymous": false,
      "inputs": [
        {
          "indexed": false,
          "internalType": "bytes32",
          "name": "txnId",
          "type": "bytes32"
        },
        {
          "indexed": true,
          "internalType": "address",
          "name": "initiator",
          "type": "address"
        },
        {
          "indexed": true,
          "internalType": "string",
          "name": "fromEntityIndex",
          "type": "string"
        },
        {
          "indexed": false,
          "internalType": "string",
          "name": "fromEntity",
          "type": "string"
        },
        {
          "indexed": false,
          "internalType": "string",
          "name": "toEntity",
          "type": "string"
        },
        {
          "indexed": true,
          "internalType": "string",
          "name": "entityLevel",
          "type": "string"
        },
        {
          "indexed": false,
          "internalType": "uint256",
          "name": "sentTimestamp",
          "type": "uint256"
        },
        {
          "indexed": false,
          "internalType": "uint256",
          "name": "receivedTimestamp",
          "type": "uint256"
        },
        {
          "indexed": false,
          "internalType": "uint256[]",
          "name": "resources",
          "type": "uint256[]"
        },
        {
          "indexed": false,
          "internalType": "uint256",
          "name": "statusCode",
          "type": "uint256"
        }
      ],
      "name": "newTxn",
      "type": "event"
    },
    {
      "inputs": [
        {
          "internalType": "bytes32",
          "name": "",
          "type": "bytes32"
        }
      ],
      "name": "resourceTxns",
      "outputs": [
        {
          "internalType": "bytes32",
          "name": "id",
          "type": "bytes32"
        },
        {
          "internalType": "address",
          "name": "initiator",
          "type": "address"
        },
        {
          "internalType": "address",
          "name": "receiver",
          "type": "address"
        },
        {
          "internalType": "string",
          "name": "fromEntity",
          "type": "string"
        },
        {
          "internalType": "string",
          "name": "toEntity",
          "type": "string"
        },
        {
          "internalType": "string",
          "name": "entityLevel",
          "type": "string"
        },
        {
          "internalType": "uint256",
          "name": "sentTimestamp",
          "type": "uint256"
        },
        {
          "internalType": "uint256",
          "name": "receivedTimestamp",
          "type": "uint256"
        },
        {
          "internalType": "bool",
          "name": "created",
          "type": "bool"
        }
      ],
      "stateMutability": "view",
      "type": "function",
      "constant": true
    },
    {
      "inputs": [
        {
          "internalType": "string",
          "name": "_fromEntity",
          "type": "string"
        },
        {
          "internalType": "uint256",
          "name": "_fromEntityId",
          "type": "uint256"
        },
        {
          "internalType": "string",
          "name": "_toEntity",
          "type": "string"
        },
        {
          "internalType": "string",
          "name": "_level",
          "type": "string"
        },
        {
          "internalType": "uint256",
          "name": "_sentTimestamp",
          "type": "uint256"
        },
        {
          "internalType": "uint256",
          "name": "_receivedTimestamp",
          "type": "uint256"
        },
        {
          "internalType": "uint256[]",
          "name": "_resourceQuantities",
          "type": "uint256[]"
        },
        {
          "internalType": "address",
          "name": "_credManagerAddress",
          "type": "address"
        }
      ],
      "name": "sendTxn",
      "outputs": [],
      "stateMutability": "nonpayable",
      "type": "function"
    },
    {
      "inputs": [
        {
          "internalType": "bytes32",
          "name": "_txnId",
          "type": "bytes32"
        },
        {
          "internalType": "uint256",
          "name": "_recvdTimestamp",
          "type": "uint256"
        },
        {
          "internalType": "uint256",
          "name": "_entityId",
          "type": "uint256"
        },
        {
          "internalType": "string",
          "name": "_level",
          "type": "string"
        },
        {
          "internalType": "address",
          "name": "_credManagerAddress",
          "type": "address"
        }
      ],
      "name": "acknowledgeTxn",
      "outputs": [],
      "stateMutability": "nonpayable",
      "type": "function"
    },
    {
      "inputs": [
        {
          "internalType": "bytes32",
          "name": "_txnId",
          "type": "bytes32"
        }
      ],
      "name": "getTxnResources",
      "outputs": [
        {
          "internalType": "uint256[]",
          "name": "",
          "type": "uint256[]"
        }
      ],
      "stateMutability": "view",
      "type": "function",
      "constant": true
    }
  ],
  "bytecode": "0x608060405234801561001057600080fd5b5061188f806100206000396000f3fe608060405234801561001057600080fd5b506004361061004c5760003560e01c80631c722ffb146100515780633bb98e3514610089578063db6d530e146100b9578063f1fbdd2f146100d5575b600080fd5b61006b60048036038101906100669190610d48565b6100f1565b6040516100809998979695949392919061112a565b60405180910390f35b6100a3600480360381019061009e9190610d48565b610324565b6040516100b09190611108565b60405180910390f35b6100d360048036038101906100ce9190610d71565b6103fa565b005b6100ef60048036038101906100ea9190610e00565b61068a565b005b60006020528060005260406000206000915090508060000154908060010160009054906101000a900473ffffffffffffffffffffffffffffffffffffffff16908060020160009054906101000a900473ffffffffffffffffffffffffffffffffffffffff1690806003018054610166906116b0565b80601f0160208091040260200160405190810160405280929190818152602001828054610192906116b0565b80156101df5780601f106101b4576101008083540402835291602001916101df565b820191906000526020600020905b8154815290600101906020018083116101c257829003601f168201915b5050505050908060040180546101f4906116b0565b80601f0160208091040260200160405190810160405280929190818152602001828054610220906116b0565b801561026d5780601f106102425761010080835404028352916020019161026d565b820191906000526020600020905b81548152906001019060200180831161025057829003601f168201915b505050505090806005018054610282906116b0565b80601f01602080910402602001604051908101604052809291908181526020018280546102ae906116b0565b80156102fb5780601f106102d0576101008083540402835291602001916102fb565b820191906000526020600020905b8154815290600101906020018083116102de57829003601f168201915b5050505050908060060154908060070154908060090160009054906101000a900460ff16905089565b60606001151560008084815260200190815260200160002060090160009054906101000a900460ff1615151461038f576040517f08c379a0000000000000000000000000000000000000000000000000000000008152600401610386906114c0565b60405180910390fd5b6000808381526020019081526020016000206008018054806020026020016040519081016040528092919081815260200182805480156103ee57602002820191906000526020600020905b8154815260200190600101908083116103da575b50505050509050919050565b6000841161043d576040517f08c379a000000000000000000000000000000000000000000000000000000000815260040161043490611480565b60405180910390fd5b60008086815260200190815260200160002060090160009054906101000a900460ff166104a8577fa028032e2f791877c3c121bc2e800ca601982d7fdd265a6d6499acfa7f39b18185853361019060405161049b9493929190611319565b60405180910390a1610683565b60008060008781526020019081526020016000206007015414610505577fa028032e2f791877c3c121bc2e800ca601982d7fdd265a6d6499acfa7f39b181858533610faa6040516104fc949392919061135e565b60405180910390a15b60008190508073ffffffffffffffffffffffffffffffffffffffff1663daa3b67b8433876040518463ffffffff1660e01b8152600401610547939291906113e8565b60206040518083038186803b15801561055f57600080fd5b505afa158015610573573d6000803e3d6000fd5b505050506040513d601f19601f820116820180604052508101906105979190610d1f565b6105df577fa028032e2f791877c3c121bc2e800ca601982d7fdd265a6d6499acfa7f39b181868633610fab6040516105d294939291906113a3565b60405180910390a1610681565b60008060008881526020019081526020016000209050858160070181905550338160020160006101000a81548173ffffffffffffffffffffffffffffffffffffffff021916908373ffffffffffffffffffffffffffffffffffffffff1602179055507f198279c15db5a6a80681ccdbc3c4f4fc2a14d8caef5bfeb03a19b96a1dbddf1e87873360c860405161067794939291906112d4565b60405180910390a1505b505b5050505050565b600081905060008951116106d3576040517f08c379a00000000000000000000000000000000000000000000000000000000081526004016106ca906114a0565b60405180910390fd5b6000898888886040516020016106ec9493929190611426565b60405160208183030381529060405280519060200120905060006040518060400160405280600c81526020017f446973746e2e20506f696e74000000000000000000000000000000000000000081525080519060200120888051906020012014156107595786905061075d565b8590505b8273ffffffffffffffffffffffffffffffffffffffff1663daa3b67b89338d6040518463ffffffff1660e01b815260040161079a939291906113e8565b60206040518083038186803b1580156107b257600080fd5b505afa1580156107c6573d6000803e3d6000fd5b505050506040513d601f19601f820116820180604052508101906107ea9190610d1f565b61087b57876040516107fc91906110f1565b60405180910390208b60405161081291906110f1565b60405180910390203373ffffffffffffffffffffffffffffffffffffffff167f5e949d7b4f554333384c4c7fad774b1e4b74c543fcf2e8cfd0c791983c803c4a858f8e8d888d61019160405161086e9796959493929190611250565b60405180910390a4610ad0565b6040518061014001604052808381526020013373ffffffffffffffffffffffffffffffffffffffff168152602001600073ffffffffffffffffffffffffffffffffffffffff1681526020018c81526020018a8152602001898152602001888152602001828152602001868152602001600115158152506000808481526020019081526020016000206000820151816000015560208201518160010160006101000a81548173ffffffffffffffffffffffffffffffffffffffff021916908373ffffffffffffffffffffffffffffffffffffffff16021790555060408201518160020160006101000a81548173ffffffffffffffffffffffffffffffffffffffff021916908373ffffffffffffffffffffffffffffffffffffffff16021790555060608201518160030190805190602001906109b7929190610add565b5060808201518160040190805190602001906109d4929190610add565b5060a08201518160050190805190602001906109f1929190610add565b5060c0820151816006015560e08201518160070155610100820151816008019080519060200190610a23929190610b63565b506101208201518160090160006101000a81548160ff02191690831515021790555090505087604051610a5691906110f1565b60405180910390208b604051610a6c91906110f1565b60405180910390203373ffffffffffffffffffffffffffffffffffffffff167f5e949d7b4f554333384c4c7fad774b1e4b74c543fcf2e8cfd0c791983c803c4a858f8e8d888d60c8604051610ac797969594939291906111cc565b60405180910390a45b5050505050505050505050565b828054610ae9906116b0565b90600052602060002090601f016020900481019282610b0b5760008555610b52565b82601f10610b2457805160ff1916838001178555610b52565b82800160010185558215610b52579182015b82811115610b51578251825591602001919060010190610b36565b5b509050610b5f9190610bb0565b5090565b828054828255906000526020600020908101928215610b9f579160200282015b82811115610b9e578251825591602001919060010190610b83565b5b509050610bac9190610bb0565b5090565b5b80821115610bc9576000816000905550600101610bb1565b5090565b6000610be0610bdb84611505565b6114e0565b90508083825260208201905082856020860282011115610bff57600080fd5b60005b85811015610c2f5781610c158882610d0a565b845260208401935060208301925050600181019050610c02565b5050509392505050565b6000610c4c610c4784611531565b6114e0565b905082815260208101848484011115610c6457600080fd5b610c6f84828561166e565b509392505050565b600081359050610c86816117fd565b92915050565b600082601f830112610c9d57600080fd5b8135610cad848260208601610bcd565b91505092915050565b600081519050610cc581611814565b92915050565b600081359050610cda8161182b565b92915050565b600082601f830112610cf157600080fd5b8135610d01848260208601610c39565b91505092915050565b600081359050610d1981611842565b92915050565b600060208284031215610d3157600080fd5b6000610d3f84828501610cb6565b91505092915050565b600060208284031215610d5a57600080fd5b6000610d6884828501610ccb565b91505092915050565b600080600080600060a08688031215610d8957600080fd5b6000610d9788828901610ccb565b9550506020610da888828901610d0a565b9450506040610db988828901610d0a565b935050606086013567ffffffffffffffff811115610dd657600080fd5b610de288828901610ce0565b9250506080610df388828901610c77565b9150509295509295909350565b600080600080600080600080610100898b031215610e1d57600080fd5b600089013567ffffffffffffffff811115610e3757600080fd5b610e438b828c01610ce0565b9850506020610e548b828c01610d0a565b975050604089013567ffffffffffffffff811115610e7157600080fd5b610e7d8b828c01610ce0565b965050606089013567ffffffffffffffff811115610e9a57600080fd5b610ea68b828c01610ce0565b9550506080610eb78b828c01610d0a565b94505060a0610ec88b828c01610d0a565b93505060c089013567ffffffffffffffff811115610ee557600080fd5b610ef18b828c01610c8c565b92505060e0610f028b828c01610c77565b9150509295985092959890939650565b6000610f1e83836110d3565b60208301905092915050565b610f33816115c2565b82525050565b6000610f4482611572565b610f4e8185611595565b9350610f5983611562565b8060005b83811015610f8a578151610f718882610f12565b9750610f7c83611588565b925050600181019050610f5d565b5085935050505092915050565b610fa0816115d4565b82525050565b610faf816115e0565b82525050565b610fbe81611614565b82525050565b610fcd81611626565b82525050565b610fdc81611638565b82525050565b610feb8161164a565b82525050565b610ffa8161165c565b82525050565b600061100b8261157d565b61101581856115a6565b935061102581856020860161167d565b61102e81611771565b840191505092915050565b60006110448261157d565b61104e81856115b7565b935061105e81856020860161167d565b80840191505092915050565b60006110776011836115a6565b915061108282611782565b602082019050919050565b600061109a6012836115a6565b91506110a5826117ab565b602082019050919050565b60006110bd600e836115a6565b91506110c8826117d4565b602082019050919050565b6110dc8161160a565b82525050565b6110eb8161160a565b82525050565b60006110fd8284611039565b915081905092915050565b600060208201905081810360008301526111228184610f39565b905092915050565b600061012082019050611140600083018c610fa6565b61114d602083018b610f2a565b61115a604083018a610f2a565b818103606083015261116c8189611000565b905081810360808301526111808188611000565b905081810360a08301526111948187611000565b90506111a360c08301866110e2565b6111b060e08301856110e2565b6111be610100830184610f97565b9a9950505050505050505050565b600060e0820190506111e1600083018a610fa6565b81810360208301526111f38189611000565b905081810360408301526112078188611000565b905061121660608301876110e2565b61122360808301866110e2565b81810360a08301526112358185610f39565b905061124460c0830184610fb5565b98975050505050505050565b600060e082019050611265600083018a610fa6565b81810360208301526112778189611000565b9050818103604083015261128b8188611000565b905061129a60608301876110e2565b6112a760808301866110e2565b81810360a08301526112b98185610f39565b90506112c860c0830184610ff1565b98975050505050505050565b60006080820190506112e96000830187610fa6565b6112f660208301866110e2565b6113036040830185610f2a565b6113106060830184610fb5565b95945050505050565b600060808201905061132e6000830187610fa6565b61133b60208301866110e2565b6113486040830185610f2a565b6113556060830184610fc4565b95945050505050565b60006080820190506113736000830187610fa6565b61138060208301866110e2565b61138d6040830185610f2a565b61139a6060830184610fd3565b95945050505050565b60006080820190506113b86000830187610fa6565b6113c560208301866110e2565b6113d26040830185610f2a565b6113df6060830184610fe2565b95945050505050565b600060608201905081810360008301526114028186611000565b90506114116020830185610f2a565b61141e60408301846110e2565b949350505050565b600060808201905081810360008301526114408187611000565b905081810360208301526114548186611000565b905081810360408301526114688185611000565b905061147760608301846110e2565b95945050505050565b600060208201905081810360008301526114998161106a565b9050919050565b600060208201905081810360008301526114b98161108d565b9050919050565b600060208201905081810360008301526114d9816110b0565b9050919050565b60006114ea6114fb565b90506114f682826116e2565b919050565b6000604051905090565b600067ffffffffffffffff8211156115205761151f611742565b5b602082029050602081019050919050565b600067ffffffffffffffff82111561154c5761154b611742565b5b61155582611771565b9050602081019050919050565b6000819050602082019050919050565b600081519050919050565b600081519050919050565b6000602082019050919050565b600082825260208201905092915050565b600082825260208201905092915050565b600081905092915050565b60006115cd826115ea565b9050919050565b60008115159050919050565b6000819050919050565b600073ffffffffffffffffffffffffffffffffffffffff82169050919050565b6000819050919050565b600061161f8261160a565b9050919050565b60006116318261160a565b9050919050565b60006116438261160a565b9050919050565b60006116558261160a565b9050919050565b60006116678261160a565b9050919050565b82818337600083830152505050565b60005b8381101561169b578082015181840152602081019050611680565b838111156116aa576000848401525b50505050565b600060028204905060018216806116c857607f821691505b602082108114156116dc576116db611713565b5b50919050565b6116eb82611771565b810181811067ffffffffffffffff8211171561170a57611709611742565b5b80604052505050565b7f4e487b7100000000000000000000000000000000000000000000000000000000600052602260045260246000fd5b7f4e487b7100000000000000000000000000000000000000000000000000000000600052604160045260246000fd5b6000601f19601f8301169050919050565b7f496e76616c69642074696d657374616d70000000000000000000000000000000600082015250565b7f496e76616c69642066726f6d456e746974790000000000000000000000000000600082015250565b7f496e76616c69642074786e206964000000000000000000000000000000000000600082015250565b611806816115c2565b811461181157600080fd5b50565b61181d816115d4565b811461182857600080fd5b50565b611834816115e0565b811461183f57600080fd5b50565b61184b8161160a565b811461185657600080fd5b5056fea2646970667358221220cd3b9b0b5ea71b40f7960e772b496c7b7cd161c8e155865df46328dacd8fb56264736f6c63430008030033",
  "immutableReferences": {},
  "source": "// SPDX-License-Identifier: GPL-3.0\r\n\r\npragma solidity >=0.5.0 <=0.8.3;\r\nimport \"./CredentialManager.sol\";\r\n\r\ncontract Inventory {\r\n\r\n    struct resourceTransaction {\r\n        bytes32 id;\r\n        address initiator;\r\n        address receiver;\r\n        string fromEntity; \r\n        string toEntity; \r\n        string entityLevel; \r\n        uint sentTimestamp; \r\n        uint receivedTimestamp;\r\n        uint[] resourceQuantities; //array of quantities where index is id of the resource\r\n        bool created;\r\n    }\r\n\r\n    mapping(bytes32=>resourceTransaction) public resourceTxns;\r\n    \r\n    event newTxn(\r\n        bytes32 txnId,\r\n        address indexed initiator,\r\n        string indexed fromEntityIndex, //stores keccak256 hash of the string. To filter, filter using hash(key)\r\n        string fromEntity,\r\n        string toEntity,\r\n        string indexed entityLevel,\r\n        uint sentTimestamp,\r\n        uint receivedTimestamp,\r\n        uint[] resources,\r\n        uint statusCode\r\n    );\r\n\r\n    event AckTxn(\r\n        bytes32 txnId,\r\n        uint receivedTimestamp,\r\n        address receiver,\r\n        uint statusCode\r\n    );\r\n\r\n    event errorAckTxn (\r\n        bytes32 txnId,\r\n        uint receivedTimestamp,\r\n        address receiver,\r\n        uint statusCode\r\n    );\r\n    \r\n    \r\n    function sendTxn(string memory _fromEntity, uint _fromEntityId, string memory _toEntity, string memory _level, uint  _sentTimestamp, uint _receivedTimestamp, uint[] memory _resourceQuantities, address _credManagerAddress) public {\r\n        \r\n        CredentialManager cm = CredentialManager(_credManagerAddress);\r\n        require(bytes(_fromEntity).length>0, \"Invalid fromEntity\");\r\n        \r\n        bytes32 txnId = keccak256(abi.encode(_fromEntity,_toEntity,_level,_sentTimestamp));        \r\n        uint receivedTimestamp;\r\n        \r\n        if(keccak256(bytes(_level)) == keccak256(bytes(\"Distn. Point\")))\r\n            receivedTimestamp = _sentTimestamp;\r\n        else    \r\n            receivedTimestamp = _receivedTimestamp;\r\n        \r\n        if(!cm.authorizeSigner(_level, msg.sender, _fromEntityId))\r\n            emit newTxn(txnId, msg.sender, _fromEntity, _fromEntity, _toEntity, _level, _sentTimestamp, receivedTimestamp, _resourceQuantities, 401);\r\n\r\n        else\r\n        {\r\n            resourceTxns[txnId] = resourceTransaction(txnId, msg.sender, address(0),_fromEntity, _toEntity,_level, _sentTimestamp, receivedTimestamp, _resourceQuantities, true);\r\n            emit newTxn(txnId, msg.sender, _fromEntity, _fromEntity, _toEntity, _level, _sentTimestamp, receivedTimestamp, _resourceQuantities, 200);\r\n        }\r\n    }\r\n    \r\n    function acknowledgeTxn(bytes32 _txnId, uint _recvdTimestamp, uint _entityId, string memory _level, address _credManagerAddress) public {\r\n        require(_recvdTimestamp>0, \"Invalid timestamp\");\r\n        if(!resourceTxns[_txnId].created)\r\n            emit errorAckTxn(_txnId, _recvdTimestamp, msg.sender,400);\r\n        else {\r\n            if(resourceTxns[_txnId].receivedTimestamp!=0) \r\n                emit errorAckTxn(_txnId, _recvdTimestamp, msg.sender, 4010);\r\n            CredentialManager cm = CredentialManager(_credManagerAddress);\r\n            if(!cm.authorizeSigner(_level, msg.sender, _entityId))\r\n                emit errorAckTxn(_txnId, _recvdTimestamp, msg.sender, 4011);\r\n            else\r\n            {\r\n                resourceTransaction storage txn = resourceTxns[_txnId];\r\n                txn.receivedTimestamp = _recvdTimestamp;\r\n                txn.receiver = msg.sender;\r\n                emit AckTxn(_txnId, _recvdTimestamp, msg.sender, 200);\r\n            }\r\n        }             \r\n    }\r\n    \r\n    function getTxnResources(bytes32 _txnId) public view returns(uint[] memory) {\r\n        require(resourceTxns[_txnId].created==true, \"Invalid txn id\");\r\n        return resourceTxns[_txnId].resourceQuantities;\r\n    }\r\n}",
  "sourcePath": "F:/Prjcts/Capstone/identify/contracts/Inventory.sol",
  "compiler": {
    "name": "solc",
    "version": "0.8.3+commit.8d00100c.Emscripten.clang"
  },
  "schemaVersion": "3.3.3",
  "updatedAt": "2021-04-19T07:19:37.006Z",
  "networkType": "ethereum",
  "devdoc": {
    "kind": "dev",
    "methods": {},
    "version": 1
  },
  "userdoc": {
    "kind": "user",
    "methods": {},
    "version": 1
  }
}