{
  "contractName": "Inventory",
  "abi": [
    {
      "anonymous": false,
      "inputs": [
        {
          "indexed": false,
          "internalType": "bytes32",
          "name": "txnId",
          "type": "bytes32"
        },
        {
          "indexed": false,
          "internalType": "uint256",
          "name": "receivedTimestamp",
          "type": "uint256"
        },
        {
          "indexed": false,
          "internalType": "address",
          "name": "receiver",
          "type": "address"
        }
      ],
      "name": "AckTxn",
      "type": "event"
    },
    {
      "anonymous": false,
      "inputs": [
        {
          "indexed": false,
          "internalType": "bytes32",
          "name": "txnId",
          "type": "bytes32"
        },
        {
          "indexed": true,
          "internalType": "address",
          "name": "initiator",
          "type": "address"
        },
        {
          "indexed": true,
          "internalType": "string",
          "name": "fromEntityIndex",
          "type": "string"
        },
        {
          "indexed": false,
          "internalType": "string",
          "name": "fromEntity",
          "type": "string"
        },
        {
          "indexed": false,
          "internalType": "string",
          "name": "toEntity",
          "type": "string"
        },
        {
          "indexed": true,
          "internalType": "string",
          "name": "entityLevel",
          "type": "string"
        },
        {
          "indexed": false,
          "internalType": "uint256",
          "name": "sentTimestamp",
          "type": "uint256"
        },
        {
          "indexed": false,
          "internalType": "uint256",
          "name": "receivedTimestamp",
          "type": "uint256"
        },
        {
          "indexed": false,
          "internalType": "string",
          "name": "beneficiary",
          "type": "string"
        },
        {
          "indexed": false,
          "internalType": "uint256[]",
          "name": "resources",
          "type": "uint256[]"
        }
      ],
      "name": "newTxn",
      "type": "event"
    },
    {
      "inputs": [
        {
          "internalType": "bytes32",
          "name": "",
          "type": "bytes32"
        }
      ],
      "name": "resourceTxns",
      "outputs": [
        {
          "internalType": "bytes32",
          "name": "id",
          "type": "bytes32"
        },
        {
          "internalType": "address",
          "name": "initiator",
          "type": "address"
        },
        {
          "internalType": "address",
          "name": "receiver",
          "type": "address"
        },
        {
          "internalType": "string",
          "name": "beneficiary",
          "type": "string"
        },
        {
          "internalType": "string",
          "name": "fromEntity",
          "type": "string"
        },
        {
          "internalType": "string",
          "name": "toEntity",
          "type": "string"
        },
        {
          "internalType": "string",
          "name": "entityLevel",
          "type": "string"
        },
        {
          "internalType": "uint256",
          "name": "sentTimestamp",
          "type": "uint256"
        },
        {
          "internalType": "uint256",
          "name": "receivedTimestamp",
          "type": "uint256"
        },
        {
          "internalType": "bool",
          "name": "created",
          "type": "bool"
        }
      ],
      "stateMutability": "view",
      "type": "function",
      "constant": true
    },
    {
      "inputs": [
        {
          "internalType": "string",
          "name": "_beneficiary",
          "type": "string"
        },
        {
          "internalType": "string",
          "name": "_fromEntity",
          "type": "string"
        },
        {
          "internalType": "uint256",
          "name": "_fromEntityId",
          "type": "uint256"
        },
        {
          "internalType": "string",
          "name": "_toEntity",
          "type": "string"
        },
        {
          "internalType": "string",
          "name": "_level",
          "type": "string"
        },
        {
          "internalType": "uint256",
          "name": "_sentTimestamp",
          "type": "uint256"
        },
        {
          "internalType": "uint256",
          "name": "_receivedTimestamp",
          "type": "uint256"
        },
        {
          "internalType": "uint256[]",
          "name": "_resourceQuantities",
          "type": "uint256[]"
        },
        {
          "internalType": "address",
          "name": "_credManagerAddress",
          "type": "address"
        }
      ],
      "name": "sendTxn",
      "outputs": [
        {
          "internalType": "uint256",
          "name": "",
          "type": "uint256"
        },
        {
          "internalType": "bytes32",
          "name": "",
          "type": "bytes32"
        }
      ],
      "stateMutability": "nonpayable",
      "type": "function"
    },
    {
      "inputs": [
        {
          "internalType": "bytes32",
          "name": "_txnId",
          "type": "bytes32"
        },
        {
          "internalType": "uint256",
          "name": "_recvdTimestamp",
          "type": "uint256"
        }
      ],
      "name": "acknowledgeTxn",
      "outputs": [],
      "stateMutability": "nonpayable",
      "type": "function"
    },
    {
      "inputs": [
        {
          "internalType": "bytes32",
          "name": "_txnId",
          "type": "bytes32"
        }
      ],
      "name": "getTxnResources",
      "outputs": [
        {
          "internalType": "uint256[]",
          "name": "",
          "type": "uint256[]"
        }
      ],
      "stateMutability": "view",
      "type": "function",
      "constant": true
    }
  ],
  "bytecode": "0x608060405234801561001057600080fd5b506116cd806100206000396000f3fe608060405234801561001057600080fd5b506004361061004c5760003560e01c80631c722ffb146100515780633bb98e351461008a5780638893daba146100ba57806398dfcdc3146100eb575b600080fd5b61006b60048036038101906100669190610d6d565b610107565b6040516100819a999897969594939291906110dd565b60405180910390f35b6100a4600480360381019061009f9190610d6d565b6103c8565b6040516100b191906110bb565b60405180910390f35b6100d460048036038101906100cf9190610dd2565b61049e565b6040516100e292919061134f565b60405180910390f35b61010560048036038101906101009190610d96565b61093c565b005b60006020528060005260406000206000915090508060000154908060010160009054906101000a900473ffffffffffffffffffffffffffffffffffffffff16908060020160009054906101000a900473ffffffffffffffffffffffffffffffffffffffff169080600301805461017c906114ee565b80601f01602080910402602001604051908101604052809291908181526020018280546101a8906114ee565b80156101f55780601f106101ca576101008083540402835291602001916101f5565b820191906000526020600020905b8154815290600101906020018083116101d857829003601f168201915b50505050509080600401805461020a906114ee565b80601f0160208091040260200160405190810160405280929190818152602001828054610236906114ee565b80156102835780601f1061025857610100808354040283529160200191610283565b820191906000526020600020905b81548152906001019060200180831161026657829003601f168201915b505050505090806005018054610298906114ee565b80601f01602080910402602001604051908101604052809291908181526020018280546102c4906114ee565b80156103115780601f106102e657610100808354040283529160200191610311565b820191906000526020600020905b8154815290600101906020018083116102f457829003601f168201915b505050505090806006018054610326906114ee565b80601f0160208091040260200160405190810160405280929190818152602001828054610352906114ee565b801561039f5780601f106103745761010080835404028352916020019161039f565b820191906000526020600020905b81548152906001019060200180831161038257829003601f168201915b50505050509080600701549080600801549080600a0160009054906101000a900460ff1690508a565b606060011515600080848152602001908152602001600020600a0160009054906101000a900460ff16151514610433576040517f08c379a000000000000000000000000000000000000000000000000000000000815260040161042a9061132f565b60405180910390fd5b60008083815260200190815260200160002060090180548060200260200160405190810160405280929190818152602001828054801561049257602002820191906000526020600020905b81548152602001906001019080831161047e575b50505050509050919050565b60008060008390506000808273ffffffffffffffffffffffffffffffffffffffff1663daa3b67b8b338f6040518463ffffffff1660e01b81526004016104e693929190611257565b60206040518083038186803b1580156104fe57600080fd5b505afa158015610512573d6000803e3d6000fd5b505050506040513d601f19601f820116820180604052508101906105369190610d44565b6105515761019191506000905081819450945050505061092e565b60008d5111610595576040517f08c379a000000000000000000000000000000000000000000000000000000000815260040161058c9061130f565b60405180910390fd5b8c8b8b8b6040516020016105ac9493929190611295565b6040516020818303038152906040528051906020012090506105cc610a77565b8181600001818152505033816020019073ffffffffffffffffffffffffffffffffffffffff16908173ffffffffffffffffffffffffffffffffffffffff16815250506040518060400160405280600c81526020017f646973747269627574696f6e0000000000000000000000000000000000000000815250805190602001208e805190602001201415610663578e81606001819052505b8d81608001819052508b8160a001819052508a8160c00181905250898160e00181815250506040518060400160405280600c81526020017f646973747269627574696f6e0000000000000000000000000000000000000000815250805190602001208e8051906020012014156106df5788816101000181815250505b60018161014001901515908115158152505087816101200181905250806000808481526020019081526020016000206000820151816000015560208201518160010160006101000a81548173ffffffffffffffffffffffffffffffffffffffff021916908373ffffffffffffffffffffffffffffffffffffffff16021790555060408201518160020160006101000a81548173ffffffffffffffffffffffffffffffffffffffff021916908373ffffffffffffffffffffffffffffffffffffffff16021790555060608201518160030190805190602001906107c2929190610b02565b5060808201518160040190805190602001906107df929190610b02565b5060a08201518160050190805190602001906107fc929190610b02565b5060c0820151816006019080519060200190610819929190610b02565b5060e08201518160070155610100820151816008015561012082015181600901908051906020019061084c929190610b88565b5061014082015181600a0160006101000a81548160ff02191690831515021790555090505060008f905060c893508160c0015160405161088c91906110a4565b604051809103902082608001516040516108a691906110a4565b60405180910390203373ffffffffffffffffffffffffffffffffffffffff167f8bff07876c58088ad5e20296911231723b868a29d3a7fc2995c4c83201a11f96856000015186608001518760a001518860e00151896101000151898b610120015160405161091a9796959493929190611195565b60405180910390a483839650965050505050505b995099975050505050505050565b600080838152602001908152602001600020600a0160009054906101000a900460ff16610992577f4e487b7100000000000000000000000000000000000000000000000000000000600052600160045260246000fd5b600081116109d5576040517f08c379a00000000000000000000000000000000000000000000000000000000081526004016109cc906112ef565b60405180910390fd5b60008060008481526020019081526020016000209050818160080181905550338160020160006101000a81548173ffffffffffffffffffffffffffffffffffffffff021916908373ffffffffffffffffffffffffffffffffffffffff1602179055507fd4f400cd2e2fcb0786d5df3c869e3846b2fbddca4e4e235f75e9aff574820502838333604051610a6a93929190611220565b60405180910390a1505050565b60405180610160016040528060008019168152602001600073ffffffffffffffffffffffffffffffffffffffff168152602001600073ffffffffffffffffffffffffffffffffffffffff168152602001606081526020016060815260200160608152602001606081526020016000815260200160008152602001606081526020016000151581525090565b828054610b0e906114ee565b90600052602060002090601f016020900481019282610b305760008555610b77565b82601f10610b4957805160ff1916838001178555610b77565b82800160010185558215610b77579182015b82811115610b76578251825591602001919060010190610b5b565b5b509050610b849190610bd5565b5090565b828054828255906000526020600020908101928215610bc4579160200282015b82811115610bc3578251825591602001919060010190610ba8565b5b509050610bd19190610bd5565b5090565b5b80821115610bee576000816000905550600101610bd6565b5090565b6000610c05610c008461139d565b611378565b90508083825260208201905082856020860282011115610c2457600080fd5b60005b85811015610c545781610c3a8882610d2f565b845260208401935060208301925050600181019050610c27565b5050509392505050565b6000610c71610c6c846113c9565b611378565b905082815260208101848484011115610c8957600080fd5b610c948482856114ac565b509392505050565b600081359050610cab8161163b565b92915050565b600082601f830112610cc257600080fd5b8135610cd2848260208601610bf2565b91505092915050565b600081519050610cea81611652565b92915050565b600081359050610cff81611669565b92915050565b600082601f830112610d1657600080fd5b8135610d26848260208601610c5e565b91505092915050565b600081359050610d3e81611680565b92915050565b600060208284031215610d5657600080fd5b6000610d6484828501610cdb565b91505092915050565b600060208284031215610d7f57600080fd5b6000610d8d84828501610cf0565b91505092915050565b60008060408385031215610da957600080fd5b6000610db785828601610cf0565b9250506020610dc885828601610d2f565b9150509250929050565b60008060008060008060008060006101208a8c031215610df157600080fd5b60008a013567ffffffffffffffff811115610e0b57600080fd5b610e178c828d01610d05565b99505060208a013567ffffffffffffffff811115610e3457600080fd5b610e408c828d01610d05565b9850506040610e518c828d01610d2f565b97505060608a013567ffffffffffffffff811115610e6e57600080fd5b610e7a8c828d01610d05565b96505060808a013567ffffffffffffffff811115610e9757600080fd5b610ea38c828d01610d05565b95505060a0610eb48c828d01610d2f565b94505060c0610ec58c828d01610d2f565b93505060e08a013567ffffffffffffffff811115610ee257600080fd5b610eee8c828d01610cb1565b925050610100610f008c828d01610c9c565b9150509295985092959850929598565b6000610f1c8383611086565b60208301905092915050565b610f318161145a565b82525050565b6000610f428261140a565b610f4c818561142d565b9350610f57836113fa565b8060005b83811015610f88578151610f6f8882610f10565b9750610f7a83611420565b925050600181019050610f5b565b5085935050505092915050565b610f9e8161146c565b82525050565b610fad81611478565b82525050565b6000610fbe82611415565b610fc8818561143e565b9350610fd88185602086016114bb565b610fe1816115af565b840191505092915050565b6000610ff782611415565b611001818561144f565b93506110118185602086016114bb565b80840191505092915050565b600061102a60118361143e565b9150611035826115c0565b602082019050919050565b600061104d60128361143e565b9150611058826115e9565b602082019050919050565b6000611070600e8361143e565b915061107b82611612565b602082019050919050565b61108f816114a2565b82525050565b61109e816114a2565b82525050565b60006110b08284610fec565b915081905092915050565b600060208201905081810360008301526110d58184610f37565b905092915050565b6000610140820190506110f3600083018d610fa4565b611100602083018c610f28565b61110d604083018b610f28565b818103606083015261111f818a610fb3565b905081810360808301526111338189610fb3565b905081810360a08301526111478188610fb3565b905081810360c083015261115b8187610fb3565b905061116a60e0830186611095565b611178610100830185611095565b611186610120830184610f95565b9b9a5050505050505050505050565b600060e0820190506111aa600083018a610fa4565b81810360208301526111bc8189610fb3565b905081810360408301526111d08188610fb3565b90506111df6060830187611095565b6111ec6080830186611095565b81810360a08301526111fe8185610fb3565b905081810360c08301526112128184610f37565b905098975050505050505050565b60006060820190506112356000830186610fa4565b6112426020830185611095565b61124f6040830184610f28565b949350505050565b600060608201905081810360008301526112718186610fb3565b90506112806020830185610f28565b61128d6040830184611095565b949350505050565b600060808201905081810360008301526112af8187610fb3565b905081810360208301526112c38186610fb3565b905081810360408301526112d78185610fb3565b90506112e66060830184611095565b95945050505050565b600060208201905081810360008301526113088161101d565b9050919050565b6000602082019050818103600083015261132881611040565b9050919050565b6000602082019050818103600083015261134881611063565b9050919050565b60006040820190506113646000830185611095565b6113716020830184610fa4565b9392505050565b6000611382611393565b905061138e8282611520565b919050565b6000604051905090565b600067ffffffffffffffff8211156113b8576113b7611580565b5b602082029050602081019050919050565b600067ffffffffffffffff8211156113e4576113e3611580565b5b6113ed826115af565b9050602081019050919050565b6000819050602082019050919050565b600081519050919050565b600081519050919050565b6000602082019050919050565b600082825260208201905092915050565b600082825260208201905092915050565b600081905092915050565b600061146582611482565b9050919050565b60008115159050919050565b6000819050919050565b600073ffffffffffffffffffffffffffffffffffffffff82169050919050565b6000819050919050565b82818337600083830152505050565b60005b838110156114d95780820151818401526020810190506114be565b838111156114e8576000848401525b50505050565b6000600282049050600182168061150657607f821691505b6020821081141561151a57611519611551565b5b50919050565b611529826115af565b810181811067ffffffffffffffff8211171561154857611547611580565b5b80604052505050565b7f4e487b7100000000000000000000000000000000000000000000000000000000600052602260045260246000fd5b7f4e487b7100000000000000000000000000000000000000000000000000000000600052604160045260246000fd5b6000601f19601f8301169050919050565b7f496e76616c69642074696d657374616d70000000000000000000000000000000600082015250565b7f496e76616c69642066726f6d456e746974790000000000000000000000000000600082015250565b7f496e76616c69642074786e206964000000000000000000000000000000000000600082015250565b6116448161145a565b811461164f57600080fd5b50565b61165b8161146c565b811461166657600080fd5b50565b61167281611478565b811461167d57600080fd5b50565b611689816114a2565b811461169457600080fd5b5056fea2646970667358221220b769d3409f673a69c53be6cd4e7c312f36506096211692ddaeedb3384ecb165064736f6c63430008030033",
  "immutableReferences": {},
  "source": "// SPDX-License-Identifier: GPL-3.0\r\n\r\npragma solidity >=0.5.0 <=0.8.3;\r\nimport \"./CredentialManager.sol\";\r\n\r\ncontract Inventory {\r\n\r\n    struct resourceTransaction {\r\n        bytes32 id;\r\n        address initiator;\r\n        address receiver;\r\n        string beneficiary;\r\n        string fromEntity; \r\n        string toEntity; \r\n        string entityLevel; \r\n        uint sentTimestamp; \r\n        uint receivedTimestamp;\r\n        uint[] resourceQuantities; //array of quantities where index is id of the resource\r\n        bool created;\r\n    }\r\n\r\n    mapping(bytes32=>resourceTransaction) public resourceTxns;\r\n    \r\n    event newTxn(\r\n        bytes32 txnId,\r\n        address indexed initiator,\r\n        string indexed fromEntityIndex, //stores keccak256 hash of the string. To filter, filter using hash(key)\r\n        string fromEntity,\r\n        string toEntity,\r\n        string indexed entityLevel,\r\n        uint sentTimestamp,\r\n        uint receivedTimestamp,\r\n        string beneficiary,\r\n        uint[] resources\r\n    );\r\n\r\n    event AckTxn(\r\n        bytes32 txnId,\r\n        uint receivedTimestamp,\r\n        address receiver\r\n    );\r\n    \r\n    \r\n    function sendTxn(string memory _beneficiary, string memory _fromEntity, uint _fromEntityId, string memory _toEntity, string memory _level, uint  _sentTimestamp, uint _receivedTimestamp, uint[] memory _resourceQuantities, address _credManagerAddress) public returns(uint,bytes32){\r\n        \r\n        CredentialManager cm = CredentialManager(_credManagerAddress);\r\n        uint statusCode;\r\n        bytes32 txnId;\r\n        if(!cm.authorizeSigner(_level, msg.sender, _fromEntityId))\r\n        {\r\n            statusCode = 401;\r\n            txnId = \"\";\r\n            return (statusCode, txnId);\r\n        }\r\n        require(bytes(_fromEntity).length>0, \"Invalid fromEntity\");\r\n        txnId = keccak256(abi.encode(_fromEntity,_toEntity,_level,_sentTimestamp));\r\n        resourceTransaction memory rtx;\r\n        rtx.id = txnId;\r\n        rtx.initiator = msg.sender;\r\n        if(keccak256(bytes(_fromEntity)) == keccak256(bytes(\"distribution\")))\r\n        rtx.beneficiary = _beneficiary;\r\n        rtx.fromEntity = _fromEntity;\r\n        rtx.toEntity = _toEntity;\r\n        rtx.entityLevel = _level;\r\n        rtx.sentTimestamp = _sentTimestamp;\r\n        if(keccak256(bytes(_fromEntity)) == keccak256(bytes(\"distribution\")))\r\n        rtx.receivedTimestamp = _receivedTimestamp;\r\n        rtx.created = true;\r\n        rtx.resourceQuantities = _resourceQuantities;\r\n        resourceTxns[txnId] = rtx;\r\n        string memory beneficiary = _beneficiary;\r\n        statusCode = 200;\r\n        emit newTxn(rtx.id, msg.sender, rtx.fromEntity, rtx.fromEntity, rtx.toEntity, rtx.entityLevel, rtx.sentTimestamp, rtx.receivedTimestamp, beneficiary, rtx.resourceQuantities);\r\n        return (statusCode,txnId);\r\n    }\r\n    \r\n    function acknowledgeTxn(bytes32 _txnId, uint _recvdTimestamp) public {\r\n        assert(resourceTxns[_txnId].created);\r\n        require(_recvdTimestamp>0, \"Invalid timestamp\");\r\n        \r\n        resourceTransaction storage txn = resourceTxns[_txnId];\r\n        txn.receivedTimestamp = _recvdTimestamp;\r\n        txn.receiver = msg.sender;\r\n\r\n        emit AckTxn(_txnId, _recvdTimestamp, msg.sender);\r\n    }\r\n    \r\n    function getTxnResources(bytes32 _txnId) public view returns(uint[] memory) {\r\n        require(resourceTxns[_txnId].created==true, \"Invalid txn id\");\r\n        return resourceTxns[_txnId].resourceQuantities;\r\n    }\r\n}",
  "sourcePath": "F:/Prjcts/Capstone/identify/contracts/Inventory.sol",
  "compiler": {
    "name": "solc",
    "version": "0.8.3+commit.8d00100c.Emscripten.clang"
  },
  "schemaVersion": "3.3.3",
  "updatedAt": "2021-04-17T15:00:44.351Z",
  "networkType": "ethereum",
  "devdoc": {
    "kind": "dev",
    "methods": {},
    "version": 1
  },
  "userdoc": {
    "kind": "user",
    "methods": {},
    "version": 1
  }
}