{
  "contractName": "Inventory",
  "abi": [
    {
      "anonymous": false,
      "inputs": [
        {
          "indexed": false,
          "internalType": "bytes32",
          "name": "txnId",
          "type": "bytes32"
        },
        {
          "indexed": false,
          "internalType": "uint256",
          "name": "receivedTimestamp",
          "type": "uint256"
        },
        {
          "indexed": false,
          "internalType": "string",
          "name": "receiver",
          "type": "string"
        },
        {
          "indexed": false,
          "internalType": "uint256",
          "name": "statusCode",
          "type": "uint256"
        }
      ],
      "name": "AckTxn",
      "type": "event"
    },
    {
      "anonymous": false,
      "inputs": [
        {
          "indexed": false,
          "internalType": "bytes32",
          "name": "txnId",
          "type": "bytes32"
        },
        {
          "indexed": false,
          "internalType": "uint256",
          "name": "receivedTimestamp",
          "type": "uint256"
        },
        {
          "indexed": false,
          "internalType": "string",
          "name": "receiver",
          "type": "string"
        },
        {
          "indexed": false,
          "internalType": "uint256",
          "name": "statusCode",
          "type": "uint256"
        }
      ],
      "name": "errorAckTxn",
      "type": "event"
    },
    {
      "anonymous": false,
      "inputs": [
        {
          "indexed": false,
          "internalType": "bytes32",
          "name": "txnId",
          "type": "bytes32"
        },
        {
          "indexed": false,
          "internalType": "string",
          "name": "initiator",
          "type": "string"
        },
        {
          "indexed": true,
          "internalType": "string",
          "name": "initiatorIndex",
          "type": "string"
        },
        {
          "indexed": true,
          "internalType": "string",
          "name": "fromEntityIndex",
          "type": "string"
        },
        {
          "indexed": false,
          "internalType": "string",
          "name": "fromEntity",
          "type": "string"
        },
        {
          "indexed": false,
          "internalType": "uint256",
          "name": "fromEntityId",
          "type": "uint256"
        },
        {
          "indexed": false,
          "internalType": "string",
          "name": "toEntity",
          "type": "string"
        },
        {
          "indexed": false,
          "internalType": "uint256",
          "name": "toEntityId",
          "type": "uint256"
        },
        {
          "indexed": true,
          "internalType": "string",
          "name": "entityLevel",
          "type": "string"
        },
        {
          "indexed": false,
          "internalType": "uint256",
          "name": "sentTimestamp",
          "type": "uint256"
        },
        {
          "indexed": false,
          "internalType": "uint256",
          "name": "receivedTimestamp",
          "type": "uint256"
        },
        {
          "indexed": false,
          "internalType": "uint256[]",
          "name": "resources",
          "type": "uint256[]"
        },
        {
          "indexed": false,
          "internalType": "uint256",
          "name": "statusCode",
          "type": "uint256"
        }
      ],
      "name": "newTxn",
      "type": "event"
    },
    {
      "inputs": [
        {
          "internalType": "bytes32",
          "name": "",
          "type": "bytes32"
        }
      ],
      "name": "resourceTxns",
      "outputs": [
        {
          "internalType": "bytes32",
          "name": "id",
          "type": "bytes32"
        },
        {
          "internalType": "string",
          "name": "initiator",
          "type": "string"
        },
        {
          "internalType": "string",
          "name": "receiver",
          "type": "string"
        },
        {
          "internalType": "string",
          "name": "fromEntity",
          "type": "string"
        },
        {
          "internalType": "string",
          "name": "toEntity",
          "type": "string"
        },
        {
          "internalType": "string",
          "name": "entityLevel",
          "type": "string"
        },
        {
          "internalType": "uint256",
          "name": "sentTimestamp",
          "type": "uint256"
        },
        {
          "internalType": "uint256",
          "name": "receivedTimestamp",
          "type": "uint256"
        },
        {
          "internalType": "bool",
          "name": "created",
          "type": "bool"
        }
      ],
      "stateMutability": "view",
      "type": "function",
      "constant": true
    },
    {
      "inputs": [
        {
          "internalType": "string",
          "name": "_initiator",
          "type": "string"
        },
        {
          "internalType": "string",
          "name": "_password",
          "type": "string"
        },
        {
          "internalType": "string",
          "name": "_fromEntity",
          "type": "string"
        },
        {
          "internalType": "uint256",
          "name": "_fromEntityId",
          "type": "uint256"
        },
        {
          "internalType": "string",
          "name": "_toEntity",
          "type": "string"
        },
        {
          "internalType": "uint256",
          "name": "_toEntityId",
          "type": "uint256"
        },
        {
          "internalType": "string",
          "name": "_level",
          "type": "string"
        },
        {
          "internalType": "uint256",
          "name": "_sentTimestamp",
          "type": "uint256"
        },
        {
          "internalType": "uint256",
          "name": "_receivedTimestamp",
          "type": "uint256"
        },
        {
          "internalType": "uint256[]",
          "name": "_resourceQuantities",
          "type": "uint256[]"
        },
        {
          "internalType": "address",
          "name": "_credManagerAddress",
          "type": "address"
        }
      ],
      "name": "sendTxn",
      "outputs": [],
      "stateMutability": "nonpayable",
      "type": "function"
    },
    {
      "inputs": [
        {
          "internalType": "string",
          "name": "_reciever",
          "type": "string"
        },
        {
          "internalType": "bytes32",
          "name": "_txnId",
          "type": "bytes32"
        },
        {
          "internalType": "uint256",
          "name": "_recvdTimestamp",
          "type": "uint256"
        },
        {
          "internalType": "uint256",
          "name": "_entityId",
          "type": "uint256"
        },
        {
          "internalType": "string",
          "name": "_level",
          "type": "string"
        },
        {
          "internalType": "address",
          "name": "_credManagerAddress",
          "type": "address"
        }
      ],
      "name": "acknowledgeTxn",
      "outputs": [],
      "stateMutability": "nonpayable",
      "type": "function"
    },
    {
      "inputs": [
        {
          "internalType": "bytes32",
          "name": "_txnId",
          "type": "bytes32"
        }
      ],
      "name": "getTxnResources",
      "outputs": [
        {
          "internalType": "uint256[]",
          "name": "",
          "type": "uint256[]"
        }
      ],
      "stateMutability": "view",
      "type": "function",
      "constant": true
    }
  ],
  "bytecode": "0x608060405234801561001057600080fd5b50611a47806100206000396000f3fe608060405234801561001057600080fd5b506004361061004c5760003560e01c806309a69884146100515780631c722ffb1461006d5780633bb98e35146100a5578063b33bebf3146100d5575b600080fd5b61006b60048036038101906100669190610e86565b6100f1565b005b61008760048036038101906100829190610e5d565b610358565b60405161009c999897969594939291906112b9565b60405180910390f35b6100bf60048036038101906100ba9190610e5d565b61065b565b6040516100cc9190611297565b60405180910390f35b6100ef60048036038101906100ea9190610f3f565b610731565b005b60008411610134576040517f08c379a000000000000000000000000000000000000000000000000000000000815260040161012b9061164a565b60405180910390fd5b60008086815260200190815260200160002060090160009054906101000a900460ff1661019f577fd3ef5f98afc19d4d31faa554d53adffa9ab5601bf28e9980f0e197beaee799aa858588610190604051610192949392919061146d565b60405180910390a1610350565b600080600087815260200190815260200160002060070154146101fc577fd3ef5f98afc19d4d31faa554d53adffa9ab5601bf28e9980f0e197beaee799aa858588610faa6040516101f394939291906114b9565b60405180910390a15b60008190508073ffffffffffffffffffffffffffffffffffffffff1663e340d7ad8489876040518463ffffffff1660e01b815260040161023e939291906115ab565b60206040518083038186803b15801561025657600080fd5b505afa15801561026a573d6000803e3d6000fd5b505050506040513d601f19601f8201168201806040525081019061028e9190610e34565b6102d6577fd3ef5f98afc19d4d31faa554d53adffa9ab5601bf28e9980f0e197beaee799aa868689610fab6040516102c99493929190611505565b60405180910390a161034e565b600080600088815260200190815260200160002090508581600701819055508781600201908051906020019061030d929190610bf2565b507fa2a1d6c07ddbee00f0c4e1e285f63d17f60b1a783cd429037a47a992b3836c3087878a60c86040516103449493929190611421565b60405180910390a1505b505b505050505050565b600060205280600052604060002060009150905080600001549080600101805461038190611868565b80601f01602080910402602001604051908101604052809291908181526020018280546103ad90611868565b80156103fa5780601f106103cf576101008083540402835291602001916103fa565b820191906000526020600020905b8154815290600101906020018083116103dd57829003601f168201915b50505050509080600201805461040f90611868565b80601f016020809104026020016040519081016040528092919081815260200182805461043b90611868565b80156104885780601f1061045d57610100808354040283529160200191610488565b820191906000526020600020905b81548152906001019060200180831161046b57829003601f168201915b50505050509080600301805461049d90611868565b80601f01602080910402602001604051908101604052809291908181526020018280546104c990611868565b80156105165780601f106104eb57610100808354040283529160200191610516565b820191906000526020600020905b8154815290600101906020018083116104f957829003601f168201915b50505050509080600401805461052b90611868565b80601f016020809104026020016040519081016040528092919081815260200182805461055790611868565b80156105a45780601f10610579576101008083540402835291602001916105a4565b820191906000526020600020905b81548152906001019060200180831161058757829003601f168201915b5050505050908060050180546105b990611868565b80601f01602080910402602001604051908101604052809291908181526020018280546105e590611868565b80156106325780601f1061060757610100808354040283529160200191610632565b820191906000526020600020905b81548152906001019060200180831161061557829003601f168201915b5050505050908060060154908060070154908060090160009054906101000a900460ff16905089565b60606001151560008084815260200190815260200160002060090160009054906101000a900460ff161515146106c6576040517f08c379a00000000000000000000000000000000000000000000000000000000081526004016106bd9061168a565b60405180910390fd5b60008083815260200190815260200160002060080180548060200260200160405190810160405280929190818152602001828054801561072557602002820191906000526020600020905b815481526020019060010190808311610711575b50505050509050919050565b600081905060008a511161077a576040517f08c379a00000000000000000000000000000000000000000000000000000000081526004016107719061166a565b60405180910390fd5b60006040518061016001604052808c8b8a8a60405160200161079f9493929190611551565b6040516020818303038152906040528051906020012081526020018e81526020018c81526020018b81526020018a81526020018981526020018881526020018781526020018581526020018681526020018d81525090506000806040518060400160405280600c81526020017f446973746e2e20506f696e74000000000000000000000000000000000000000081525080519060200120898051906020012014156108f2578260e0015191508373ffffffffffffffffffffffffffffffffffffffff16638f7cc8778460c00151856020015186606001518761014001516040518563ffffffff1660e01b815260040161089b94939291906115f0565b60206040518083038186803b1580156108b357600080fd5b505afa1580156108c7573d6000803e3d6000fd5b505050506040513d601f19601f820116820180604052508101906108eb9190610e34565b9050610996565b82610120015191508373ffffffffffffffffffffffffffffffffffffffff1663e340d7ad8460c00151856020015186606001516040518463ffffffff1660e01b8152600401610943939291906115ab565b60206040518083038186803b15801561095b57600080fd5b505afa15801561096f573d6000803e3d6000fd5b505050506040513d601f19601f820116820180604052508101906109939190610e34565b90505b6000816109a7576101919050610b28565b604051806101400160405280856000015181526020018560200151815260200160405180602001604052806000815250815260200185604001518152602001856080015181526020018560c0015181526020018560e00151815260200184815260200185610100015181526020016001151581525060008086600001518152602001908152602001600020600082015181600001556020820151816001019080519060200190610a58929190610bf2565b506040820151816002019080519060200190610a75929190610bf2565b506060820151816003019080519060200190610a92929190610bf2565b506080820151816004019080519060200190610aaf929190610bf2565b5060a0820151816005019080519060200190610acc929190610bf2565b5060c0820151816006015560e08201518160070155610100820151816008019080519060200190610afe929190610c78565b506101208201518160090160006101000a81548160ff02191690831515021790555090505060c890505b8360c00151604051610b3a9190611280565b60405180910390208460400151604051610b549190611280565b60405180910390208560200151604051610b6e9190611280565b60405180910390207f798be8f85cc3c6c9b401c8798d0124e430662fe1ba5aca2f8a772fe73652074f8760000151886020015189604001518a606001518b608001518c60a001518d60e001518d8f61010001518d604051610bd89a99989796959493929190611369565b60405180910390a450505050505050505050505050505050565b828054610bfe90611868565b90600052602060002090601f016020900481019282610c205760008555610c67565b82601f10610c3957805160ff1916838001178555610c67565b82800160010185558215610c67579182015b82811115610c66578251825591602001919060010190610c4b565b5b509050610c749190610cc5565b5090565b828054828255906000526020600020908101928215610cb4579160200282015b82811115610cb3578251825591602001919060010190610c98565b5b509050610cc19190610cc5565b5090565b5b80821115610cde576000816000905550600101610cc6565b5090565b6000610cf5610cf0846116cf565b6116aa565b90508083825260208201905082856020860282011115610d1457600080fd5b60005b85811015610d445781610d2a8882610e1f565b845260208401935060208301925050600181019050610d17565b5050509392505050565b6000610d61610d5c846116fb565b6116aa565b905082815260208101848484011115610d7957600080fd5b610d84848285611826565b509392505050565b600081359050610d9b816119b5565b92915050565b600082601f830112610db257600080fd5b8135610dc2848260208601610ce2565b91505092915050565b600081519050610dda816119cc565b92915050565b600081359050610def816119e3565b92915050565b600082601f830112610e0657600080fd5b8135610e16848260208601610d4e565b91505092915050565b600081359050610e2e816119fa565b92915050565b600060208284031215610e4657600080fd5b6000610e5484828501610dcb565b91505092915050565b600060208284031215610e6f57600080fd5b6000610e7d84828501610de0565b91505092915050565b60008060008060008060c08789031215610e9f57600080fd5b600087013567ffffffffffffffff811115610eb957600080fd5b610ec589828a01610df5565b9650506020610ed689828a01610de0565b9550506040610ee789828a01610e1f565b9450506060610ef889828a01610e1f565b935050608087013567ffffffffffffffff811115610f1557600080fd5b610f2189828a01610df5565b92505060a0610f3289828a01610d8c565b9150509295509295509295565b60008060008060008060008060008060006101608c8e031215610f6157600080fd5b60008c013567ffffffffffffffff811115610f7b57600080fd5b610f878e828f01610df5565b9b505060208c013567ffffffffffffffff811115610fa457600080fd5b610fb08e828f01610df5565b9a505060408c013567ffffffffffffffff811115610fcd57600080fd5b610fd98e828f01610df5565b9950506060610fea8e828f01610e1f565b98505060808c013567ffffffffffffffff81111561100757600080fd5b6110138e828f01610df5565b97505060a06110248e828f01610e1f565b96505060c08c013567ffffffffffffffff81111561104157600080fd5b61104d8e828f01610df5565b95505060e061105e8e828f01610e1f565b9450506101006110708e828f01610e1f565b9350506101208c013567ffffffffffffffff81111561108e57600080fd5b61109a8e828f01610da1565b9250506101406110ac8e828f01610d8c565b9150509295989b509295989b9093969950565b60006110cb8383611262565b60208301905092915050565b60006110e28261173c565b6110ec818561175f565b93506110f78361172c565b8060005b8381101561112857815161110f88826110bf565b975061111a83611752565b9250506001810190506110fb565b5085935050505092915050565b61113e8161179e565b82525050565b61114d816117aa565b82525050565b61115c816117de565b82525050565b61116b816117f0565b82525050565b61117a81611802565b82525050565b61118981611814565b82525050565b600061119a82611747565b6111a48185611770565b93506111b4818560208601611835565b6111bd81611929565b840191505092915050565b60006111d382611747565b6111dd8185611781565b93506111ed818560208601611835565b80840191505092915050565b6000611206601183611770565b91506112118261193a565b602082019050919050565b6000611229601283611770565b915061123482611963565b602082019050919050565b600061124c600e83611770565b91506112578261198c565b602082019050919050565b61126b816117d4565b82525050565b61127a816117d4565b82525050565b600061128c82846111c8565b915081905092915050565b600060208201905081810360008301526112b181846110d7565b905092915050565b6000610120820190506112cf600083018c611144565b81810360208301526112e1818b61118f565b905081810360408301526112f5818a61118f565b90508181036060830152611309818961118f565b9050818103608083015261131d818861118f565b905081810360a0830152611331818761118f565b905061134060c0830186611271565b61134d60e0830185611271565b61135b610100830184611135565b9a9950505050505050505050565b60006101408201905061137f600083018d611144565b8181036020830152611391818c61118f565b905081810360408301526113a5818b61118f565b90506113b4606083018a611271565b81810360808301526113c6818961118f565b90506113d560a0830188611271565b6113e260c0830187611271565b6113ef60e0830186611271565b81810361010083015261140281856110d7565b9050611412610120830184611271565b9b9a5050505050505050505050565b60006080820190506114366000830187611144565b6114436020830186611271565b8181036040830152611455818561118f565b90506114646060830184611153565b95945050505050565b60006080820190506114826000830187611144565b61148f6020830186611271565b81810360408301526114a1818561118f565b90506114b06060830184611162565b95945050505050565b60006080820190506114ce6000830187611144565b6114db6020830186611271565b81810360408301526114ed818561118f565b90506114fc6060830184611171565b95945050505050565b600060808201905061151a6000830187611144565b6115276020830186611271565b8181036040830152611539818561118f565b90506115486060830184611180565b95945050505050565b6000608082019050818103600083015261156b818761118f565b9050818103602083015261157f818661118f565b90508181036040830152611593818561118f565b90506115a26060830184611271565b95945050505050565b600060608201905081810360008301526115c5818661118f565b905081810360208301526115d9818561118f565b90506115e86040830184611271565b949350505050565b6000608082019050818103600083015261160a818761118f565b9050818103602083015261161e818661118f565b905061162d6040830185611271565b818103606083015261163f818461118f565b905095945050505050565b60006020820190508181036000830152611663816111f9565b9050919050565b600060208201905081810360008301526116838161121c565b9050919050565b600060208201905081810360008301526116a38161123f565b9050919050565b60006116b46116c5565b90506116c0828261189a565b919050565b6000604051905090565b600067ffffffffffffffff8211156116ea576116e96118fa565b5b602082029050602081019050919050565b600067ffffffffffffffff821115611716576117156118fa565b5b61171f82611929565b9050602081019050919050565b6000819050602082019050919050565b600081519050919050565b600081519050919050565b6000602082019050919050565b600082825260208201905092915050565b600082825260208201905092915050565b600081905092915050565b6000611797826117b4565b9050919050565b60008115159050919050565b6000819050919050565b600073ffffffffffffffffffffffffffffffffffffffff82169050919050565b6000819050919050565b60006117e9826117d4565b9050919050565b60006117fb826117d4565b9050919050565b600061180d826117d4565b9050919050565b600061181f826117d4565b9050919050565b82818337600083830152505050565b60005b83811015611853578082015181840152602081019050611838565b83811115611862576000848401525b50505050565b6000600282049050600182168061188057607f821691505b60208210811415611894576118936118cb565b5b50919050565b6118a382611929565b810181811067ffffffffffffffff821117156118c2576118c16118fa565b5b80604052505050565b7f4e487b7100000000000000000000000000000000000000000000000000000000600052602260045260246000fd5b7f4e487b7100000000000000000000000000000000000000000000000000000000600052604160045260246000fd5b6000601f19601f8301169050919050565b7f496e76616c69642074696d657374616d70000000000000000000000000000000600082015250565b7f496e76616c69642066726f6d456e746974790000000000000000000000000000600082015250565b7f496e76616c69642074786e206964000000000000000000000000000000000000600082015250565b6119be8161178c565b81146119c957600080fd5b50565b6119d58161179e565b81146119e057600080fd5b50565b6119ec816117aa565b81146119f757600080fd5b50565b611a03816117d4565b8114611a0e57600080fd5b5056fea264697066735822122046fca92f6f74139414a1c322e23a8e432a2f31cc6d81ae1a6ee2b46ba1b8b6b764736f6c63430008030033",
  "immutableReferences": {},
  "source": "// SPDX-License-Identifier: GPL-3.0\r\n\r\npragma solidity >=0.5.0 <=0.8.4;\r\nimport \"./CredentialManager.sol\";\r\n\r\ncontract Inventory {\r\n\r\n    struct resourceTransaction {\r\n        bytes32 id;\r\n        string initiator;\r\n        string receiver;\r\n        string fromEntity; \r\n        string toEntity; \r\n        string entityLevel; \r\n        uint sentTimestamp; \r\n        uint receivedTimestamp;\r\n        uint[] resourceQuantities; //array of quantities where index is id of the resource\r\n        bool created;\r\n    }\r\n\r\n    mapping(bytes32=>resourceTransaction) public resourceTxns;\r\n    \r\n    event newTxn(\r\n        bytes32 txnId,\r\n        string initiator,\r\n        string indexed initiatorIndex,\r\n        string indexed fromEntityIndex, //stores keccak256 hash of the string. To filter, filter using hash(key)\r\n        string fromEntity,\r\n        uint fromEntityId,\r\n        string toEntity,\r\n        uint toEntityId,\r\n        string indexed entityLevel,\r\n        uint sentTimestamp,\r\n        uint receivedTimestamp,\r\n        uint[] resources,\r\n        uint statusCode\r\n    );\r\n\r\n    event AckTxn(\r\n        bytes32 txnId,\r\n        uint receivedTimestamp,\r\n        string receiver,\r\n        uint statusCode\r\n    );\r\n\r\n    event errorAckTxn (\r\n        bytes32 txnId,\r\n        uint receivedTimestamp,\r\n        string receiver,\r\n        uint statusCode\r\n    );\r\n    \r\n    struct TempTxn {\r\n        bytes32 txnId;\r\n        string initiator;\r\n        string fromEntity;\r\n        uint fromEntityId;\r\n        string toEntity;\r\n        uint toEntityId;\r\n        string level;\r\n        uint sentTimestamp;\r\n        uint[] resourceQuantities;\r\n        uint receivedTimestamp;\r\n        string password;\r\n    }\r\n    \r\n    function sendTxn(\r\n        string memory _initiator, \r\n        string memory _password, \r\n        string memory _fromEntity,\r\n        uint _fromEntityId, \r\n        string memory _toEntity, \r\n        uint _toEntityId, \r\n        string memory _level,\r\n        uint  _sentTimestamp, \r\n        uint _receivedTimestamp, \r\n        uint[] memory _resourceQuantities, \r\n        address _credManagerAddress\r\n    ) public {\r\n        \r\n        CredentialManager cm = CredentialManager(_credManagerAddress);\r\n        require(bytes(_fromEntity).length>0, \"Invalid fromEntity\");\r\n        \r\n        TempTxn memory tempTxn = TempTxn(\r\n            keccak256(abi.encode(_fromEntity,_toEntity,_level,_sentTimestamp)), \r\n            _initiator,\r\n            _fromEntity,\r\n            _fromEntityId,\r\n            _toEntity,\r\n            _toEntityId,\r\n            _level,\r\n            _sentTimestamp,\r\n            _resourceQuantities,\r\n            _receivedTimestamp,\r\n            _password\r\n        );\r\n        \r\n        uint receivedTimestamp;\r\n        bool isAuthorized;\r\n        if(keccak256(bytes(_level)) == keccak256(bytes(\"Distn. Point\"))) \r\n        {\r\n            receivedTimestamp = tempTxn.sentTimestamp;\r\n            isAuthorized = cm.authorizeSigner(tempTxn.level, tempTxn.initiator, tempTxn.fromEntityId, tempTxn.password);\r\n        }\r\n        else\r\n        {\r\n            receivedTimestamp = tempTxn.receivedTimestamp;\r\n            isAuthorized = cm.authorizeSigner(tempTxn.level, tempTxn.initiator, tempTxn.fromEntityId);\r\n        }\r\n        \r\n        uint statusCode;\r\n        \r\n        if(!isAuthorized)\r\n        {\r\n            statusCode=401;\r\n        }\r\n        else {\r\n            resourceTxns[tempTxn.txnId] = resourceTransaction(\r\n                tempTxn.txnId, \r\n                tempTxn.initiator, \r\n                '', \r\n                tempTxn.fromEntity, \r\n                tempTxn.toEntity, \r\n                tempTxn.level, \r\n                tempTxn.sentTimestamp, \r\n                receivedTimestamp, \r\n                tempTxn.resourceQuantities, \r\n                true\r\n            );\r\n            statusCode = 200;\r\n        }\r\n        \r\n        emit newTxn(\r\n            tempTxn.txnId, \r\n            tempTxn.initiator, \r\n            tempTxn.initiator, \r\n            tempTxn.fromEntity, \r\n            tempTxn.fromEntity, \r\n            tempTxn.fromEntityId, \r\n            tempTxn.toEntity, \r\n            tempTxn.toEntityId, \r\n            tempTxn.level, \r\n            tempTxn.sentTimestamp, \r\n            receivedTimestamp, \r\n            tempTxn.resourceQuantities,\r\n            statusCode\r\n        );\r\n    }\r\n    \r\n    function acknowledgeTxn(\r\n        string memory _reciever, \r\n        bytes32 _txnId, \r\n        uint _recvdTimestamp, \r\n        uint _entityId, \r\n        string memory _level, \r\n        address _credManagerAddress\r\n    ) public {\r\n        require(_recvdTimestamp>0, \"Invalid timestamp\");\r\n        if(!resourceTxns[_txnId].created)\r\n            emit errorAckTxn(_txnId, _recvdTimestamp, _reciever,400);\r\n        else {\r\n            if(resourceTxns[_txnId].receivedTimestamp!=0) \r\n                emit errorAckTxn(_txnId, _recvdTimestamp, _reciever, 4010);\r\n            CredentialManager cm = CredentialManager(_credManagerAddress);\r\n            if(!cm.authorizeSigner(_level, _reciever, _entityId))\r\n                emit errorAckTxn(_txnId, _recvdTimestamp, _reciever, 4011);\r\n            else\r\n            {\r\n                resourceTransaction storage txn = resourceTxns[_txnId];\r\n                txn.receivedTimestamp = _recvdTimestamp;\r\n                txn.receiver = _reciever;\r\n                emit AckTxn(_txnId, _recvdTimestamp, _reciever, 200);\r\n            }\r\n        }             \r\n    }\r\n    \r\n    function getTxnResources(bytes32 _txnId) public view returns(uint[] memory) {\r\n        require(resourceTxns[_txnId].created==true, \"Invalid txn id\");\r\n        return resourceTxns[_txnId].resourceQuantities;\r\n    }\r\n}",
  "sourcePath": "F:/Prjcts/Capstone/identify/contracts/Inventory.sol",
  "compiler": {
    "name": "solc",
    "version": "0.8.3+commit.8d00100c.Emscripten.clang"
  },
  "schemaVersion": "3.3.3",
  "updatedAt": "2021-05-14T16:16:53.793Z",
  "networkType": "ethereum",
  "devdoc": {
    "kind": "dev",
    "methods": {},
    "version": 1
  },
  "userdoc": {
    "kind": "user",
    "methods": {},
    "version": 1
  }
}