{
  "contractName": "Resources",
  "abi": [
    {
      "inputs": [],
      "stateMutability": "nonpayable",
      "type": "constructor"
    },
    {
      "inputs": [
        {
          "internalType": "uint256",
          "name": "",
          "type": "uint256"
        }
      ],
      "name": "resourceList",
      "outputs": [
        {
          "internalType": "string",
          "name": "",
          "type": "string"
        }
      ],
      "stateMutability": "view",
      "type": "function",
      "constant": true
    },
    {
      "inputs": [],
      "name": "getResourceCount",
      "outputs": [
        {
          "internalType": "uint256",
          "name": "",
          "type": "uint256"
        }
      ],
      "stateMutability": "view",
      "type": "function",
      "constant": true
    },
    {
      "inputs": [
        {
          "internalType": "string",
          "name": "_resource",
          "type": "string"
        }
      ],
      "name": "addResourceToStock",
      "outputs": [],
      "stateMutability": "nonpayable",
      "type": "function"
    },
    {
      "inputs": [
        {
          "internalType": "uint256",
          "name": "_id",
          "type": "uint256"
        }
      ],
      "name": "getResourceInStock",
      "outputs": [
        {
          "internalType": "string",
          "name": "",
          "type": "string"
        }
      ],
      "stateMutability": "view",
      "type": "function",
      "constant": true
    },
    {
      "inputs": [],
      "name": "getResourceList",
      "outputs": [
        {
          "internalType": "string[]",
          "name": "",
          "type": "string[]"
        }
      ],
      "stateMutability": "view",
      "type": "function",
      "constant": true
    }
  ],
  "bytecode": "0x60806040523480156200001157600080fd5b50600080600181540180825580915050600190039060005260206000200160006040518060400160405280600381526020017f64616c00000000000000000000000000000000000000000000000000000000008152509091909150908051906020019062000081929190620001d8565b50600080600181540180825580915050600190039060005260206000200160006040518060400160405280600481526020017f726963650000000000000000000000000000000000000000000000000000000081525090919091509080519060200190620000f1929190620001d8565b50600080600181540180825580915050600190039060005260206000200160006040518060400160405280600581526020017f73756761720000000000000000000000000000000000000000000000000000008152509091909150908051906020019062000161929190620001d8565b50600080600181540180825580915050600190039060005260206000200160006040518060400160405280600581526020017f6d6f6e657900000000000000000000000000000000000000000000000000000081525090919091509080519060200190620001d1929190620001d8565b50620002ed565b828054620001e69062000288565b90600052602060002090601f0160209004810192826200020a576000855562000256565b82601f106200022557805160ff191683800117855562000256565b8280016001018555821562000256579182015b828111156200025557825182559160200191906001019062000238565b5b50905062000265919062000269565b5090565b5b80821115620002845760008160009055506001016200026a565b5090565b60006002820490506001821680620002a157607f821691505b60208210811415620002b857620002b7620002be565b5b50919050565b7f4e487b7100000000000000000000000000000000000000000000000000000000600052602260045260246000fd5b610a4480620002fd6000396000f3fe608060405234801561001057600080fd5b50600436106100575760003560e01c80632a0fe7ab1461005c5780632d1ef8e91461008c578063626dfb51146100a85780638845f373146100c65780639f96de0f146100f6575b600080fd5b610076600480360381019061007191906105b3565b610114565b604051610083919061074e565b60405180910390f35b6100a660048036038101906100a19190610572565b6101c0565b005b6100b0610243565b6040516100bd919061072c565b60405180910390f35b6100e060048036038101906100db91906105b3565b61031c565b6040516100ed919061074e565b60405180910390f35b6100fe610446565b60405161010b91906107b0565b60405180910390f35b6000818154811061012457600080fd5b90600052602060002001600091509050805461013f906108d3565b80601f016020809104026020016040519081016040528092919081815260200182805461016b906108d3565b80156101b85780601f1061018d576101008083540402835291602001916101b8565b820191906000526020600020905b81548152906001019060200180831161019b57829003601f168201915b505050505081565b6000815111610204576040517f08c379a00000000000000000000000000000000000000000000000000000000081526004016101fb90610790565b60405180910390fd5b60008190806001815401808255809150506001900390600052602060002001600090919091909150908051906020019061023f929190610452565b5050565b60606000805480602002602001604051908101604052809291908181526020016000905b82821015610313578382906000526020600020018054610286906108d3565b80601f01602080910402602001604051908101604052809291908181526020018280546102b2906108d3565b80156102ff5780601f106102d4576101008083540402835291602001916102ff565b820191906000526020600020905b8154815290600101906020018083116102e257829003601f168201915b505050505081526020019060010190610267565b50505050905090565b606060008210158015610333575060008054905082105b610372576040517f08c379a000000000000000000000000000000000000000000000000000000000815260040161036990610770565b60405180910390fd5b600082815481106103ac577f4e487b7100000000000000000000000000000000000000000000000000000000600052603260045260246000fd5b9060005260206000200180546103c1906108d3565b80601f01602080910402602001604051908101604052809291908181526020018280546103ed906108d3565b801561043a5780601f1061040f5761010080835404028352916020019161043a565b820191906000526020600020905b81548152906001019060200180831161041d57829003601f168201915b50505050509050919050565b60008080549050905090565b82805461045e906108d3565b90600052602060002090601f01602090048101928261048057600085556104c7565b82601f1061049957805160ff19168380011785556104c7565b828001600101855582156104c7579182015b828111156104c65782518255916020019190600101906104ab565b5b5090506104d491906104d8565b5090565b5b808211156104f15760008160009055506001016104d9565b5090565b6000610508610503846107f0565b6107cb565b90508281526020810184848401111561052057600080fd5b61052b848285610891565b509392505050565b600082601f83011261054457600080fd5b81356105548482602086016104f5565b91505092915050565b60008135905061056c816109f7565b92915050565b60006020828403121561058457600080fd5b600082013567ffffffffffffffff81111561059e57600080fd5b6105aa84828501610533565b91505092915050565b6000602082840312156105c557600080fd5b60006105d38482850161055d565b91505092915050565b60006105e88383610665565b905092915050565b60006105fb82610831565b6106058185610854565b93508360208202850161061785610821565b8060005b85811015610653578484038952815161063485826105dc565b945061063f83610847565b925060208a0199505060018101905061061b565b50829750879550505050505092915050565b60006106708261083c565b61067a8185610865565b935061068a8185602086016108a0565b61069381610994565b840191505092915050565b60006106a98261083c565b6106b38185610876565b93506106c38185602086016108a0565b6106cc81610994565b840191505092915050565b60006106e4601383610876565b91506106ef826109a5565b602082019050919050565b6000610707601083610876565b9150610712826109ce565b602082019050919050565b61072681610887565b82525050565b6000602082019050818103600083015261074681846105f0565b905092915050565b60006020820190508181036000830152610768818461069e565b905092915050565b60006020820190508181036000830152610789816106d7565b9050919050565b600060208201905081810360008301526107a9816106fa565b9050919050565b60006020820190506107c5600083018461071d565b92915050565b60006107d56107e6565b90506107e18282610905565b919050565b6000604051905090565b600067ffffffffffffffff82111561080b5761080a610965565b5b61081482610994565b9050602081019050919050565b6000819050602082019050919050565b600081519050919050565b600081519050919050565b6000602082019050919050565b600082825260208201905092915050565b600082825260208201905092915050565b600082825260208201905092915050565b6000819050919050565b82818337600083830152505050565b60005b838110156108be5780820151818401526020810190506108a3565b838111156108cd576000848401525b50505050565b600060028204905060018216806108eb57607f821691505b602082108114156108ff576108fe610936565b5b50919050565b61090e82610994565b810181811067ffffffffffffffff8211171561092d5761092c610965565b5b80604052505050565b7f4e487b7100000000000000000000000000000000000000000000000000000000600052602260045260246000fd5b7f4e487b7100000000000000000000000000000000000000000000000000000000600052604160045260246000fd5b6000601f19601f8301169050919050565b7f496e76616c6964207265736f7572636520696400000000000000000000000000600082015250565b7f496e76616c6964207265736f7572636500000000000000000000000000000000600082015250565b610a0081610887565b8114610a0b57600080fd5b5056fea2646970667358221220abd3b7db86fdb2ce2ac522aab294be6facaa6c850c7610bb06367ef0706c3a9e64736f6c63430008030033",
  "immutableReferences": {},
  "source": "// SPDX-License-Identifier: GPL-3.0\r\n\r\npragma solidity >=0.5.0 <=0.8.3;\r\n\r\ncontract Resources {\r\n    string[] public resourceList;\r\n    \r\n    constructor() {\r\n        resourceList.push(\"dal\"); \r\n        resourceList.push(\"rice\");\r\n        resourceList.push(\"sugar\");\r\n        resourceList.push(\"money\");\r\n    }\r\n    \r\n    function getResourceCount() public view returns(uint) {\r\n        return resourceList.length;\r\n    }\r\n    function addResourceToStock(string memory _resource) public{\r\n        require(bytes(_resource).length>0,\"Invalid resource\");\r\n        resourceList.push(_resource);\r\n    }\r\n    \r\n    function getResourceInStock(uint _id) public view returns(string memory) {\r\n        require(_id>=0 && _id<resourceList.length, \"Invalid resource id\");\r\n        return resourceList[_id];\r\n    }\r\n\r\n    function getResourceList() public view returns(string[] memory) {\r\n        return resourceList;\r\n    } \r\n}",
  "sourcePath": "F:/Prjcts/Capstone/identify/contracts/Resources.sol",
  "compiler": {
    "name": "solc",
    "version": "0.8.3+commit.8d00100c.Emscripten.clang"
  },
  "schemaVersion": "3.3.3",
  "updatedAt": "2021-04-19T07:19:37.023Z",
  "networkType": "ethereum",
  "devdoc": {
    "kind": "dev",
    "methods": {},
    "version": 1
  },
  "userdoc": {
    "kind": "user",
    "methods": {},
    "version": 1
  }
}